:100000006F004066130000001300000013000000A2
:100010001300000013000000130000001300000094
:100020001300000013000000130000001300000084
:08003000130000007300100032
:100038000000000000000000080300000C0300009E
:1000480000000000AA0500000000000000000000F9
:10005800AC050000AE050000000000000000000034
:10006800B005000000000000B2050000000000001C
:10007800B4050000B6050000B8050000BA05000088
:10008800BC050000BE050000C0050000C205000058
:10009800C4050000C6050000C8050000CA05000028
:1000A800CC050000CE050000D0050000D2050000F8
:1000B800D4050000D6050000D8050000DA050000C8
:1000C800DC050000DE050000E0050000E205000098
:1000D800E4050000E6050000E8050000EA05000068
:1000E800EC050000EE050000F0050000F205000038
:1000F800F4050000F6050000F8050000FA05000008
:10010800FC050000FE0500000006000002060000D5
:100118000406000006060000080600000A060000A3
:100128000C0600000E060000100600001206000073
:100138001406000016060000180600001A06000043
:100148001C0600006E1400002006000022060000B5
:100158002406000026060000280600002A060000E3
:100168002C0600002E0600003006000032060000B3
:100178003406000036060000380600003A06000083
:100188003C0600003E060000220D0000420600006A
:100198004406000046060000480600004A06000023
:1001A8004C0600004E0600005006000052060000F3
:1001B8005406000056060000580600005A060000C3
:1001C8005C0600005E060000600600006206000093
:1001D8000000000000000000000000000000000017
:1001E8000000000000000000000000000000000007
:0801F8000000000000000000FF
:10020000397101436EC619A0397141536AC866CA73
:1002100062CC5ECE19A0397101535AD056D252D455
:100220004ED64AD826DA22DC06DE330161408282CD
:1002300041114AC026C222C406C68282B24D410183
:10024000024D924C224CB24B4101024B924A224A3F
:10025000B2494101024992442244B24041018280A4
:100260003D432A876373C3029377F700BDEFADE583
:10027000937606FF3D8ABA960CC34CC30CC74CC795
:100280004107E36BD7FE11E28280B306C3408A06C2
:100290009702000096966780A6002307B700A30682
:1002A000B7002306B700A305B7002305B700A304D2
:1002B000B7002304B700A303B7002303B700A302CA
:1002C000B7002302B700A301B7002301B700A300C2
:1002D000B7002300B700828093F5F50F9396850051
:1002E000D58D93960501D58D61B79396270097021A
:1002F000000096968682E78086FA9680C1171D8F49
:100300003E96E374C3F8A5B77300203001A0EFF266
:100310009FF041110945B52BC12AEF10C01A716534
:1003200013050520EF10C009EF100006B7070020E5
:1003300083A507083725000013054577EF1000282F
:100340007D26AA853725000013054578EF10002784
:1003500037240000EF00906251E5EF1000013725CF
:1003600000001305857AEF10A036EF005011054903
:10037000B729000037240000EF102013631925016E
:10038000EF100014AA851385897BEF102023814587
:100390000145EF00B024AA849305B0030145EF00A6
:1003A000F0232AC681451305F004EF0030232AC448
:1003B0009305B0031305F004EF0050222AC2F9455B
:1003C00013058002EF0090211247A2463246AA8709
:1003D000A6851305C47BEF10601E1305401FEF10A8
:1003E000801459BF13054479EF10802EA5B7B717B5
:1003F00002409843B706FFF841111367170098C3EE
:10040000D84337060200758FD8C39843B706F7FE66
:10041000FD16758F98C39843B706FCFFFD16758FC0
:1004200098C3D843B70681FFFD16758FD8C398438C
:10043000B70600ECFD16758F98C33707FF0098C705
:1004400023A6070202C402C69843C166558F98C30B
:10045000B716024005679C42F18F3EC6A24785074A
:100460003EC4B24781E7A247E397E7FEB7170240D1
:100470009C431397E7006357070685473EC63247FC
:100480008547631FF704B7170240D843B706C1FF7B
:10049000FD16D8C3D843D8C3D84313670740D8C381
:1004A000D843758FD8C3D843B7062900558FD8C312
:1004B0009843B7060001558F98C398439316670079
:1004C000E3DD06FED843B7160240719BD8C3D8437C
:1004D00013672700D8C32147DC42B18BE39EE7FEB8
:1004E0004101828002C661BF371602405C42370775
:1004F00000209146B18B130707086385D700A146FA
:100500006388D702B7177A00938707201CC3B717F1
:100510000240DC43918393F6F700B70700209387EE
:100520000700B69794231C43B3D7D7001CC382801F
:1005300054425042C167C982BD8A7D8E938726008E
:1005400085CABD466389D702C1466389D702C545BE
:1005500081466393B700C1470DE637460240032644
:100560000680418A15C637167A00130606202DA08C
:100570008146C947D5B78546B547F9BF8146BD47CE
:10058000E1BF3716024050429315E600E3DD05FC5B
:1005900037163D0013060690B387C7021CC3A5DAC1
:1005A0001C438583A5B701A001A001A001A001A063
:1005B00001A001A001A001A001A001A001A001A033
:1005C00001A001A001A001A001A001A001A001A023
:1005D00001A001A001A001A001A001A001A001A013
:1005E00001A001A001A001A001A001A001A001A003
:1005F00001A001A001A001A001A001A001A001A0F3
:1006000001A001A001A001A001A001A001A001A0E2
:1006100001A001A001A001A001A001A001A001A0D2
:1006200001A001A001A001A001A001A001A001A0C2
:1006300001A001A001A001A001A001A001A001A0B2
:1006400001A001A001A001A001A001A001A001A0A2
:1006500001A001A001A001A001A001A001A001A092
:1006600001A001A0970100209381C12117810020E2
:1006700013014199172500001305453B97050020FC
:10068000938545981386018263FAC500832205008D
:1006900023A0550011059105E3EAC5FE13850182EB
:1006A000938541846377B500232005001105E36D30
:1006B000B5FEFD42739002BCAD4273904280B762BA
:1006C00000009382820873A0023097020000938298
:1006D000E29693E2320073905230EFF05FD19702CE
:1006E0000000938202C37390123473002030B7F776
:1006F000FF1F03A5477082809C4513F7070113F87D
:10070000F70001C7D8413368E8008E2113F7F50FD1
:1007100039C318418146854E3D4F930F80029302A5
:100720008004214E3396DE00B3F8C5006311160332
:100730009398260033131F011343F3FF3377E3002D
:10074000B318180133E7E800639FF70550C9850621
:10075000E39AC6FD18C11307F00F6375B70454413F
:100760002146854E3D4F930F800293028004414EF7
:10077000B398CE0033F715016392E80213172600F1
:1007800001173313EF001343F3FFB376D30033178E
:10079000E800D98E639DF701232A15010506E319A8
:1007A000C6FD54C18280E39457FA10C94DB7E39750
:1007B00057FE23281501DDB70CC98280B707014019
:1007C000635A0504DC4F93560501131805013707DA
:1007D000300013F6F60013580801B376E5006350B5
:1007E0000506639BE602930606010D46B316D60086
:1007F00093C6F6FFF58F99C9135755011377F73F45
:1008000012073317E800D98F6357050437070140F3
:100810005CCF8280DC4345BF1317B50063560700E9
:100820008D46B396C600E9B7135755011377F73FC6
:1008300012073317E8001347F7FFF98F6DBF639076
:10084000E602370601405442370700F17D17F98F61
:10085000758F58C2D5F1370701405CC382801317EA
:10086000B500635C07008D46B396C60093C6F6FFDD
:10087000FD8EB707000FD58FF1BF13575501120733
:100880003317E8001347F7FF7D8FB707000FD98FA5
:10089000D1B723A0A182828093870182944318213B
:1008A00081E63C21920721A894430546639FC60236
:1008B0003C21103192076314D60093E707F8B7E69E
:1008C00000E093F7F70FBA962380F64085469357DA
:1008D00057003397E6005441A5C2938707048A075F
:1008E000B7E600E0B69798C382808C43894663914F
:1008F000D50214313C216365D6008A06B6975DB7F0
:100900009386E6038A06B69793F7F70F920775B7B3
:1009100090438D46631CD60014313C216364D6009D
:100920008606E9BF9386C6078606F1BF94439147C2
:10093000E39EF6F81C31BDB7938707064DB737170E
:1009400002405C439146B18B6385D700A146638228
:10095000D706B7177A00938707201CC137160240C5
:100960005C4237070020130707019183BD8BBA97BC
:1009700094231C41B3D7D7005CC15442A1829D8A05
:10098000BA969422B3D6D70014C55442AD829D8A3C
:1009900036971823B3D7E7005CC55842398393765E
:1009A00037001387418036971823B3D7E7021CC955
:1009B00082805C435843C166C983758FB7F6FF1FB9
:1009C00083A6C670BD8B890713961601634806007F
:1009D000C54601466392D702C94739A88946638F45
:1009E000D702BD46638ED702C146638ED702C54685
:1009F00001466393D700C1471DEF374702400327E5
:100A00000780418B05C737177A0013070720B30704
:100A1000F7021CC121D61C41858381B701466DBFF9
:100A20000546B547D1BF0146BD47F9B737173D0069
:100A300013070790E9BFB7150240D8559316F70082
:100A4000D85563DF060411833D8B930617003717D3
:100A50007A00130707203357D70218C1D455A18253
:100A6000BD8A8DE295463307D702058318C1371733
:100A70000240585714413D8B050733D7E60218C191
:100A8000184171B785456394B600E546E9BFBD4599
:100A90006396B600D1463387E602C9BF8906E5BF33
:100AA0003D8B9306170037177A001307072033573B
:100AB000D702F1B799C5371702405C4B5D8D48CB23
:100AC0008280B7170240D84B1345F5FF798DC8CB0C
:100AD000828099C5371702401C4F5D8D08CF8280F8
:100AE000B7170240984F1345F5FF798D88CF828064
:100AF00099C5371702405C4F5D8D48CF8280B7178C
:100B00000240D84F1345F5FF798DC8CF8280EFF2B0
:100B10002FF21629F577FD17F58FF621DA25797171
:100B2000D58F1EA95625FD779387379FF58FD62140
:100B30002A842EC6D58F9625D58FB625D58F5EA54E
:100B40005E29C207C18393F7F7CFD98F5EA96808E2
:100B5000FD33B747014093870780B245631AF40419
:100B6000A25756246547B387E702C206C18698415B
:100B700063D20604060752244206B3D7E7021307DE
:100B800040064186B3D6E702B3F7E7029206635503
:100B900006028E0793872703B3D7E70213F7770080
:100BA000B367D700C207C1831EA445616FF08FEA07
:100BB000925745BF0A07C1B7920793872703B3D758
:100BC000E702BD8BD58FF9BF91C55E250967D98F27
:100BD0005EA582805A25F977FD17F98FD5BF13F7E7
:100BE000F50F85471583B395B7006319F700930791
:100BF000C500984301CED98D8CC382808946930766
:100C00004501E318D7FE93070501E5B793C5F5FF46
:100C1000F98DDDB793F5F51F4EA182804A2113753A
:100C2000F51F82800A216D8D3335A000828013F775
:100C3000F50F85461583B397B6006311D7025A2581
:100C4000F98F1A2101454207418381CB0545A181D6
:100C5000B315B5006D8F3335E0008280894663148B
:100C6000D7001A29F1BF5A29E1BFA1818547B3975F
:100C7000B70093C7F7FFC207C1831EA18280EFF2BE
:100C80002FDB4111854509653704055002C402C6B2
:100C900015351C20280093F7F70C1CA01C2093E7A7
:100CA00027001CA01C3093F7970F1CB0930700057A
:100CB0005EA0930780077EA083A781801CC483A7C2
:100CC000C1805CC41C3093F7F7031CB01C3093F751
:100CD000F70F1CB03C2093E707013CA03C2093E7B2
:100CE00087003CA03C2093E747003CA03C2093E7D2
:100CF00027003CA03C2093E717003CA09307600529
:100D00007C8485473EC62305010079361C3093E775
:100D100017001CB01C2093E717001CA041016FF0C6
:100D20006FD3B7070550982B098B15C7982B1377EE
:100D3000D70F98AB138741821443858AC1CA1443E5
:100D4000850614C3D8471307070FD8C79387C182F6
:100D50009843050798C3B7070550982B118B19CFF7
:100D6000982B1377B70F98AB03A7818098C703A779
:100D7000C180D8C723A2018223A60182B7070550EC
:100D8000982B058B11CB982B1377E70F98AB938794
:100D900081829843050798C3B7070550982B418B6C
:100DA00009C7982B1377F70E98ABB7070550982B08
:100DB000218B19CB982B372500001305057E13775F
:100DC000770F98ABEF00D0107300203014438506E6
:100DD00014C398471307070F98C78DBF83A7818057
:100DE0008605B7060550BE95930780073305F502C3
:100DF0009C2293F7E70F9CA29022136616002E9573
:100E000018211C3190A21315370093D65700137583
:100E1000850336959306B0043305D5020D839306FA
:100E20006002FD8B3307D7023A953D47B387E7024F
:100E30003E951D851375F50F8280B717014003A7F6
:100E400047C0FD769386F60F758F23A2E7C003A7F0
:100E500047C0C576FD161367073023A2E7C003A776
:100E600047C0758F23A2E7C003A747C08D66558F83
:100E700023A2E7C01307004023A8E7C005671307B4
:100E8000078023A8E7C08280EFF28FBA8564371409
:100E9000014093840480232894C013090040232830
:100EA00024C113052003EF00A06413052003232AA7
:100EB00094C0EF00E063130404C0232A24016FF000
:100EC0006FB9EFF2EFB68564371401409384048064
:100ED000232A94C013052003EF008061930700408C
:100EE0002328F4C013052003EF00806013052003BE
:100EF000232894C0EF00C05F130404C06FF08FB5C7
:100F0000EFF20FB385643714014093840480130516
:100F10002003EF00E05D13090040232894C023283C
:100F200024C113052003EF00A05C13052003232A2E
:100F300024C1EF00E05B13052003232A94C0EF00D7
:100F4000205B130404C06FF0EFB0EFF2CFAC056A82
:100F50002A89A144B71A0140130A0A809309004064
:100F600093178901E18713870AC063DF07062328E7
:100F7000470113052003AD2B1305200323A83AC115
:100F8000FD140609B52393F4F40F23AA3AC113798B
:100F9000F90F13840AC0E9F483A74AC0C574FD148D
:100FA000E58F23A2FAC083A74AC021671305200357
:100FB000D98F23A2FAC02D2B1305200323A83AC1F1
:100FC000052B03A58AC023AA3AC183A74AC00D678F
:100FD0002D81FD8C23A29AC083A74AC00589D98F91
:100FE00023A2FAC06FF06FA6232A470159B7EFF288
:100FF0008FA2B717014003A747C0C576FD16758FAE
:1010000023A2E7C003A747C0A1660569558F23A2A5
:10101000E7C0A1440144371A014093090040130975
:10102000098013052003E92123283AC183278AC0B8
:1010300006041374F40FB3F7270181C70504137472
:10104000F40F13052003FD14652193F4F40F232AF4
:101050003AC1E1F803274AC0C576FD16758F2322F1
:10106000EAC003274AC08D662285558F2322EAC035
:101070006FF0AF9DEFF2CF9B41112EC6AA842935A8
:1010800013050006D9352A841305400695212685C7
:101090006D3D498C13054006A129B2452E85753555
:1010A00019C50544393D228541016FF0AF9A13748B
:1010B000F40F33348000FDB7EFF28F9741112A848B
:1010C000E13313050006513513054006152122852D
:1010D000AD3D130540062929ED33130540060929C6
:1010E00065331305100695351305400611210137A8
:1010F0002AC63935F933324541016FF0AF95EFF229
:101100002F93411185451305C003E132896493870C
:1011100084007C82C1473EC64C008D473715014094
:10112000371901403EC4EFF02FDD1304800493070C
:1011300000634C00130509807C8222C6EFF0CFDBF0
:101140008567938707F44C00130509C07C8222C68B
:10115000EFF08FDA4C00938404F03715014064827D
:1011600022C6EFF06FD991474C00130509407C82ED
:1011700022C6EFF06FD841016FF0CF8DEFF24F8BA9
:10118000BD3FA147371401405CC82945692E8964D9
:10119000294544C8492E04C84D3185451305F00F33
:1011A000D13D930500084945F13513052003A52ECF
:1011B0007145193713140501418022044204754515
:1011C000E53D4180418D93150501A167C18193875C
:1011D00027FA638AF500372500001305C57EF92E2E
:1011E00005456FF02F872945C13D13140501418046
:1011F000220442042D45C9354180418D93150501D6
:10120000C181938424646389950037250000130508
:10121000857F6D260945F1B70D641304448093045E
:10122000A4160C3008200904B135E31C94FE0145D6
:101230004DBFEFE2FFFF0D64130404979304C40154
:101240000C30082009043D35E31C94FE6FF08F80BC
:10125000B367B5008D8BB9EBEFE29FFDAE842A84B6
:1012600081451305F00F393591451305000E1935E9
:101270009355240093F5F50F1305A005E53B93D591
:10128000240093F5F50F1305B005ED3393D58400D5
:1012900029800D889189C18D1305C005E13B8145E9
:1012A0001305000EC13B01456FE0DFFA0545828062
:1012B000EFE21FF82E84AA8481451305F00F5D3BF1
:1012C000A6851305300D7D3385451305F00F5D337D
:1012D000A285454545336FE0FFF7EFE27FF589478B
:1012E0006307F50663EEA70229C9130440059304BA
:1012F00010041309E00581451305F00FA53B930584
:1013000000041305700CBD33CA851305C00C9D3352
:10131000A6851305D00CB93BA2851305E00C2DA0C2
:101320008D47630DF5029147E311F5FC1304100797
:101330009304F003130920047DBF81451305F00FCA
:10134000153BC1451305700C35336FE0BFF0130436
:10135000F004930410041309500671BF13046006CF
:10136000930410041309200579B7EFE27FECD1351F
:10137000930500051305C003E13D854571450D3F0B
:101380000145A13F6FE01FEDEFE29FEA4111854566
:101390001145EFF00FF4BD47371401407C82C1477F
:1013A0003EC64C008D47130504803EC4EFF0CFB419
:1013B0008D4513050480EFF02FC041016FE09FE9D8
:1013C000EFE21FE779712A8985453705100002C6CB
:1013D00002C8EFF0EFF185452145EFF08FEF85452D
:1013E0000545EFF00FEF3705328085451105EFF029
:1013F000EFBC37140140C147FC828D44E1474C08E3
:10140000130504C026CC3ECEEFF00FAF93070002C9
:10141000FC824C0893078004130504C026CC3ECE02
:10142000EFF08FADB7070C000C10375500403ED4DD
:101430004AD002D223160102EFF06FED0546930564
:10144000505237550040EFF08FF9930750147C86C7
:1014500085475C87680085473EC8EFF0EFC3854548
:1014600037550040EFF04FF645616FE0BFDE4111A8
:10147000930550523755004022C6EFF04FFB854789
:101480006311F5022A8437550040EFF02FF92388C5
:10149000A1829305505237550040A3888182EFF016
:1014A000CFFC324441017300203093871183942391
:1014B000054701456395E6002380070005458280C6
:1014C00003C501838280B707002083A70708371769
:1014D0007A0013070720B3D7E70293F7F70F238AA1
:1014E000F1821307803EB387E7022399F18282805D
:1014F000B7F700E0D8438146799BD8C303C741833F
:101500003306A70290CBD4CB98431367070198C347
:1015100098431367170298C3D843058B75DF984328
:10152000799B98C38280B7F700E0D8438146799BC6
:10153000D8C303D721833306A70290CBD4CB9843DB
:101540001367070198C398431367170298C3D843DA
:10155000058B75DF9843799B98C38280EFE25FCD5E
:101560002E89B28401446345940026856FE09FCEA6
:101570009305000437550040EFF0CFEA75D9B30763
:10158000890083850700375500400504C205C181E5
:10159000EFF04FE8C9BF138701811C439386418454
:1015A0003E95636BD500B78600209386068063E581
:1015B000A60008C33E858280FD57EDBF39713EDA33
:1015C0002ED232D436D63AD842DC46DE93874181D9
:1015D00022CC804326CA06CEAA8409C41C4C99E3B7
:1015E0002285ED290C4454102686228536C6EF004C
:1015F0007012F2406244D24421618280011126CAF5
:101600004AC806CE22CC4EC652C4AA842E8901C531
:101610001C4D91E3E1219C4C804499E326857D2972
:10162000971700009387C738631BF402C0405E24FD
:10163000A18BB1C71C48A1C7FD59294A1C44834549
:101640000900FD17B1E91CC463DD07062286A94520
:1016500026856120FD576308F502294535A09717B7
:1016600000009387E7366314F4008044C9B79717E6
:1016700000009387E731E31CF4FAC0444DBFA28514
:101680002685112A55D97D55F2406244D2444249FB
:10169000B249224A056182801CC4050963D707004C
:1016A000184C63CAE700638845011C401387170084
:1016B00018C08CA361B7228626850520E31035F972
:1016C000D9B71C401387170018C0294798A371B7D2
:1016D00093874181AA85884315B7011122CC26CA78
:1016E0004AC806CE4EC6AA842E89328401C51C4D36
:1016F00091E3ED26971700009387872B6317F40675
:10170000C0401C4C1CC45E24A18BC1C31C48B5CF77
:101710001C4808409379F90F1379F90F1D8D5C4827
:101720006346F500A2852685692C25E51C44050540
:10173000FD171CC41C401387170018C023803701F5
:101740005C486388A7005E24858B81CBA94763161C
:10175000F900A2852685B5240DEDF24062444A8544
:10176000D2444249B24905618280971700009387AD
:1017700027266314F400804469B797170000938705
:101780002721E310F4F8C044ADBFA28526852120AF
:1017900041D17D59D9B741119387418126C28443F4
:1017A00022C44AC006C62A892E8489C49C4C99E367
:1017B00026852D26971700009387871F631BF40249
:1017C000C0400317C40093170701C18393F6870035
:1017D000ADEA93F6070195EEA5472320F9001367BC
:1017E00007045AA47D55B240224492440249410163
:1017F0008280971700009387A71D6314F40080442C
:10180000C9B7971700009387A718E31CF4FAC044E0
:101810004DBF918B9DC34C5889C993074404638481
:10182000F5004A853123232A04025E242322040082
:1018300093F7B7FD5EA41C481CC05E2493E78700A5
:101840005EA41C4899EB5E241307002093F7072839
:101850006385E700A2854A85A1215E2413F717005E
:101860001DC35C4823240400B307F0401CCC1C4873
:101870000145B5FB8317C40013F707082DD793E77D
:1018800007045EA485B7898B014791E3584818C4C3
:10189000F9BFDE25011122CC26CA06CE4AC84EC6A3
:1018A00013F78700AA842E8479EBD841634DE000BA
:1018B000B841634AE0000145F2406244D2444249E3
:1018C000B2490561828058547DD703A904009396DC
:1018D000370123A0040063DB060670485E24918B69
:1018E00099C75C401D8E5C5899C33C401D8E5C546A
:1018F0000C50814626858297FD575A24631DF500BA
:101900009440F54763E8D706B70740208507B3D76B
:10191000D700858BA5C31C48232204001CC0931745
:10192000370163D80700FD576314F5009C4091E32D
:1019300068C84C5823A02401BDDD93074404638488
:10194000F5002685F526232A0402B5B70C5001467A
:10195000854626850297FD572A86E311F5F89C40B7
:10196000B5DF75476385E70059476393E70423A014
:10197000240191B7136707045AA47D5535BF83A985
:101980000501E38A09F203A905008D8B23A0350127
:1019900033093941014791E3D84918C4E35D20F187
:1019A0001C540C50CA864E86268582976347A00039
:1019B0005E2493E707045EA4C9B7AA993309A94036
:1019C000F1BF9C49B9CF011122CC06CE2A8411C5A2
:1019D0001C4D81E72EC61922B24597170000938748
:1019E00027FD639BF5004C408397C50095C7228572
:1019F0006244F240056171BD97170000938747FD6F
:101A00006394F5000C44CDB797170000938747F80F
:101A1000E39CF5FC4C44C9BFF240624401450561BA
:101A2000828001458280411122C406C62A844EA5C7
:101A300072A523200500232205002324050023226C
:101A4000050623280500232A0500232C050021462E
:101A500081451305C505EFE0BF8097170000938708
:101A600067B15CD097170000938787B31CD4971792
:101A70000000938767B75CD4971700009387C7B9B6
:101A800000D01CD8B240224441018280970500005A
:101A9000938565F3A9A2411126C21306800693849B
:101AA000F5FFB384C4024AC02E8922C406C69385BA
:101AB00044071D262A8401CD232005002322250169
:101AC000310508C4138684068145EFE06FF922854D
:101AD000B240224492440249410182801C4DADE350
:101AE000411106C622C497070000938767FA1CD5E8
:101AF000938781819C4323240504232605042328FE
:101B000005046314F50085471CCD2A841D2848C0B0
:101B10002285052808C422852D2048C44840014656
:101B20009145113708440546A545F53D4844094609
:101B3000C945D53D85471CCCB24022444101828035
:101B4000828041119387818126C284434AC006C6A0
:101B50009C4C22C42A8999E32685493793848404BE
:101B60008044DC40FD1763D607009C40B9CF844019
:101B7000C5BF0317C40039E7C177850723220406D0
:101B80002320040023220400232404005CC423280F
:101B90000400232A0400232C040021468145130558
:101BA000C405EFE0EFEB232A0402232C04022324D4
:101BB0000404232604042285B240224492440249AC
:101BC000410182801304840671BF91454A85E13545
:101BD00088C051FDB1472320F9000144E9BF797164
:101BE00022D44AD052CC56CA5AC85EC606D626D28D
:101BF0004ECE2A8AAE8A130485040149054BFD5B4B
:101C000009ECB25022544A8592540259F249624A70
:101C1000D24A424BB24B456182800444832944003E
:101C2000FD1963D409000040E1BFDE24637BFB00A3
:101C30008397E40063877701A6855285829A33698A
:101C4000A90093848406E9BF1971A6DAAE8483954E
:101C5000E500A2DC86DE328463DB0500DE2423A0FF
:101C6000060093F7070885E7930700401DA030089A
:101C700036C6EF00F01FB246E34205FE7247BD676D
:101C8000F98F7977BA9793B717009CC2F1BF930782
:101C900000041CC0F6506654D65401450961828088
:101CA000DE25011122CC06CE26CA4AC8898B2E8495
:101CB00089CF930774041CC01CC885475CC8F240D8
:101CC0006244D24442490561828074003000AA8493
:101CD000A53FA2452A892685012219E98317C40058
:101CE00013F7072069FFF19B93E727005EA4D1B7A4
:101CF000970700009387C7D99CD45E2408C008C802
:101D000093E707085EA4A2475CC8B24781CF83155A
:101D1000E4002685EF00701811C55E24F19B93E75F
:101D200017005EA45E243369F9002316240141BF25
:101D3000DDC183A7C5FF411122C406C626C2138494
:101D4000C5FF63D307003E94AA84EF00D01B93879E
:101D500081839C4381EF2322040023AC81822244AF
:101D6000B2402685924441016F00101A637EF40050
:101D700014403307D4006396E7009843DC4336975A
:101D800018C05CC0D9BFBA87D84319C3E37DE4FE4D
:101D900094433386D700631F86001040B29694C3E5
:101DA0003386D700E31DC7FA10435843B29694C355
:101DB000D8C375B76375C400B1479CC04DB7104018
:101DC000B306C4006316D70014435843B29614C038
:101DD00058C0C0C369B78280011126CA93843500F8
:101DE000F19806CE22CC4AC84EC6A104B14763F38F
:101DF000F404B14463E2B4042A89EF00D01093875D
:101E0000818398433A8439E09387C1839C4391E767
:101E100081454A850D2F23AEA182A6854A852527B7
:101E2000FD5963193507B1472320F9004A85EF00B2
:101E3000B00D29A0E3D004FCB1471CC10145F2401C
:101E40006244D2444249B249056182801C40858F78
:101E500063CF0702AD4663F6F6001CC03E9404C093
:101E600031A05C406313870223ACF1824A85EF0006
:101E7000B0091305B4009307440061993307F54096
:101E80005DDF3A94898F1CC05DBF5CC3C5B72287F4
:101E9000404095BF130435007198E30285FCB305FB
:101EA000A4404A854D25E31C35FBB5BF1C46FD17F4
:101EB0001CC663DA0700184E63C5E700A9476394A0
:101EC000F5006FF09F811C422E851387170018C202
:101ED0008CA38280011122CC26CA4AC84EC652C4A5
:101EE00006CE2A89AE893284B304D6007D5A6314A3
:101EF0009400014501A80C204E864A85453F050403
:101F0000E31745FFF2406244D2444249B249224AB3
:101F100005618280357122CD26CB4AC94EC706CFD6
:101F200052C556C35AC1DEDEE2DCE6DAAA89AE84C7
:101F30003289368409C51C4D99E3EFF03FBA9717F3
:101F400000009387E7A66397F40C83A44900DE247E
:101F5000A18BFDC39C48EDC393070002A304F102CB
:101F60009307000302D22305F10222C6930B50020D
:101F7000971A0000938ACAA7054C294B4A841C2053
:101F800099C3639E770DB30C2441638D0C00E686E4
:101F90004A86A6854E853D3FFD57630FF51C925638
:101FA000E69636D21C206389071CFD5713091400DE
:101FB00002C802CE3ECA02CCA309010482D48345E2
:101FC000090015465685252713041900C24751E913
:101FD00013F7070109C713070002A309E10413F768
:101FE000870009C71307B002A309E104834609006B
:101FF0001307A002638FE606F2474A84814625460E
:10200000182093051400130707FD6377E60AB5CA85
:102010003ECE85A8971700009387879B6395F400B1
:1020200083A489002DB79717000093876796E390E4
:10203000F4F283A4C90021BFA6854E85EFF0AFF569
:1020400001DD7D55FA406A44DA444A49BA492A4AD0
:102050009A4A0A4BF65B665CD65C0D618280050489
:1020600039BF330555413315AC00C98F3EC82289AD
:10207000B9B7324793064700184336C6634707028D
:102080003ACE18209307E002631DF7041830930737
:10209000A002631BF702B2470904138747009C4361
:1020A0003AC663C107023ECA2DA83307E04093E752
:1020B00027003ACE3EC8F1B7B387670385462E8422
:1020C000BA973DBFFD57C5B7050402CA814681478F
:1020D0002546182093051400130707FD6374E606D0
:1020E000F9F20C200D46171500001305E5900125A7
:1020F00011CD97170000938727901D8D930700043B
:10210000B397A700424505045D8D2AC80C201946E7
:10211000171500001305858E130914002304B1025E
:10212000F92335C197E7FFFF9387C7ED95E742474E
:10213000B2471377071009CF91073EC69257D2973F
:102140003ED22DBDB387670385462E84BA9751B71B
:102150009D07E19BA107D5B77800970600009386FD
:10216000A6D726860C084E8597000000E7000000E1
:10217000FD572A8AE314F5FCDE2493F70704E39263
:1021800007EC1255C1B57800970600009386C6D4B7
:1021900026860C084E85012AE1BF797156CA9C49F2
:1021A000BA8A984522D426D24ECE52CC06D64AD0F0
:1021B0005AC85EC6AA892E84B284368A63D3E700E1
:1021C000BA879CC00347340419C385079CC01C40D0
:1021D00093F7070281C79C4089079CC0032904002C
:1021E00013796900631A0900130B9401FD5B5C44C9
:1021F0009840998F634CF9041C408346340493F74C
:102200000702B336D000A5EB13063404D2854E8501
:10221000829AFD576303F5041C4011469840998B40
:10222000544481446397C700B384E64063D30400F9
:1022300081441C4418486354F700998FBE940149A7
:1022400069047D5B63982405014509A885465A8683
:10225000D2854E85829A631E75017D55B2502254F7
:1022600092540259F249624AD24A424BB24B4561FA
:1022700082800509ADBF3307D40013060003A30114
:10228000C7040347540493871600A2978906A381C5
:10229000E7049DBF85462286D2854E85829AE30E4D
:1022A00065FB050945B7797122D426D24AD04ECEB6
:1022B00006D652CC56CA5AC8B689942D93079006B2
:1022C0003289AA842E8413863504638DF60263E274
:1022D000D706930780056385F61863EDD700638DF5
:1022E000062093073004638EF60A930A2404230120
:1022F000D404C9A0930730066385F60A9307400605
:10230000E395F6FE1C40084393F607089305450045
:10231000C5C61C410CC363D807001307D002B3071E
:10232000F040A301E404970600009386A66D2947B8
:1023300065A8930700076381F61663E5D702930744
:10234000E0066388F6189307F006E390F6FA0C406F
:102350001C4313F80508138547006307080608C3E4
:102360009C4385A893075007E383F6FE93078007F5
:102370006388F61293073007E399F6F61C43D041C1
:1023800081459386470014C383AA07005685852696
:1023900001C53305554148C05C401CC8A301040475
:1023A00061A81C43930A2404938647009C4314C3EA
:1023B0002301F4048547D5B793F607041C410CC3E9
:1023C000B9DAC207C18781BF93F5050408C3C9D92B
:1023D0009E231307F0066386E60E97060000938699
:1023E00066622947A30104044C400CC463C5050080
:1023F00008406D9908C099E3B28A89CDB28AB3F5D5
:10240000E702FD1AB6958C212380BA00B3D5E70206
:1024100063FFE70AA147631EF7001C40858B91CB41
:1024200058401C4863C7E70093070003A38FFAFED8
:10243000FD1A3306564110C84E87CA867000A28521
:102440002685A13B7D5A631D450B7D55B250225414
:1024500092540259F249624AD24A424B4561828003
:10246000A382D504970600009386C6590C40084302
:1024700013F805081C411105630D080208C313F782
:10248000150001C793E505020CC04147A1FF0C40B0
:1024900093F5F5FD0CC0B9B79C4193E707029CC1C9
:1024A00093078007A302F404970600009386C6569C
:1024B00075BF13F8050408C3E30308FCC207C18312
:1024C0007DBF970600009386E653214721BFAE8764
:1024D0003DB794411C43CC4913F8060813854700C7
:1024E0006306080008C39C438CC339A008C393F655
:1024F00006049C43F5DA8EA323280400B28A2DBF7C
:1025000014485686CA8526858299E30045F51C4005
:10251000898B8DE7B2474844E35AF5F23E853DB7D3
:1025200085465686CA8526858299E30065F3050AA5
:102530005C443247998FE345FAFEE9BF014A930AAA
:1025400094017D5BF5B7411122C42A842E8523A016
:10255000018406C6EFF02F84FD576317F5009387BB
:1025600001849C4391C31CC0B2402244410182803B
:10257000411122C42E848395E50006C67922634961
:1025800005007C48AA977CC8B24022444101828061
:102590005E247D777D17F98F5EA4FDB7DE250111DE
:1025A00022CC26CA4AC84EC606CE93F70710AA8484
:1025B0002E843289B68991C78395E5008946014604
:1025C00009225E247D777D17F98F5EA48315E400D0
:1025D0006244F240CE864A86B24942492685D244B8
:1025E000056125A8411122C42E848395E50006C605
:1025F000C928FD575A24631AF500FD77FD17F98F96
:102600005EA4B2402244410182808567D98F5EA4D6
:1026100068C8C5BF8395E50005A8411122C42A8476
:102620002E85B285368623A0018406C6EFE01FF30F
:10263000FD576317F500938701849C4391C31CC029
:10264000B240224441018280411122C42A842E8555
:1026500023A0018406C6C520FD576317F5009387A4
:1026600001849C4391C31CC0B2402244410182803A
:10267000411122C42A842E85B28523A0018406C676
:10268000C920FD576317F500938701849C4391C3CC
:102690001CC0B240224441018280411122C42A84DC
:1026A0002E8523A0018406C65D20FD576317F50023
:1026B000938701849C4391C31CC0B24022444101D2
:1026C0008280411122C42A842E85B285368623A0B9
:1026D000018406C65920FD576317F50093870184CE
:1026E0009C4391C31CC0B24022444101828093F5B7
:1026F000F50F2A966314C500014582801C21E38EE4
:10270000B7FE0505C5BF82808280411122C42A849C
:102710002E85B285368623A0018406C6A920FD57E2
:102720006317F500938701849C4391C31CC0B2409A
:102730002244410182809307800523A0F1847D55C6
:1027400082809307800523A0F1847D5582809307C2
:10275000800523A0F184014582809307800523A092
:10276000F1847D5582809307800523A0F1847D55F7
:102770008280000053797374656D436C6B3A2564F5
:102780000D0A00004368697049443A253038780DD5
:102790000A00000043616D657261204D6F64656CD5
:1027A000204572720D0000005247423536355F4DAC
:1027B0004F44450D0000000025640A006C753A2561
:1027C0002D356472753A252D35646C623A252D35A8
:1027D0006472623A252D3564633A252D35640A000A
:1027E0004649464F204F560D000000004D49443ADF
:1027F000253038780D0A00005049443A25303878A1
:102800000D0A0000FF002CFF2EDFFF013C321100FB
:10281000090204D813E513E014482C0C33783A333A
:102820003BFB3E0043111610399235DA221A37C3AA
:10283000230034C0361A068807C00D870E414C00AD
:1028400048005B0042034A812199244024FF253837
:10285000250026825C00630046000C3C61706280AB
:102860007C05208028306C006D806E0070027194B1
:1028700073C13D345A5712001711187519011A9770
:102880003236030F37404FCA50A85A236D006D38B7
:10289000FF00E57FF9C04124E01476FF33A0422019
:1028A00043184C0087D5883FD703D910D382C80876
:1028B000C9807C007D007C037D487D487C087D20AC
:1028C0007D107D0E9000910E911A9131915A91696F
:1028D0009175917E9188918F919691A391AF91C4BA
:1028E00091D791E891209200930693E39305930585
:1028F000930093049300930093009300930093003C
:1029000093009600970897199702970C9724973091
:102910009728972697029798978097009700C3EF7C
:10292000A400A800C511C651BF80C710B666B8A5DF
:10293000B764B97CB3AFB497B5FFB0C5B194B20F6B
:10294000C45CC0C8C1968C00863D50005190522C8A
:102950005300540055885A905B2C5C05D302C3ED9C
:102960007F00DA09E51FE167E000DD7F0500000078
:10297000FF00DA09D703DF0233A03C00E167FF0163
:10298000E000E100E500D700DA00E0000000000010
:102990000000000000000000000000000000000037
:1029A0000000000000000000000000000000000027
:1029B0000000000000000000000000000000000017
:1029C0000000000000000000000000000000000007
:1029D00000000000000000000000000000000000F7
:1029E000000000000000000000000000232D302B3C
:1029F00020000000686C4C00656667454647000093
:102A00003031323334353637383941424344454624
:102A100000000000303132333435363738396162E6
:082A200063646566000000001C
:102A28000000000000000000010203040607080976
:102A3800000000000102030401020304060708095C
:102A480000000000AC290000CC2900008C290000FF
:102A5800000000000000000000000000000000006E
:102A6800000000000000000000000000000000005E
:102A7800000000000000000000000000000000004E
:102A8800000000000000000000000000000000003E
:102A9800000000000000000000000000000000002E
:102AA80000D8B8050204060800A0002078A000207D
:102AB800C4000020200000202000002000000000AA
:00000001FF
