:100000006F000066130000001300000013000000E2
:100010001300000013000000130000001300000094
:100020001300000013000000130000001300000084
:08003000130000007300100032
:100038000000000000000000080300000C0300009E
:1000480000000000A60500000000000000000000FD
:10005800A8050000AA05000000000000000000003C
:10006800AC05000000000000AE0500000000000024
:10007800B0050000B2050000B4050000B605000098
:10008800B8050000BA050000BC050000BE05000068
:10009800C0050000C2050000C4050000C605000038
:1000A800C8050000CA050000CC050000CE05000008
:1000B800D0050000D2050000D4050000D6050000D8
:1000C800D8050000DA050000DC050000DE050000A8
:1000D800E0050000E2050000E4050000E605000078
:1000E800E8050000EA050000EC050000EE05000048
:1000F800F0050000F2050000F4050000F605000018
:10010800F8050000FA050000FC050000FE050000E7
:1001180000060000020600000406000006060000B3
:10012800080600000A0600000C0600000E06000083
:100138001006000012060000140600001606000053
:10014800180600005A1400001C0600001E060000D5
:1001580020060000220600002406000026060000F3
:10016800280600002A0600002C0600002E060000C3
:100178003006000032060000340600003606000093
:10018800380600003A060000180D00003E06000080
:100198004006000042060000440600004606000033
:1001A800480600004A0600004C0600004E06000003
:1001B80050060000520600005406000056060000D3
:1001C800580600005A0600005C0600005E060000A3
:1001D8000000000000000000000000000000000017
:1001E8000000000000000000000000000000000007
:0801F8000000000000000000FF
:10020000397101436EC619A0397141536AC866CA73
:1002100062CC5ECE19A0397101535AD056D252D455
:100220004ED64AD826DA22DC06DE330161408282CD
:1002300041114AC026C222C406C68282B24D410183
:10024000024D924C224CB24B4101024B924A224A3F
:10025000B2494101024992442244B24041018280A4
:100260003D432A876373C3029377F700BDEFADE583
:10027000937606FF3D8ABA960CC34CC30CC74CC795
:100280004107E36BD7FE11E28280B306C3408A06C2
:100290009702000096966780A6002307B700A30682
:1002A000B7002306B700A305B7002305B700A304D2
:1002B000B7002304B700A303B7002303B700A302CA
:1002C000B7002302B700A301B7002301B700A300C2
:1002D000B7002300B700828093F5F50F9396850051
:1002E000D58D93960501D58D61B79396270097021A
:1002F000000096968682E78086FA9680C1171D8F49
:100300003E96E374C3F8A5B77300203001A0EFF266
:100310009FF00945AD2BF922EF10802509651305E3
:100320000558EF10A008EF10E004B707002083A5E0
:100330000708373500001305C581EF10C032752658
:10034000AA85373500001305C582EF10C031373557
:1003500000001305C583EF10404237350000130538
:100360004585EF10601B89451545EF10201D37347A
:100370000000EF00D0632DE11305803EEF10402513
:10038000EF00107C1305803EEF108024373500000D
:1003900013050587EF10603EEF00307C1305803EAB
:1003A000EF1000238544EF00500DB73900003734BB
:1003B0000000EF1000136318950083C54183138577
:1003C000C987EF10402A13050488EF10003B13057E
:1003D000803EEF10E01FF1BF1305C485EF10E03938
:1003E0001305803EEF10C01E69B7B717024098434F
:1003F000B706FFF841111367170098C3D8433706B3
:100400000200758FD8C39843B706F7FEFD16758FA7
:1004100098C39843B706FCFFFD16758F98C3D84361
:10042000B70681FFFD16758FD8C39843B70600EC59
:10043000FD16758F98C33707FF0098C723A60702DC
:1004400002C402C69843C166558F98C3B7160240CE
:1004500005679C42F18F3EC6A24785073EC4B2475E
:1004600081E7A247E397E7FEB71702409C43139743
:10047000E7006357070685473EC632478547631F37
:10048000F704B7170240D843B706C1FFFD16D8C31B
:10049000D843D8C3D84313670740D8C3D843758F10
:1004A000D8C3D843B7062900558FD8C39843B70699
:1004B0000001558F98C3984393166700E3DD06FE4D
:1004C000D843B7160240719BD8C3D843136727009F
:1004D000D8C32147DC42B18BE39EE7FE4101828015
:1004E00002C661BF371602405C42370700209146C2
:1004F000B18B130707086385D700A1466388D7022D
:10050000B7177A00938707201CC3B7170240DC4354
:10051000918393F6F700B707002093870700B697FB
:1005200094231C43B3D7D7001CC38280544250424B
:10053000C167C982BD8A7D8E9387260085CABD4664
:100540006389D702C1466389D702C5458146639353
:10055000B700C1470DE63746024003260680418AB0
:1005600015C637167A00130606202DA08146C94706
:10057000D5B78546B547F9BF8146BD47E1BF3716B8
:10058000024050429315E600E3DD05FC37163D00BE
:1005900013060690B387C7021CC3A5DA1C438583E4
:1005A000A5B701A001A001A001A001A001A001A088
:1005B00001A001A001A001A001A001A001A001A033
:1005C00001A001A001A001A001A001A001A001A023
:1005D00001A001A001A001A001A001A001A001A013
:1005E00001A001A001A001A001A001A001A001A003
:1005F00001A001A001A001A001A001A001A001A0F3
:1006000001A001A001A001A001A001A001A001A0E2
:1006100001A001A001A001A001A001A001A001A0D2
:1006200001A001A001A001A001A001A001A001A0C2
:1006300001A001A001A001A001A001A001A001A0B2
:1006400001A001A001A001A001A001A001A001A0A2
:1006500001A001A001A001A001A001A001A001A092
:1006600097010020938101221781002013018199B5
:10067000172500001305C54697050020938585982A
:100680001386018263FAC5008322050023A055006A
:1006900011059105E3EAC5FE138501829385C184A6
:1006A0006377B500232005001105E36DB5FEFD421B
:1006B000739002BCAD4273904280B7620000938297
:1006C000820873A00230970200009382229793E27F
:1006D000320073905230EFF05FD1970200009382A6
:1006E00042C37390123473002030B7F7FF1F03A585
:1006F000477082809C4513F7070113F8F70001C784
:10070000D8413368E8008E2113F7F50F39C318413B
:100710008146854E3D4F930F800293028004214E07
:100720003396DE00B3F8C5006311160393982600D4
:1007300033131F011343F3FF3377E300B31818019A
:1007400033E7E800639FF70550C98506E39AC6FDC5
:1007500018C11307F00F6375B70454412146854E45
:100760003D4F930F800293028004414EB398CE0018
:1007700033F715016392E8021317260001173313AC
:10078000EF001343F3FFB376D3003317E800D98E9D
:10079000639DF701232A15010506E319C6FD54C11F
:1007A0008280E39457FA10C94DB7E39757FE232888
:1007B0001501DDB70CC98280B7070140635A0504F3
:1007C000DC4F93560501131805013707300013F667
:1007D000F60013580801B376E50063500506639BE5
:1007E000E602930606010D46B316D60093C6F6FF41
:1007F000F58F99C9135755011377F73F1207331730
:10080000E800D98F63570504370701405CCF828029
:10081000DC4345BF1317B500635607008D46B396FA
:10082000C600E9B7135755011377F73F120733177F
:10083000E8001347F7FFF98F6DBF6390E6023706B4
:1008400001405442370700F17D17F98F758F58C268
:10085000D5F1370701405CC382801317B500635C94
:1008600007008D46B396C60093C6F6FFFD8EB70708
:10087000000FD58FF1BF1357550112073317E8004A
:100880001347F7FF7D8FB707000FD98FD1B723A08C
:10089000A1828280938701829443182181E63C21C2
:1008A000920721A894430546639FC6023C2110315C
:1008B00092076314D60093E707F8B7E600E093F7D2
:1008C000F70FBA962380F640854693575700339723
:1008D000E6005441A5C2938707048A07B7E600E003
:1008E000B69798C382808C4389466391D5021431B0
:1008F0003C216365D6008A06B6975DB79386E6030A
:100900008A06B69793F7F70F920775B790438D460F
:10091000631CD60014313C216364D6008606E9BF0F
:100920009386C6078606F1BF94439147E39EF6F887
:100930001C31BDB7938707064DB7371702405C439C
:100940009146B18B6385D700A1466382D706B7175E
:100950007A00938707201CC1371602405C42370794
:100960000020130707019183BD8BBA9794231C4184
:10097000B3D7D7005CC15442A1829D8ABA96942213
:10098000B3D6D70014C55442AD829D8A369718233A
:10099000B3D7E7005CC55842398393763700138795
:1009A000418036971823B3D7E7021CC982805C4385
:1009B0005843C166C983758FB7F6FF1F83A6C670FB
:1009C000BD8B89071396160163480600C54601468C
:1009D0006392D702C94739A88946638FD702BD46BB
:1009E000638ED702C146638ED702C5460146639324
:1009F000D700C1471DEF3747024003270780418BCF
:100A000005C737177A0013070720B307F7021CC181
:100A100021D61C41858381B701466DBF0546B54788
:100A2000D1BF0146BD47F9B737173D0013070790FF
:100A3000E9BFB7150240D8559316F700D85563DFC4
:100A4000060411833D8B9306170037177A001307AE
:100A500007203357D70218C1D455A182BD8A8DE231
:100A600095463307D702058318C1371702405857F8
:100A700014413D8B050733D7E60218C1184171B701
:100A800085456394B600E546E9BFBD456396B6006B
:100A9000D1463387E602C9BF8906E5BF3D8B930681
:100AA000170037177A00130707203357D702F1B71B
:100AB00099C5371702405C4B5D8D48CB8280B717D4
:100AC0000240D84B1345F5FF798DC8CB828099C57C
:100AD000371702401C4F5D8D08CF8280B717024048
:100AE000984F1345F5FF798D88CF828099C53717C8
:100AF00002405C4F5D8D48CF8280B7170240D84FCF
:100B00001345F5FF798DC8CF8280EFF26FF2162979
:100B1000F577FD17F58FF621DA257971D58F1EA9A6
:100B20005625FD779387379FF58FD6212A842EC6C9
:100B3000D58F9625D58FB625D58F5EA55E29C207A0
:100B4000C18393F7F7CFD98F5EA96808FD33B74704
:100B5000014093870780B245631AF404A2575624D4
:100B60006547B387E702C206C186984163D206048F
:100B7000060752244206B3D7E70213074006418610
:100B8000B3D6E702B3F7E7029206635506028E0773
:100B900093872703B3D7E70213F77700B367D7002C
:100BA000C207C1831EA445616FF0CFEA925745BFCB
:100BB0000A07C1B7920793872703B3D7E702BD8B14
:100BC000D58FF9BF91C55E250967D98F5EA5828053
:100BD0005A25F977FD17F98FD5BF13F7F50F85471C
:100BE0001583B395B7006319F7009307C5009843C1
:100BF00001CED98D8CC38280894693074501E318C5
:100C0000D7FE93070501E5B793C5F5FFF98DDDB76D
:100C100093F5F51F4EA182804A211375F51F82803E
:100C20000A216D8D3335A000828013F7F50F8546BC
:100C30001583B397B6006311D7025A25F98F1A218D
:100C400001454207418381CB0545A181B315B5001C
:100C50006D8F3335E000828089466314D7001A29EE
:100C6000F1BF5A29E1BFA1818547B397B70093C768
:100C7000F7FFC207C1831EA18280EFF26FDB411133
:100C8000854509653704055002C402C615351C2088
:100C9000280093F7F70C1CA01C2093E727041CA046
:100CA0001C3093F7970F1CB0930700407EA083A7DA
:100CB00081801CC483A7C1805CC41C3093F7F703F8
:100CC0001CB01C3093E707081CB03C2093E70701D9
:100CD0003CA03C2093E787003CA03C2093E74700E2
:100CE0003CA03C2093E727003CA03C2093E7170062
:100CF0003CA0930760057C8485473EC62305010020
:100D0000513E1C3093E717001CB01C2093E71700DE
:100D10001CA041016FF00FD4B7070550982B098B29
:100D200005CB982B1377D70F98AB1387C182144349
:100D3000850614C3138741821443858AD5CE144394
:100D4000850614C3D8478566938606803697D8C72C
:100D5000B7070550982B118B69C3411122C626C4D1
:100D60004AC2982B81441377B70F98AB9823375911
:100D700000201377E70F98A31387C1821C431384C5
:100D8000C182AA071CC31C4063E2F408B7070550E0
:100D900098231367170098A303A7818098C703A718
:100DA000C180D8C72320040023A20182B7070550C1
:100DB000982B058B11CB982B1377E70F98AB938764
:100DC00081829843050798C3B7070550982B418B3C
:100DD00009C7982B1377F70E98ABB7070550982BD8
:100DE000218B09C7982B1377770F98AB3244A24415
:100DF00012494101730020301443850614C39847FB
:100E0000856693860680369798C799B7B307990089
:100E100088238504EF00406EBDB7B7070550982BB7
:100E2000058B11CB982B1377E70F98AB93878182B3
:100E30009843050798C3B7070550982B418B09C7FE
:100E4000982B1377F70E98ABB7070550982B218B8B
:100E500019C7982B1377770F98AB73002030730066
:100E60002030B717014003A747C0FD769386F60FE1
:100E7000758F23A2E7C003A747C0C576FD16136789
:100E8000073023A2E7C003A747C0758F23A2E7C09E
:100E900003A747C08D66558F23A2E7C01307004004
:100EA00023A8E7C005671307078023A8E7C082804F
:100EB000EFF20FB88564371401409384048023282F
:100EC00094C013090040232824C113052003EF0018
:100ED000C06C13052003232A94C0EF00006C130498
:100EE00004C0232A24016FF0EFB6EFF26FB48564DB
:100EF0003714014093840480232A94C013052003EF
:100F0000EF00A069930700402328F4C013052003D5
:100F1000EF00A06813052003232894C0EF00E067CA
:100F2000130404C06FF00FB3EFF28FB08564371471
:100F300001409384048013052003EF000066130929
:100F40000040232894C0232824C113052003EF0068
:100F5000C06413052003232A24C1EF000064130595
:100F60002003232A94C0EF004063130404C06FF0F1
:100F70006FAEEFF24FAA056A2A89A144B71A014061
:100F8000130A0A809309004093178901E1871387A8
:100F90000AC063D307082328470113052003EF0085
:100FA000C05F1305200323A83AC1FD140609EF0012
:100FB000C05E93F4F40F23AA3AC11379F90F138496
:100FC0000AC0F9F083A74AC0C574FD14E58F23A2B7
:100FD000FAC083A74AC0216713052003D98F23A233
:100FE000FAC0EF00805B1305200323A83AC1EF008D
:100FF000C05A03A58AC023AA3AC183A74AC00D6775
:101000002D81FD8C23A29AC083A74AC00589D98F60
:1010100023A2FAC06FF06FA3232A4701BDBFEFF2EE
:101020008F9FB717014003A747C0C576FD16758F80
:1010300023A2E7C003A747C0A1660569558F23A275
:10104000E7C0A1440144371A014093090040130945
:10105000098013052003912323283AC183278AC0DE
:1010600006041374F40FB3F7270181C70504137442
:10107000F40F13052003FD140D2393F4F40F232A1A
:101080003AC1E1F803274AC0C576FD16758F2322C1
:10109000EAC003274AC08D662285558F2322EAC005
:1010A0006FF0AF9AEFF2CF9841112EC6AA8409359E
:1010B000130500067D3D2A8413054006F92926857F
:1010C0004D3D498C13054006C929B2452E8555353D
:1010D00019C50544193D228541016FF0AF9713747E
:1010E000F40F33348000FDB7EFF28F9441112A845E
:1010F000C13313050006B53D130540067929228545
:101100008D3D130540065129CD331305400671214D
:10111000453313051006B13D13054006BD290137BF
:101120002AC61935D933324541016FF0AF92EFF23B
:101130002F90411185451305C003EFF05F99896435
:10114000938784007C82C1473EC64C008D4737158B
:101150000140371901403EC4EFF0CFD91304800499
:10116000930700634C00130509807C8222C6EFF0D0
:101170006FD88567938707F44C00130509C07C82FC
:1011800022C6EFF02FD74C00938404F037150140AE
:10119000648222C6EFF00FD691474C001305094038
:1011A0007C8222C6EFF00FD541016FF0AF8AEFF2DB
:1011B0002F88B53FA147371401405CC8294509294C
:1011C0008964294544C8292104C861398545130526
:1011D000F00FC93D930500084945E9351305200383
:1011E000C52E7145113713140501418022044204B4
:1011F0007545DD3D4180418D93150501A167C18194
:10120000938727FA638AF500373500001305858830
:10121000992905456FF00F842945F9351314050107
:101220004180220442042D45C1354180418D9315F2
:101230000501C181938424646389950037350000DA
:10124000130545890D210945F1B70D641304048A7E
:10125000930444160C3008200904A935E31C94FEBD
:1012600001454DBFEFE2DFFC0D64130404A39304BA
:1012700004010C30082009043535E31C94FE0D648C
:10128000130444A09304E4000C3008200904193D21
:10129000E39C84FE6FE01FFCEFE29FF90D641304F2
:1012A00044A19304C4010C3008200904E53BE31C6D
:1012B00094FE6FE03FFAB367B5008D8BB9EBEFE2B8
:1012C0003FF7AE842A8481451305F00FE13B914539
:1012D0001305000EC13B9355240093F5F50F13053C
:1012E000A005C93393D5240093F5F50F1305B00578
:1012F000553B93D5840029800D889189C18D1305B4
:10130000C0054D3381451305000E693B01456FE073
:101310007FF405458280EFE2BFF12E84AA848145E7
:101320001305F00F4133A6851305300DA53B854508
:101330001305F00F853BA2854545AD336FE09FF166
:10134000EFE21FEF913F930500141305000FA5373F
:1013500085457145C9376FE0FFEFEFE27FED193743
:101360009305003013050040B93785457945653749
:101370006FE05FEEEFE2DFEB411185451145EFF0E5
:101380000FF5BD47371401407C82C1473EC64C0073
:101390008D47130504803EC4EFF0CFB58D4513058E
:1013A0000480EFF02FC141016FE0DFEAEFE25FE878
:1013B00079712A8985453705100002C602C8EFF009
:1013C000EFF285452145EFF08FF085450545EFF0BB
:1013D0000FF03705328085451105EFF0EFBD37146A
:1013E0000140C147FC828D44E1474C08130504C00D
:1013F00026CC3ECEEFF00FB093070002FC824C08E3
:10140000930780041305048026CC3ECEEFF08FAE08
:10141000B7070C000C10375500403ED44AD002D21A
:1014200023160102EFF06FEE054693055052375533
:101430000040EFF08FFA930750147C8685475C8755
:10144000680085473EC8EFF0EFC48545375500403A
:10145000EFF04FF745616FE0FFDFEFE27FDD9305CF
:10146000505237550040EFF04FFC8547631AF502A4
:101470002A8437550040EFF02FFA138701831C238D
:101480001375F50F85E39307F00F6315F50000A3BF
:10149000238C01829305505237550040EFF0AFFC8A
:1014A0006FE05FDB63938702138681831C22938640
:1014B0004183BE96850793F7F70F88A21CA28D463D
:1014C000E3FAF6FC89471CA3F1B78946E394D7FCFD
:1014D0009307E00FE310F5FC23000700A388818247
:1014E00055BF93871183882305476315E500238043
:1014F0000700828001458280EFE29FD3AA8537559D
:101500000040EFF0EFF09305000837550040EFF092
:101510002FF175D96FE01FD4EFE29FD1AA84014467
:10152000B38784000385070019E16FE0BFD213750C
:10153000F50F0504D1371374F40FDDB7EFE2BFCD1B
:101540002A89FD59A94499E16FE03FD0FD15054571
:101550002E84FD15639B35013355A9023375950221
:1015600013050503513FA285F9BF33059502D5B791
:10157000B707002083A7070837177A00130707204B
:10158000B3D7E70293F7F70F238EF1821307803E5C
:10159000B387E702239DF1828280B7F700E0D8434A
:1015A0008146799BD8C303C7C1833306A70290CB7A
:1015B000D4CB98431367070198C398431367170266
:1015C00098C3D843058B75DF9843799B98C3828075
:1015D000B7F700E0D8438146799BD8C303D7A183EE
:1015E0003306A70290CBD4CB98431367070198C367
:1015F00098431367170298C3D843058B75DF984348
:10160000799B98C38280EFE2BFC22E89B2840144E5
:101610006345940026856FE0FFC3930500043755AA
:101620000040EFF0EFDF75D9B3078900838507002D
:10163000375500400504C205C181EFF06FDDC9BF19
:10164000138701811C439386C1843E95636BD5004B
:10165000B78600209386068063E5A60008C33E8512
:101660008280FD57EDBF39713EDA2ED232D436D6A4
:101670003AD842DC46DE9387418122CC804326CA99
:1016800006CEAA8409C41C4C99E32285ED290C449A
:1016900054102686228536C6EF007012F24062444E
:1016A000D24421618280011126CA4AC806CE22CCCA
:1016B0004EC652C4AA842E8901C51C4D91E3E12176
:1016C0009C4C804499E326857D29971700009387D9
:1016D0006739631BF402C0405E24A18BB1C71C486C
:1016E000A1C7FD59294A1C4483450900FD17B1E9EA
:1016F0001CC463DD07062286A94526856120FD57A7
:101700006308F502294535A09717000093878737AE
:101710006314F4008044C9B7971700009387873299
:10172000E31CF4FAC0444DBFA2852685112A55D981
:101730007D55F2406244D2444249B249224A056191
:1017400082801CC4050963D70700184C63CAE700F0
:10175000638845011C401387170018C08CA361B72C
:10176000228626850520E31035F9D9B71C4013875A
:10177000170018C0294798A371B793874181AA859C
:10178000884315B7011122CC26CA4AC806CE4EC6D8
:10179000AA842E89328401C51C4D91E3ED2697174A
:1017A00000009387272C6317F406C0401C4C1CC410
:1017B0005E24A18BC1C31C48B5CF1C480840937957
:1017C000F90F1379F90F1D8D5C486346F500A2856A
:1017D0002685692C25E51C440505FD171CC41C4005
:1017E0001387170018C0238037015C486388A7005F
:1017F0005E24858B81CBA9476316F900A2852685D7
:10180000B5240DEDF24062444A85D2444249B249C2
:1018100005618280971700009387C7266314F40040
:10182000804469B7971700009387C721E310F4F845
:10183000C044ADBFA2852685212041D17D59D9B7AD
:1018400041119387418126C2844322C44AC006C6FF
:101850002A892E8489C49C4C99E326852D269717C6
:10186000000093872720631BF402C0400317C400C5
:1018700093170701C18393F68700ADEA93F607013A
:1018800095EEA5472320F900136707045AA47D5558
:10189000B2402244924402494101828097170000DD
:1018A0009387471E6314F4008044C9B7971700005C
:1018B00093874719E31CF4FAC0444DBF918B9DC335
:1018C0004C5889C9930744046384F5004A85312341
:1018D000232A04025E242322040093F7B7FD5EA4AA
:1018E0001C481CC05E2493E787005EA41C4899EB4B
:1018F0005E241307002093F707286385E700A2857D
:101900004A85A1215E2413F717001DC35C482324D8
:101910000400B307F0401CCC1C480145B5FB8317FD
:10192000C40013F707082DD793E707045EA485B713
:10193000898B014791E3584818C4F9BFDE2501118E
:1019400022CC26CA06CE4AC84EC613F78700AA8400
:101950002E8479EBD841634DE000B841634AE00042
:101960000145F2406244D2444249B2490561828055
:1019700058547DD703A904009396370123A004008F
:1019800063DB060670485E24918B99C75C401D8E10
:101990005C5899C33C401D8E5C540C508146268592
:1019A0008297FD575A24631DF5009440F54763E87C
:1019B000D706B70740208507B3D7D700858BA5C3C7
:1019C0001C48232204001CC09317370163D807006A
:1019D000FD576314F5009C4091E368C84C5823A060
:1019E0002401BDDD930744046384F5002685F526B4
:1019F000232A0402B5B70C50014685462685029776
:101A0000FD572A86E311F5F89C40B5DF75476385DD
:101A1000E70059476393E70423A0240191B71367B4
:101A200007045AA47D5535BF83A90501E38A09F24D
:101A300003A905008D8B23A03501330939410147E6
:101A400091E3D84918C4E35D20F11C540C50CA86B8
:101A50004E86268582976347A0005E2493E707049D
:101A60005EA4C9B7AA993309A940F1BF9C49B9CF6F
:101A7000011122CC06CE2A8411C51C4D81E72EC649
:101A80001922B245971700009387C7FD639BF500A5
:101A90004C408397C50095C722856244F24005619A
:101AA00071BD971700009387E7FD6394F5000C4420
:101AB000CDB7971700009387E7F8E39CF5FC4C44FB
:101AC000C9BFF240624401450561828001458280C0
:101AD000411122C406C62A844EA572A52320050002
:101AE00023220500232405002322050623280500C0
:101AF000232A0500232C0500214681451305C50531
:101B0000EFE00FF697170000938767B15CD0971747
:101B10000000938787B31CD497170000938767B79B
:101B20005CD4971700009387C7B900D01CD8B24087
:101B300022444101828097050000938565F3A9A2A4
:101B4000411126C2130680069384F5FFB384C402B4
:101B50004AC02E8922C406C6938544071D262A84BE
:101B600001CD2320050023222501310508C4138659
:101B700084068145EFE0CFEE2285B24022449244B4
:101B80000249410182801C4DADE3411106C622C4C9
:101B900097070000938767FA1CD5938781819C4340
:101BA0002324050423260504232805046314F500D3
:101BB00085471CCD2A841D2848C02285052808C4D5
:101BC00022852D2048C448400146914511370844DC
:101BD0000546A545F53D48440946C945D53D8547D7
:101BE0001CCCB24022444101828082804111938703
:101BF000818126C284434AC006C69C4C22C42A89DD
:101C000099E326854937938484048044DC40FD179A
:101C100063D607009C40B9CF8440C5BF0317C400FA
:101C200039E7C177850723220406232004002322F5
:101C30000400232404005CC423280400232A040095
:101C4000232C0400214681451305C405EFE04FE134
:101C5000232A0402232C040223240404232604043C
:101C60002285B240224492440249410182801304F9
:101C7000840671BF91454A85E13588C051FDB14761
:101C80002320F9000144E9BF797122D44AD052CC13
:101C900056CA5AC85EC606D626D24ECE2A8AAE8A02
:101CA000130485040149054BFD5B09ECB250225435
:101CB0004A8592540259F249624AD24A424BB24B87
:101CC00045618280044483294400FD1963D40900DE
:101CD0000040E1BFDE24637BFB008397E400638761
:101CE0007701A6855285829A3369A9009384840678
:101CF000E9BF1971A6DAAE848395E500A2DC86DE21
:101D0000328463DB0500DE2423A0060093F7070876
:101D100085E7930700401DA0300836C6EF00F01F8E
:101D2000B246E34205FE7247BD67F98F7977BA97ED
:101D300093B717009CC2F1BF930700041CC0F65074
:101D40006654D654014509618280DE25011122CCFA
:101D500006CE26CA4AC8898B2E8489CF930774047D
:101D60001CC01CC885475CC8F2406244D24442494A
:101D70000561828074003000AA84A53FA2452A89AB
:101D80002685012219E98317C40013F7072069FF8C
:101D9000F19B93E727005EA4D1B7970700009387D4
:101DA000C7D99CD45E2408C008C893E707085EA47E
:101DB000A2475CC8B24781CF8315E4002685EF00B7
:101DC000701811C55E24F19B93E717005EA45E2492
:101DD0003369F9002316240141BFDDC183A7C5FF84
:101DE000411122C406C626C21384C5FF63D307006F
:101DF0003E94AA84EF00D01B938701849C4381EF1B
:101E00002322040023A081842244B24026859244E8
:101E100041016F00101A637EF40014403307D400B0
:101E20006396E7009843DC43369718C05CC0D9BF7F
:101E3000BA87D84319C3E37DE4FE94433386D700C1
:101E4000631F86001040B29694C33386D700E31D0B
:101E5000C7FA10435843B29694C3D8C375B7637595
:101E6000C400B1479CC04DB71040B306C400631610
:101E7000D70014435843B29614C058C0C0C369B7C2
:101E80008280011126CA93843500F19806CE22CCB7
:101E90004AC84EC6A104B14763F3F404B14463E2F7
:101EA000B4042A89EF00D0109387018498433A84C0
:101EB00039E0938741849C4391E781454A850D2F02
:101EC00023A2A184A6854A852527FD5963193507D4
:101ED000B1472320F9004A85EF00B00D29A0E3D0D7
:101EE00004FCB1471CC10145F2406244D24442495E
:101EF000B249056182801C40858F63CF0702AD46E1
:101F000063F6F6001CC03E9404C031A05C4063132D
:101F1000870223A0F1844A85EF00B0091305B400BD
:101F20009307440061993307F5405DDF3A94898F48
:101F30001CC05DBF5CC3C5B72287404095BF13047A
:101F400035007198E30285FCB305A4404A854D2510
:101F5000E31C35FBB5BF1C46FD171CC663DA070042
:101F6000184E63C5E700A9476394F5006FF09F81A1
:101F70001C422E851387170018C28CA38280011182
:101F800022CC26CA4AC84EC652C406CE2A89AE8979
:101F90003284B304D6007D5A63149400014501A82D
:101FA0000C204E864A85453F0504E31745FFF24065
:101FB0006244D2444249B249224A05618280357165
:101FC00022CD26CB4AC94EC706CF52C556C35AC1E9
:101FD000DEDEE2DCE6DAAA89AE843289368409C51F
:101FE0001C4D99E3EFF03FBA97170000938787A73E
:101FF0006397F40C83A44900DE24A18BFDC39C48A5
:10200000EDC393070002A304F1029307000302D279
:102010002305F10222C6930B5002971A0000938AFF
:102020006AA8054C294B4A841C2099C3639E770DEE
:10203000B30C2441638D0C00E6864A86A6854E8546
:102040003D3FFD57630FF51C9256E69636D21C2095
:102050006389071CFD571309140002C802CE3ECA4B
:1020600002CCA309010482D4834509001546568594
:10207000252713041900C24751E913F7070109C7BF
:1020800013070002A309E10413F7870009C7130728
:10209000B002A309E104834609001307A002638F7D
:1020A000E606F2474A848146254618209305140027
:1020B000130707FD6377E60AB5CA3ECE85A89717D2
:1020C00000009387279C6395F40083A489002DB7B3
:1020D0009717000093870797E390F4F283A4C90051
:1020E00021BFA6854E85EFF0AFF501DD7D55FA40A5
:1020F0006A44DA444A49BA492A4A9A4A0A4BF65B80
:10210000665CD65C0D618280050439BF330555419C
:102110003315AC00C98F3EC82289B9B73247930640
:102120004700184336C6634707023ACE1820930784
:10213000E002631DF70418309307A002631BF70247
:10214000B2470904138747009C433AC663C107029C
:102150003ECA2DA83307E04093E727003ACE3EC899
:10216000F1B7B387670385462E84BA973DBFFD5705
:10217000C5B7050402CA8146814725461820930544
:102180001400130707FD6374E606F9F20C200D46F0
:102190001715000013058591012511CD9717000033
:1021A0009387C7901D8D93070004B397A7004245FE
:1021B00005045D8D2AC80C2019461715000013056B
:1021C000258F130914002304B102F92335C197E7C1
:1021D000FFFF938727E395E74247B247137707103E
:1021E00009CF91073EC69257D2973ED22DBDB387F5
:1021F000670385462E84BA9751B79D07E19BA107D7
:10220000D5B77800970600009386A6D726860C08D7
:102210004E8597000000E7000000FD572A8AE3146E
:10222000F5FCDE2493F70704E39207EC1255C1B5E1
:102230007800970600009386C6D426860C084E8543
:10224000012AE1BF797156CA9C49BA8A984522D4BD
:1022500026D24ECE52CC06D64AD05AC85EC6AA89DD
:102260002E84B284368A63D3E700BA879CC00347C2
:10227000340419C385079CC01C4093F7070281C72B
:102280009C4089079CC00329040013796900631AE4
:102290000900130B9401FD5B5C449840998F634CDB
:1022A000F9041C408346340493F70702B336D00088
:1022B000A5EB13063404D2854E85829AFD5763033D
:1022C000F5041C4011469840998B5444814463970F
:1022D000C700B384E64063D3040081441C4418481B
:1022E0006354F700998FBE94014969047D5B63983C
:1022F0002405014509A885465A86D2854E85829ACD
:10230000631E75017D55B250225492540259F24910
:10231000624AD24A424BB24B456182800509ADBF49
:102320003307D40013060003A301C7040347540472
:1023300093871600A2978906A381E7049DBF85466F
:102340002286D2854E85829AE30E65FB050945B744
:10235000797122D426D24AD04ECE06D652CC56CA55
:102360005AC8B689942D930790063289AA842E8480
:1023700013863504638DF60263E2D7069307800562
:102380006385F61863EDD700638D0620930730044C
:10239000638EF60A930A24042301D404C9A0930788
:1023A00030066385F60A93074006E395F6FE1C4067
:1023B000084393F6070893054500C5C61C410CC3A6
:1023C00063D807001307D002B307F040A301E40469
:1023D000970600009386466E294765A89307000775
:1023E0006381F61663E5D7029307E0066388F61863
:1023F0009307F006E390F6FA0C401C4313F8050827
:10240000138547006307080608C39C4385A8930704
:102410005007E383F6FE930780076388F61293075D
:102420003007E399F6F61C43D04181459386470077
:1024300014C383AA07005685852601C53305554177
:1024400048C05C401CC8A301040461A81C43930A53
:102450002404938647009C4314C32301F404854756
:10246000D5B793F607041C410CC3B9DAC207C1877C
:1024700081BF93F5050408C3C9D99E231307F0064D
:102480006386E60E97060000938606632947A3013C
:1024900004044C400CC463C5050008406D9908C095
:1024A00099E3B28A89CDB28AB3F5E702FD1AB695EF
:1024B0008C212380BA00B3D5E70263FFE70AA14766
:1024C000631EF7001C40858B91CB58401C4863C7A6
:1024D000E70093070003A38FFAFEFD1A3306564167
:1024E00010C84E87CA867000A2852685A13B7D5AFA
:1024F000631D450B7D55B250225492540259F24946
:10250000624AD24A424B45618280A382D504970633
:1025100000009386665A0C40084313F805081C41D6
:102520001105630D080208C313F7150001C793E5F1
:1025300005020CC04147A1FF0C4093F5F5FD0CC00E
:10254000B9B79C4193E707029CC193078007A30298
:10255000F404970600009386665775BF13F80504C8
:1025600008C3E30308FCC207C1837DBF97060000D0
:1025700093868654214721BFAE873DB794411C43C3
:10258000CC4913F80608138547006306080008C302
:102590009C438CC339A008C393F606049C43F5DA28
:1025A0008EA323280400B28A2DBF14485686CA85FC
:1025B00026858299E30045F51C40898B8DE7B2475B
:1025C0004844E35AF5F23E853DB785465686CA85AE
:1025D00026858299E30065F3050A5C443247998FAA
:1025E000E345FAFEE9BF014A930A94017D5BF5B722
:1025F000411122C42A842E8523A4018406C6EFF04B
:102600002F84FD576317F500938781849C4391C302
:102610001CC0B240224441018280411122C42E8458
:102620008395E50006C67922634905007C48AA9790
:102630007CC8B2402244410182805E247D777D17B0
:10264000F98F5EA4FDB7DE25011122CC26CA4AC847
:102650004EC606CE93F70710AA842E843289B68917
:1026600091C78395E5008946014609225E247D775E
:102670007D17F98F5EA48315E4006244F240CE8694
:102680004A86B24942492685D244056125A84111AE
:1026900022C42E848395E50006C6C928FD575A2416
:1026A000631AF500FD77FD17F98F5EA4B24022444E
:1026B000410182808567D98F5EA468C8C5BF8395B4
:1026C000E50005A8411122C42A842E85B2853686EC
:1026D00023A4018406C6EFE01FF3FD576317F5003E
:1026E000938781849C4391C31CC0B2402244410122
:1026F0008280411122C42A842E8523A4018406C627
:10270000C520FD576317F500938781849C4391C3CF
:102710001CC0B240224441018280411122C42A845B
:102720002E85B28523A4018406C6C920FD576317F0
:10273000F500938781849C4391C31CC0B24022441E
:1027400041018280411122C42A842E8523A4018460
:1027500006C65D20FD576317F500938781849C436F
:1027600091C31CC0B240224441018280411122C465
:102770002A842E85B285368623A4018406C6592074
:10278000FD576317F500938781849C4391C31CC058
:10279000B24022444101828093F5F50F2A966314DA
:1027A000C500014582801C21E38EB7FE0505C5BF2B
:1027B00082808280411122C42A842E85B285368689
:1027C00023A4018406C6A920FD576317F50093874B
:1027D00081849C4391C31CC0B24022444101828049
:1027E0009307800523A4F1847D558280930780059B
:1027F00023A4F1847D5582809307800523A4F1846E
:10280000014582809307800523A4F1847D55828051
:102810009307800523A4F1847D55828053797374D6
:10282000656D436C6B3A25640D0A0000436869705E
:1028300049443A253038780D0A000000546869731D
:10284000206973207072696E7466206578616D709E
:102850006C650D0061736C6B646A0A0043616D65A1
:102860007261204D6F64656C204572720D0000002E
:102870004A5045475F4D4F44450D000025640A000E
:1028800072756E6E696E67004D49443A253038782E
:102890000D0A00005049443A253038780D0A0000EE
:1028A000FF002CFF2EDFFF013C321100090204D88B
:1028B00013E514482C0C33783A333BFB3E004311AC
:1028C0001610399235DA221A37C3230034C0361A6B
:1028D000068807C00D870E414C0048005B0042038C
:1028E0004A8121992440253826825C0063004600F5
:1028F0000C3C617062807C05208028306C006D800B
:102900006E007002719473C13D345A571200171152
:10291000187519011A973236030F37404FCA50A85D
:102920005A236D006D38FF00E57FF9C04124E014A3
:1029300076FF33A0422043184C0087D5883FD70349
:10294000D910D382C808C9807C007D007C037D48F3
:102950007D487C087D207D107D0E9000910E911A9F
:102960009131915A91699175917E9188918F91964B
:1029700091A391AF91C491D791E8912092009306D1
:1029800093E39305930593009304930093009300BE
:10299000930093009300930096009708971997026D
:1029A000970C9724973097289726970297989780A7
:1029B00097009700C3EFA400A800C511C651BF80BF
:1029C000C710B666B8A5B764B97CB3AFB497B5FF06
:1029D000B0C5B194B20FC45CC0C8C1968C00863D2E
:1029E00050005190522C5300540055885A905B2C43
:1029F0005C05D302C3ED7F00DA09E51FE167E00063
:102A0000DD7F0500FF01E014E177E51FD703DA1051
:102A1000E0000000FF00DA09D703DF0233A03C002A
:102A2000E167FF01E000E100E500D700DA00E00027
:102A3000FF00DA10D703DF0033803C40E17700006D
:102A40000000000000000000000000000000000086
:102A50000000000000000000000000000000000076
:102A60000000000000000000000000000000000066
:102A70000000000000000000000000000000000056
:102A80000000000000000000000000000000000046
:102A90000000000000000000000000000000000036
:102AA000232D302B20000000686C4C0065666745C4
:102AB00046470000303132333435363738394142F9
:102AC0004344454600000000303132333435363758
:0C2AD00038396162636465660000000034
:102ADC0000000000000000000102030406070809C2
:102AEC0000000000010203040102030406070809A8
:102AFC0000000000602A0000802A0000402A00002C
:102B0C0000000000000000000000000000000000B9
:102B1C0000000000000000000000000000000000A9
:102B2C000000000000000000000000000000000099
:102B3C000000000000000000000000000000000089
:102B4C000000000000000000000000000000000079
:102B5C0000D8B805020406080050002000540020DC
:102B6C00CC000020200000202000002000000000ED
:00000001FF
