:040000006F00F04F4E
:100004000000000000000000C8020000CA02000056
:1000140000000000FC0C00000000000000000000D4
:10002400FC0C0000FC0C00000000000000000000BC
:100034003004000000000000FC0C00000000000080
:10004400FC0C0000FC0C0000FC0C0000FC0C00008C
:10005400FC0C0000FC0C0000FC0C0000FC0C00007C
:10006400FC0C0000FC0C0000FC0C0000FC0C00006C
:10007400FC0C0000FC0C0000FC0C0000FC0C00005C
:10008400FC0C0000FC0C0000FC0C0000FC0C00004C
:10009400FC0C0000FC0C0000FC0C0000FC0C00003C
:1000A400FC0C0000FC0C0000FC0C0000FC0C00002C
:1000B400FC0C0000FC0C0000FC0C0000FC0C00001C
:1000C400FC0C0000FC0C0000FC0C0000FC0C00000C
:1000D400FC0C0000FC0C0000F81E0000FC0C0000EE
:1000E400FC0C0000FC0C0000FC0C0000FC0C0000EC
:1000F400FC0C0000FC0C0000FC0C0000FC0C0000DC
:1001040000000000FC0C0000FC0C0000FC0C0000D3
:10011400FC0C0000FC0C0000FC0C0000FC0C0000BB
:10012400FC0C0000FC0C0000FC0C0000FC0C0000AB
:10013400FC0C0000FC0C0000FC0C0000FC0C00009B
:10014400FC0C0000FC0C0000FC0C0000FC0C00008B
:10015400FC0C0000FC0C000010180000CC02000095
:10016400E6040000FC0C0000FC0C0000FC0C000089
:10017400FC0C0000FC0C0000FC0C0000FC0C00005B
:10018400FC0C0000FC0C0000FC0C0000FC0C00004B
:10019400FC0C0000FC0C0000FC0C0000FC0C00003B
:1001A400000000000000000000000000000000004B
:0C01B4000000000000000000000000003F
:1001C000397101436EC619A0397141536AC866CAB4
:1001D00062CC5ECE19A0397101535AD056D252D496
:1001E0004ED64AD826DA22DC06DE3301614082820E
:1001F00041114AC026C222C406C68282B24D4101C4
:10020000024D924C224CB24B4101024B924A224A7F
:10021000B2494101024992442244B24041018280E4
:100220003D432A876373C3029377F700BDEFADE5C3
:10023000937606FF3D8ABA960CC34CC30CC74CC7D5
:100240004107E36BD7FE11E28280B306C3408A0602
:100250009702000096966780A6002307B700A306C2
:10026000B7002306B700A305B7002305B700A30412
:10027000B7002304B700A303B7002303B700A3020A
:10028000B7002302B700A301B7002301B700A30002
:10029000B7002300B700828093F5F50F9396850091
:1002A000D58D93960501D58D61B79396270097025A
:1002B000000096968682E78086FA9680C1171D8F89
:1002C0003E96E374C3F8A5B701A001A0EFF25FF278
:1002D000372400409305003613050480EF10802575
:1002E00019CD13050480EF10002313050480EF10CF
:1002F0008022A14513050480EF10002321BF930540
:10030000505213050480EF10E02201C91305048048
:10031000EF10602093050002F1BF93057072130582
:100320000480EF10202179D993050008E1B7054733
:1003300023A2E182238401829387C18401479386AB
:10034000C1947D5513060002B385E60023A2070081
:1003500023A0070088A10507A107E317C7FEB7F789
:1003600000E023A20700814694C70147D8C737079A
:100370000020032707089306803E3357D7028146A3
:100380001306F7FF90CBD4CB3D4798C3B7E700E007
:1003900005472386E740056723A0E710828013877F
:1003A00041821443938741829843158FE36EA7FEE1
:1003B00082808280EFF23FE2138741821C4383C632
:1003C000818285071CC31387C194369714237D4708
:1003D000636FD702938441821389C194138481820D
:1003E0009389C184FD5A182083A601828145138612
:1003F00001823305E9001C2103A804008E07CE9773
:1004000083A807006376180199C114C218A0F5BB30
:10041000D443050723A2070023A0070023005501AA
:100420007D8B8545F9D6884014C218A0829665BF99
:10043000B7F700E0D84301C723A20700A53F730028
:100440002030EFF2FFDA79718545414502CA02CCCE
:1004500002CE02D002D202D402D602C602C8EF00F7
:10046000B03F854513050008EF00F0409147FC823E
:100470008D473ECC4C08E147371501403ECEEF009A
:100480005011A147FC824C089147371501403ECEE0
:10049000EF003010F16737240040938707203ED0EB
:1004A0000C10B7070C00130504C03ED402D223166B
:1004B0000102EF001078054693055052130504C061
:1004C000EF108001930780357C86680085473EC821
:1004D00023070100EF0090198545130504C0EF00C4
:1004E000507E456105BB411126C4B72400409305E9
:1004F0005052138504C022C6EF10C0038547631E07
:10050000F5022A84138504C0EF10E0001387A1824E
:10051000238681821C2393168501E1861386A1829E
:1005200095E36397860A14A3E929372500409305CC
:100530005052130505C0EF10A0033244A2444101FC
:1005400073002030639787002396019689471CA388
:10055000E1BF89456396B7002396D1968D47C5BF05
:100560008D456396B700239701969147CDB7914586
:100570006396B7002397D1969547D1BF954563966B
:10058000B700239801969947D9B799456396B70064
:100590002398D1969D4765BF9D456396B7002399E3
:1005A0000196A1476DB721476397E7002399D1963C
:1005B000A5471CA295BF25476391E7029307F0F872
:1005C000639AF600054723000600A384E182A9BFD1
:1005D000C147B5DE2300060081BF4147E39CE7FE2B
:1005E000A385A182C547F1B7EFF29FC07971854518
:1005F000114502CA02CC02CE02D002D202D402D6E7
:1006000002C402C623180100EF00F02609658545E3
:1006100013051503EF0050249307000CFC82E144FE
:100620008D474C083715014026CE3ECCEF00607652
:10063000370701405C4305644C08C18F5CC326CE7C
:10064000B7140140FD7713850440FC82EF0060740D
:10065000856793870780FC824C08C1471385044057
:100660001304F4EF3ECEEF00C07222C637140040F0
:100670002C0013050480B734014002C4EF00902120
:100680002C0013850440EF00F020C1679387070614
:100690000C10130504803ED0231301022314010221
:1006A000EF00F0290C1013050480EF0070310C10DE
:1006B00013050480EF00B03B0C1013050480EF001D
:1006C000D0450C1013850440EF0070270C101385E3
:1006D0000440EF00F02E13050480A145EF00F05018
:1006E00013050480A145EF00305113050480A14596
:1006F000EF00F05113050480A145EF00305213853F
:100700000440A145EF00704E13850440A145EF0061
:10071000B04E130504808545EF00904B13850440CF
:100720008545EF00F04A130504808545EF00F04849
:10073000138504408545EF00504813050480854526
:10074000EF003046854513850440EF009045456134
:10075000D1B4EFF2FFA9B737000003A9475C2E849C
:10076000AA84CA852285EF10B003634CA000B73776
:10077000000003A9075C2285CA85EF10D00A6353E5
:1007800005004A8493F714008DCF9305000022855D
:10079000EF107009B73700006353050A83A5875C23
:1007A0003739014037050080231A0942218DEF10A7
:1007B0005010EF10103942054181231CA942130942
:1007C000094093F724008DCF930500002285EF1098
:1007D0009005B73700006354050883A5875C371977
:1007E000004037050080231A0982218DEF10700C1C
:1007F000EF10303542054181231CA982130909807D
:1008000091888DCC930500002285EF10D001B73779
:1008100000006356050683A5875CB71400403705C2
:100820000080239E0482218DEF10B008EF107031FC
:10083000420541812390A48493840480E1BA83A576
:10084000875C2285EF10F006EF10B02F4205B73716
:1008500001404181239AA742239C07429DB783A56B
:10086000875C2285EF10F004EF10B02D4205B7171A
:1008700000404181239AA782239C078251B783A518
:10088000875C2285EF10F002EF10B02B4205B717FE
:1008900000404181239EA7822390078445B7EFF251
:1008A0003F958565371501400546938505801305FD
:1008B00005406D236FF01F96EFF29F937971854588
:1008C000214502CA02CC02CE02D002D202D402D604
:1008D00002C402C623180100EF00007885450945CF
:1008E000EF006079854737150140FC820D49E147EB
:1008F0004C08130505C03ECE4ACC6129B70700203D
:1009000083A707081307803E37040040B3D7E702E8
:100910002C0013050440C16423150100FD177C84DD
:100920009307703E3EC6EF00E076938704060C10F6
:10093000130504403ED02313010223140102EF00EB
:100940001013130504408545EF00302713050440BC
:100950008145EF00D02B130504408545EF0050275B
:10096000130504408545EF00D02385451305000499
:10097000E52537240140C1473ECE4C08930700C00F
:1009800013050480FC824ACC29210146938504C0CA
:1009900013050480E12145616FF0DF87B707004050
:1009A00093870740D63F1306401F01476364D60074
:1009B0001307803EDABF8280EFF29F833724014025
:1009C0009305004013050480692113361500930533
:1009D00000401305048059216FF0DF83EFF25F813F
:1009E0003724014085649385048013050480952194
:1009F00013361500938504801305048085216FF05C
:100A00007F81EFF2EFFE37240140A16513050480DA
:100A1000892113361500A1651305048081216FF02B
:100A20006FFFEFF2EFFC792A09453529716513054F
:100A30000520EF102042B707002083A507083735AF
:100A400000001305055DEF10101C3D2EAA853735FB
:100A500000001305055EEF10101BEFF09F9EA93DEF
:100A6000EFF0FF8C51361D3F1305401FEFF03F9311
:100A70003D35B737000083A5C75C0545D939B73781
:100A8000000003A4475C0945A285E131A285114518
:100A9000C93137340000EF10602315E1EF10E03961
:100AA0003735000013054560EF103027EF00304761
:100AB000F53519371305401FEFF07F8ED5BF1305AD
:100AC000045FEF109025193FF9B7B717024098431C
:100AD000B706FFF041111367170098C3D8433706D4
:100AE0000200758FD8C39843B706F7FEFD16758FC1
:100AF00098C39843B706FCFFFD16758F98C3D8437B
:100B0000B70601FFFD16758FD8C39843B70600ECF2
:100B1000FD16758F98C33707FF0098C723A60702F5
:100B200002C402C69843C166558F98C3B7160240E7
:100B300005679C42F18F3EC6A24785073EC4B24777
:100B400081E7A247E397E7FEB71702409C4313975C
:100B5000E7006357070685473EC632478547631F50
:100B6000F704B7170240D843B706C1FFFD16D8C334
:100B7000D843D8C3D84313670740D8C3D843758F29
:100B8000D8C3D843B7062900558FD8C39843B706B2
:100B90000001558F98C3984393166700E3DD06FE66
:100BA000D843B7160240719BD8C3D84313672700B8
:100BB000D8C32147DC42B18BE39EE7FE410182802E
:100BC00002C661BFB7160240D842B70700201146DF
:100BD000318B93870708630BC7022146630DC70259
:100BE00037177A001307072098C337170240584376
:100BF00011839376F7003707002013070700369715
:100C0000142398433357D70098C382803727B700FF
:100C1000130707B0D1BFD842D442416649833D8B08
:100C2000F18E1306270015CF3D47630FE6024147BB
:100C3000630FE602454781456313E6004146A1E2A2
:100C40003747024003270780418B0DC737177A00CB
:100C5000130707203306C70290C3C1D99843058301
:100C600061B781454946E1BF85453546C9BF8145E4
:100C70003D46F1B737173D0013070790E1BF371521
:100C8000024058559316F700585563DF0604118348
:100C90003D8B930617003727B700130707B033576C
:100CA000D70298C35455A182BD8A8DE29546330779
:100CB000D702058398C337170240585794433D8B9A
:100CC000050733D7E60298C3984369B7054563948F
:100CD000A600E546E9BF3D456396A600D1463387A9
:100CE000E602C9BF8906E5BF3D8B9306170037278B
:100CF000B700130707B03357D702F1B701A0970128
:100D00000020938121B8177100201301A12F1735FE
:100D10000000130565C897F5FF1F9385A52E138660
:100D2000018263FAC5008322050023A05500110546
:100D30009105E3EAC5FE13850182938501D86377A7
:100D4000B500232005001105E36DB5FEFD4273904B
:100D500002BCAD4273904280B76200009382820869
:100D60007390023097F2FFFF9382022A93E23200DF
:100D700073905230EFF07FD5970200009382A2CAA1
:100D80007390123473002030B7F7FF1F03A547702C
:100D900082809C4513F7070113F8F70001C7D8417B
:100DA0003368E8008E2113F7F50F39C318418146E7
:100DB000854E3D4F930F800293028004214E33965F
:100DC000DE00B3F8C50063111603939826003313B1
:100DD0001F011343F3FF3377E300B318180133E720
:100DE000E800639FF70550C98506E39AC6FD18C160
:100DF0001307F00F6375B70454412146854E3D4FEC
:100E0000930F800293028004414EB398CE0033F7D3
:100E100015016392E8021317260001173313EF0040
:100E20001343F3FFB376D3003317E800D98E639DE5
:100E3000F701232A15010506E319C6FD54C1828076
:100E4000E39457FA10C94DB7E39757FE23281501CD
:100E5000DDB748456D8D3335A000828019C20CC9BD
:100E600082804CC9828023A8A182828003A701834B
:100E7000894710216311F70214318D4763EDD700C4
:100E80003C219A0637E700E09607D58F93F7F70FD6
:100E900032972300F74054410547935756003317C4
:100EA000C70089CA938707048A07B7E600E0B697A8
:100EB00098C3828093870706C5BF371702405C43FB
:100EC0009146B18B6385D706A1466387D706B717CE
:100ED0007A00938707201CC1371602405C4237070F
:100EE0000020130707019183BD8BBA9794231C41FF
:100EF000B3D7D7005CC15442A1829D8ABA9694228E
:100F0000B3D6D70014C55442AD829D8A36971823B4
:100F1000B3D7E7005CC5584239839376370013870F
:100F2000418036971823B3D7E7021CC98280B727C0
:100F3000B700938707B045B75C435843C166C98380
:100F4000758FB7F6FF1F83A6C670BD8B89071396F2
:100F5000160163480600C54601466392D702C94799
:100F600039A88946638FD702BD46638ED702C14632
:100F7000638ED702C54601466393D700C1471DEF74
:100F80003747024003270780418B05C737177A0090
:100F900013070720B307F7021CC11DDE1C41858320
:100FA0001DBF01466DBF0546B547D1BF0146BD47D0
:100FB000F9B737173D0013070790E9BFB71502408F
:100FC000D8559316F700D85563DF060411833D8B7F
:100FD000930617003727B700130707B03357D70218
:100FE00018C1D455A182BD8A8DE295463307D70238
:100FF000058318C137170240585714413D8B050728
:1010000033D7E60218C1184171B785456394B6001D
:10101000E546E9BFBD456396B600D1463387E60293
:10102000C9BF8906E5BF3D8B930617003727B70078
:10103000130707B03357D702F1B799C537170240E6
:101040005C4B5D8D48CB8280B7170240D84B13456F
:10105000F5FF798DC8CB828099C5371702401C4FA8
:101060005D8D08CF8280B7170240984F1345F5FF7A
:10107000798D88CF828099C5371702405C4F5D8D8E
:1010800048CF8280B7170240D84F1345F5FF798DBE
:10109000C8CF82801E2137370140930607C0C207A0
:1010A000C1836300D504B7060040630CD502938664
:1010B00006406308D502B716004013860680630217
:1010C000C502938606C0630ED50013070740630A66
:1010D000E50037570140930607C06304D500631647
:1010E000E500BA2193F7F7F8D98F37170040630C62
:1010F000E500130707406308E50093F7F7CFFA21EF
:10110000C207C183D98F1EA1DE215EB59E211EB507
:10111000B7370140138707C0630EE5009387074088
:10112000630AF500B7570140138707C06304E50061
:101130006314F5009C251EB985475EA982801E3187
:10114000922103D82500C207C183F99BC207C1833E
:101150001EB11E3156211A2DC207C1834207418399
:101160001377C7F8518F9225F59BC20633660601A7
:10117000D18F37360140130806C0C182630E0501C6
:1011800013060640630AC50037560140130806C01F
:10119000630405016310C502B225DD9B03D8E50099
:1011A000D18FD221ED9B93F6F6CFD18FD225336626
:1011B0000601D18E56A11AADFA215AB91EB182800C
:1011C0001E3165771307F7CFC207C183BD9BC207E6
:1011D000C1831EB11E31562103D88500C207139664
:1011E0000601162DC18393F7F7FD758F9621418275
:1011F000A206558FB62142074183B3E60601920647
:10120000D58FB7360140C207138806C0C183630E6D
:10121000050193860640630AD500B756014013883E
:1012200006C063040501631ED502B62593F7F7F7E0
:1012300003D8C5009206D58FD621C207C183920676
:1012400093F7F7FBD58FFD769386F63FF18EF22567
:10125000C207C183336606010A06D18E13960601C2
:10126000418252A11AADFA211ABD1EB182801E31EF
:1012700003D88500C207C18393F7F7EFC207C18384
:101280001EB11E3156215A2DC20713960601420780
:10129000962141831377C7F8558FB621C18393F701
:1012A000F7DFB3E60601A206D58FB7360140C207C5
:1012B000138806C04182C183630E050193860640F0
:1012C000630AD500B7560140138806C063040501C0
:1012D000631FD502FD769386F67FF58FB62503D87A
:1012E000C500A206D58FD621C207C183A20693F7F7
:1012F000F7BFD58FF576FD16F18EF225C207C183B3
:10130000336606011206D18E13960601418252A160
:101310005AADFA215ABD1EB182801A31FD77FD17F0
:10132000F98F1EB10358050256215E2D657713967D
:10133000060196211307F7CF7D8FF977A206FD17D7
:10134000558FB3F70701B62103D8850042074182C4
:10135000B3E60601B206D58FB7360140C20713883F
:1013600006C04183C183630E050193860640630A6C
:10137000D500B7560140138806C063040501631BFE
:10138000D500F176FD16F18ED2251A06D18E139670
:101390000601418252A15AADFA212310E5041EB183
:1013A00082801E2189C593E717001EA18280C20793
:1013B000C183F99BC207C183CDBF8357450491C543
:1013C0002167D98F2312F5048280C607C583DDBF4C
:1013D0001E2189C593E707081EA18280C207C18329
:1013E00093F7F7F7C207C183C5BF1E2DC207C1839C
:1013F000DD9BDD8D0EAD82801A2DFD779387F77F03
:10140000F98FA205CD8FC207C1831EAD82805E2DEC
:10141000C207C183DD9BDD8D4EAD82805A2DFD77E5
:101420009387F77FF98FA205CD8FC207C1835EAD89
:101430008280EFE2FFDB1629F577FD17F58FF621A5
:10144000DA257971D58F1EA95625FD779387379FA9
:10145000F58FD6212A842EC6D58F9625D58FB62511
:10146000D58F5EA55E29C207C18393F7F7CFD98FC9
:101470005EA96808EFF07FA4B74701409387078013
:10148000B245631EF402A2576547B387E70298414D
:10149000930640060A07B3D7E70233D7D702B3F75C
:1014A000D7021207920793872703B3D7D702BD8BC2
:1014B000D98FC207C1831EA445616FE0BFD5925783
:1014C000E1B791C55E250967D98F5EA582805A254F
:1014D000F977FD17F98FD5BF13F7F50F85471583FA
:1014E000B395B7006319F7009307C500984301CE81
:1014F000D98D8CC38280894693074501E318D7FEB6
:1015000093070501E5B793C5F5FFF98DDDB793F5B1
:10151000F51F4EA182804A211375F51F82800A2192
:101520006D8D3335A000828093C5F5FFC205C18162
:101530000EA1828013F7F50F85461583B397B60089
:101540006311D7025A25F98F1A21014542074183B9
:1015500081CB0545A181B315B5006D8F3335E00012
:10156000828089466314D7001A29F1BF5A29E1BF46
:10157000A1818547B397B70093C7F7FFC207C1831F
:101580001EA18280EFE2DFC637140140AA842A86BA
:10159000A16513050440EFF07F8C2686896513054D
:1015A0000440EFF0BF8B6FE0FFC6EFE27FC437145B
:1015B0000140AA842A86916513050440EFF01F8A32
:1015C0002686856513050440EFF05F896FE09FC4B0
:1015D000EFE21FC20545D13F05456D370145F137A3
:1015E00001454D376FE01FC3EFE29FC00145753FD6
:1015F0000545493F0545553F6FE0DFC1EFE2BFBDFF
:101600002A89014493090008A14433D589403375E0
:1016100025013335A000513F0545AD37014505048F
:101620009537E31494FE0545B13F0145A13F6FE0B6
:10163000DFBDEFE2FFBB2A84613F130580077D3FDA
:1016400001456D3F22855D3F45376FE0BFBCEFE24E
:101650003FBAAE842A84AD3F130580074537130592
:101660000004693FA29463159400BD3F6FE09FBAE8
:10167000082005046137C5BFEFE29FB71365050B6E
:101680002E84453F13554400136505015D371375DE
:10169000F40045376FE01FB8EFE29FB59384C19720
:1016A0000144214922858145C13F050426859305D2
:1016B00000081374F40F613F93840408E31424FFBB
:1016C0006FE05FB59387C1979386074013060008C4
:1016D0000147B385E700238005000507E31BC7FE2C
:1016E00093870708E396D7FE828093178501E187E9
:1016F00063C607029307F00363E2B70293D735008E
:10170000139777009387C197BA973E9593F7750023
:101710008545B395F5001C21DD8D0CA18280EFE29B
:101720003FAD4111854509653704055002C402C625
:10173000EFF0BF901C20280093F7F70C1CA01C2092
:1017400093E727001CA01C3093F7970F1CB093075A
:1017500000145EA09307001E7EA083A781801CC496
:1017600083A7C1805CC41C3093F7F7031CB01C3006
:1017700093F7F70F1CB03C2093E707013CA03C20F7
:1017800093E787003CA03C2093E747003CA03C2027
:1017900093E727003CA03C2093E717003CA0930769
:1017A00060057C8485473EC623050100EFF00FEC01
:1017B0001C3093E717001CB01C2093E717001CA0F7
:1017C00041016FE03FA583A781808605BE95930701
:1017D000001E3305F5022E9518311C211315370014
:1017E00093D657001375850336959306B0043305D9
:1017F000D5020D8393066002FD8B3307D7023A951D
:101800003D47B387E7023E951D851375F50F82802E
:10181000011122CE26CC4ACA4EC852C6B70705507F
:10182000982B098B35CB982B1384C1831377D70F53
:1018300098AB98231377E70F98A393874183984336
:10184000058B6306070E984381441549050798C325
:10185000130A30029309001E1C40B3F727038DE3DF
:1018600093F5F40F05458537637CAA000C4033C51A
:101870002403B3D525031375F50F93F5F50FB5358F
:101880009504E39B34FD370705501C2393E71700AD
:101890001CA31C4085071CC0370405501C28918BD5
:1018A0008DCB1C2893F7B70F1CA883A781801CC47D
:1018B00083A7C1805CC423AA018223AE01821C20BD
:1018C00093F7E70F1CA0C93BF53B1C2093E71700DB
:1018D0001CA0B7070550982B058B11CB982B1377BD
:1018E000E70F98AB938781839843050798C3B707A1
:1018F0000550982B418B09C7982B1377F70E98AB9F
:10190000B7070550982B218B19CB982B3735000042
:10191000130545611377770F98ABEF0010407244C1
:10192000E2445249C249324A05617300203098436B
:1019300081441549050798C3130A30029309001E14
:101940001C40B3F727038DE393F5F40F0145A53D44
:10195000637CAA000C4033C52403B3D5250313755B
:10196000F50F93F5F50F51339504E39B34FD21BF3B
:10197000B717014003A747C0FD769386F60F758F12
:1019800023A2E7C003A747C0C576FD16136707303B
:1019900023A2E7C003A747C0758F23A2E7C003A710
:1019A00047C08D66558F23A2E7C01307004023A8C8
:1019B000E7C005671307078023A8E7C08280EFE22E
:1019C0003F8385643714014093840480232894C0A6
:1019D00013090040232824C113052003EFE07F9D55
:1019E00013052003232A94C0EFE0BF9C130404C016
:1019F000232A24016FE01F82EFE28FFF85643714F2
:101A0000014093840480232A94C013052003EFE04F
:101A10005F9A930700402328F4C013052003EFE0EA
:101A20005F9913052003232894C0EFE09F981304C7
:101A300004C06FE02FFEEFE2AFFB85643714014076
:101A40009384048013052003EFE0BF961309004040
:101A5000232894C0232824C113052003EFE07F9599
:101A600013052003232A24C1EFE0BF9413052003AC
:101A7000232A94C0EFE0FF93130404C06FE08FF9B2
:101A8000EFE26FF5056A2A89A144B71A0140130AEB
:101A90000A809309004093178901E18713870AC0E0
:101AA00063D307082328470113052003EFE07F9045
:101AB0001305200323A83AC1FD140609EFE07F8F28
:101AC00093F4F40F23AA3AC11379F90F13840AC0CF
:101AD000F9F083A74AC0C574FD14E58F23A2FAC0AC
:101AE00083A74AC0216713052003D98F23A2FAC018
:101AF000EFE03F8C1305200323A83AC1EFE07F8B72
:101B000003A58AC023AA3AC183A74AC00D672D81C5
:101B1000FD8C23A29AC083A74AC00589D98F23A22E
:101B2000FAC06FE08FEE232A4701BDBFEFE2AFEAB4
:101B3000B717014003A747C0C576FD16758F23A2CE
:101B4000E7C003A747C0A1660569558F23A2E7C078
:101B5000A1440144371A0140930900401309098048
:101B600013052003EFE0FF8423283AC183278AC0AE
:101B700006041374F40FB3F7270181C70504137427
:101B8000F40F13052003FD14EFE0BF8293F4F40F6C
:101B9000232A3AC1F1F403274AC0C576FD16758F92
:101BA0002322EAC003274AC08D662285558F23224F
:101BB000EAC06FE08FE5EFE2AFE341112EC6AA84E1
:101BC000FD3B130500066D3D2A8413054006EFE03A
:101BD0004FFE26857535498C13054006EFE06FFDF5
:101BE000B2452E85713D19C505443935228541011F
:101BF0006FE04FE21374F40F33348000FDB7EFE26F
:101C00002FDF41112A84653B13050006953D13051E
:101C10004006EFE00FFA2285A53513054006EFE0F8
:101C20004FF9D93B13054006EFE0AFF8493B1305E8
:101C30001006B93513054006EFE0AFF7C53D2AC6DB
:101C4000DD3B5D3B324541016FE0CFDCEFE24FDA37
:101C5000411185451305C003EFF00FC089649387D8
:101C600084007C82C1473EC64C008D473715014039
:101C7000371901403EC4EFF0CF911304800493075D
:101C800000634C00130509807C8222C6EFF06F9040
:101C90008567938707F44C00130509C07C8222C630
:101CA000EFF02F8F4C00938404F0371501406482CD
:101CB00022C6EFF00F8E91474C00130509407C823D
:101CC00022C6EFF00F8D41016FE0CFD4EFE24FD28B
:101CD000B53FA147371401405CC82945EFE02FEC20
:101CE0008964294544C8EFE08FEB04C8EFF05FC872
:101CF00085451305F00FC135930500084945653D3D
:101D000013052003EFE0AFE97145D53D131405013C
:101D10004180220442047545DD354180418D931593
:101D20000501A167C181938727FA638AF5003735DA
:101D3000000013050562C12D05456FE0AFCD2945B3
:101D40007D3D131405014180220442042D45453D8B
:101D50004180418D93150501C18193842464638979
:101D60009500373500001305C562712D0945F1B79F
:101D70000D6413048463930444160C300820090492
:101D80001D3DE31C94FE01454DBFEFE26FC60D649F
:101D90001304C4799304C4010C3008200904213DC4
:101DA000E31C94FE6FE00FC7B367B5008D8BB9EBF2
:101DB000EFE20FC4AE842A8481451305F00FE53BA2
:101DC00091451305000EC53B9355240093F5F50F7F
:101DD0001305A005CD3393D5240093F5F50F130516
:101DE000B005D13B93D5840029800D889189C18DA0
:101DF0001305C005C93381451305000E6D3B014530
:101E00006FE04FC105458280EFE28FBE2E84AA8429
:101E100081451305F00FEFF01FDAA6851305300D8D
:101E2000EFF07FD985451305F00FEFF0DFD8A285DD
:101E30004545EFF05FD86FE0EFBDEFE26FBBB13724
:101E4000930500141305000F8537854571456D3FD7
:101E50006FE04FBCEFE2CFB979712A89854537052C
:101E6000020002C602C8EFF00FA185451145EFF050
:101E7000AF9E85450545EFF02F9E371401409147F1
:101E8000FC828D44E1474C081305048026CC3ECEED
:101E9000EFE03FF0A147FC824C0893078004130554
:101EA000048026CC374400403ECEEFE09FEEB707DB
:101EB0000C000C10130504403ED44AD002D2231665
:101EC0000102EFF00FD70546930550521305044069
:101ED000EFF08FE0930760137C8685475C8768008E
:101EE00085473EC8EFE09FF8854513050440EFF0B5
:101EF0004FDD45616FE00FB2411122C6374400400B
:101F0000930550521305044026C4EFF0AFE2854715
:101F10006311F502AA8413050440EFF0CFDF23809C
:101F2000A1849305505213050440A3809184EFF0DF
:101F30002FE43244A244410173002030EFE2AFA904
:101F4000B7440040AE89328901449384044063451C
:101F500024014A856FE06FAB930500042685EFF0FE
:101F60000FDC7DD9B38789008385070026850504AA
:101F7000C205C181EFF0AFD9D9BF138701811C43DE
:101F8000938601D83E95636BD500B7860020938673
:101F9000068063E5A60008C33E858280FD57EDBF3D
:101FA00093567501B7078000FD1713D6750193F698
:101FB000F60F1308F00FB3F8A7001357F501ED8FD4
:101FC0001376F60FFD8163810603630C06018DE233
:101FD00011E2B1C3638E08026305B70405451DE72E
:101FE0008280F5D779558280E39E08FE6309D60288
:101FF00011E2EDD7E314B7FEE342D6FE63C7C60095
:10200000E3EE17FD0145E3FDF8FC01E77D55828015
:10201000F5DD054582800145E39208FC8280F9DB0D
:10202000D1B78146E1BF93567501B7078000FD1710
:1020300013D6750193F6F60F1308F00FB3F8A70047
:102040001357F501ED8F1376F60FFD8163870603B5
:102050006309060185EA11EA89EB0145639B0800E3
:1020600082800945F5FFE5DA31A8638C0802630038
:10207000B704054575D77D558280094563980802E8
:102080006304D60211E2F5D7E315B7FEE343D6FEAB
:1020900063C7C600E3EF17FD0145E3F3F8FC19E35E
:1020A000D9BFF1D905458280E5D3828082808146FF
:1020B000C5B7797122D4135475014ECE52CC931901
:1020C000950006D626D24AD056CA5AC81374F40FC1
:1020D00093D99900135AF50169C49307F00F630867
:1020E000F40E9397390037070004B3E9E7001304AF
:1020F00014F88144014B13D77501939A9500137717
:10210000F70F93DA9A0013D9F50145CF9307F00F33
:10211000630CF7028E0A130717F8B7070004B3EA37
:10212000FA003A94014633452A01BD47AA86930531
:10213000140063E0971017170000130727688A043C
:10214000BA949C40BA9782871304F40F63960A0CE2
:1021500093E424000946C1BF01451307F00FB707F8
:102160004000B2502254A6075E07A5837E05D98F92
:1021700092540259F249624AD24A424B5D8D4561FE
:102180008280CA86D689328B8947630FFB088D47C8
:10219000E304FBFC854736856310FB1A0147814742
:1021A000C9B7639D090413D77501939A95001377F6
:1021B000F70F91440144054B93DA9A0013D9F501C6
:1021C00031F7639D0A0093E414000546A9BF6392AA
:1021D0000902A1441304F00F094B31BF56856D2A43
:1021E0009307B5FF098CB39AFA001304A4F80146CB
:1021F0001DBFB1441304F00F0D4BF5BD4E852EC627
:10220000612A9307B5FF1304A0F8B399F900098C6C
:102210008144014BB245C5B593E434000D4621B766
:102220008947D286E315FBF636851307F00F814701
:102230000DBF41639306F3FF13D6090193D80A013A
:10224000B3F7D900B3FADA0033885703B389F80239
:1022500013570801B30A5603D6994E97330616034F
:10226000637357011A96C167FD17B376F700337889
:10227000F800C206C2969399660093570701B339D6
:102280003001E982B2979A07B3E6D900B3E9D700E3
:102290009397490063D9070013D7190093F71900E2
:1022A000B369F7002E841307F4076350E00493F733
:1022B000790099C793F7F90091466383D700910994
:1022C0009397490063D90700B70700F8FD17B3F9E2
:1022D000F900130704089307E00F63CBE704939713
:1022E0006900A5831377F70FADBD8547B386E74037
:1022F00011C76D4601478147E345D6E61307E40958
:102300003397E9003337E000B3D7D900D98F13F7FB
:10231000770019C713F7F70091466303D7009107B9
:1023200013975700634C07009A07A583014715BD13
:102330001307F00F814735B52E84B5B705478147A0
:102340000DB513577501370680009307F6FF137715
:10235000F70F9305E007B3F6A7009357F501014582
:1023600063F4E50099C3828082809307E0097D557C
:10237000E3EBE7FE93055009B3E7C60063D7E5003A
:102380001307A7F63395E70082801305600933072A
:10239000E54033D5E7008280C167637CF50293078F
:1023A000F00F1307000263EBA70097170000938755
:1023B000E744AA9788233305A74082802181971795
:1023C00000009387A743AA97882361473305A74056
:1023D0008280B7070001636DF500618197170000E7
:1023E0009387C741AA97882321473305A740828056
:1023F00041819717000093876740AA978823414738
:102400003305A740828039713EDA2ED232D436D6D7
:102410003AD842DC46DE9387418122CC804326CAEB
:1024200006CEAA8409C41C4C99E32285ED290C44EC
:1024300054102686228536C6EF009012F240624480
:10244000D24421618280011126CA4AC806CE22CC1C
:102450004EC652C4AA842E8901C51C4D91E3E121C8
:102460009C4C804499E326857D299717000093872B
:10247000E74A631BF402C0405E24A18BB1C71C482D
:10248000A1C7FD59294A1C4483450900FD17B1E93C
:102490001CC463DD07062286A94526856120FD57F9
:1024A0006308F502294535A097170000938707496F
:1024B0006314F4008044C9B797170000938707445A
:1024C000E31CF4FAC0444DBFA2852685112A55D9D4
:1024D0007D55F2406244D2444249B249224A0561E4
:1024E00082801CC4050963D70700184C63CAE70043
:1024F000638845011C401387170018C08CA361B77F
:10250000228626850520E31035F9D9B71C401387AC
:10251000170018C0294798A371B793874181AA85EE
:10252000884315B7011122CC26CA4AC806CE4EC62A
:10253000AA842E89328401C51C4D91E3ED2697179C
:1025400000009387A73D6317F406C0401C4C1CC4D1
:102550005E24A18BC1C31C48B5CF1C4808409379A9
:10256000F90F1379F90F1D8D5C486346F500A285BC
:102570002685692C25E51C440505FD171CC41C4057
:102580001387170018C0238037015C486388A700B1
:102590005E24858B81CBA9476316F900A285268529
:1025A000B5240DEDF24062444A85D2444249B24915
:1025B0000561828097170000938747386314F40001
:1025C000804469B79717000093874733E310F4F806
:1025D000C044ADBFA2852685212041D17D59D9B700
:1025E00041119387418126C2844322C44AC006C652
:1025F0002A892E8489C49C4C99E326852D26971719
:1026000000009387A731631BF402C0400317C40086
:1026100093170701C18393F68700ADEA93F607018C
:1026200095EEA5472320F900136707045AA47D55AA
:10263000B24022449244024941018280971700002F
:102640009387C72F6314F4008044C9B7971700001D
:102650009387C72AE31CF4FAC0444DBF918B9DC3F6
:102660004C5889C9930744046384F5004A8539238B
:10267000232A04025E242322040093F7B7FD5EA4FC
:102680001C481CC05E2493E787005EA41C4899EB9D
:102690005E241307002093F707286385E700A285CF
:1026A0004A85A9215E2413F717001DC35C48232423
:1026B0000400B307F0401CCC1C480145B5FB831750
:1026C000C40013F707082DD793E707045EA485B766
:1026D000898B014791E3584818C4F9BFDE250111E1
:1026E00022CC26CA06CE4AC84EC613F78700AA8453
:1026F0002E8479EBD841634DE000B841634AE00095
:102700000145F2406244D2444249B24905618280A7
:1027100058547DD703A904009396370123A00400E1
:1027200063DB060670485E24918B99C75C401D8E62
:102730005C5899C33C401D8E5C540C5081462685E4
:102740008297FD575A24631DF5009440F54763E8CE
:10275000D706B70740208507B3D7D700858BA5C319
:102760001C48232204001CC09317370163D80700BC
:10277000FD576314F5009C4091E368C84C5823A0B2
:102780002401BDDD930744046384F5002685FD26FE
:10279000232A0402B5B70C500146854626850297C8
:1027A000FD572A86E311F5F89C40B5DF7547638530
:1027B000E70059476393E70423A0240191B7136707
:1027C00007045AA47D5535BF83A90501E38A09F2A0
:1027D00003A905008D8B23A0350133093941014739
:1027E00091E3D84918C4E35D20F11C540C50CA860B
:1027F0004E86268582976347A0005E2493E70704F0
:102800005EA4C9B7AA993309A940F1BF9C49B9CFC1
:10281000011122CC06CE2A8411C51C4D81E72EC69B
:102820001922B245971700009387470F639BF50065
:102830004C408397C50095C722856244F2400561EC
:1028400071BD971700009387670F6394F5000C44E0
:10285000CDB7971700009387670AE39CF5FC4C44BB
:10286000C9BFF24062440145056182800145828012
:10287000411122C406C62A844EA572A52320050054
:102880002322050023240500232205062328050012
:10289000232A0500232C0500214681451305C50583
:1028A000EFD01F98971700009387A7B15CD09717B8
:1028B00000009387C7B31CD4971700009387A7B76E
:1028C0005CD497170000938707BA00D01CD8B24099
:1028D00022444101828097050000938565F3B1A2EF
:1028E000411126C2130680069384F5FFB384C40207
:1028F0004AC02E8922C406C69385440725262A8409
:1029000001CD2320050023222501310508C41386AB
:1029100084068145EFD0DF902285B2402244924464
:102920000249410182801C4DADE3411106C622C41B
:1029300097070000938767FA1CD5938781819C4392
:102940002324050423260504232805046314F50025
:1029500085471CCD2A841D2848C02285052808C427
:1029600022852D2048C4484001469145113708442E
:102970000546A545F53D48440946C945D53D854729
:102980001CCCB24022444101828082804111938755
:10299000818126C284434AC006C69C4C22C42A892F
:1029A00099E326854937938484048044DC40FD17ED
:1029B00063D607009C40B9CF8440C5BF0317C4004D
:1029C00039E7C17785072322040623200400232248
:1029D0000400232404005CC423280400232A0400E8
:1029E000232C0400214681451305C405EFD05F83E5
:1029F000232A0402232C040223240404232604048F
:102A00002285B2402244924402494101828013044B
:102A1000840671BF91454A85EFF09FEC88C049FD5F
:102A2000B1472320F9000144E1BF797122D44AD093
:102A300052CC56CA5AC85EC606D626D24ECE2A8A6E
:102A4000AE8A130485040149054BFD5B09ECB250C5
:102A500022544A8592540259F249624AD24A424B60
:102A6000B24B45618280044483294400FD1963D43C
:102A700009000040E1BFDE24637BFB008397E40094
:102A800063877701A6855285829A3369A90093846A
:102A90008406E9BF1971A6DAAE848395E500A2DC4D
:102AA00086DE328463DB0500DE2423A0060093F774
:102AB000070885E7930700401DA0300836C6EF00E1
:102AC0001020B246E34205FE7247BD67F98F797761
:102AD000BA9793B717009CC2F1BF930700041CC0BC
:102AE000F6506654D654014509618280DE250111F5
:102AF00022CC06CE26CA4AC8898B2E8489CF93075A
:102B000074041CC01CC885475CC8F2406244D244AF
:102B100042490561828074003000AA84A53FA24525
:102B20002A892685012219E98317C40013F7072093
:102B300069FFF19B93E727005EA4D1B797070000D8
:102B40009387A7D99CD45E2408C008C893E70708D8
:102B50005EA4A2475CC8B24781CF8315E4002685F6
:102B6000EF00901811C55E24F19B93E717005EA457
:102B70005E243369F9002316240141BFDDC183A718
:102B8000C5FF411122C406C626C21384C5FF63D304
:102B900007003E94AA84EF00F01B938741849C4376
:102BA00081EF2322040023A281842244B24026859F
:102BB000924441016F00301A637EF40014403307E1
:102BC000D4006396E7009843DC43369718C05CC096
:102BD000D9BFBA87D84319C3E37DE4FE9443338653
:102BE000D700631F86001040B29694C33386D70087
:102BF000E31DC7FA10435843B29694C3D8C375B7C0
:102C00006375C400B1479CC04DB71040B306C40003
:102C10006316D70014435843B29614C058C0C0C3BB
:102C200069B78280011126CA93843500F19806CED7
:102C300022CC4AC84EC6A104B14763F3F404B144A0
:102C400063E2B4042A89EF00F0109387418498432B
:102C50003A8439E0938781849C4391E781454A8592
:102C6000152F23A4A184A6854A852D27FD59631914
:102C70003507B1472320F9004A85EF00D00D29A080
:102C8000E3D004FCB1471CC10145F2406244D24488
:102C90004249B249056182801C40858F63CF07029B
:102CA000AD4663F6F6001CC03E9404C031A05C4003
:102CB0006313870223A2F1844A85EF00D00913052C
:102CC000B4009307440061993307F5405DDF3A94FF
:102CD000898F1CC05DBF5CC3C5B72287404095BFCC
:102CE000130435007198E30285FCB305A4404A85BE
:102CF0005525E31C35FBB5BF1C46FD171CC663DA22
:102D00000700184E63C5E700A9476394F5006FF00C
:102D10007F811C422E851387170018C28CA38280E6
:102D2000011122CC26CA4AC84EC652C406CE2A89F0
:102D3000AE893284B304D6007D5A631494000145F1
:102D400001A80C204E864A85453F0504E31745FF40
:102D5000F2406244D2444249B249224A056182802B
:102D6000357122CD26CB4AC94EC706CF52C556C3B0
:102D70005AC1DEDEE2DCE6DAAA89AE843289368424
:102D800009C51C4D99E3EFF01FBA97170000938710
:102D9000E7B86397F40C83A44900DE24A18BFDC33C
:102DA0009C48EDC393070002A304F10293070003BC
:102DB00002D22305F10222C6930B5002971A00009B
:102DC000938ACAB9054C294B4A841C2099C3639E37
:102DD000770DB30C2441638D0C00E6864A86A685E8
:102DE0004E853D3FFD57630FF51C9256E69636D251
:102DF0001C206389071CFD571309140002C802CE6A
:102E00003ECA02CCA309010482D4834509001546B9
:102E100056852D2713041900C24751E913F70701FE
:102E200009C713070002A309E10413F7870009C7C4
:102E30001307B002A309E104834609001307A002A7
:102E4000638FE606F2474A8481462546182093059B
:102E50001400130707FD6377E60AB5CA3ECE85A8BE
:102E600097170000938787AD6395F40083A48900CA
:102E70002DB797170000938767A8E390F4F283A417
:102E8000C90021BFA6854E85EFF08FF501DD7D5588
:102E9000FA406A44DA444A49BA492A4A9A4A0A4BE9
:102EA000F65B665CD65C0D618280050439BF330534
:102EB00055413315AC00C98F3EC82289B9B7324796
:102EC00093064700184336C6634707023ACE1820D8
:102ED0009307E002631DF70418309307A002631BF9
:102EE000F702B2470904138747009C433AC663C1FF
:102EF00007023ECA2DA83307E04093E727003ACEE9
:102F00003EC8F1B7B387670385462E84BA973DBFA5
:102F1000FD57C5B7050402CA8146814725461820DA
:102F200093051400130707FD6374E606F9F20C20FD
:102F30000D46171500001305E5A2092511CD9717B9
:102F40000000938727A21D8D93070004B397A70065
:102F5000424505045D8D2AC80C201946171500004E
:102F6000130585A0130914002304B102C12B35C138
:102F700097D7FFFF9387070995E74247B247137733
:102F8000071009CF91073EC69257D2973ED22DBD6A
:102F9000B387670385462E84BA9751B79D07E19B97
:102FA000A107D5B77800970600009386A6D7268696
:102FB0000C084E8597000000E7000000FD572A8AA4
:102FC000E314F5FCDE2493F70704E39207EC1255B3
:102FD000C1B57800970600009386C6D426860C08F3
:102FE0004E85012AE1BF797156CA9C49BA8A984533
:102FF00022D426D24ECE52CC06D64AD05AC85EC66D
:10300000AA892E84B284368A63D3E700BA879CC02B
:103010000347340419C385079CC01C4093F707027B
:1030200081C79C4089079CC003290400137969006B
:10303000631A0900130B9401FD5B5C449840998F5F
:10304000634CF9041C408346340493F70702B336FB
:10305000D000A5EB13063404D2854E85829AFD5725
:103060006303F5041C4011469840998B54448144F5
:103070006397C700B384E64063D3040081441C44D3
:1030800018486354F700998FBE94014969047D5B29
:1030900063982405014509A885465A86D2854E8540
:1030A000829A631E75017D55B25022549254025982
:1030B000F249624AD24A424BB24B456182800509CD
:1030C000ADBF3307D40013060003A301C7040347B1
:1030D000540493871600A2978906A381E7049DBF35
:1030E00085462286D2854E85829AE30E65FB0509C8
:1030F00045B7797122D426D24AD04ECE06D652CCCC
:1031000056CA5AC8B689942D930790063289AA8464
:103110002E8413863504638DF60263E2D706930787
:1031200080056386F61863EDD700638E062093074B
:103130003004638EF60A930A24042301D404C9A040
:10314000930730066385F60A93074006E395F6FE7B
:103150001C40084393F6070893054500C5C61C416B
:103160000CC363D807001307D002B307F040A301D4
:10317000E404970600009386A67F294765A8930775
:1031800000076382F61663E5D7029307E0066389BA
:10319000F6189307F006E390F6FA0C401C4313F878
:1031A0000508138547006307080608C39C4385A8E4
:1031B00093075007E383F6FE930780076389F612AF
:1031C00093073007E399F6F61C43D0418145938677
:1031D000470014C383AA070056858D2601C5330511
:1031E000554148C05C401CC8A301040461A81C43AD
:1031F000930A2404938647009C4314C32301F404D8
:103200008547D5B793F607041C410CC3B9DAC2074A
:10321000C18781BF93F5050408C3C9D99E2313074D
:10322000F0066387E60E97060000938666742947CA
:10323000A30104044C400CC463C5050008406D990B
:1032400008C099E3B28A89CDB28AB3F5E702FD1AC4
:10325000B6958C212380BA00B3D5E70263F0E70C62
:10326000A147631EF7001C40858B91CB58401C483A
:1032700063C7E70093070003A38FFAFEFD1A330626
:10328000564110C84E87CA867000A2852685EFF089
:103290009FD57D5A631D450B7D55B25022549254E3
:1032A0000259F249624AD24A424B45618280A38266
:1032B000D504970600009386A66B0C40084313F8CC
:1032C00005081C411105630D080208C313F715001A
:1032D00001C793E505020CC04147B9FB0C4093F5CB
:1032E000F5FD0CC0B1B79C4193E707029CC1930761
:1032F0008007A302F404970600009386A66875BFB2
:1033000013F8050408C3E30308FCC207C1837DBFAB
:10331000970600009386C665214719BFAE8735B76B
:1033200094411C43CC4913F80608138547006306F3
:10333000080008C39C438CC339A008C393F6060455
:103340009C43F5DA8EA323280400B28A25BF1448D3
:103350005686CA8526858299E30045F51C40898BEF
:103360008DE7B2474844E35AF5F23E853DB78546BE
:103370005686CA8526858299E30065F3050A5C4472
:103380003247998FE345FAFEE9BF014A930A940157
:103390007D5BF5B7411122C42A842E8523AE01D668
:1033A00006C6EFE09FBDFD576317F5009387C1D7B1
:1033B0009C4391C31CC0B240224441018280411110
:1033C00022C42E848395E50006C679226349050050
:1033D0007C48AA977CC8B2402244410182805E2486
:1033E0007D777D17F98F5EA4FDB7DE25011122CC14
:1033F00026CA4AC84EC606CE93F70710AA842E8462
:103400003289B68991C78395E5008946014609222C
:103410005E247D777D17F98F5EA48315E4006244F6
:10342000F240CE864A86B24942492685D244056199
:1034300025A8411122C42E848395E50006C6C9281B
:10344000FD575A24631AF500FD77FD17F98F5EA426
:10345000B2402244410182808567D98F5EA468C84A
:10346000C5BF8395E50005A8411122C42A842E8595
:10347000B285368623AE01D606C6EFE03FACFD57D7
:103480006317F5009387C1D79C4391C31CC0B2401A
:10349000224441018280411122C42A842E8523AE18
:1034A00001D606C6C520FD576317F5009387C1D71F
:1034B0009C4391C31CC0B24022444101828041110F
:1034C00022C42A842E85B28523AE01D606C6C92021
:1034D000FD576317F5009387C1D79C4391C31CC068
:1034E000B240224441018280411122C42A842E85A7
:1034F00023AE01D606C65D20FD576317F5009387FE
:10350000C1D79C4391C31CC0B24022444101828078
:10351000411122C42A842E85B285368623AE01D677
:1035200006C65920FD576317F5009387C1D79C4302
:1035300091C31CC0B24022444101828093F5F50F33
:103540002A966314C500014582801C21E38EB7FED4
:103550000505C5BF82808280411122C42A842E8540
:10356000B285368623AE01D606C6A920FD5763175D
:10357000F5009387C1D79C4391C31CC0B24022443D
:10358000410182809307800523AEF1D67D5582806C
:103590009307800523AEF1D67D5582809307800581
:1035A00023AEF1D6014582809307800523AEF1D684
:1035B0007D5582809307800523AEF1D67D558280AC
:1035C000000080BF0000803F00007045CDCC4C3E25
:1035D00053797374656D436C6B3A25640D0A000072
:1035E0004368697049443A253038780D0A00000074
:1035F00043616D657261204D6F64656C2045727228
:103600000D0000005247423536355F4D4F44450DA1
:10361000000000004649464F204F560D00000000B4
:103620004D49443A253038780D0A00005049443A53
:10363000253038780D0A0000FF002CFF2EDFFF0137
:103640003C321100090204D813E514482C0C3378DD
:103650003A333BFB3E0043111610399235DA221AF9
:1036600037C3230034C0361A068807C00D870E41C1
:103670004C0048005B0042034A81219924402538D0
:1036800026825C00630046000C3C617062807C0511
:10369000208028306C006D806E007002719473C1C0
:1036A0003D345A5712001711187519011A973236FE
:1036B000030F37404FCA50A85A236D006D38FF00E2
:1036C000E57FF9C04124E01476FF33A0422043187F
:1036D0004C0087D5883FD703D910D382C808C9804A
:1036E0007C007D007C037D487D487C087D207D102A
:1036F0007D0E9000910E911A9131915A91699175B8
:10370000917E9188918F919691A391AF91C491D719
:1037100091E891209200930693E39305930593001B
:1037200093049300930093009300930093009300FD
:103730009600970897199702970C97249730972827
:10374000972697029798978097009700C3EFA40059
:10375000A800C511C651BF80C710B666B8A5B7642A
:10376000B97CB3AFB497B5FFB0C5B194B20FC45C28
:10377000C0C8C1968C00863D50005190522C530019
:10378000540055885A905B2C5C05D302C3ED7F0032
:10379000DA09E51FE167E000DD7F0500FF00DA09D7
:1037A000D703DF0233A03C00E167FF01E000E10046
:1037B000E500D700DA00E0007AEAFFFFCCE9FFFF7E
:1037C000CCE9FFFFCAE9FFFFD0E9FFFFD0E9FFFF27
:1037D000A0E9FFFFCAE9FFFFD0E9FFFFA0E9FFFF73
:1037E000D0E9FFFFCAE9FFFF68EAFFFF68EAFFFFD1
:1037F00068EAFFFFA0E9FFFF0001020203030303E1
:103800000404040404040404050505050505050570
:103810000505050505050505060606060606060650
:103820000606060606060606060606060606060638
:103830000606060606060606070707070707070720
:103840000707070707070707070707070707070708
:1038500007070707070707070707070707070707F8
:1038600007070707070707070707070707070707E8
:1038700007070707070707070808080808080808D0
:1038800008080808080808080808080808080808B8
:1038900008080808080808080808080808080808A8
:1038A0000808080808080808080808080808080898
:1038B0000808080808080808080808080808080888
:1038C0000808080808080808080808080808080878
:1038D0000808080808080808080808080808080868
:1038E0000808080808080808080808080808080858
:1038F0000808080808080808000000000000000088
:1039000000000000000000000000000000000000B7
:1039100000000000000000000000000000000000A7
:103920000000000000000000000000000000000097
:103930000000000000000000000000000000000087
:103940000000000000000000000000000000000077
:103950000000000000000000232D302B200000009C
:10396000686C4C006566674546470000303132336D
:10397000343536373839414243444546000000006B
:1039800030313233343536373839616263646566D5
:043990000000000033
:1039940000000000000000000102030406070809FB
:1039A40000000000010203040102030406070809E1
:1039B400000000001839000038390000F838000011
:1039C40000000000000000000000000000000000F3
:1039D40000000000000000000000000000000000E3
:1039E40000000000000000000000000000000000D3
:1039F40000000000000000000000000000000000C3
:103A040000000000000000000000000000000000B2
:103A140000D8B8050204060800A00020E0A1002098
:103A240000060020200000202000002000000000EC
:00000001FF
