:040000006F00500934
:100004000000000000000000C8020000CA02000056
:100014000000000092080000000000000000000042
:100024009208000092080000000000000000000098
:100034002E040000000000009208000000000000F0
:100044009208000092080000920800009208000044
:100054009208000092080000920800009208000034
:100064009208000092080000920800009208000024
:100074009208000092080000920800009208000014
:100084009208000092080000920800009208000004
:1000940092080000920800009208000092080000F4
:1000A40092080000920800009208000092080000E4
:1000B40092080000920800009208000092080000D4
:1000C40092080000920800009208000092080000C4
:1000D4009208000092080000E81200009208000054
:1000E40092080000920800009208000092080000A4
:1000F4009208000092080000920800009208000094
:10010400000000009208000092080000920800001D
:100114009208000092080000920800009208000073
:100124009208000092080000920800009208000063
:100134009208000092080000920800009208000053
:100144009208000092080000920800009208000043
:100154009208000092080000EC100000CC0200009D
:100164005404000092080000920800009208000065
:100174009208000092080000920800009208000013
:100184009208000092080000920800009208000003
:1001940092080000920800009208000092080000F3
:1001A400000000000000000000000000000000004B
:0C01B4000000000000000000000000003F
:1001C000397101436EC619A0397141536AC866CAB4
:1001D00062CC5ECE19A0397101535AD056D252D496
:1001E0004ED64AD826DA22DC06DE3301614082820E
:1001F00041114AC026C222C406C68282B24D4101C4
:10020000024D924C224CB24B4101024B924A224A7F
:10021000B2494101024992442244B24041018280E4
:100220003D432A876373C3029377F700BDEFADE5C3
:10023000937606FF3D8ABA960CC34CC30CC74CC7D5
:100240004107E36BD7FE11E28280B306C3408A0602
:100250009702000096966780A6002307B700A306C2
:10026000B7002306B700A305B7002305B700A30412
:10027000B7002304B700A303B7002303B700A3020A
:10028000B7002302B700A301B7002301B700A30002
:10029000B7002300B700828093F5F50F9396850091
:1002A000D58D93960501D58D61B79396270097025A
:1002B000000096968682E78086FA9680C1171D8F89
:1002C0003E96E374C3F8A5B701A001A0EFF25FF278
:1002D000372400409305003613050480EF00503E9C
:1002E00019CD13050480EF00D03B13050480EF0007
:1002F000503BA14513050480EF00D03B21BF93057F
:10030000505213050480EF00B03B01C9130504806F
:10031000EF00303993050002F1BF930570721305A9
:100320000480EF00F03979D993050008E1B705475B
:1003300023A2E182238401829387818401479386EB
:1003400081947D5513060002B385E60023A20700C1
:1003500023A0070088A10507A107E317C7FEB7F789
:1003600000E023A20700814694C70147D8C737079A
:100370000020032707089306803E3357D7028146A3
:100380001306F7FF90CBD4CB3D4798C3B7E700E007
:1003900005472386E740056723A0E710828013877F
:1003A00041821443938741829843158FE36EA7FEE1
:1003B0008280EFF25FE2138741821C4383C6818211
:1003C00085071CC313878194369714237D47636F79
:1003D000D702938441821389819413848182938903
:1003E0008184FD5A182083A60182814513860182EB
:1003F0003305E9001C2103A804008E07CE9783A8CB
:10040000070063F6080199C114C218A0FDBBD443CC
:10041000050723A2070023A00700230055017D8BB9
:100420008545F9D6884014C218A0829665BFB7F7F3
:1004300000E0D84301C723A20700A53F7300203086
:10044000EFF21FDBAA85372500001305855EEF005C
:10045000307EC9B3EFF2DFD9372400409305003670
:10046000130504C0EF00D02519CD130504C0EF001B
:100470005023130504C0EF00D022A145130504C08A
:10048000EF00502341BB93055052130504C0EF0009
:1004900030236DD9130504C0EF00B0201375F50F9C
:1004A000453793050002D9BFEFF29FD47971854596
:1004B000214502CA02CC02CE02D002D202D402D618
:1004C00002C402C623180100EF00007185450945EA
:1004D000EF006072854737150140FC820D49E14706
:1004E0004C08130505C03ECE4ACC3D29B707002075
:1004F00083A707081307803E37040040B3D7E702FD
:100500002C0013050440C16423150100FD177C84F1
:100510009307703E3EC6FD2D938704060C1013050D
:1005200004403ED02313010223140102EF0020797E
:10053000130504408545EF00D004130504408145B0
:10054000EF003007130504408545EF00F004130564
:1005500004408545EF007001854513050004AD2D6D
:1005600037240140C1473ECE4C08930700C0130515
:100570000480FC824ACC4D2E0146938504C01305AD
:100580000480A529456179B1EFF29FC6B727000025
:1005900083A5C75EEF0010611356F50137250140B2
:1005A000134616009305004013050580B9219DB13F
:1005B000EFF21FC437240140930500401305048067
:1005C00025219305004009C5130504802D2199B10B
:1005D000130504803929E5BFEFF29FC1BD2A094503
:1005E0001521716513050520EF003046B70700207F
:1005F00083A50708372500001305455FEF0050630A
:10060000392EAA853725000013054560EF0050629A
:10061000613D313B713F1305401F5133513F13057D
:10062000401FB53BB727000083A4075F0549372467
:1006300000002685913F1305401F953313050000E8
:10064000A1371305401FA13BEF00F04DE31325FF39
:10065000EF00D04EAA851305845EEF00705DD1BF18
:10066000B71702409843B706FFF041111367170010
:1006700098C3D84337060200758FD8C39843B7068E
:10068000F7FEFD16758F98C39843B706FCFFFD165D
:10069000758F98C3D843B70601FFFD16758FD8C371
:1006A0009843B70600ECFD16758F98C33707FF0017
:1006B00098C723A6070202C402C69843C166558F95
:1006C00098C3B716024005679C42F18F3EC6A24709
:1006D00085073EC4B24781E7A247E397E7FEB71715
:1006E00002409C431397E7006357070685473EC6C1
:1006F00032478547631FF704B7170240D843B70650
:10070000C1FFFD16D8C3D843D8C3D84313670740E9
:10071000D8C3D843758FD8C3D843B7062900558F9F
:10072000D8C39843B7060001558F98C398439316D2
:100730006700E3DD06FED843B7160240719BD8C3BD
:10074000D84313672700D8C32147DC42B18BE39E0F
:10075000E7FE4101828002C661BFB7160240D8425F
:10076000B70700201146318B93870708630BC70238
:100770002146630DC70237177A001307072098C375
:1007800037170240584311839376F700370700204C
:10079000130707003697142398433357D70098C39D
:1007A00082803727B700130707B0D1BFD842D442A1
:1007B000416649833D8BF18E1306270015CF3D47D7
:1007C000630FE6024147630FE60245478145631325
:1007D000E6004146A1E23747024003270780418BEC
:1007E0000DC737177A00130707203306C70290C3D7
:1007F000C1D99843058361B781454946E1BF854525
:100800003546C9BF81453D46F1B737173D0013074F
:100810000790E1BF3715024058559316F700585519
:1008200063DF060411833D8B930617003727B7005B
:10083000130707B03357D70298C35455A182BD8A16
:100840008DE295463307D702058398C337170240D8
:10085000585794433D8B050733D7E60298C3984316
:1008600069B705456394A600E546E9BF3D45639633
:10087000A600D1463387E602C9BF8906E5BF3D8B96
:10088000930617003727B700130707B03357D7026F
:10089000F1B701A0970100209381C1FE17710020DC
:1008A0001301417617250000130585E197F5FF1F19
:1008B000938545751386018263FAC500832205007E
:1008C00023A0550011059105E3EAC5FE13850182B9
:1008D0009385C1D66377B500232005001105E36D2C
:1008E000B5FEFD42739002BCAD4273904280B76288
:1008F0000000938282087390023097F2FFFF938288
:10090000A27093E2320073905230EFF07FD59702DD
:1009100000009382A2CC7390123473002030B7F79A
:10092000FF1F03A5477082809C4513F7070113F84A
:10093000F70001C7D8413368E8008E2113F7F50F9F
:1009400039C318418146854E3D4F930F8002930273
:100950008004214E3396DE00B3F8C5006311160300
:100960009398260033131F011343F3FF3377E300FB
:10097000B318180133E7E800639FF70550C98506EF
:10098000E39AC6FD18C11307F00F6375B70454410D
:100990002146854E3D4F930F800293028004414EC5
:1009A000B398CE0033F715016392E80213172600BF
:1009B00001173313EF001343F3FFB376D30033175C
:1009C000E800D98E639DF701232A15010506E31976
:1009D000C6FD54C18280E39457FA10C94DB7E3971E
:1009E00057FE23281501DDB748456D8D3335A0002E
:1009F00082800CC982804CC9828019C20CC9828055
:100A00004CC9828023A6A182828003A7C182894724
:100A100010216311F70214318D4763EDD7003C219B
:100A20009A0637E700E09607D58F93F7F70F3297CE
:100A30002300F74054410547935756003317C7002A
:100A400089CA938707048A07B7E600E0B69798C378
:100A5000828093870706C5BF371702405C439146E3
:100A6000B18B6385D706A1466387D706B7177A008F
:100A7000938707201CC1371602405C4237070020CD
:100A8000130707019183BD8BBA9794231C41B3D7F9
:100A9000D7005CC15442A1829D8ABA969422B3D6F3
:100AA000D70014C55442AD829D8A36971823B3D718
:100AB000E7005CC55842398393763700138741803D
:100AC00036971823B3D7E7021CC98280B727B7002F
:100AD000938707B045B75C435843C166C983758F98
:100AE000B7F6FF1F83A6C670BD8B89071396160144
:100AF00063480600C54601466392D702C94739A834
:100B00008946638FD702BD46638ED702C146638E86
:100B1000D702C54601466393D700C1471DEF37474B
:100B2000024003270780418B05C737177A00130758
:100B30000720B307F7021CC11DDE1C4185831DBFC2
:100B400001466DBF0546B547D1BF0146BD47F9B760
:100B500037173D0013070790E9BFB7150240D85576
:100B60009316F700D85563DF060411833D8B930677
:100B700017003727B700130707B03357D70218C13C
:100B8000D455A182BD8A8DE295463307D7020583ED
:100B900018C137170240585714413D8B050733D70A
:100BA000E60218C1184171B785456394B600E54661
:100BB000E9BFBD456396B600D1463387E602C9BF9B
:100BC0008906E5BF3D8B930617003727B70013074B
:100BD00007B03357D702F1B799C5371702401C4FFA
:100BE0005D8D08CF8280B7170240984F1345F5FFFF
:100BF000798D88CF828099C5371702405C4F5D8D13
:100C000048CF8280B7170240D84F1345F5FF798D42
:100C1000C8CF82801E2137370140930607C0C20724
:100C2000C1836300D504B7060040630CD5029386E8
:100C300006406308D502B71600401386068063029B
:100C4000C502938606C0630ED50013070740630AEA
:100C5000E50037570140930607C06304D5006316CB
:100C6000E500BA2193F7F7F8D98F37170040630CE6
:100C7000E500130707406308E50093F7F7CFFA2173
:100C8000C207C183D98F1EA1DE215EB59E211EB58C
:100C9000B7370140138707C0630EE500938707400D
:100CA000630AF500B7570140138707C06304E500E6
:100CB0006314F5009C251EB985475EA982801E310C
:100CC00003D88500C207C18393F7F7EFC207C1833A
:100CD0001EB11E3156215A2DC20713960601420736
:100CE000962141831377C7F8558FB621C18393F7B7
:100CF000F7DFB3E60601A206D58FB7360140C2077B
:100D0000138806C04182C183630E050193860640A5
:100D1000630AD500B7560140138806C06304050175
:100D2000631FD502FD769386F67FF58FB62503D82F
:100D3000C500A206D58FD621C207C183A20693F7AC
:100D4000F7BFD58FF576FD16F18EF225C207C18368
:100D5000336606011206D18E13960601418252A116
:100D60005AADFA215ABD1EB182801E2189C593E772
:100D700017001EA18280C207C183F99BC207C183ED
:100D8000CDBF8357450491C52167D98F2312F50440
:100D90008280C607C583DDBF1E2189C593E707088A
:100DA0001EA18280C207C18393F7F7F7C207C183F0
:100DB000C5BF5E2DC207C183DD9BDD8D4EAD828038
:100DC000EFF20FC31629F577FD17F58FF621DA2517
:100DD0007971D58F1EA95625FD779387379FF58F9B
:100DE000D6212A842EC6D58F9625D58FB625D58FA8
:100DF0005EA55E29C207C18393F7F7CFD98F5EA99D
:100E000068089939B747014093870780B245631E48
:100E1000F402A2576547B387E7029841930640065C
:100E20000A07B3D7E70233D7D702B3F7D7021207BF
:100E3000920793872703B3D7D702BD8BD98FC207F9
:100E4000C1831EA445616FF0EFBC9257E1B791C515
:100E50005E250967D98F5EA582805A25F977FD172F
:100E6000F98FD5BF13F7F50F85471583B395B700F5
:100E70006319F7009307C500984301CED98D8CC341
:100E80008280894693074501E318D7FE9307050141
:100E9000E5B793C5F5FFF98DDDB793F5F51F4EA1C5
:100EA00082804A211375F51F82800A216D8D3335AA
:100EB000A000828093C5F5FFC205C1810EA182808A
:100EC00013F7F50F85461583B397B6006311D70264
:100ED0005A25F98F1A2101454207418381CB0545E7
:100EE000A181B315B5006D8F3335E000828089464E
:100EF0006314D7001A29F1BF5A29E1BFA1818547A0
:100F0000B397B70093C7F7FFC207C1831EA18280C2
:100F1000EFF20FAE37140140AA842A86A1651305AB
:100F20000440E13C2686896513050440F9346FF0DE
:100F30006FAEEFF2EFAB37140140AA842A869165B9
:100F4000130504405D3C2686856513050440753411
:100F50006FF04FACEFF2CFA90545E13F05454D3F9E
:100F60000145C13F01456D376FF0CFAAEFF24FA8A1
:100F70000145C1370545693F0545653F6FF08FA9BC
:100F8000EFF26FA52A89014493090008A14433D5E3
:100F90008940337525013335A000613F05458D3FFC
:100FA00001450504B537E31494FE05459537014521
:100FB00085376FF08FA5EFF2AFA32A84613F130549
:100FC00080077D3F01456D3F22855D3F45376FF0CE
:100FD0006FA4EFF2EFA1AE842A84AD3F1305800722
:100FE000453713050004693FA29463159400BD3F83
:100FF0006FF04FA2082005046137C5BFEFF24F9F85
:101000001365050B2E84453F1355440013650501F8
:101010005D371375F40045376FF0CF9FEFF24F9DAA
:10102000938481960144214922858145C13F05046D
:101030002685930500081374F40F613F9384040818
:10104000E31424FF6FF00F9D9387819693860740EA
:10105000130600080147B385E70023800500050754
:10106000E31BC7FE93870708E396D7FE828093179A
:101070008501E18763C607029307F00363E2B702C5
:1010800093D735001397770093878196BA973E954B
:1010900093F775008545B395F5001C21DD8D0CA1F6
:1010A000828083A781808605BE959307001E330545
:1010B000F5022E9518311C211315370093D65700D1
:1010C0001375850336959306B0043305D5020D8359
:1010D00093066002FD8B3307D7023A953D47B387ED
:1010E000E7023E951D851375F50F8280011122CE12
:1010F00026CC4ACA4EC852C6B7070550982B098B52
:1011000035CB982B138481831377D70F98AB982313
:101110001377E70F98A3938701839843058B6305A3
:10112000070E984381441549050798C3130A3002F6
:101130009309001E1C40B3F727038DE393F5F40FCA
:1011400005458537637CAA000C4033C52403B3D51D
:1011500025031375F50F93F5F50F113F9504E39BE8
:1011600034FD370705501C2393E717001CA31C40D0
:1011700085071CC0370405501C28918B8DCB1C287B
:1011800093F7B70F1CA883A781801CC483A7C180D5
:101190005CC423A8018223AC01821C2093F7E70FD3
:1011A0001CA0AD3D55351C2093E717001CA0B707C8
:1011B0000550982B058B11CB982B1377E70F98AB25
:1011C000938741839843050798C3B7070550982B29
:1011D000418B09C7982B1377F70E98ABB7070550CB
:1011E000982B218B11CB982B3725000013054561D7
:1011F0001377770F98ABB9267244E2445249C2493B
:10120000324A05617300203098438144154905072F
:1012100098C3130A30029309001E1C40B3F727033A
:101220008DE393F5F40F0145AD3D637CAA000C40BE
:1012300033C52403B3D525031375F50F93F5F50FC7
:101240003D359504E39B34FD29BFEFE27FFA7971C8
:101250002A8985453705020002C602C8EFF0BF990A
:1012600085451145EFF05F9785450545EFF0DF9621
:10127000371401409147FC828D44E1474C08130527
:10128000048026CC3ECEEFF02FEAA147FC824C082A
:10129000930780041305048026CC374400403ECEDB
:1012A000EFF08FE8B7070C000C10130504403ED494
:1012B0004AD002D223160102213605469305505228
:1012C000130504404536930760137C8685475C8789
:1012D000680085473EC8EFF04FF38545130504408D
:1012E000BD3645616FE01FF3411122C6374400400F
:1012F000930550521305044026C4D9368547631F11
:10130000F500AA8413050440693E238EA18293054B
:10131000505213050440A38E9182CD363244A2442C
:101320004101730020309387D18394230547014501
:101330006395E600238007000545828003C5C183CD
:101340008280EFE25FE9B7440040AE893289014410
:1013500093840440634524014A856FE01FEB9305A5
:1013600000042685993665DDB387890083850700EB
:1013700026850504C205C181EFF03FB2E1BF1387A6
:1013800001811C439386C1D63E95636BD500B78619
:1013900000209386068063E5A60008C33E85828010
:1013A000FD57EDBF93567501B7078000FD1713D6A3
:1013B000750193F6F60F1308F00FB3F8A700135753
:1013C000F501ED8F1376F60FFD8163870603630940
:1013D000060185EA11EA89EB0145639B08008280DA
:1013E0000945F5FFE5DA31A8638C08026300B7040C
:1013F000054575D77D5582800945639808026304C9
:10140000D60211E2F5D7E315B7FEE343D6FE63C774
:10141000C600E3EF17FD0145E3F3F8FC19E3D9BF7C
:10142000F1D905458280E5D3828082808146C5B7A7
:1014300039713EDA2ED232D436D63AD842DC46DE84
:101440009387418122CC804326CA06CEAA8409C450
:101450001C4C99E32285ED290C44541026862285E4
:1014600036C6EF007012F2406244D244216182809D
:10147000011126CA4AC806CE22CC4EC652C4AA843E
:101480002E8901C51C4D91E3E1219C4C804499E3D8
:1014900026857D29971700009387C71A631BF402DE
:1014A000C0405E24A18BB1C71C48A1C7FD59294A81
:1014B0001C4483450900FD17B1E91CC463DD070620
:1014C0002286A94526856120FD576308F502294536
:1014D00035A0971700009387E7186314F400804441
:1014E000C9B7971700009387E713E31CF4FAC044C9
:1014F0004DBFA2852685112A55D97D55F2406244FB
:10150000D2444249B249224A056182801CC405097D
:1015100063D70700184C63CAE700638845011C4085
:101520001387170018C08CA361B722862685052073
:10153000E31035F9D9B71C401387170018C02947A5
:1015400098A371B793874181AA85884315B7011184
:1015500022CC26CA4AC806CE4EC6AA842E89328418
:1015600001C51C4D91E3ED26971700009387870D69
:101570006317F406C0401C4C1CC45E24A18BC1C37D
:101580001C48B5CF1C4808409379F90F1379F90F1F
:101590001D8D5C486346F500A2852685692C25E5EE
:1015A0001C440505FD171CC41C401387170018C0F8
:1015B000238037015C486388A7005E24858B81CB3C
:1015C000A9476316F900A2852685B5240DEDF240E2
:1015D00062444A85D2444249B249056182809717E4
:1015E0000000938727086314F400804469B79717B5
:1015F000000093872703E310F4F8C044ADBFA28531
:101600002685212041D17D59D9B741119387418148
:1016100026C2844322C44AC006C62A892E8489C4AD
:101620009C4C99E326852D26971700009387870108
:10163000631BF402C0400317C40093170701C18362
:1016400093F68700ADEA93F6070195EEA5472320B0
:10165000F900136707045AA47D55B240224492440E
:10166000024941018280971700009387A7FF631406
:10167000F4008044C9B7971700009387A7FAE31CCA
:10168000F4FAC0444DBF918B9DC34C5889C9930750
:1016900044046384F5004A853123232A04025E242E
:1016A0002322040093F7B7FD5EA41C481CC05E24EF
:1016B00093E787005EA41C4899EB5E241307002083
:1016C00093F707286385E700A2854A85A1215E2458
:1016D00013F717001DC35C4823240400B307F04030
:1016E0001CCC1C480145B5FB8317C40013F7070841
:1016F0002DD793E707045EA485B7898B014791E353
:10170000584818C4F9BFDE25011122CC26CA06CEDE
:101710004AC84EC613F78700AA842E8479EBD841B5
:10172000634DE000B841634AE0000145F240624485
:10173000D2444249B2490561828058547DD703A9F9
:1017400004009396370123A0040063DB060670486B
:101750005E24918B99C75C401D8E5C5899C33C40B8
:101760001D8E5C540C50814626858297FD575A2465
:10177000631DF5009440F54763E8D706B70740209E
:101780008507B3D7D700858BA5C31C482322040047
:101790001CC09317370163D80700FD576314F50089
:1017A0009C4091E368C84C5823A02401BDDD9307F9
:1017B00044046384F5002685F526232A0402B5B780
:1017C0000C500146854626850297FD572A86E3116F
:1017D000F5F89C40B5DF75476385E700594763938B
:1017E000E70423A0240191B7136707045AA47D5589
:1017F00035BF83A90501E38A09F203A905008D8B92
:1018000023A0350133093941014791E3D84918C470
:10181000E35D20F11C540C50CA864E8626858297C3
:101820006347A0005E2493E707045EA4C9B7AA99A2
:101830003309A940F1BF9C49B9CF011122CC06CE92
:101840002A8411C51C4D81E72EC61922B24597176F
:101850000000938727DF639BF5004C408397C5000A
:1018600095C722856244F240056171BD971700005B
:10187000938747DF6394F5000C44CDB797170000BA
:10188000938747DAE39CF5FC4C44C9BFF2406244BD
:1018900001450561828001458280411122C406C64E
:1018A0002A844EA572A523200500232205002324A7
:1018B00005002322050623280500232A0500232CE2
:1018C0000500214681451305C505EFE07F95971773
:1018D0000000938767B15CD097170000938787B3A8
:1018E0001CD497170000938767B75CD49717000044
:1018F0009387C7B900D01CD8B240224441018280EE
:1019000097050000938565F3A9A2411126C213062D
:1019100080069384F5FFB384C4024AC02E8922C492
:1019200006C6938544071D262A8401CD2320050081
:1019300023222501310508C4138684068145EFE082
:101940003F8E2285B2402244924402494101828066
:101950001C4DADE3411106C622C4970700009387D2
:1019600067FA1CD5938781819C4323240504232691
:101970000504232805046314F50085471CCD2A843B
:101980001D2848C02285052808C422852D2048C46A
:10199000484001469145113708440546A545F53DA7
:1019A00048440946C945D53D85471CCCB240224430
:1019B00041018280828041119387818126C28443C4
:1019C0004AC006C69C4C22C42A8999E32685493719
:1019D000938484048044DC40FD1763D607009C4058
:1019E000B9CF8440C5BF0317C40039E7C177850765
:1019F00023220406232004002322040023240400BD
:101A00005CC423280400232A0400232C040021465C
:101A100081451305C405EFE0BF80232A0402232C6F
:101A2000040223240404232604042285B240224411
:101A300092440249410182801304840671BF91459A
:101A40004A85E13588C051FDB1472320F9000144A2
:101A5000E9BF797122D44AD052CC56CA5AC85EC660
:101A600006D626D24ECE2A8AAE8A130485040149B0
:101A7000054BFD5B09ECB25022544A859254025941
:101A8000F249624AD24A424BB24B456182800444D9
:101A900083294400FD1963D409000040E1BFDE241E
:101AA000637BFB008397E40063877701A6855285FB
:101AB000829A3369A90093848406E9BF1971A6DA72
:101AC000AE848395E500A2DC86DE328463DB05000C
:101AD000DE2423A0060093F7070885E7930700405C
:101AE0001DA0300836C6EF00F01FB246E34205FEE7
:101AF0007247BD67F98F7977BA9793B717009CC281
:101B0000F1BF930700041CC0F6506654D65401453B
:101B100009618280DE25011122CC06CE26CA4AC880
:101B2000898B2E8489CF930774041CC01CC88547F9
:101B30005CC8F2406244D24442490561828074002C
:101B40003000AA84A53FA2452A892685012219E9E9
:101B50008317C40013F7072069FFF19B93E7270061
:101B60005EA4D1B7970700009387C7D99CD45E24A1
:101B700008C008C893E707085EA4A2475CC8B2473C
:101B800081CF8315E4002685EF00701811C55E240F
:101B9000F19B93E717005EA45E243369F9002316D6
:101BA000240141BFDDC183A7C5FF411122C406C680
:101BB00026C21384C5FF63D307003E94AA84EF00B6
:101BC000D01B938701849C4381EF2322040023A030
:101BD00081842244B2402685924441016F00101A4C
:101BE000637EF40014403307D4006396E700984303
:101BF000DC43369718C05CC0D9BFBA87D84319C335
:101C0000E37DE4FE94433386D700631F86001040D3
:101C1000B29694C33386D700E31DC7FA10435843E6
:101C2000B29694C3D8C375B76375C400B1479CC05E
:101C30004DB71040B306C4006316D7001443584391
:101C4000B29614C058C0C0C369B78280011126CAB9
:101C500093843500F19806CE22CC4AC84EC6A10422
:101C6000B14763F3F404B14463E2B4042A89EF009A
:101C7000D0109387018498433A8439E09387418454
:101C80009C4391E781454A850D2F23A2A184A68517
:101C90004A852527FD5963193507B1472320F900E7
:101CA0004A85EF00B00D29A0E3D004FCB1471CC168
:101CB0000145F2406244D2444249B2490561828002
:101CC0001C40858F63CF0702AD4663F6F6001CC04B
:101CD0003E9404C031A05C406313870223A0F184CA
:101CE0004A85EF00B0091305B400930744006199D9
:101CF0003307F5405DDF3A94898F1CC05DBF5CC33C
:101D0000C5B72287404095BF130435007198E302A0
:101D100085FCB305A4404A854D25E31C35FBB5BFC2
:101D20001C46FD171CC663DA0700184E63C5E700A2
:101D3000A9476394F5006FF09F811C422E8513879D
:101D4000170018C28CA38280011122CC26CA4AC86F
:101D50004EC652C406CE2A89AE893284B304D60058
:101D60007D5A63149400014501A80C204E864A85D3
:101D7000453F0504E31745FFF2406244D24442491F
:101D8000B249224A05618280357122CD26CB4AC9EB
:101D90004EC706CF52C556C35AC1DEDEE2DCE6DAD4
:101DA000AA89AE843289368409C51C4D99E3EFF0C7
:101DB0003FBA971700009387E7886397F40C83A4D2
:101DC0004900DE24A18BFDC39C48EDC393070002AC
:101DD000A304F1029307000302D22305F10222C6F5
:101DE000930B5002971A0000938ACA89054C294B1D
:101DF0004A841C2099C3639E770DB30C2441638DE4
:101E00000C00E6864A86A6854E853D3FFD57630F4A
:101E1000F51C9256E69636D21C206389071CFD57A6
:101E20001309140002C802CE3ECA02CCA309010461
:101E300082D48345090015465685252713041900C9
:101E4000C24751E913F7070109C713070002A309A5
:101E5000E10413F7870009C71307B002A309E104DF
:101E6000834609001307A002638FE606F2474A84FF
:101E700081462546182093051400130707FD637754
:101E8000E60AB5CA3ECE85A8970700009387877DEE
:101E90006395F40083A489002DB79707000093870A
:101EA0006778E390F4F283A4C90021BFA6854E852C
:101EB000EFF0AFF501DD7D55FA406A44DA444A4956
:101EC000BA492A4A9A4A0A4BF65B665CD65C0D61AF
:101ED0008280050439BF330555413315AC00C98FE5
:101EE0003EC82289B9B7324793064700184336C621
:101EF000634707023ACE18209307E002631DF704F8
:101F000018309307A002631BF702B2470904138736
:101F100047009C433AC663C107023ECA2DA8330757
:101F2000E04093E727003ACE3EC8F1B7B387670396
:101F300085462E84BA973DBFFD57C5B7050402CA32
:101F4000814681472546182093051400130707FD95
:101F50006374E606F9F20C200D4617050000130520
:101F6000E572012511CD97070000938727721D8D1B
:101F700093070004B397A700424505045D8D2AC866
:101F80000C2019461705000013058570130914006D
:101F90002304B102F92335C197E7FFFF9387870632
:101FA00095E74247B2471377071009CF91073EC61E
:101FB0009257D2973ED22DBDB387670385462E84B4
:101FC000BA9751B79D07E19BA107D5B7780097064F
:101FD00000009386A6D726860C084E859700000041
:101FE000E7000000FD572A8AE314F5FCDE2493F78E
:101FF0000704E39207EC1255C1B57800970600007C
:102000009386C6D426860C084E85012AE1BF7971D5
:1020100056CA9C49BA8A984522D426D24ECE52CC72
:1020200006D64AD05AC85EC6AA892E84B284368A99
:1020300063D3E700BA879CC00347340419C38507FC
:102040009CC01C4093F7070281C79C4089079CC035
:102050000329040013796900631A0900130B940122
:10206000FD5B5C449840998F634CF9041C408346A7
:10207000340493F70702B336D000A5EB13063404FB
:10208000D2854E85829AFD576303F5041C401146A4
:102090009840998B544481446397C700B384E640C9
:1020A00063D3040081441C4418486354F700998F9B
:1020B000BE94014969047D5B63982405014509A824
:1020C00085465A86D2854E85829A631E75017D5556
:1020D000B250225492540259F249624AD24A424BB7
:1020E000B24B456182800509ADBF3307D4001306AA
:1020F0000003A301C7040347540493871600A29763
:102100008906A381E7049DBF85462286D2854E8538
:10211000829AE30E65FB050945B7797122D426D270
:102120004AD04ECE06D652CC56CA5AC8B689942D3D
:10213000930790063289AA842E8413863504638D12
:10214000F60263E2D706930780056385F61863ED10
:10215000D700638D062093073004638EF60A930A36
:1021600024042301D404C9A0930730066385F60A2A
:1021700093074006E395F6FE1C40084393F60708D4
:1021800093054500C5C61C410CC363D8070013075F
:10219000D002B307F040A301E40497060000938641
:1021A000A64F294765A8930700076381F61663E5E4
:1021B000D7029307E0066388F6189307F006E390CA
:1021C000F6FA0C401C4313F8050813854700630713
:1021D000080608C39C4385A893075007E383F6FECF
:1021E000930780076388F61293073007E399F6F6A2
:1021F0001C43D04181459386470014C383AA07003E
:102200005685852601C53305554148C05C401CC82C
:10221000A301040461A81C43930A24049386470085
:102220009C4314C32301F4048547D5B793F60704F0
:102230001C410CC3B9DAC207C18781BF93F50504FD
:1022400008C3C9D99E231307F0066386E60E9706D6
:102250000000938666442947A30104044C400CC443
:1022600063C5050008406D9908C099E3B28A89CD1D
:10227000B28AB3F5E702FD1AB6958C212380BA0025
:10228000B3D5E70263FFE70AA147631EF7001C40CE
:10229000858B91CB58401C4863C7E7009307000328
:1022A000A38FFAFEFD1A3306564110C84E87CA8620
:1022B0007000A2852685A13B7D5A631D450B7D5587
:1022C000B250225492540259F249624AD24A424BC5
:1022D00045618280A382D504970600009386C63BA1
:1022E0000C40084313F805081C411105630D080252
:1022F00008C313F7150001C793E505020CC0414759
:10230000A1FF0C4093F5F5FD0CC0B9B79C4193E7D4
:1023100007029CC193078007A302F40497060000FC
:102320009386C63875BF13F8050408C3E30308FC99
:10233000C207C1837DBF970600009386E63521471B
:1023400021BFAE873DB794411C43CC4913F8060822
:10235000138547006306080008C39C438CC339A05B
:1023600008C393F606049C43F5DA8EA323280400E1
:10237000B28A2DBF14485686CA8526858299E30005
:1023800045F51C40898B8DE7B2474844E35AF5F286
:102390003E853DB785465686CA8526858299E300E7
:1023A00065F3050A5C443247998FE345FAFEE9BFBD
:1023B000014A930A94017D5BF5B7411122C42A8436
:1023C0002E8523A401D606C6EFE07FFBFD576317D9
:1023D000F500938781D69C4391C31CC0B240224430
:1023E00041018280411122C42E848395E50006C6F6
:1023F0007922634905007C48AA977CC8B2402244F0
:10240000410182805E247D777D17F98F5EA4FDB740
:10241000DE25011122CC26CA4AC84EC606CE93F745
:102420000710AA842E843289B68991C78395E50066
:102430008946014609225E247D777D17F98F5EA4C7
:102440008315E4006244F240CE864A86B24942498E
:102450002685D244056125A8411122C42E84839586
:10246000E50006C6C928FD575A24631AF500FD7712
:10247000FD17F98F5EA4B240224441018280856736
:10248000D98F5EA468C8C5BF8395E50005A8411132
:1024900022C42A842E85B285368623A401D606C698
:1024A000EFE03FEAFD576317F500938781D69C4321
:1024B00091C31CC0B240224441018280411122C418
:1024C0002A842E8523A401D606C6C520FD5763178E
:1024D000F500938781D69C4391C31CC0B24022442F
:1024E00041018280411122C42A842E85B28523A411
:1024F00001D606C6C920FD576317F500938781D61C
:102500009C4391C31CC0B2402244410182804111CE
:1025100022C42A842E8523A401D606C65D20FD5739
:102520006317F500938781D69C4391C31CC0B240CA
:10253000224441018280411122C42A842E85B28521
:10254000368623A401D606C65920FD576317F50029
:10255000938781D69C4391C31CC0B2402244410161
:10256000828093F5F50F2A966314C5000145828099
:102570001C21E38EB7FE0505C5BF82808280411114
:1025800022C42A842E85B285368623A401D606C6A7
:10259000A920FD576317F500938781D69C4391C30B
:1025A0001CC0B2402244410182809307800523A4CD
:1025B000F1D67D5582809307800523A4F1D67D5501
:1025C00082809307800523A4F1D60145828093077A
:1025D000800523A4F1D67D5582809307800523A42E
:1025E000F1D67D558280000025640A000000003F7E
:1025F0000000803F53797374656D436C6B3A2564BA
:102600000D0A00004368697049443A253038780D56
:102610000A0000004649464F204F560D00000000BA
:1026200000000000000000000000000000000000AA
:10263000000000000000000000000000000000009A
:10264000000000000000000000000000000000008A
:10265000000000000000000000000000000000007A
:10266000000000000000000000000000000000006A
:10267000000000000000000000000000000000005A
:10268000232D302B20000000686C4C0065666745E8
:10269000464700003031323334353637383941421D
:1026A000434445460000000030313233343536377C
:0C26B00038396162636465660000000058
:1026BC0000000000000000000102030406070809E6
:1026CC0000000000010203040102030406070809CC
:1026DC0000000000402600006026000020260000BC
:1026EC0000000000000000000000000000000000DE
:1026FC0000000000000000000000000000000000CE
:10270C0000000000000000000000000000000000BD
:10271C0000000000000000000000000000000000AD
:10272C00000000000000000000000000000000009D
:10273C0000D8B8050204060800A00020E0A1002083
:10274C00EC050020200000202000002000000000EC
:00000001FF
