:040000006F00F06736
:100004000000000000000000C8020000CA02000056
:10001400000000007C0E0000000000000000000052
:100024007C0E00007C0E00000000000000000000B8
:1000340082040000000000007C0E000000000000AC
:100044007C0E00007C0E00007C0E00007C0E000084
:100054007C0E00007C0E00007C0E00007C0E000074
:100064007C0E00007C0E00007C0E00007C0E000064
:100074007C0E00007C0E00007C0E00007C0E000054
:100084007C0E00007C0E00007C0E00007C0E000044
:100094007C0E00007C0E00007C0E00007C0E000034
:1000A4007C0E00007C0E00007C0E00007C0E000024
:1000B4007C0E00007C0E00007C0E00007C0E000014
:1000C4007C0E00007C0E00007C0E00007C0E000004
:1000D4007C0E00007C0E0000F62200007C0E000066
:1000E4007C0E00007C0E00007C0E00007C0E0000E4
:1000F4007C0E00007C0E00007C0E00007C0E0000D4
:10010400000000007C0E00007C0E00007C0E00004D
:100114007C0E00007C0E00007C0E00007C0E0000B3
:100124007C0E00007C0E00007C0E00007C0E0000A3
:100134007C0E00007C0E00007C0E00007C0E000093
:100144007C0E00007C0E00007C0E00007C0E000083
:100154007C0E00007C0E000056180000CC0200004B
:10016400380500007C0E00007C0E00007C0E0000B0
:100174007C0E00007C0E00007C0E00007C0E000053
:100184007C0E00007C0E00007C0E00007C0E000043
:100194007C0E00007C0E00007C0E00007C0E000033
:1001A400000000000000000000000000000000004B
:0C01B4000000000000000000000000003F
:1001C000397101436EC619A0397141536AC866CAB4
:1001D00062CC5ECE19A0397101535AD056D252D496
:1001E0004ED64AD826DA22DC06DE3301614082820E
:1001F00041114AC026C222C406C68282B24D4101C4
:10020000024D924C224CB24B4101024B924A224A7F
:10021000B2494101024992442244B24041018280E4
:100220003D432A876373C3029377F700BDEFADE5C3
:10023000937606FF3D8ABA960CC34CC30CC74CC7D5
:100240004107E36BD7FE11E28280B306C3408A0602
:100250009702000096966780A6002307B700A306C2
:10026000B7002306B700A305B7002305B700A30412
:10027000B7002304B700A303B7002303B700A3020A
:10028000B7002302B700A301B7002301B700A30002
:10029000B7002300B700828093F5F50F9396850091
:1002A000D58D93960501D58D61B79396270097025A
:1002B000000096968682E78086FA9680C1171D8F89
:1002C0003E96E374C3F8A5B701A001A0EFF25FF278
:1002D000372400409305003613050480EF10403E9C
:1002E00019CD13050480EF10C03B13050480EF10F7
:1002F000403BA14513050480EF10C03B21BF93058F
:10030000505213050480EF10A03B01C9130504806F
:10031000EF10203993050002F1BF930570721305A9
:100320000480EF10E03979D993050008E1B705475B
:1003300023A8E182238A018293870188014793865B
:1003400001987D5513060002B385E60023A207003D
:1003500023A0070088A10507A107E317C7FEB7F789
:1003600000E023A20700814694C70147D8C737079A
:10037000002003270708B7460F009386062433574B
:10038000D70281461306F7FF90CBD4CB3D4798C3E5
:10039000B7E700E005472386E740056723A0E7109D
:1003A0008280138701831443938701839843158FB9
:1003B000E36EA7FE8280138701839306803E10437D
:1003C0003357D502938701833375D50242074183A2
:1003D0009443918EE3EEE6FE1387C182232007004B
:1003E0009387C1829843E36FA7FE8280EFF2BFDE5E
:1003F0009387C1829843050798C394431307703EBF
:100400006379D700138701831443850614C323A09F
:10041000070083C6418313870198369714237D47CD
:100420009384019813844183636CD70213890188F4
:10043000FD5A182083A681828145138681823388E4
:10044000E4008347080013850183832805008E0795
:10045000CA9703A3070063F6680099C114C218A0E5
:100460006DB3D443050723A2070023A00700230090
:1004700058017D8B8545E1D6084114C218A08296AB
:100480004DBFB7F700E0D84301C723A20700B93F2B
:1004900073002030EFF2DFD579718545414502CAFE
:1004A00002CC02CE02D002D202D402D602C602C8C8
:1004B000EF00D052854513050008EF001054914716
:1004C000FC828D473ECC4C08E147371501403ECEBB
:1004D000EF007024A147FC824C089147371501407A
:1004E0003ECEEF005023F16737240040938707206A
:1004F0003ED00C10B7070C00130504C03ED402D246
:1005000023160102EF10A00B054693055052130568
:1005100004C0EF102015930780357C86680085475E
:100520003EC823070100EF00B02C8545130504C029
:10053000EF10E0114561F9B9411126C4B72400401C
:1005400093055052138504C022C6EF1060178547EB
:10055000631EF5022A84138504C0EF1080141387EC
:100560006183238C81821C2393168501E186138687
:10057000618395E36397860A14A3B9233725004066
:1005800093055052130505C0EF1040173244A244A2
:10059000410173002030639787002390019A8947B7
:1005A0001CA3E1BF89456396B7002390D19A8D477C
:1005B000C5BF8D456396B7002391019A9147CDB78A
:1005C00091456396B7002391D19A9547D1BF954540
:1005D0006396B7002392019A9947D9B799456396D4
:1005E000B7002392D19A9D4765BF9D456396B7009A
:1005F0002393019AA1476DB721476397E70023939F
:10060000D19AA5471CA295BF25476391E70293079E
:10061000F0F8639AF600054723000600A38AE182FA
:10062000A9BFC147B5DE2300060081BF4147E39C57
:10063000E7FEA38BA182C547F1B7EFF27FBB7971CB
:100640008545114502CA02CC02CE02D002D202D4A4
:1006500002D602C402C623180100EF00103A096551
:10066000854513051503EF0070379307000CFC82D6
:10067000E1448D474C083715014026CE3ECCEF00B3
:100680009009370701405C4305644C08C18F5CC387
:1006900026CEB7140140FD7713850440FC82EF009D
:1006A0009007856793870780FC824C08C1471385B4
:1006B00004401304F4EF3ECEEF00F00522C63714D9
:1006C00000402C0013050480B734014002C4EF0041
:1006D00030352C0013850440EF009034C1679387B8
:1006E00007060C10130504803ED0231301022314C7
:1006F0000102EF00903D0C1013050480EF0010453F
:100700000C1013050480EF00504F0C1013050480EB
:10071000EF0070590C1013850440EF00103B0C10D3
:1007200013850440EF00904213050480A145EF00BB
:10073000906413050480A145EF00D0641305048084
:10074000A145EF00906513050480A145EF00D06539
:1007500013850440A145EF00106213850440A145B4
:10076000EF005062130504808545EF00305F13856C
:1007700004408545EF00905E130504808545EF0039
:10078000905C138504408545EF00F05B1305048001
:100790008545EF00D059854513850440EF00305959
:1007A00045618DBCEFF2DFA4B767000003A987D6CF
:1007B0002E84AA84CA852285EF30E07F634CA00096
:1007C000B767000003A947D62285CA85EF30100716
:1007D000635305004A8493F714008DCF93050000FE
:1007E0002285EF30B005B76700006353050A83A583
:1007F000C7D63739014037050080231A0942218DB9
:10080000EF30900CEF30106E42054181231CA9425D
:100810001309094093F724008DCF9305000022852A
:10082000EF30D001B76700006354050883A5C7D631
:100830003719004037050080231A0982218DEF30D7
:10084000B008EF30306A42054181231CA9821309A8
:10085000098091888DCC930500002285EF30007EC1
:10086000B76700006356050683A5C7D6B7140040D6
:1008700037050080239E0482218DEF30F004EF3095
:100880007066420541812390A4849384048059B208
:1008900083A5C7D62285EF303003EF30B064420520
:1008A000B73701404181239AA742239C07429DB755
:1008B00083A5C7D62285EF303001EF30B062420504
:1008C000B71700404181239AA782239C078251B722
:1008D00083A5C7D62285EF30207FEF30B060420578
:1008E000B71700404181239EA7822390078445B714
:1008F000EFF21F9085653715014005469385058009
:1009000013050540EF00C06D6FF0DF90EFF25F8ED2
:1009100079718545214502CA02CC02CE02D002D2AD
:1009200002D402D602C402C623180100EF00100B45
:1009300085450945EF00700C854737150140FC825D
:100940000D49E1474C08130505C03ECE4ACCE123D2
:10095000B707002083A707081307803E370400402D
:10096000B3D7E7022C0013050440C164231501002E
:10097000FD177C849307703E3EC6EF00700A938794
:1009800004060C10130504403ED023130102231467
:100990000102EF009026130504408545EF00B03AB0
:1009A000130504408145EF00503F13050440854581
:1009B000EF00D03A130504408545EF0050378545D8
:1009C00013050004EF00900137240140C1473ECEDB
:1009D0004C08930700C013050480FC824ACC252BE9
:1009E0000146938504C013050480DD2B45616FF03B
:1009F0007F82EFF2EFFF930500002A84EF3000645E
:100A0000634E0502B767000083A487D62285A685BA
:100A1000EF30605A6353A0002684B767000083A5B7
:100A200007D72285EF30406AEF30D04B4205418135
:100A3000B7070040239EA7426FF0CFFD13040000CC
:100A4000E9BFB707004093870740D63F1306401F12
:100A500001476364D6001307803EDABF8280EFF25D
:100A60002FF9372401409305004013050480A52386
:100A700013361500930500401305048095236FF08D
:100A80006FF9EFF2EFF63724014085649385048017
:100A900013050480892313361500938504801305FC
:100AA00004803D2B6FF00FF7EFF28FF437240140F5
:100AB0008965130504800523133615008965130520
:100AC0000480392B6FF00FF5EFF28FF237240140DD
:100AD000A16513050480012313361500A1651305D4
:100AE0000480FD296FF00FF3EFF20FEEA12C094502
:100AF000ED29716513050520EF10A075B7070020DB
:100B000083A5070837650000130585D8EF4060040A
:100B1000F52EAA8537650000130585D9EF406003DF
:100B2000EFF05F97E533EFF09F80013EEF1080110B
:100B3000093F1305C012EFF0DF865D3BB767000089
:100B400003AB87D783ABC7D7B767000003AA07D823
:100B500083AA47D80144130990022285EF20D05C74
:100B60005A86DE862A8CAE8CEF10B076EF30F060BD
:100B7000AA85054505395286D6866285E685EF1039
:100B80005075EF30905FAA85AA8409452139A68562
:100B90001145093929450504EFF0BF80E31F24FB07
:100BA00037640000EF10604341E9EF10C05937652A
:100BB00000001305C5DBEF40000BEF00B03AB7674C
:100BC000000083AB87D681440144376A0000B76ACE
:100BD0000000376B0000EF00B033E38EA4FEEF009F
:100BE0003033AA840504A53DA2851305CADCEF3085
:100BF0005076EF00F031AA8513850ADEEF3070756C
:100C00009389C18383A5090013050BDFEF3070744E
:100C1000EF007030EF00D070EF00F071EF009079CE
:100C200023A0A9006350A0025E85E13383A50900DB
:100C30000145EF10E05245B7130584DAEF40A002FA
:100C400089358DB713050000CDB7B717024098431B
:100C5000B706FFF041111367170098C3D843370652
:100C60000200758FD8C39843B706F7FEFD16758F3F
:100C700098C39843B706FCFFFD16758F98C3D843F9
:100C8000B70601FFFD16758FD8C39843B70600EC71
:100C9000FD16758F98C33707FF0098C723A6070274
:100CA00002C402C69843C166558F98C3B716024066
:100CB00005679C42F18F3EC6A24785073EC4B247F6
:100CC00081E7A247E397E7FEB71702409C431397DB
:100CD000E7006357070685473EC632478547631FCF
:100CE000F704B7170240D843B706C1FFFD16D8C3B3
:100CF000D843D8C3D84313670740D8C3D843758FA8
:100D0000D8C3D843B7062900558FD8C39843B70630
:100D10000001558F98C3984393166700E3DD06FEE4
:100D2000D843B7160240719BD8C3D8431367270036
:100D3000D8C32147DC42B18BE39EE7FE41018280AC
:100D400002C661BFB7160240D842B707002011465D
:100D5000318B93870708630BC7022146630DC702D7
:100D600037177A001307072098C3371702405843F4
:100D700011839376F7003707002013070700369793
:100D8000142398433357D70098C382803727B7007E
:100D9000130707B0D1BFD842D442416649833D8B87
:100DA000F18E1306270015CF3D47630FE60241473A
:100DB000630FE602454781456313E6004146A1E221
:100DC0003747024003270780418B0DC737177A004A
:100DD000130707203306C70290C3C1D99843058380
:100DE00061B781454946E1BF85453546C9BF814563
:100DF0003D46F1B737173D0013070790E1BF3715A0
:100E0000024058559316F700585563DF06041183C6
:100E10003D8B930617003727B700130707B03357EA
:100E2000D70298C35455A182BD8A8DE295463307F7
:100E3000D702058398C337170240585794433D8B18
:100E4000050733D7E60298C3984369B7054563940D
:100E5000A600E546E9BF3D456396A600D146338727
:100E6000E602C9BF8906E5BF3D8B93061700372709
:100E7000B700130707B03357D702F1B701A09701A6
:100E80000020938121A0177100201301A11717558D
:100E900000001305653C97F5FF1F9385A516138683
:100EA000818263FAC5008322050023A05500110545
:100EB0009105E3EAC5FE138581829715002093858D
:100EC000A5F36377B500232005001105E36DB5FE9A
:100ED000FD42739002BCAD4273904280B762000045
:100EE000938282087390023097F2FFFF9382C211BF
:100EF00093E2320073905230EFF03FD5970200003A
:100F00009382C2BE7390123473002030B7F7FF1F74
:100F100003A5477082809C4513F7070113F8F7007B
:100F200001C7D8413368E8008E2113F7F50F39C3A4
:100F300018418146854E3D4F930F800293028004F5
:100F4000214E3396DE00B3F8C50063111603939863
:100F5000260033131F011343F3FF3377E300B31865
:100F6000180133E7E800639FF70550C98506E39A47
:100F7000C6FD18C11307F00F6375B704544121462D
:100F8000854E3D4F930F800293028004414EB398EB
:100F9000CE0033F715016392E802131726000117FC
:100FA0003313EF001343F3FFB376D3003317E80096
:100FB000D98E639DF701232A15010506E319C6FDA5
:100FC00054C18280E39457FA10C94DB7E39757FE96
:100FD00023281501DDB748456D8D3335A00082808B
:100FE00019C20CC982804CC9828023A0A18482804E
:100FF00003A70184894710216311F70214318D473B
:1010000063EDD7003C219A0637E700E09607D58FBD
:1010100093F7F70F32972300F74054410547935752
:1010200056003317C70089CA938707048A07B7E6B3
:1010300000E0B69798C3828093870706C5BF37172D
:1010400002405C439146B18B6385D706A146638716
:10105000D706B7177A00938707201CC137160240BE
:101060005C4237070020130707019183BD8BBA97B5
:1010700094231C41B3D7D7005CC15442A1829D8AFE
:10108000BA969422B3D6D70014C55442AD829D8A35
:1010900036971823B3D7E7005CC558423983937657
:1010A00037001387418036971823B3D7E7021CC94E
:1010B0008280B727B700938707B045B75C43584392
:1010C000C166C983758FB7F6FF1F83A6C670BD8B37
:1010D00089071396160163480600C54601466392C8
:1010E000D702C94739A88946638FD702BD46638EA8
:1010F000D702C146638ED702C54601466393D70027
:10110000C1471DEF3747024003270780418B05C7C2
:1011100037177A0013070720B307F7021CC11DDE3B
:101120001C4185831DBF01466DBF0546B547D1BF34
:101130000146BD47F9B737173D0013070790E9BFD0
:10114000B7150240D8559316F700D85563DF06044B
:1011500011833D8B930617003727B700130707B09D
:101160003357D70218C1D455A182BD8A8DE2954666
:101170003307D702058318C1371702405857144167
:101180003D8B050733D7E60218C1184171B7854575
:101190006394B600E546E9BFBD456396B600D14607
:1011A0003387E602C9BF8906E5BF3D8B930617006A
:1011B0003727B700130707B03357D702F1B799C5E0
:1011C000371702405C4B5D8D48CB8280B7170240D9
:1011D000D84B1345F5FF798DC8CB828099C5371759
:1011E00002401C4F5D8D08CF8280B7170240984F98
:1011F0001345F5FF798D88CF828099C53717024056
:101200005C4F5D8D48CF8280B7170240D84F1345A1
:10121000F5FF798DC8CF8280B7170240E8B382808E
:101220001E2137370140930607C0C207C183630000
:10123000D504B7060040630CD502938606406308C8
:10124000D502B7160040138606806302C502938656
:1012500006C0630ED50013070740630AE500375741
:101260000140930607C06304D5006316E500BA2168
:1012700093F7F7F8D98F37170040630CE500130791
:1012800007406308E50093F7F7CFFA21C207C1834F
:10129000D98F1EA1DE215EB59E211EB5B737014054
:1012A000138707C0630EE50093870740630AF500C4
:1012B000B7570140138707C06304E5006314F500C6
:1012C0009C251EB985475EA982801E31922103D8D4
:1012D0002500C207C183F99BC207C1831EB11E311D
:1012E00056211A2DC207C183420741831377C7F8DD
:1012F000518F9225F59BC20633660601D18F373692
:101300000140130806C0C182630E050113060640A2
:10131000630AC50037560140130806C0630405017F
:101320006310C502B225DD9B03D8E500D18FD22121
:10133000ED9B93F6F6CFD18FD22533660601D18E81
:1013400056A11AADFA215AB91EB182801E316577B5
:101350001307F7CFC207C183BD9BC207C1831EB16C
:101360001E31562103D88500C20713960601162D9B
:10137000C18393F7F7FD758F96214182A206558FA1
:10138000B62142074183B3E606019206D58FB736F0
:101390000140C207138806C0C183630E050193860E
:1013A0000640630AD500B7560140138806C063049F
:1013B0000501631ED502B62593F7F7F703D8C500DC
:1013C0009206D58FD621C207C183920693F7F7FB09
:1013D000D58FFD769386F63FF18EF225C207C18345
:1013E000336606010A06D18E13960601418252A188
:1013F0001AADFA211ABD1EB182801E3103D88500B4
:10140000C207C18393F7F7EFC207C1831EB11E3134
:1014100056215A2DC2071396060142079621418391
:101420001377C7F8558FB621C18393F7F7DFB3E67B
:101430000601A206D58FB7360140C207138806C041
:101440004182C183630E050193860640630AD5007D
:10145000B7560140138806C063040501631FD50217
:10146000FD769386F67FF58FB62503D8C500A206D4
:10147000D58FD621C207C183A20693F7F7BFD58FB8
:10148000F576FD16F18EF225C207C183336606019B
:101490001206D18E13960601418252A15AADFA214D
:1014A0005ABD1EB182801A31FD77FD17F98F1EB12A
:1014B0000358050256215E2D657713960601962185
:1014C0001307F7CF7D8FF977A206FD17558FB3F776
:1014D0000701B62103D8850042074182B3E6060121
:1014E000B206D58FB7360140C207138806C04183C4
:1014F000C183630E050193860640630AD500B75683
:101500000140138806C063040501631BD500F17612
:10151000FD16F18ED2251A06D18E13960601418250
:1015200052A15AADFA212310E5041EB182801E217A
:1015300089C593E717001EA18280C207C183F99B6A
:10154000C207C183CDBF8357450491C52167D98F99
:101550002312F5048280C607C583DDBF1E2189C51D
:1015600093E707081EA18280C207C18393F7F7F7AC
:10157000C207C183C5BF1E2DC207C183DD9BDD8DA0
:101580000EAD82801A2DFD779387F77FF98FA20524
:10159000CD8FC207C1831EAD82805E2DC207C1837D
:1015A000DD9BDD8D4EAD82805A2DFD779387F77FD1
:1015B000F98FA205CD8FC207C1835EAD8280EFE2B5
:1015C0003FC31629F577FD17F58FF621DA257971D6
:1015D000D58F1EA95625FD779387379FF58FD62186
:1015E0002A842EC6D58F9625D58FB625D58F5EA594
:1015F0005E29C207C18393F7F7CFD98F5EA9680828
:10160000EFF0FFA3B747014093870780B245631E01
:10161000F402A2576547B387E70298419306400654
:101620000A07B3D7E70233D7D702B3F7D7021207B7
:10163000920793872703B3D7D702BD8BD98FC207F1
:10164000C1831EA445616FE0FFBC9257E1B791C50D
:101650005E250967D98F5EA582805A25F977FD1727
:10166000F98FD5BF13F7F50F85471583B395B700ED
:101670006319F7009307C500984301CED98D8CC339
:101680008280894693074501E318D7FE9307050139
:10169000E5B793C5F5FFF98DDDB793F5F51F4EA1BD
:1016A00082804A211375F51F82800A216D8D3335A2
:1016B000A000828093C5F5FFC205C1810EA1828082
:1016C00013F7F50F85461583B397B6006311D7025C
:1016D0005A25F98F1A2101454207418381CB0545DF
:1016E000A181B315B5006D8F3335E0008280894646
:1016F0006314D7001A29F1BF5A29E1BFA181854798
:10170000B397B70093C7F7FFC207C1831EA18280BA
:1017100003A58184828083D8018137060020B71514
:1017200000200565814613060623938505E3130310
:101730000004130505C0368781473308B700034806
:1017400008008507330EC70033B80801C20723001D
:101750000E01C1830507E39267FE93860604E39CAE
:10176000A6FC8280EFE2DFA84111854509653704B8
:10177000055002C402C6EFF09FA41C20280093F776
:10178000F70C1CA01C2093E727001CA01C3093F72B
:10179000970F1CB0930700145EA09307001E7EA055
:1017A00083A781801CC483A7C1805CC41C3093F7CD
:1017B000F7031CB01C3093F7F70F1CB03C2093E7E5
:1017C00007013CA03C2093E787003CA03C2093E726
:1017D00047003CA03C2093E727003CA03C2093E737
:1017E00017003CA0930760057C8485473EC623050F
:1017F0000100EFF0EFFF1C3093E717001CB01C2036
:1018000093E717001CA041016FE0DFA083A7818050
:101810008605BE959307001E3305F5022E951831F7
:101820001C211315370093D6570013758503369581
:101830009306B0043305D5020D8393066002FD8B39
:101840003307D7023A953D47B387E7023E951D859A
:101850001375F50F8280011122CE26CC4ACA4EC8DC
:1018600052C656C45AC2EFF02FA4B7070550982BA2
:10187000098B3DC3982B138401851377D70F98AB41
:10188000938741849843058B6300070E984337196B
:1018900000208144050798C3154A6D5B130909E3CD
:1018A000930A000F1C40B3F747038DE393F5F40F41
:1018B0000545A93F83290400B3C76403B3D949038D
:1018C000938707039A07CA97CE9788A39504E39B4B
:1018D00054FD1C4085071CC0B7070550982B118B81
:1018E00005C7982B1377B70F98AB03A7818098C7CC
:1018F00003A7C180D8C723A2018423A801849387AA
:1019000081849843050798C3B7070550982B058B2A
:1019100011CB982B1377E70F98AB9387C18498432B
:10192000050798C3B7070550982B418B09C7982B1B
:101930001377F70E98ABB7070550982B218B19CB6F
:10194000982B376500001305C5DF1377770F98AB29
:10195000EF3060317244E2445249C249324AA24AED
:10196000124B0561730020309843371900208144E1
:10197000050798C3154A6D5B130909E3930A000F25
:101980001C40B3F747038DE393F5F40F0145BD3DCC
:1019900083290400B3C76403B3D9490393870703BA
:1019A0009A07CA97CE9788A39504E39B54FD15B771
:1019B000EFE21F811171814713070010B306F10098
:1019C000238006008507E39BE7FE8567938707C0B2
:1019D000AA97930500040147B306E500942210027C
:1019E0000507B29603C606F005062380C6F0E31588
:1019F000B7FE13050504E310F5FE814793060010BA
:101A00003307F100182393940701C18009CF93078E
:101A1000F00F6386F4009307E00F639BF4002685C4
:101A200011616FE0AFFD8507E39CD7FC93040010C4
:101A3000139404014184A28781491307F00F635D69
:101A4000F70AA287014B9306F00F63D0F60CB76735
:101A5000000083AB47D68144014A0149930DE00F52
:101A6000E3CF8DFA1C02A29783CA07F05699B38A76
:101A70008A024A85EF20D0582A8D4E85EF20505893
:101A8000AA8C33852941EF20504B2A8C569A5285D7
:101A9000EF201057EA85EF20E026AA8A33054B4154
:101AA000EF20B049E285EF20E025AA855685EF209A
:101AB000F00AAA8AE6856A85EF20C0242A8DE68589
:101AC0006285EF202024AA856A85EF20E05FD68515
:101AD000EF20805FD685EF20205FAA8A4204AA8586
:101AE0005E854180EF20805563540500A284D68B2B
:101AF000050442044184ADB71402BE9683C606F0C5
:101B00008507C207B699C1871DBF18023E970347D4
:101B100007F03307F7028507C207C1873A9B35B73D
:101B2000EFE20FED37150020130505E3513523983B
:101B3000A1806FE02FEEB70500208567B706002073
:101B400093850523938707BC93860627BE95054595
:101B500009488548B6871306E003983315EB03C39D
:101B6000170403C717FC1A9703C327001A9703C368
:101B700007001A976354E800A38017017D164206F8
:101B80004182850779FA93860604E395B6FC828044
:101B9000E316A7FE03C3170403C717FC1A9703C372
:101BA00027001A9703C307001A97E349E5FCA380AF
:101BB0000700E9B737070020056613070723130658
:101BC00006C03A96014581469307000213080004B7
:101BD0008145B308B70083C8080063830800850601
:101BE0008505E398F5FE93050002B308B70083C8A6
:101BF00008006383080005058505E39805FF1307C2
:101C00000704E317C7FC138601861C42898E23A2B2
:101C1000F1861387C1858328070015452320160107
:101C20001386818503280600C697232007011387A2
:101C300041850C43C29714C3AE97B6970CC233C507
:101C4000A7028280EFE2CFDA411185451145EFF01E
:101C5000EFD8930700107C8237150140E1474C0014
:101C60003EC6130505808D473EC423130100EFF0E7
:101C70008FAA1945EFF04FDA41016FE0AFD9B717DE
:101C8000014003A747C0FD769386F60F758F23A208
:101C9000E7C003A747C0C576FD161367073023A228
:101CA000E7C003A747C0758F23A2E7C003A747C0BB
:101CB0008D66558F23A2E7C01307004023A8E7C015
:101CC00005671307078023A8E7C08280EFE24FD2A1
:101CD00085643714014093840480232894C0130939
:101CE0000040232824C113052003EFE0CFEC1305A7
:101CF0002003232A94C0EFE00FEC130404C0232A2E
:101D000024016FE02FD1EFE2AFCE8564371401409C
:101D100093840480232A94C013052003EFE0AFE9E5
:101D2000930700402328F4C013052003EFE0AFE839
:101D300013052003232894C0EFE0EFE7130404C049
:101D40006FE04FCDEFE2CFCA856437140140938432
:101D5000048013052003EFE00FE613090040232859
:101D600094C0232824C113052003EFE0CFE413051A
:101D70002003232A24C1EFE00FE413052003232AC4
:101D800094C0EFE04FE3130404C06FE0AFC8EFE28C
:101D90008FC4056A2A89A144B71A0140130A0A8030
:101DA0009309004093178901E18713870AC063D321
:101DB00007082328470113052003EFE0CFDF1305B1
:101DC000200323A83AC1FD140609EFE0CFDE93F407
:101DD000F40F23AA3AC11379F90F13840AC0F9F05A
:101DE00083A74AC0C574FD14E58F23A2FAC083A758
:101DF0004AC0216713052003D98F23A2FAC0EFE060
:101E00008FDB1305200323A83AC1EFE0CFDA03A547
:101E10008AC023AA3AC183A74AC00D672D81FD8CD1
:101E200023A29AC083A74AC00589D98F23A2FAC0EA
:101E30006FE0AFBD232A4701BDBFEFE2CFB9B717AF
:101E4000014003A747C0C576FD16758F23A2E7C0E2
:101E500003A747C0A1660569558F23A2E7C0A14427
:101E60000144371A01409309004013090980130502
:101E70002003EFE04FD423283AC183278AC0060409
:101E80001374F40FB3F7270181C705041374F40F1B
:101E900013052003FD14EFE00FD293F4F40F232A6F
:101EA0003AC1F1F403274AC0C576FD16758F232287
:101EB000EAC003274AC08D662285558F2322EAC0D7
:101EC0006FE0AFB4EFE2CFB241112EC6AA84FD3B62
:101ED000130500066D3D2A8413054006EFE0AFCDE3
:101EE00026857535498C13054006EFE0CFCCB24509
:101EF0002E85713D19C505443935228541016FE0B4
:101F00006FB11374F40F33348000FDB7EFE24FAEBE
:101F100041112A84653B13050006953D13054006D3
:101F2000EFE06FC92285A53513054006EFE0AFC885
:101F3000D93B13054006EFE00FC8493B13051006D7
:101F4000B93513054006EFE00FC7C53D2AC6DD3B96
:101F50005D3B324541016FE0EFABEFE26FA941110C
:101F600085451305C003EFF06FA78964938784004C
:101F70007C82C1473EC64C008D473715014037195A
:101F800001403EC4EFE03FF913048004930700636F
:101F90004C00130509807C8222C6EFE0DFF78567DD
:101FA000938707F44C00130509C07C8222C6EFE03A
:101FB0009FF64C00938404F037150140648222C6DA
:101FC000EFE07FF591474C00130509407C8222C663
:101FD000EFE07FF441016FE0EFA3EFE26FA1B53FC7
:101FE000A147371401405CC82945EFE08FBB8964E5
:101FF000294544C8EFE0EFBA04C8EFF05FC8854553
:102000001305F00FC135930500084945653D1305DB
:102010002003EFE00FB97145D53D13140501418050
:10202000220442047545DD354180418D931505013B
:10203000A167C181938727FA638BF500376500009C
:10204000130585E0EF20F03005456FE0AF9C294592
:10205000753D131405014180220442042D457D3550
:102060004180418D93150501C18193842464638A65
:10207000950037650000130545E1EF20902D0945D7
:10208000E9B71964130404E2930444160C300820E1
:1020900009040D3DE31C94FE014545BFEFE24F9559
:1020A0001964130444F89304C4010C300820090493
:1020B000113DE31C94FE6FE0EF95B367B5008D8B87
:1020C000B9EBEFE2EF92AE842A8481451305F00F5D
:1020D000D53B91451305000EF5339355240093F538
:1020E000F50F1305A005F93B93D5240093F5F50FE3
:1020F0001305B005C13B93D5840029800D889189D3
:10210000C18D1305C0057D3B81451305000E5D3B68
:1021100001456FE02F9005458280EFE26F8D2E84A0
:10212000AA8481451305F00F713BA6851305300D78
:10213000513B85451305F00F7133A2854545EFF0FE
:102140007FD86FE02F8DEFE2AF8A893F93050014AF
:102150001305000F9D3781457145C1376FE08F8BA7
:10216000EFE26F879387C18680430D8D33048540EE
:1021700023A4818688C3EF20405C83A581813769D1
:102180000000EF107074AA842285EF20005B83A505
:10219000418113840187EF103073AA852685EF10E3
:1021A000C07FB7640000AA89EF20607203A684FA9A
:1021B00083A6C4FA2A8AAE8AEF00F06C6356A000A8
:1021C000832709FA1CC039A8B767000003A607FBDC
:1021D00083A647FB5285D685EF00D075634505047D
:1021E0002320340183290400930500004E85EF105D
:1021F000905C635FA002832509FA0945EFE08FDA5E
:102200000840EF20C06C2A86AE8603A584FA83A519
:10221000C4FAEF00907DEF204076AA851145EFE0EB
:102220006FD86FD09FFEB767000083A747FA59BFEA
:102230004E85EF20C06903A684FA83A6C4FA9522CE
:10224000EF20A073AA850945EFE0CFD5832509FAD1
:10225000F1B7EFD2FFF979712A8985453705020078
:1022600002C602C8EFE07FF985451145EFE01FF790
:1022700085450545EFE09FF6371401409147FC8204
:102280008D44E1474C081305048026CC3ECEEFE098
:102290009FC8A147FC824C08930780041305048063
:1022A00026CC374400403ECEEFE0FFC6B7070C0017
:1022B0000C10130504403ED44AD002D2231601026A
:1022C000EFF0EFAF05469305505213050440EFF0D1
:1022D0006FB9930760137C8685475C8768008547E4
:1022E0003EC8EFE0FFD0854513050440EFF02FB660
:1022F00045616FD03FF2411122C63744004093053B
:1023000050521305044026C4EFF08FBB854763117C
:10231000F502AA8413050440EFF0AFB8238AA18622
:102320009305505213050440A38A9186EFF00FBD28
:102330003244A244410173002030EFD2DFE9B744B8
:102340000040AE89328901449384044063452401EE
:102350004A856FD09FEB930500042685EFF0EFB41C
:102360007DD9B38789008385070026850504C205CA
:10237000C181EFF08FB2D9BF1387C1811C43B7264B
:102380000020938646DF3E95636BD500B78600201C
:102390009386068063E5A60008C33E858280FD57CC
:1023A000EDBF3708100001117D183377B80026CA39
:1023B0003378D80093D4450113D34601131E370058
:1023C0004EC61357D5010E089357D60193F4F47FE8
:1023D0001373F37F06CE22CC4AC893D9F50193DE5E
:1023E000F6013367C701131F350033E80701931F58
:1023F0003600338E64406380D9196356C01363047A
:10240000031CB70680009307F07F3368D800638F02
:10241000F4369307800363C0C735FD4763CDC747D4
:10242000130500023305C541B3D7CF01B316A80089
:102430003399AF00DD8E33392001B357C80133E93A
:1024400026011D8F33092F41B3372F013306F74083
:102450009317860063D40724370780007D173374F1
:10246000E600630C042C2285EF20C067130785FF6C
:1024700093070002998FB357F9003316E400D18F08
:102480003319E9006341972A330597401306150075
:102490007D47634DC73813070002118FB356C9003B
:1024A0003319E9003397E700558F33392001336939
:1024B000270133D6C70081449377790081CF137702
:1024C000F90091476308F7001307490033392701E2
:1024D0004A963A899317860063D6071C1385140021
:1024E0009307F07FCE856304F520B70780FFFD17C3
:1024F000F18F9398D70113593900A607B3E8280143
:10250000B1831375F57F9396C7005205F24062447C
:10251000B182FE05C98ECD8ED2444249B24946856C
:10252000B68505618280631E0E0A1383140013733F
:10253000E37F63170322B367E701B368F801639D84
:10254000041A63870740638608443309FF41B307D1
:10255000074133362F013386C7409317860063D671
:10256000074C3389EF41B307E84033B62F01338678
:10257000C740F68991B76350C00F6300030CB706DC
:1025800080009307F07F3368D800638AF43A93079A
:10259000800363CBC713FD4763DFC73513090EFE06
:1025A00093070002B3562801630AFE0013090004D2
:1025B0003309C94133192801B3EF2F013339F00131
:1025C0003369D90031A2B367F801638A071C930706
:1025D000FEFF638C07389306F07F6309DE1A3E8E98
:1025E0000DBDB305934063910422B367E701638790
:1025F00007329387F5FF638107449306F07F638C6E
:10260000D520BE859307800363CCB72AFD4763CFEF
:10261000B73C930700028D8F3319F700B356BF0004
:10262000B317FF003369D900B337F0003357B70051
:102630003369F9003308E84041ACB367F8016380BF
:1026400007349307FEFF638A07209306F07F630831
:10265000DE2E3E8E2DBF631E0E149386140093F75C
:10266000E67F63910734B367E7016395042C6380C9
:10267000073EB367F801638E07303309FF01B307E4
:102680000701333FE9013386E7019317860063D7DB
:102690000700B70780FFFD177D8E8544937779008B
:1026A000E39F07E09317D60193583900B3E8F80089
:1026B000935736001307F07F638DE404B207B183AC
:1026C00013F5F47FCE8581B53369F80133392001E4
:1026D0007A99B337E9013386E70093178600E3DF81
:1026E00007FA85049307F07F6396F418CE851305E7
:1026F000F07F8147814801BDC1EB6384083A93169E
:1027000036009317D8018D82B3E8D700F689935726
:102710003800B3E7F800F9DB81451305F07FB70710
:1027200008008148CDB3370680FF7D167D8E9377F4
:102730007900998CE39507D8B5B74A85EF20803AA0
:1027400013078501FD47E3D5E7D2130685FFB317CD
:10275000C900014905BB3369F80133392001DDB1F6
:102760003309FF413306074133342F0133048640D8
:102770009317840063CD0724B3688900E39308CEE0
:102780008147814981441DBFE39808F80E059317DE
:10279000D7010D81B3E8A700935737009DBF0E0501
:1027A0009317D7010D81B3E8A700F2849357370040
:1027B00011B73305934063820412B7068000930774
:1027C000F07F558F630DF32E9307800363CBA72013
:1027D000FD4763C3A72A93070002898F3319F700C7
:1027E000B356AF00B317FF003369D900B337F00019
:1027F0003357A7003369F9003A987E99B337F90146
:10280000338607019A84D1BDB70680009307F07F15
:10281000558FE319F3DE931736008D839318D80193
:10282000B3E81701F68993573800E5B5130715FE8D
:102830009306000233D7E700630AD600930600042C
:102840003386C6403396C7003369C9003339200147
:102850003369E9000146814491B53309FF01B307AB
:1028600007013336E9013E96931786008544E3D786
:1028700007E28944B70780FFFD17F18F135719004E
:1028800013791900336927019398F70133E9280177
:1028900013D6170015B113090EFE93070002B356A5
:1028A0002801630AFE00130900043309C9413319E2
:1028B0002801B3EF2F013339F0013369D90059B63C
:1028C0003369E7013339200133892F41B3B72F0131
:1028D0003306F8409A84F689A5BEB367E7016382A0
:1028E00007189307F5FF6384071C9306F07F6304C2
:1028F000D5123E85D1BD93070002B387C741B316F9
:10290000F8003399FF0033D6CF01D18E333920013F
:10291000B357C80133E926013E975DBB93173600D4
:102920008D839318D801B3E81701AE84935738000C
:10293000F68949B3EDC33369F801E31F09DC0E05DD
:102940009317D7010D81B368F50093573700D1B3C2
:102950006381080E931636009317D8018D82B3E871
:10296000D700F6899357380091BB3309FF41B3076D
:102970000741333F2F013386E7418544D1BC0E0523
:102980009317D7010D81B368F500F2849357370090
:1029900015B30E059317D7010D81B3E8A700935720
:1029A000370029BB9307F07FE382F6D43309FF0198
:1029B0003336E901B3070701B2979398F70113592A
:1029C000190033E9280113D61700B684C1B9338939
:1029D000EF413307E84033B62F013304C740F6898F
:1029E00049B43369E7013339200101BD938705FEFE
:1029F00093060002B357F700638AD50093060004DC
:102A0000B385B6403317B700336FEF003339E001B9
:102A10003369F90055BD931736008D839318D8019B
:102A2000B3E8170193573800EDB1B368C900E397D5
:102A300008C68147814959B13389EF41B307E8405E
:102A400033B62F013386C740F689854411B49316F7
:102A500036009317D8018D82B3E8D700935738001A
:102A6000B1B9931636009317D8018D82B3E8D70019
:102A7000AA84935738003DB9930705FE93060002D8
:102A8000B357F700630AD500930600043385A640C8
:102A90003317A700336FEF003339E0013369F900D2
:102AA000A9BB81451305F07FB7070800A9BC33090E
:102AB000FF01B30707013336F9013E9675B393164C
:102AC00036009317D8018D82B3E8D70093573800AA
:102AD00089B1397193D7450122DC4AD856D22A8967
:102AE0001394C50006DE26DA4ED652D45AD05ECEF6
:102AF00013F5F77F318093DAF501630B0510930727
:102B0000F07F630BF514135AD9010E0433648A0065
:102B1000370A8000336A4401131B3900930415C03F
:102B20000144814B13D846011399C6001378F87FEE
:102B3000B2881359C90093D9F601630E08089307A8
:102B4000F07F6300F8041357D6010E09336927019B
:102B5000130818C0B70780003367F90093183600D0
:102B6000B38404418145BD4733C83A0163E4871A01
:102B700097370000938787440A043E9410403E969E
:102B800002863367C90093841480631207101364AC
:102B9000240081488945C1BF1306F07F8147014762
:102BA000B207F25062545206B1837E08D18FB3E768
:102BB0000701D2544259B259225A925A025BF24B3F
:102BC0003A85BE852161828001481306F07FB707F0
:102BD00008000147F1B73367C9004DC763080930E2
:102BE0004A8532C4EF1010702246130755FFF5478F
:102BF000930685FF998F3319D900B357F60033E751
:102C00002701B318D60026959304353F8145A1BF0F
:102C1000336A240163030A0636C632C46306042AF3
:102C20002285EF10306C2246B246AA84130755FF66
:102C3000754A138B84FF330AEA4033146401335A14
:102C40004901336A8A00331B69011305D0C0B304FC
:102C500095400144814BF9B5336A240163180A0099
:102C60002144014B9304F07F894B6DBD228A4A8B2E
:102C700031449304F07F8D4B75B51144014B814471
:102C8000854B4DB51364140081488545E9BD136437
:102C900034004A878D45C1BD630A052E8547898F5B
:102CA0009306800363DDF632014681470147CDBDBF
:102CB000CE868947638DF53A8D47E387F5F08547E2
:102CC0003688E383F5FE1385F43FE357A0FC93F7C2
:102CD00078006396072893D638009317770063D857
:102CE0000700B70700FFFD177D8F1385044093078A
:102CF000E07FE3C3A7EA1316D70193179700B183C8
:102D00003367D6001376F57F61BDD6865287DA88A1
:102D1000DE8545B763614723630DEA20DA86FD143B
:102D20005284014B9317870013D388013363F30058
:102D3000935E0301B357D403131F0301135F0F0105
:102D400093D50601139E88003374D4033307FF0222
:102D50004204C18D63FBE5009A951386F7FF63EE8D
:102D6000652663FCE526F9179A95998D33D7D50327
:102D7000C206C182B3F5D5033306EF02C205D58D75
:102D800063FBC5009A959306F7FF63E6652463F439
:102D9000C52479179A95C20741645D8F9307F4FFA4
:102DA0003375F70093580701935F0E01B377FE0068
:102DB000B302F502B386C540B383F80293D502018E
:102DC0003386AF021E962E963385F8036373760022
:102DD0002295C168FD189355060133761601420607
:102DE000B3F81201AA95469663E6B6126382B6124C
:102DF0003306CB408D8E333BCB00338B664113853E
:102E0000F43F630C6317B358DB0393550601337B20
:102E1000DB03B3061F03420B33EB6501637BDB006F
:102E20001A9B9385F8FF636D6B20637BDB20F91899
:102E30001A9B330BDB40B356DB0342064182337BE4
:102E4000DB03330FDF02420B33666601637BE6016F
:102E50001A969385F6FF6367661E6375E61FF9167B
:102E60001A96C208B3E8D8009395080193D20801D6
:102E7000C181B38EF5023306E641B385BF0293D616
:102E80000E01B387F202BE95AE96B38F5F0263F474
:102E9000F600C167BE9FC165FD1593D70601ED8E93
:102EA000C206B3FEBE00BE9FF696637FF6091A9671
:102EB0009387F8FF6369661A6368F619630FF61B58
:102EC000BE8893E8180011B54A85EF10B04113078A
:102ED0005501F145930405022246B246E3DAE5D4F2
:102EE000130485FF331A8900014B85B3328532C440
:102EF000EF10503F13075501F146AA8722461305EC
:102F00000502E3D6E6CEE1173317F6008148E5B9AE
:102F1000E370CBEE729B3335CB011A95AA9613055D
:102F2000F7FF6378D30263E6B6106382D5102A8771
:102F3000C1B5E3651BDF93551B009316FA011354CB
:102F40001A00CD8E7E0BF9BBE31DF6F7E38F06D694
:102F5000B9BFE31ED3FCE378CBFD2A8751BD93F7BD
:102F6000F8009146E389D7D693B7C8FF9386480007
:102F700093C717008D823E978DB381468547E34CFA
:102F8000A0FEFD58E31C05D0930410C085471385AF
:102F9000E441B316A70033D6F8003395A800D18ECC
:102FA0003335A000C98E13F676003357F70001CEF3
:102FB00093F7F60011466388C70093874600B3B6BF
:102FC000D7003697BE869317870063D80704054657
:102FD00081470147F1B636877DBBB28779B3FD469D
:102FE000E3D7F6FA0556098E930600023356C7005A
:102FF0006388D7009387E443B317F700B3E8F8007A
:10300000B3361001D18E13F67600814701CE93F7C7
:10301000F60011460147E392C7FA9317970013167B
:10302000D701B18313D73600518F014695BEE370A7
:10303000CBF0729B3335CB011A957917AA964DBB0D
:10304000AE88C5BBAE8631BD93171E0033BEC70127
:1030500072931A96F9183E8EE315F6E7E307DEC67B
:1030600093E818009DB1BE88E30AF6FF99BD368843
:103070001306F07F8147014725B6E367DEFCBE8873
:10308000E310DEFE99B113D74501B7071000FD1715
:1030900013D846011377F77F9308F07F33F3B70017
:1030A0002A8EF58FFD81B28E1378F87FFD8263083A
:1030B0001703630018030DEBB368A3006314080043
:1030C0005D8E29CA638508046388D502054595EDA0
:1030D0008280B3E8C700E38008FE795582803365BB
:1030E000A30065FD630CE802631408005D8E79DEC1
:1030F000E39ED5FCE34CE8FC63480701E3E867FC8A
:103100006303F302637FF30081E57D558280F5DE82
:10311000054582800145E39B08FA82805D8E69DA6D
:103120006DBF01458280E3E3CEFB0145E372DEFB28
:10313000E5F1E1BF13D74501B7071000FD1713D81C
:1031400046011377F77F9308F07F33FEB700AA8E0E
:10315000F58FFD81328F1378F87FFD82630E1703A0
:10316000630D180129E3B368AE00631F08005D8E8C
:1031700001EE0143638C080421A8B3E8C7000943AA
:10318000639608046DD305A0638408046385D502A3
:1031900005438DCD7D531DA8B368AE0009436397E9
:1031A0000802630AE802631408005D8E75D2E39199
:1031B000D5FEE34FE8FC63490701E3EBC7FD630F6E
:1031C000FE0001436374FE00F1D505431A85828039
:1031D000EDFE7D53E5BF5D8E79DACDBFE36ADFFB9F
:1031E0000143E3F5EEFFF5F175B7370710007D17E2
:1031F00001113373B70093D84601758F935ED601E2
:1032000022CC26CA0E0393D445019357D5010E074D
:1032100006CE4AC84EC693F8F87F130EF07F33E708
:10322000EE0093F4F47F13D4F50133E36700131F2A
:103230003500FD82931E36006380C81993C61600C0
:10324000B38514416305D4126351B018638B081A17
:10325000B70780005D8F6381C4599307800363C4FF
:10326000B734FD4763C5B748930700028D8FB3D9C4
:10327000BE003318F700B39EFE00336838013357A1
:10328000B700B339D001336838013303E340B309E1
:103290000F41B3373F013306F3409317860063D3E2
:1032A0000724370980007D1933792601630F092C23
:1032B0004A85EF103003130785FF93070002998FAB
:1032C000B3D7F9003316E900D18FB399E90063440D
:1032D000972A058F13061700FD4663C5C63A1307E4
:1032E0000002118FB3D6C9003398E9003397E70085
:1032F000558F33380001B369070133D6C7008144C5
:1033000093F7790081CF93F6F90091476388F6002F
:103310009386490033B836014296B68993178600E2
:1033200063D6071C138714009307F07F0588630694
:10333000F720B70780FFFD17F18F1398D70193D9B6
:103340003900A60733683801B1831377F77F939666
:10335000C7005207B1827E04D98EC18EF24062440A
:10336000D2444249B2494285B6850561828063569E
:10337000B00A638A0812B70780005D8F6387C42D87
:103380009307800363C7B718FD4763D2B73C138820
:1033900005FE93070002B3590701638AF5009307FE
:1033A0000004B385B7403317B700B3EEEE003338EF
:1033B000D0013368380195A2B367D7019385148093
:1033C00099E393C61600630AD404D1E193871400ED
:1033D00093F7E77F6399071EB367E3013368D7016B
:1033E000639204166382073C631608421318350083
:1033F0009316D3011358380033E80601935733006E
:1034000019A2B367D7016385071A9387F5FF638B0A
:10341000073A638CC523BE8589B56399051C9386DD
:10342000140093F7E67FC1EFB367E30163900436BE
:10343000638D0744B367D701639407460E051318DD
:10344000D3010D813368A800935733006DA8B3856D
:10345000984063970420B367E301638D0730938737
:10346000F5FF638907401305F07F6383A520BE85C0
:103470009307800363C2B72AFD4763C8B73C93072D
:1034800000028D8F3318F3003356BF00B317FF00CF
:103490003368C800B339F0003353B30033683801E0
:1034A00033076740B5ACB367D701638307109387D1
:1034B000F5FF638F071E6380C52FBE85D1B59307C7
:1034C000F07F638BF606FA9E33B6EE01B307E30096
:1034D000B2971398F70193DE1E00B369D80113D693
:1034E0001700B68493F77900E39F07E09317D6019E
:1034F00013D839003368F800A685935736001307B0
:10350000F07F6380E506B207B18313F7F57F058886
:103510003DBD3367D7013338E000B309E801B3B7E5
:10352000E9013386670093178600E3DD07FA850417
:103530009307F07F639CF41805881307F07F814799
:10354000014831B5639107106301083C1318360038
:103550009317D701135838003368F800368493570F
:103560003700B367F800E9DB01441307F07FB707C2
:1035700008000148E9BB370680FF7D167D8E93F772
:103580007900998CE39107D895B74E85EF10805557
:1035900013078501FD47E3D2E7D2130685FFB397F2
:1035A000C90081492DB33368D70133380001C5B153
:1035B000131835009317D301135838003368F800F7
:1035C000935733002DBFB309DF413309E34033364E
:1035D0003F013309C9409317890063CA072033E8C4
:1035E0002901E31508CC8147014431BFB3859840D8
:1035F00063810414B70680009307F07F3363D30020
:103600006381F8209307800363CCB722FD4763C929
:10361000B72C930700028D8F3318F300B356BF0009
:10362000B317FF003368D800B339F0003353B30049
:10363000336838011A97B309D801B3B7D901338673
:10364000E700C684CDB5E31108F2131835009317CF
:10365000D301135838003368F8009357330011B77B
:10366000370580009307F07F3363A300E392F8E00F
:103670000E061318D7010D823368C8009357370020
:103680003684C5B505179306000233D7E700630AF1
:10369000D600930600043386C6403396C700B3E9CC
:1036A000C90033383001B369E800014681441DBDCB
:1036B000B309DF01B307E30033BFE9013386E70154
:1036C000931786008544E3DF07E08944B70780FF4E
:1036D000FD17F18F13D7190013F81900336807018C
:1036E0009399F701B3E9090113D6170011B91388AB
:1036F00005FE93070002B3590701638AF50093079B
:103700000004B385B7403317B700B3EEEE0033388B
:10371000D00133683801A5BE3363E301333860005C
:10372000B3890E41B3B73E013306F740C6843684F1
:10373000ADB6B367E301638707189387F5FF638C22
:10374000071C9306F07F638ED50ABE8565BD93077F
:1037500000028D8FB3D9BE003318F700B39EFE0070
:10376000336838013357B700B339D00133683801B3
:103770003A9365B3131836009317D70113583800DE
:1037800033E8070136849357370095BBBDCB3367C9
:10379000D701E31B07DC0E051318D3010D81336835
:1037A000A8009357330075BBE30F08E213183600E7
:1037B0009317D701135838003368F80036849357AD
:1037C000370091B3B309DF41B307E340333F3F0113
:1037D0003386E7418544D1B4131835009316D301DD
:1037E0001358380033E80601935733009DBBB38963
:1037F000EE413306674033B93E0133092641368432
:1038000075B40E061318D7010D823368C80093579C
:10381000370081BBB309DF41B307E34033363F01D3
:103820003386C7409317860063D7070AB389EE41F2
:10383000B3076740B3BE3E013386D7413684C9B46F
:103840003363E30133386000FDB3138805FE93074B
:103850000002B3590301638AF50093070004B3859E
:10386000B7403313B300336F6F003338E001336870
:1038700038017DB5B389EE41B3076740B3BE3E0161
:103880003386D7413684854409BC13183600931714
:10389000D701135838003368F80093573700A5B1A3
:1038A000B309DF01B307E30033BFE9013386E70162
:1038B00093178600E3D807C2B70780FFFD177D8EF8
:1038C00085440DB10E061318D7010D823368C80068
:1038D000935737002DB133E8C900E30608D019B17A
:1038E000138805FE93070002B3590301638AF500AC
:1038F00093070004B385B7403313B300336F6F00F1
:103900003338E001336838013DB301441307F07FD9
:10391000B70708002DBCB309DF01B307E300B3BE4E
:10392000D9013386D70169BB411106C622C426C21C
:103930000DCD9357F541B3C4A7009D8C2A842685ED
:10394000EF10401A9306E041898EA9477D8093F6D7
:10395000F67F63CDA7022D47098FB3D7E400550545
:10396000B207B394A400B18329A0014481468147E2
:103970008144B207D206B1837E04D58FC18FB24095
:1039800022442685BE859244410182805515B39715
:10399000A400B207B1838144E9BF41113707800019
:1039A0007D1713D8750126C2935475013373A70090
:1039B00093F4F40FB376B7004AC01378F80F135995
:1039C000F50106C622C4FD819A8726854A86131E04
:1039D0003300939E3600B3880441630AB90E6350E6
:1039E000100D630408149307F00F638BF414B707EA
:1039F0000004B3EEFE00ED4763C1172993070002F0
:103A0000B3871741B397FE00B3D81E01B337F00058
:103A1000B3E7F800B307FE4013975700635E07183B
:103A2000370400047D147D8C2285EF10A00B6D15EA
:103A3000B317A4006348951A058D130415001307E6
:103A40000002018F3397E7003337E000B3D78700D8
:103A5000D98F814413F7770019C713F7F700914600
:103A60006303D700910713975700635B071485041E
:103A70001307F00F4A866383E4169A07A58313F5AC
:103A8000F40FB2402244A6079314750113D5970092
:103A9000458D7E0692440249518D41018280639991
:103AA000080A138714001377E70F6317071463904E
:103AB0000422630D0E1EE3860EFCB307DE4113974E
:103AC000570063500722B387CE412E8961B7635CEC
:103AD000100B630E08089307F00F6383F406B70713
:103AE0000004B3EEFE00ED4763C9171F9307000201
:103AF000B3871741B397FE00B3D81E01B337F00068
:103B0000B3E7F800F297139757006357070A850445
:103B10001307F00F6384E40CB706007E13D7170079
:103B2000FD16858B758FD98F35B7638D0E08FD18FF
:103B3000B307DE41E38208EE9307F00FE39DF4EA5A
:103B4000630D030801461305F00FB707400015BFCA
:103B500033079840EDE863020E147D1763080718D9
:103B60009307F00F6319F80E2E893683D1BF638B4C
:103B70000E04FD18B307DE01E38708F89307F00F82
:103B8000E393F4F675BF63950808850413F7E40F13
:103B90006313071263170510630F0E14E3830EEE11
:103BA000B307DE01139757008144635707003707B7
:103BB00000FC7D17F98F854413F77700E31F07E8B2
:103BC00013D337009307F00FE38CF4F693179300A9
:103BD000A58313F5F40F4A866DB54A861305F00FD9
:103BE000814745B5370700FC7D17F98F13F777003C
:103BF000898CE31407E6E9B73304DE4193175400D8
:103C000063C3070CE31204E201460145814795BDF9
:103C100033079840ADC49307F00FE308F8F4B707F3
:103C20000004336EFE00ED4763CCE70C93070002FF
:103C3000998FB317FE003357EE00B337F000D98FDA
:103C4000F697C284C9B59307F00FE30FF8F0B707F2
:103C50000004336EFE00ED4763C3E70893060002DD
:103C6000998EB316DE00B357EE003337D000D98FEC
:103C7000B387FE40C2842E8945B3854761BB630E7E
:103C80000E067D17B307DE01C284E30E07E6930735
:103C9000F00FE31AF8F8368365B53683C2842E89AF
:103CA00015B7E3040EECE38D0EE869BD638D0E02DB
:103CB0002E86B687F9B39307F00FE381F4F2B307CA
:103CC000DE018583D5BD3384CE412E89B1BBE31C93
:103CD0000EFCE3890EE62E8949BD854725B585474B
:103CE00041BFE39B07EC0146814761BBB387CE41EF
:103CF000C2842E8915B3B68769B33683C284D9B519
:103D000085473DBF3971935775014AD856D25ECE6B
:103D1000931A95001359F50106DE22DC26DA4ED6F9
:103D200052D45AD093F7F70F93DA9A00CA8B638272
:103D300007121307F00F6384E7128E0A3707000497
:103D4000B3EAEA00138A17F80144014B93D77501CF
:103D50009394950093F7F70FA58093D9F501FDC7CC
:103D60001307F00F6387E7028E04938717F837076E
:103D70000004D98C330AFA408146558C172700007D
:103D80001307C7270A043A941C4033493901BA97EC
:103D90008287130A1AF0F9E88946558C1727000024
:103DA0001307C7290A043A941C4033493901BA97CA
:103DB000828701491307F00FB7074000139597005A
:103DC000F25062549317770125817E095D8D33652A
:103DD0002501D2544259B259225A925A025BF24BEF
:103DE000216182801307F00F8147C9BFA68ACE8B5D
:103DF000368B8947630BFB1A8D47E30CFBFA85472B
:103E0000630AFB0A1307FA0713F91B006357E01252
:103E100093F77A0099C793F7FA0091466383D70026
:103E2000910A93974A0063D90700B70700F8FD1776
:103E3000B3FAFA0013070A089307E00FE3C4E7FA9E
:103E400093976A00A5831377F70F8DBFB9E4854672
:103E5000A9B763940A021144014A054BC5BD639991
:103E60000A002144130AF00F094BCDB58D4631B736
:103E70003144130AF00F0D4BD1BD56852EC6EF000D
:103E800070469307B5FFB39AFA009307A0F8338AF8
:103E9000A7400144014BB24555BD2685EF00904433
:103EA0001307B5FFB307AA00B394E400138A6707AA
:103EB0008146E1B513F91B000147814701B741660F
:103EC000139554007D1693570501698E63FA9A0A7B
:103ED000B3D5FA027D1AD68601473388C502B3F6F8
:103EE000F602C206558F637B07012A979386F5FF7A
:103EF0006368A70A6376070BF9152A97330707410A
:103F0000B356F7023377F702B38AC6029317070155
:103F100063FB5701AA971387F6FF63E1A70863FFC6
:103F20005707F916AA97C205B38A5741D58DB33AF8
:103F30005001B3EA5501CA8BF1B58546998E11C778
:103F40006D4601478147E34BD6E6130AEA09339AE7
:103F50004A01B3D7DA00B33A4001B3E7570113F788
:103F6000770019C713F7F70091466303D70091074D
:103F700013975700634807029A07A58301473DBD81
:103F800093D61A00B3D5F6021397FA01418333880A
:103F9000C502B1B7CE8B368B814AA1BDBA8661B757
:103FA000B685A9BF0547814711BD13F91B0013074B
:103FB000F00F814721B593567501B7078000FD17B3
:103FC00013D6750193F6F60F1308F00FB3F8A70098
:103FD0001357F501ED8F1376F60FFD81638106030C
:103FE000630C06018DE211E2B1C3638E0802630522
:103FF000B70405451DE78280F5D779558280E39E99
:1040000008FE6309D60211E2EDD7E314B7FEE342DE
:10401000D6FE63C7C600E3EE17FD0145E3FDF8FCDD
:1040200001E77D558280F5DD054582800145E392FB
:1040300008FC8280F9DBD1B78146E1BF9356750158
:10404000B7078000FD1713D6750193F6F60F130816
:10405000F00FB3F8A7001357F501ED8F1376F60FA5
:10406000FD81638706036309060185EA11EA89EB8E
:104070000145639B080082800945F5FFE5DA31A818
:10408000638C08026300B704054575D77D558280AF
:104090000945639808026304D60211E2F5D7E315D7
:1040A000B7FEE343D6FE63C7C600E3EF17FD014545
:1040B000E3F3F8FC19E3D9BFF1D905458280E5D3D4
:1040C000828082808146C5B7797122D413547501EC
:1040D0004ECE52CC9319950006D626D24AD056CA57
:1040E0005AC81374F40F93D99900135AF50169C48F
:1040F0009307F00F6308F40E939739003707000415
:10410000B3E9E700130414F88144014B13D7750198
:10411000939A95001377F70F93DA9A0013D9F50164
:1041200045CF9307F00F630CF7028E0A130717F8B9
:10413000B7070004B3EAFA003A94014633452A016E
:10414000BD47AA869305140063E297101727000065
:104150001307C7F28A04BA949C40BA978287130463
:10416000F40F63980A0C93E424000946C1BF01458B
:104170001307F00FB7074000B2502254A6075E079E
:10418000A5837E05D98F92540259F249624AD24AD8
:10419000424B5D8D45618280CA86D689328B8947C4
:1041A0006301FB0A8D47E304FBFC854736856312F8
:1041B000FB1A01478147C9B7639E090413D77501EC
:1041C000939A95001377F70F91440144054B93DAC6
:1041D0009A0013D9F50131F7639D0A0093E41400A6
:1041E0000546A9BF63930902A1441304F00F094BCC
:1041F00031BF5685EF00100F9307B5FF098CB39AB6
:10420000FA001304A4F8014615BFB1441304F00FDB
:104210000D4BEDBD4E852EC6EF00D00C9307B5FFBC
:104220001304A0F8B399F900098C8144014BB245FD
:10423000F1BD93E434000D4611B78947D286E313EC
:10424000FBF636851307F00F81473DB741639306B0
:10425000F3FF13D6090193D80A01B3F7D900B3FAD3
:10426000DA0033885703B389F80213570801B30AF9
:104270005603D6994E9733061603637357011A9661
:10428000C167FD17B376F7003378F800C206C2960F
:104290009399660093570701B3393001E982B297C9
:1042A0009A07B3E6D900B3E9D7009397490063D9D9
:1042B000070013D7190093F71900B369F7002E848C
:1042C0001307F4076350E00493F7790099C793F755
:1042D000F90091466383D70091099397490063D908
:1042E0000700B70700F8FD17B3F9F9001307040832
:1042F0009307E00F63CBE70493976900A5831377D7
:10430000F70F9DBD8547B386E74011C76D4601474E
:104310008147E343D6E61307E4093397E9003337CF
:10432000E000B3D7D900D98F13F7770019C713F777
:10433000F70091466303D700910713975700634C2A
:1043400007009A07A583014705BD1307F00F8147B2
:1043500025B52E84B5B70547814739BD370780009D
:1043600041117D179356750113D87501B377A700D6
:1043700093F6F60F935EF5013376B70026C24AC076
:104380001378F80F06C622C41303F00F3E8E368949
:10439000F684139F3700FD8113153600B38806415C
:1043A0006302681093C51500638CBE106354100D32
:1043B000631008106304051EFD18B307AF40638641
:1043C00008029307F00F6388F616ED4763C71729B5
:1043D00013070002330717413317E500B3571501E0
:1043E0003337E000D98FB307FF401397570063516D
:1043F000071A370400047D147D8C2285E5256D1590
:10440000B317A400634E251B330525411304150083
:1044100013070002018F3397E7003337E000B3D76B
:104420008700D98F014913F7770019C713F7F700F1
:1044300091466303D700910713975700635E0714F3
:10444000930619001307F00F93FE14006386E61617
:104450009A07A58393F6F60FA607B240224413D518
:104460009700DE069397FE01558D924402495D8DBB
:10447000410182806392080A138716001377E70FC1
:10448000631B07146394062263020F2071D5B307E0
:10449000AF401397570063550722B307E541014921
:1044A000AE8451B7E30005F0638ABE0AE35410FD01
:1044B0009307F00F6381F608B70700045D8D31B7ED
:1044C000635E1009630108089307F00F6385F60621
:1044D000B70700045D8DED4763C0171F1307000287
:1044E000330717413317E500B35715013337E000A1
:1044F000D98FFA9713975700635C070805091307CC
:10450000F00F630BE90AB706007E13D71700FD16FC
:10451000858B758FD98F01BF3307D84063950610FF
:10452000630D0F147D176303071A9307F00F6314CD
:10453000F810AE84328E630F0E06814E9306F00F94
:10454000B707400011BF39C9FD18B307AF00E383B7
:1045500008FA9307F00FE390F6F8F1BF63990808A3
:10456000138916001377E90F63160712639B061071
:1045700063030F16E30205EEB307AF00139757006E
:10458000014963570700370700FC7D17F98F05497C
:1045900013F77700E31C07E813DE37009307F00FEB
:1045A000E30BF9F893179E00A5839376F90F93FE1A
:1045B00014005DB593FE14009306F00F814769BDAA
:1045C000370700FC7D17F98F13F777003309A940EF
:1045D000E31E07E4D1B73304AF409317540063C31D
:1045E000070CE31C04E0814E81468147B5B53307D3
:1045F000D840B5C69307F00FE30EF8F2B7070004F2
:10460000336FFF00ED4763CDE70C93070002998FEE
:10461000B317FF003357EF00B337F0005D8FB307D8
:10462000A7004289C1BD9307F00FE304F8F0B70774
:104630000004336FFF00ED4763C2E70893070002F1
:10464000998FB317FF003357EF00B337F000D98FBE
:10465000B307F5404289AE8449BB854769B3630E11
:104660000F067D17B307AF004289E30507E89307FC
:10467000F00FE319F8F8328E7DBD328E4289AE8498
:1046800031BFE3090FEAE30805EA45BD0DCDAE8E63
:10469000B287D9B39307F00FE300F9F2B307AF0085
:1046A0008583FDB53304E541AE8481BBE31D0FFC7A
:1046B000E30505E8AE84BDBD854725BD854749BFF7
:1046C0000149E39707EC814E814779B3B307E54190
:1046D0004289AE8419BBB28741B3328E42897DBD17
:1046E000054735BF13577501370680009307F6FF5E
:1046F0001377F70F9305E007B3F6A7009357F5017B
:10470000014563F4E50099C3828082809307E00944
:104710007D55E3EBE7FE93055009B3E7C60063D789
:10472000E5001307A7F63395E700828013056009BB
:104730003307E54033D5E7008280411106C622C425
:1047400026C20DCD9357F54133C4A7001D8CAA8412
:104750002285492E9307E0093387A7409307600914
:10476000FD8063CCE702A1469377F70F63D5A600DF
:1047700061153314A4002604258021A081448147BB
:104780000144260413559400B2402244DE07FE047F
:104790005D8D458D9244410182809307900963DDD0
:1047A000E7009307B5019546B317F400898E33549B
:1047B000D400B337F0005D8C954763D6A70093070C
:1047C000B5FF3314F400B70600FCFD1693777400B0
:1047D0003376D40085C39377F4009145638CB7009A
:1047E00011069317560063D707009307F009758EDB
:1047F0003387A7401314660025809377F70F51B7CE
:10480000411106C622C415CD2A84E92C9307E0097C
:104810003387A7409307600963C0E704A1469377F5
:10482000F70F63D5A60061153314A4002604258074
:10483000260413559400B2402244DE075D8D4101E9
:1048400082800144260413559400B24022448147DB
:10485000DE075D8D410182809307900963DDE700EB
:104860009307B5019546B317F400898EB337F0006E
:104870003354D4005D8C954763D6A7009307B5FFEA
:104880003314F400B70600FCFD16937774003376FA
:10489000D40085C39377F4009145638CB70011066B
:1048A0009317560063D707009307F009758E338777
:1048B000A740131466002580260413559400B240C7
:1048C00022449377F70FDE075D8D410182801357F5
:1048D00075011377F70F41119307170022C426C201
:1048E0001314950006C693F7E70F25809354F5013E
:1048F00085C793573400130707387604B207520769
:10490000B1831395F401D98FC98FB2402285224417
:104910009244BE854101828005EB39C42285D922AB
:10492000A94763C6A7042D47098F9307550133573D
:10493000E4003314F4009317C70013079038098F6D
:10494000B1831377F77F5DBF01CC13573400B707EE
:104950000800D98FB2077604B1831307F07F79BFBF
:104960001307F07F814759BF0147814741BF1307B4
:1049700055FF3317E40001447DBF93D6450193975B
:10498000C50093F6F67FB183138616008E07135782
:10499000D5011376E67FFD815D8F9318350035CE06
:1049A000138806C89307E00F63DD0701814713955D
:1049B00097009306F00FDE062581FE05558D4D8D7F
:1049C00082806355000B931765000E07B337F00024
:1049D000D98F93D8D801B3E7170113F77700630194
:1049E000071013F7F70091466303D70091073707C5
:1049F00000047D8F75C7130718001306F00F937618
:104A0000F70FE305C7FA9A07A58313959700DE060B
:104A10002581FE05558D4D8D8280B367170199EE76
:104A200085CF95479A07A5831395970093F6F60FC0
:104A3000DE062581FE05558D4D8D8280A5DBB707ED
:104A40004000139597009306F00FDE0681452581FF
:104A5000FE05558D4D8D82808147139597008146C7
:104A6000DE062581FE05558D4D8D8280A557634854
:104A7000F804F94737068000B38707417D45598E12
:104A80006351F50479573307074113050002335783
:104A9000E6006388A700938626CAB316D600B3E85B
:104AA000D800B3371001D98F13F77700014815FBF1
:104AB000139757008546E34807F48146A5B781461A
:104AC0008DB7938626C83397D8003337E000B316E6
:104AD000D600B3D8F800B367D700B3E7F800E9B75A
:104AE000C28689B7C167637CF5029307F00F13078D
:104AF000000263EBA700971700009387275CAA9733
:104B000088233305A740828021819717000093876F
:104B1000E75AAA97882361473305A7408280B707E1
:104B20000001636DF50061819717000093870759B5
:104B3000AA97882321473305A74082804181971790
:104B400000009387A757AA97882341473305A740BA
:104B5000828039713EDA2ED232D436D63AD842DC4F
:104B600046DE9387018222CC804326CA06CEAA84E1
:104B700009C41C4C99E32285F5290C44541026865F
:104B8000228536C6EF003013F2406244D2442161E0
:104B90008280011126CA4AC806CE22CC4EC652C413
:104BA000AA842E8901C51C4D91E3E9219C4C8044C7
:104BB00099E32685C1219717000093872762631B1D
:104BC000F402C0405E24A18BB1C71C48A1C7FD59A7
:104BD000294A1C4483450900FD17B1E91CC463DD63
:104BE00007062286A94526856120FD576308F50240
:104BF000294535A097170000938747606314F40098
:104C00008044C9B7971700009387475BE31CF4FA09
:104C1000C0444DBFA2852685112A55D97D55F24045
:104C20006244D2444249B249224A056182801CC48E
:104C3000050963D70700184C63CAE700638845017C
:104C40001C401387170018C08CA361B722862685E5
:104C50000520E31035F9D9B71C401387170018C099
:104C6000294798A371B793870182AA85884315B70E
:104C7000011122CC26CA4AC806CE4EC6AA842E8965
:104C8000328401C51C4D91E3F526971700009387E8
:104C9000E7546317F406C0401C4C1CC45E24A18B6F
:104CA000C1C31C48B5CF1C4808409379F90F13794C
:104CB000F90F1D8D5C486346F500A2852685692C99
:104CC00025E51C440505FD171CC41C40138717006F
:104CD00018C0238037015C486388A7005E24858B59
:104CE00081CBA9476316F900A2852685B5240DED71
:104CF000F24062444A85D2444249B2490561828009
:104D0000971700009387874F6314F400804469B7B6
:104D1000971700009387874AE310F4F8C044ADBFAB
:104D2000A2852685212041D17D59D9B7411193878C
:104D3000018226C2844322C44AC006C62A892E8420
:104D400089C49C4C99E326853526971700009387E4
:104D5000E748631BF402C0400317C4009317070120
:104D6000C18393F68700ADEA93F6070195EEA54758
:104D70002320F900136707045AA47D55B24022444A
:104D800092440249410182809717000093870747A8
:104D90006314F4008044C9B7971700009387074253
:104DA000E31CF4FAC0444DBF918B9DC34C5889C994
:104DB000930744046384F5004A85192B232A0402CF
:104DC0005E242322040093F7B7FD5EA41C481CC098
:104DD0005E2493E787005EA41C4899EB5E241307CA
:104DE000002093F707286385E700A2854A85892973
:104DF0005E2413F717001DC35C4823240400B30787
:104E0000F0401CCC1C480145B5FB8317C40013F7C8
:104E100007082DD793E707045EA485B7898B014760
:104E200091E3584818C4F9BFDE25011122CC26CAE7
:104E300006CE4AC84EC613F78700AA842E8479EBA3
:104E4000D841634DE000B841634AE0000145F240BB
:104E50006244D2444249B2490561828058547DD7A8
:104E600003A904009396370123A0040063DB060620
:104E700070485E24918B99C75C401D8E5C5899C325
:104E80003C401D8E5C540C50814626858297FD5710
:104E90005A24631DF5009440F54763E8D706B70729
:104EA00040208507B3D7D700858BA5C31C48232294
:104EB00004001CC09317370163D80700FD57631423
:104EC000F5009C4091E368C84C5823A02401BDDD47
:104ED000930744046384F5002685DD2E232A04020B
:104EE000B5B70C500146854626850297FD572A86A0
:104EF000E311F5F89C40B5DF75476385E700594736
:104F00006393E70423A0240191B7136707045AA40D
:104F10007D5535BF83A90501E38A09F203A9050080
:104F20008D8B23A0350133093941014791E3D849DD
:104F300018C4E35D20F11C540C50CA864E862685A9
:104F400082976347A0005E2493E707045EA4C9B775
:104F5000AA993309A940F1BF9C49A5C3011122CCEC
:104F600006CE2A8411C51C4D81E72EC62122B245EA
:104F70009717000093878726639CF5004C40839722
:104F8000C5009DC722856244F24005616FF0DFE9EC
:104F900097170000938787266394F5000C44C5B7E4
:104FA0009717000093878721E39BF5FC4C44C1BF12
:104FB000F2406244014505618280014582804111D1
:104FC00022C406C62A844EA572A5232005002322EA
:104FD0000500232405002322050623280500232A93
:104FE0000500232C0500214681451305C505EFB0BA
:104FF0002FA3971700009387C7B25CD097170000C4
:105000009387E7B41CD4971700009387C7B85CD484
:1050100097170000938727BB00D01CD8B2402244CA
:105020004101828097050000938545F389AA4111CB
:1050300026C2130680069384F5FFB384C4024AC0D7
:105040002E8922C406C6938544073D262A8401CDB5
:105050002320050023222501310508C41386840678
:105060008145EFB0EF9B2285B24022449244024931
:10507000410182801C4DA5E7411106C622C4970755
:105080000000938767FA1CD5938741829C432324B1
:10509000050423260504232805046314F500854729
:1050A0001CCD2A84352848C022851D2808C42285A5
:1050B000052848C4484001469145EFF05FF0084498
:1050C0000546A545EFF0BFEF48440946C945EFF056
:1050D0001FEF85471CCCB240224441018280828070
:1050E00041119387418226C284434AC006C69C4C24
:1050F00022C42A8999E32685B53F93848404804499
:10510000DC40FD1763D607009C40B9CF8440C5BF83
:105110000317C40039E7C17785072322040623203B
:10512000040023220400232404005CC42328040078
:10513000232A0400232C0400214681451305C405BD
:10514000EFB00F8E232A0402232C0402232404042C
:10515000232604042285B24022449244024941019C
:1051600082801304840671BF91454A85EFF03FECBD
:1051700088C049FDB1472320F9000144E1BF79719E
:1051800022D44AD052CC56CA5AC85EC606D626D2B7
:105190004ECE2A8AAE8A130485040149054BFD5B75
:1051A00009ECB25022544A8592540259F249624A9B
:1051B000D24A424BB24B4561828004448329440069
:1051C000FD1963D409000040E1BFDE24637BFB00CE
:1051D0008397E40063877701A6855285829A3369B5
:1051E000A90093848406E9BF1971A6DAAE84839579
:1051F000E500A2DC86DE328463DB0500DE2423A02A
:10520000060093F7070885E7930700401DA03008C4
:1052100036C6EF00D021B246E34205FE7247BD67B5
:10522000F98F7977BA9793B717009CC2F1BF9307AC
:1052300000041CC0F6506654D654014509618280B2
:10524000DE25011122CC06CE26CA4AC8898B2E84BF
:1052500089CF930774041CC01CC885475CC8F24002
:105260006244D24442490561828074003000AA84BD
:10527000A53FA2452A892685012219E98317C40082
:1052800013F7072069FFF19B93E727005EA4D1B7CE
:1052900097070000938747D99CD45E2408C008C8AC
:1052A00093E707085EA4A2475CC8B24781CF831585
:1052B000E4002685EF00D01A11C55E24F19B93E728
:1052C00017005EA45E243369F9002316240141BF50
:1052D000DDC183A7C5FF411122C406C626C21384BF
:1052E000C5FF63D307003E94AA84EF00301F938765
:1052F00081879C4381EF2322040023AC81862244D2
:10530000B2402685924441016F00701D637EF40017
:1053100014403307D4006396E7009843DC43369784
:1053200018C05CC0D9BFBA87D84319C3E37DE4FE77
:1053300094433386D700631F86001040B29694C30F
:105340003386D700E31DC7FA10435843B29694C37F
:10535000D8C375B76375C400B1479CC04DB7104042
:10536000B306C4006316D70014435843B29614C062
:1053700058C0C0C369B78280011126CA9384350022
:10538000F19806CE22CC4AC84EC6A104B14763F3B9
:10539000F404B14463E2B4042A89EF003014938723
:1053A000818798433A8439E09387C1879C4391E78A
:1053B00081454A85252F23AEA186A6854A853D27AE
:1053C000FD5963193507B1472320F9004A85EF00DD
:1053D000101129A0E3D004FCB1471CC10145F240E3
:1053E0006244D2444249B249056182801C40858FA3
:1053F00063CF0702AD4663F6F6001CC03E9404C0BE
:1054000031A05C406313870223ACF1864A85EF002C
:10541000100D1305B4009307440061993307F5405C
:105420005DDF3A94898F1CC05DBF5CC3C5B722871E
:10543000404095BF130435007198E30285FCB30525
:10544000A4404A856525E31C35FBB5BF1C46FD1706
:105450001CC663DA0700184E63C5E700A9476394CA
:10546000F5006FF0FF801C422E851387170018C2CD
:105470008CA38280011122CC26CA4AC84EC652C4CF
:1054800006CE2A89AE893284B304D6007D5A6314CD
:105490009400014509A80C204E864A85EFF01FFBB9
:1054A0000504E31645FFF2406244D2444249B24942
:1054B000224A05618280357122CD26CB4AC94EC76A
:1054C00006CF52C556C35AC1DEDEE2DCE6DAAA894F
:1054D000AE843289368409C51C4D99E3EFF09FB93B
:1054E00097170000938787CF6398F40C83A4490033
:1054F000DE24A18BE5C79C48F5C393070002A304F3
:10550000F1029307000302D22305F10222C6930B96
:105510005002971A0000938A6AD0054C294B4A849E
:105520001C2099C3639F770DB30C2441638E0C003C
:10553000E6864A86A6854E85EFF0DFF3FD57630FBA
:10554000F51C9256E69636D21C206389071CFD573F
:105550001309140002C802CE3ECA02CCA3090104FA
:1055600082D48345090015465685A92F13041900D6
:10557000C24751E913F7070109C713070002A3093E
:10558000E10413F7870009C71307B002A309E10478
:10559000834609001307A002638FE606F2474A8498
:1055A00081462546182093051400130707FD6377ED
:1055B000E60AB5CA3ECE85A897170000938707C4B0
:1055C0006395F40083A4890025B79717000093879B
:1055D000E7BEE39FF4F083A4C90019BFA6854E85FA
:1055E000EFF0CFF419D97D55FA406A44DA444A49BC
:1055F000BA492A4A9A4A0A4BF65B665CD65C0D6148
:105600008280050431BF330555413315AC00C98F85
:105610003EC82289B9B7324793064700184336C6B9
:10562000634707023ACE18209307E002631DF70490
:1056300018309307A002631BF702B24709041387CF
:1056400047009C433AC663C107023ECA2DA83307F0
:10565000E04093E727003ACE3EC8F1B7B38767032F
:1056600085462E84BA973DBFFD57C5B7050402CACB
:10567000814681472546182093051400130707FD2E
:105680006374E606F9F20C200D46171500001305A9
:1056900065B90D2D11CD971700009387A7B81D8D03
:1056A00093070004B397A700424505045D8D2AC8FF
:1056B0000C20194617150000130505B7130914002F
:1056C0002304B102012535C197B7FFFF9387879364
:1056D00095E74247B2471377071009CF91073EC6B7
:1056E0009257D2973ED225BDB387670385462E8455
:1056F000BA9751B79D07E19BA107D5B778009706E8
:105700000000938666D726860C084E859700000019
:10571000E7000000FD572A8AE314F5FCDE2493F726
:105720000704E39207EC1255C1B578009706000014
:10573000938686D426860C084E85012AE1BF7971AE
:1057400056CA9C49BA8A984522D426D24ECE52CC0B
:1057500006D64AD05AC85EC6AA892E84B284368A32
:1057600063D3E700BA879CC00347340419C3850795
:105770009CC01C4093F7070281C79C4089079CC0CE
:105780000329040013796900631A0900130B9401BB
:10579000FD5B5C449840998F634CF9041C40834640
:1057A000340493F70702B336D000A5EB1306340494
:1057B000D2854E85829AFD576303F5041C4011463D
:1057C0009840998B544481446397C700B384E64062
:1057D00063D3040081441C4418486354F700998F34
:1057E000BE94014969047D5B63982405014509A8BD
:1057F00085465A86D2854E85829A631E75017D55EF
:10580000B250225492540259F249624AD24A424B4F
:10581000B24B456182800509ADBF3307D400130642
:105820000003A301C7040347540493871600A297FB
:105830008906A381E7049DBF85462286D2854E85D1
:10584000829AE30E65FB050945B7797122D426D209
:105850004AD04ECE06D652CC56CA5AC8B689942DD6
:10586000930790063289AA842E8413863504638DAB
:10587000F60263E2D706930780056386F61863EDA8
:10588000D700638E062093073004638EF60A930ACE
:1058900024042301D404C9A0930730066385F60AC3
:1058A00093074006E395F6FE1C40084393F607086D
:1058B00093054500C5C61C410CC363D807001307F8
:1058C000D002B307F040A301E404971600009386CA
:1058D0002696294765A8930700076382F61663E5B5
:1058E000D7029307E0066389F6189307F006E39062
:1058F000F6FA0C401C4313F80508138547006307AC
:10590000080608C39C4385A893075007E383F6FE67
:10591000930780076389F61293073007E399F6F639
:105920001C43D04181459386470014C383AA0700D6
:105930005685492E01C53305554148C05C401CC8F9
:10594000A301040461A81C43930A2404938647001E
:105950009C4314C32301F4048547D5B793F6070489
:105960001C410CC3B9DAC207C18781BF93F5050496
:1059700008C3C9D99E231307F0066387E60E97165E
:1059800000009386E68A2947A30104044C400CC416
:1059900063C5050008406D9908C099E3B28A89CDB6
:1059A000B28AB3F5E702FD1AB6958C212380BA00BE
:1059B000B3D5E70263F0E70CA147631EF7001C4074
:1059C000858B91CB58401C4863C7E70093070003C1
:1059D000A38FFAFEFD1A3306564110C84E87CA86B9
:1059E0007000A2852685EFF09FD57D5A631D450B7B
:1059F0007D55B250225492540259F249624AD24A19
:105A0000424B45618280A382D5049716000093869D
:105A100026820C40084313F805081C411105630D4C
:105A2000080208C313F7150001C793E505020CC06F
:105A30004147B9FB0C4093F5F5FD0CC0B1B79C4153
:105A400093E707029CC193078007A302F40497061B
:105A500000009386267F75BF13F8050408C3E3038F
:105A600008FCC207C1837DBF970600009386467C71
:105A7000214719BFAE8735B794411C43CC4913F871
:105A80000608138547006306080008C39C438CC3BF
:105A900039A008C393F606049C43F5DA8EA32328A5
:105AA0000400B28A25BF14485686CA852685829985
:105AB000E30045F51C40898B8DE7B2474844E35A23
:105AC000F5F23E853DB785465686CA85268582997C
:105AD000E30065F3050A5C443247998FE345FAFE1B
