:040000006F00706CB1
:100004000000000000000000C8020000CA02000056
:1000140000000000C40E000000000000000000000A
:10002400C40E0000C40E0000000000000000000028
:100034008204000000000000C40E00000000000064
:10004400C40E0000C40E0000C40E0000C40E000064
:10005400C40E0000C40E0000C40E0000C40E000054
:10006400C40E0000C40E0000C40E0000C40E000044
:10007400C40E0000C40E0000C40E0000C40E000034
:10008400C40E0000C40E0000C40E0000C40E000024
:10009400C40E0000C40E0000C40E0000C40E000014
:1000A400C40E0000C40E0000C40E0000C40E000004
:1000B400C40E0000C40E0000C40E0000C40E0000F4
:1000C400C40E0000C40E0000C40E0000C40E0000E4
:1000D400C40E0000C40E000066240000C40E00001C
:1000E400C40E0000C40E0000C40E0000C40E0000C4
:1000F400C40E0000C40E0000C40E0000C40E0000B4
:1001040000000000C40E0000C40E0000C40E000075
:10011400C40E0000C40E0000C40E0000C40E000093
:10012400C40E0000C40E0000C40E0000C40E000083
:10013400C40E0000C40E0000C40E0000C40E000073
:10014400C40E0000C40E0000C40E0000C40E000063
:10015400C40E0000C40E00009E180000CC02000073
:1001640038050000C40E0000C40E0000C40E0000D8
:10017400C40E0000C40E0000C40E0000C40E000033
:10018400C40E0000C40E0000C40E0000C40E000023
:10019400C40E0000C40E0000C40E0000C40E000013
:1001A400000000000000000000000000000000004B
:0C01B4000000000000000000000000003F
:1001C000397101436EC619A0397141536AC866CAB4
:1001D00062CC5ECE19A0397101535AD056D252D496
:1001E0004ED64AD826DA22DC06DE3301614082820E
:1001F00041114AC026C222C406C68282B24D4101C4
:10020000024D924C224CB24B4101024B924A224A7F
:10021000B2494101024992442244B24041018280E4
:100220003D432A876373C3029377F700BDEFADE5C3
:10023000937606FF3D8ABA960CC34CC30CC74CC7D5
:100240004107E36BD7FE11E28280B306C3408A0602
:100250009702000096966780A6002307B700A306C2
:10026000B7002306B700A305B7002305B700A30412
:10027000B7002304B700A303B7002303B700A3020A
:10028000B7002302B700A301B7002301B700A30002
:10029000B7002300B700828093F5F50F9396850091
:1002A000D58D93960501D58D61B79396270097025A
:1002B000000096968682E78086FA9680C1171D8F89
:1002C0003E96E374C3F8A5B701A001A0EFF25FF278
:1002D000372400409305003613050480EF10C04218
:1002E00019CD13050480EF10404013050480EF1072
:1002F000C03FA14513050480EF10404021BF930586
:10030000505213050480EF10204001C913050480EA
:10031000EF10A03D93050002F1BF93057072130525
:100320000480EF10603E79D993050008E1B70547D6
:1003300023A4E18223860182938701870147938664
:1003400001977D5513060002B385E60023A207003E
:1003500023A0070088A10507A107E317C7FEB7F789
:1003600000E023A20700814694C70147D8C737079A
:10037000002003270708B7460F009386062433574B
:10038000D70281461306F7FF90CBD4CB3D4798C3E5
:10039000B7E700E005472386E740056723A0E7109D
:1003A0008280138781821443938781829843158FBB
:1003B000E36EA7FE8280138781829306803E1043FE
:1003C0003357D502938781823375D5024207418323
:1003D0009443918EE3EEE6FE1387418223200700CB
:1003E000938741829843E36FA7FE8280EFF2BFDEDE
:1003F000938741829843050798C394431307703E3F
:100400006379D700138781821443850614C323A020
:10041000070083C6C18213870197369714237D474F
:10042000938401971384C182636CD7021389018777
:10043000FD5A182083A601828145138601823388E4
:10044000E4008347080013858182832805008E0716
:10045000CA9703A3070063F6680099C114C218A0E5
:100460006DB3D443050723A2070023A00700230090
:1004700058017D8B8545E1D6084114C218A08296AB
:100480004DBFB7F700E0D84301C723A20700B93F2B
:1004900073002030EFF2DFD579718545414502CAFE
:1004A00002CC02CE02D002D202D402D602C602C8C8
:1004B000EF005057854513050008EF00905891470D
:1004C000FC828D473ECC4C08E147371501403ECEBB
:1004D000EF00F028A147FC824C08914737150140F6
:1004E0003ECEEF00D027F1673724004093870720E6
:1004F0003ED00C10B7070C00130504C03ED402D246
:1005000023160102EF1020100546930550521305E3
:1005100004C0EF10A019930780357C8668008547DA
:100520003EC823070100EF0030318545130504C0A4
:10053000EF1060164561F9B9411126C4B724004097
:1005400093055052138504C022C6EF10E01B854767
:10055000631EF5022A84138504C0EF100019138767
:10056000E182238881821C2393168501E18613860C
:10057000E18295E36397860A14A3D12337250040CF
:1005800093055052130505C0EF10C01B3244A2441E
:1005900041017300203063978700239801988947B1
:1005A0001CA3E1BF89456396B7002398D1988D4776
:1005B000C5BF8D456396B700239901989147CDB784
:1005C00091456396B7002399D1989547D1BF95453A
:1005D0006396B700239A01989947D9B799456396CE
:1005E000B700239AD1989D4765BF9D456396B70094
:1005F000239B0198A1476DB721476397E700239B91
:10060000D198A5471CA295BF25476391E7029307A0
:10061000F0F8639AF600054723000600A386E182FE
:10062000A9BFC147B5DE2300060081BF4147E39C57
:10063000E7FEA387A182C547F1B7EFF27FBB37245E
:100640000040AA85130504C0EF10A009130404C0DC
:10065000930500082285EF10C0097DD965BEEFF231
:100660009FB713050002D13F1305C003F9373704C4
:100670000020856413050005130404229384042CD0
:100680006D3FA294930900050149B30724019C23FF
:10069000054591E3014505094D37E31839FF13047A
:1006A0000405E31394FE1305F00F413FB9BEEFF2CA
:1006B0003FB479718545114502CA02CC02CE02D001
:1006C00002D202D402D602C402C623180100EF00EF
:1006D00050370965854513051503EF00B0349307BE
:1006E000000CFC82E1448D474C083715014026CEB2
:1006F0003ECCEF00D006370701405C4305644C0850
:10070000C18F5CC326CEB7140140FD77138504402A
:10071000FC82EF00D004856793870780FC824C0839
:10072000C147138504401304F4EF3ECEEF003003BD
:1007300022C6371400402C0013050480B734014052
:1007400002C4EF0070322C0013850440EF00D0315A
:10075000C167938707060C10130504803ED023134E
:10076000010223140102EF00D03A0C10130504809B
:10077000EF0050420C1013050480EF00904C0C1059
:1007800013050480EF00B0560C1013850440EF00F1
:1007900050380C1013850440EF00D03F130504803F
:1007A000A145EF00D06113050480A145EF00106260
:1007B00013050480A145EF00D06213050480A14514
:1007C000EF00106313850440A145EF00505F1385CF
:1007D0000440A145EF00905F130504808545EF00BC
:1007E000705C138504408545EF00D05B13050480E1
:1007F0008545EF00D059138504408545EF003059F9
:10080000130504808545EF00105785451385044086
:10081000EF0070564561FDBAEFF29F9DB75700009B
:1008200003A987AF2E84AA84CA852285EF20E05BC6
:10083000634CA000B757000003A947AF2285CA85C3
:10084000EF200063635305004A8493F714008DCFB3
:10085000930500002285EF20A061B7570000635484
:10086000050A83A5C7AF3739014037050080231A31
:100870000942218DEF208068EF20104A4205418116
:10088000231CA9421309094093F724008DCF930537
:1008900000002285EF20C05DB757000063550508B2
:1008A00083A5C7AF3719004037050080231A098296
:1008B000218DEF20A064EF20304642054181231CAA
:1008C000A9821309098091888DCC930500002285A7
:1008D000EF20005AB75700006357050683A5C7AF3E
:1008E000B714004037050080239E0482218DEF203D
:1008F000E060EF207042420541812390A4849384FC
:1009000004806FF03F9183A5C7AF2285EF20005F81
:10091000EF2090404205B73701404181239AA7421A
:10092000239C074295B783A5C7AF2285EF20005DC2
:10093000EF20903E4205B71700404181239AA782DD
:10094000239C078249B783A5C7AF2285EF20005BB0
:10095000EF20903C4205B71700404181239EA782BB
:100960002390078479BFEFF2BF8885653715014072
:1009700005469385058013050540EF00E06A6FF09A
:100980007F89EFF2FF8679718545214502CA02CC45
:1009900002CE02D002D202D402D602C402C623186A
:1009A0000100EF00300885450945EF0090098547B3
:1009B00037150140FC820D49E1474C08130505C07D
:1009C0003ECE4ACC692BB707002083A70708130740
:1009D000803E37040040B3D7E7022C0013050440E3
:1009E000C16423150100FD177C849307703E3EC649
:1009F000EF009007938704060C10130504403ED0C7
:100A00002313010223140102EF00B0231305044055
:100A10008545EF00D037130504408145EF00703C59
:100A2000130504408545EF00F03713050440854564
:100A3000EF007034854513050004EF00A07E3724D5
:100A40000140C1473ECE4C08930700C01305048007
:100A5000FC824ACC29230146938504C013050480F7
:100A6000E12345616FF00FFBEFF28FF89305000073
:100A70002A84EF20E03F634E0502B757000083A4AD
:100A800087AF2285A685EF2040366353A0002684D9
:100A9000B757000083A507B02285EF202046EF203E
:100AA000B02742054181B7070040239EA7426FF05F
:100AB0006FF613040000E9BFB707004093870740B3
:100AC000D63F1306401F01476364D6001307803EDC
:100AD000DABF8280EFF2CFF1372401409305004066
:100AE000130504802D2B13361500930500401305C4
:100AF00004801D2B6FF00FF2EFF28FEF37240140CF
:100B000085649385048013050480112B133615002A
:100B10009385048013050480012B6FF0AFEFEFF293
:100B20002FED37240140896513050480CD29133644
:100B30001500896513050480C5296FF0AFEDEFF24C
:100B40002FEB37240140A16513050480C929133612
:100B50001500A16513050480C1296FF0AFEBEFF21A
:100B60008FE72D240945F121716513050520EF104C
:100B70005005B707002083A5070837550000130567
:100B800005B1EF209055F926AA85375500001305C9
:100B900005B2EF209054EFF0FF8FE533EFF02FF91F
:100BA0003936EF104010093F1305C012EFF06FFF08
:100BB0005D3BB757000003AA87B083AAC7B00144C2
:100BC000130990022285EF1010705286D686EF101E
:100BD0005014EF201033AA84AA8505453539A6851F
:100BE00009451D39A6851145053929450504EFF04C
:100BF0004FFBE31924FD37540000EF10204449E176
:100C0000EF10807737550000130545B4EF20305EB4
:100C1000EF00D039B757000003AB87AF0144375915
:100C20000000B7590000B75A0000EF00F0325D3500
:100C30000504A285130549B5EF20304AEF00D031F5
:100C4000AA85138589B6EF205049938441838C404F
:100C500013858AB7EF207048EFF07FA0EF003030A7
:100C6000EF003072EF005073EF00F07A88C0635FDE
:100C7000A0005A85D53B1305401FEFF08FF275B7E2
:100C8000130504B3EF20B056853D85BF1305000062
:100C9000D5B7B71702409843B706FFF04111136765
:100CA000170098C3D84337060200758FD8C39843FE
:100CB000B706F7FEFD16758F98C39843B706FCFF7D
:100CC000FD16758F98C3D843B70601FFFD16758FC3
:100CD000D8C39843B70600ECFD16758F98C3370745
:100CE000FF0098C723A6070202C402C69843C16644
:100CF000558F98C3B716024005679C42F18F3EC6D8
:100D0000A24785073EC4B24781E7A247E397E7FEC3
:100D1000B71702409C431397E700635707068547C0
:100D20003EC632478547631FF704B7170240D843D2
:100D3000B706C1FFFD16D8C3D843D8C3D84313673D
:100D40000740D8C3D843758FD8C3D843B706290006
:100D5000558FD8C39843B7060001558F98C3984361
:100D600093166700E3DD06FED843B7160240719B79
:100D7000D8C3D84313672700D8C32147DC42B18BBF
:100D8000E39EE7FE4101828002C661BFB7160240C2
:100D9000D842B70700201146318B93870708630BB1
:100DA000C7022146630DC70237177A0013070720D1
:100DB00098C337170240584311839376F7003707DB
:100DC0000020130707003697142398433357D700A2
:100DD00098C382803727B700130707B0D1BFD84226
:100DE000D442416649833D8BF18E1306270015CF0F
:100DF0003D47630FE6024147630FE60245478145E1
:100E00006313E6004146A1E237470240032707800B
:100E1000418B0DC737177A00130707203306C70227
:100E200090C3C1D99843058361B781454946E1BF65
:100E300085453546C9BF81453D46F1B737173D0069
:100E400013070790E1BF3715024058559316F70076
:100E5000585563DF060411833D8B9306170037272F
:100E6000B700130707B03357D70298C35455A18270
:100E7000BD8A8DE295463307D702058398C337179D
:100E80000240585794433D8B050733D7E60298C379
:100E9000984369B705456394A600E546E9BF3D451B
:100EA0006396A600D1463387E602C9BF8906E5BF2F
:100EB0003D8B930617003727B700130707B033574A
:100EC000D702F1B701A0970100209381A19B177170
:100ED000002013012113174500001305E50E97F5B7
:100EE000FF1F938525121386018263FAC5008322B2
:100EF000050023A0550011059105E3EAC5FE138501
:100F0000018297250020938525D56377B50023209E
:100F100005001105E36DB5FEFD42739002BCAD42C4
:100F200073904280B762000093828208739002300F
:100F300097F2FFFF9382420D93E23200739052309A
:100F4000EFF03FD5970200009382A2C17390123454
:100F500073002030B7F7FF1F03A5477082809C45C0
:100F600013F7070113F8F70001C7D8413368E80009
:100F70008E2113F7F50F39C318418146854E3D4F39
:100F8000930F800293028004214E3396DE00B3F863
:100F9000C500631116039398260033131F011343F2
:100FA000F3FF3377E300B318180133E7E800639FDA
:100FB000F70550C98506E39AC6FD18C11307F00F5F
:100FC0006375B70454412146854E3D4F930F80020F
:100FD00093028004414EB398CE0033F7150163921B
:100FE000E8021317260001173313EF001343F3FF32
:100FF000B376D3003317E800D98E639DF701232A17
:1010000015010506E319C6FD54C18280E39457FA21
:1010100010C94DB7E39757FE23281501DDB74845A2
:101020006D8D3335A000828019C20CC982804CC9F5
:10103000828023ACA182828003A78183894710210B
:101040006311F70214318D4763EDD7003C219A06F6
:1010500037E700E09607D58F93F7F70F3297230015
:10106000F74054410547935756003317C70089CAC4
:10107000938707048A07B7E600E0B69798C3828093
:1010800093870706C5BF371702405C439146B18B73
:101090006385D706A1466387D706B7177A0093877B
:1010A00007201CC1371602405C4237070020130797
:1010B00007019183BD8BBA9794231C41B3D7D70006
:1010C0005CC15442A1829D8ABA969422B3D6D700BD
:1010D00014C55442AD829D8A36971823B3D7E700D2
:1010E0005CC5584239839376370013874180369721
:1010F0001823B3D7E7021CC98280B727B7009387AC
:1011000007B045B75C435843C166C983758FB7F6CE
:10111000FF1F83A6C670BD8B89071396160163480F
:101120000600C54601466392D702C94739A88946D9
:10113000638FD702BD46638ED702C146638ED70246
:10114000C54601466393D700C1471DEF37470240AC
:1011500003270780418B05C737177A00130707203D
:10116000B307F7021CC11DDE1C4185831DBF01466C
:101170006DBF0546B547D1BF0146BD47F9B7371723
:101180003D0013070790E9BFB7150240D8559316E5
:10119000F700D85563DF060411833D8B93061700D3
:1011A0003727B700130707B03357D70218C1D455F4
:1011B000A182BD8A8DE295463307D702058318C107
:1011C00037170240585714413D8B050733D7E602C5
:1011D00018C1184171B785456394B600E546E9BF6B
:1011E000BD456396B600D1463387E602C9BF89067E
:1011F000E5BF3D8B930617003727B700130707B0ED
:101200003357D702F1B799C5371702405C4B5D8D54
:1012100048CB8280B7170240D84B1345F5FF798D34
:10122000C8CB828099C5371702401C4F5D8D08CF0F
:101230008280B7170240984F1345F5FF798D88CF0C
:10124000828099C5371702405C4F5D8D48CF828000
:10125000B7170240D84F1345F5FF798DC8CF82806C
:10126000B7170240E8B382801E213737014093064A
:1012700007C0C207C1836300D504B7060040630CF2
:10128000D502938606406308D502B7160040138640
:1012900006806302C502938606C0630ED50013075D
:1012A0000740630AE50037570140930607C063040F
:1012B000D5006316E500BA2193F7F7F8D98F3717F1
:1012C0000040630CE500130707406308E50093F74F
:1012D000F7CFFA21C207C183D98F1EA1DE215EB5E7
:1012E0009E211EB5B7370140138707C0630EE50086
:1012F00093870740630AF500B7570140138707C07B
:101300006304E5006314F5009C251EB985475EA9BA
:1013100082801E31922103D82500C207C183F99B28
:10132000C207C1831EB11E3156211A2DC207C183C7
:10133000420741831377C7F8518F9225F59BC20668
:1013400033660601D18F37360140130806C0C182CB
:10135000630E050113060640630AC50037560140B7
:10136000130806C0630405016310C502B225DD9BA6
:1013700003D8E500D18FD221ED9B93F6F6CFD18F24
:10138000D22533660601D18E56A11AADFA215AB97B
:101390001EB182801E3165771307F7CFC207C18364
:1013A000BD9BC207C1831EB11E31562103D88500E3
:1013B000C20713960601162DC18393F7F7FD758FAB
:1013C00096214182A206558FB62142074183B3E69A
:1013D00006019206D58FB7360140C207138806C0B2
:1013E000C183630E050193860640630AD500B75694
:1013F0000140138806C063040501631ED502B625AB
:1014000093F7F7F703D8C5009206D58FD621C20708
:10141000C183920693F7F7FBD58FFD769386F63F4F
:10142000F18EF225C207C183336606010A06D18E0A
:1014300013960601418252A11AADFA211ABD1EB1BE
:1014400082801E3103D88500C207C18393F7F7EF6E
:10145000C207C1831EB11E3156215A2DC2071396F1
:1014600006014207962141831377C7F8558FB621AD
:10147000C18393F7F7DFB3E60601A206D58FB7362F
:101480000140C207138806C04182C183630E050173
:1014900093860640630AD500B7560140138806C0FC
:1014A00063040501631FD502FD769386F67FF58FF1
:1014B000B62503D8C500A206D58FD621C207C183A1
:1014C000A20693F7F7BFD58FF576FD16F18EF225BC
:1014D000C207C183336606011206D18E1396060138
:1014E000418252A15AADFA215ABD1EB182801A31F1
:1014F000FD77FD17F98F1EB10358050256215E2DA9
:1015000065771396060196211307F7CF7D8FF9773C
:10151000A206FD17558FB3F70701B62103D8850042
:1015200042074182B3E60601B206D58FB7360140C5
:10153000C207138806C04183C183630E05019386E9
:101540000640630AD500B7560140138806C06304FD
:101550000501631BD500F176FD16F18ED2251A0622
:10156000D18E13960601418252A15AADFA21231061
:10157000E5041EB182801E2189C593E717001EA1D4
:101580008280C207C183F99BC207C183CDBF835745
:10159000450491C52167D98F2312F5048280C607BF
:1015A000C583DDBF1E2189C593E707081EA1828080
:1015B000C207C18393F7F7F7C207C183C5BF1E2DCA
:1015C000C207C183DD9BDD8D0EAD82801A2DFD77B4
:1015D0009387F77FF98FA205CD8FC207C1831EAD18
:1015E00082805E2DC207C183DD9BDD8D4EAD828082
:1015F0005A2DFD779387F77FF98FA205CD8FC2070C
:10160000C1835EAD8280EFE2BFBE1629F577FD177C
:10161000F58FF621DA257971D58F1EA95625FD772C
:101620009387379FF58FD6212A842EC6D58F96258E
:10163000D58FB625D58F5EA55E29C207C18393F7E6
:10164000F7CFD98F5EA96808EFF0FFA3B747014035
:1016500093870780B245631EF402A2576547B3879C
:10166000E7029841930640060A07B3D7E70233D74B
:10167000D702B3F7D7021207920793872703B3D78E
:10168000D702BD8BD98FC207C1831EA445616FE00D
:101690007FB89257E1B791C55E250967D98F5EA5DE
:1016A00082805A25F977FD17F98FD5BF13F7F50F0B
:1016B00085471583B395B7006319F7009307C500F5
:1016C000984301CED98D8CC382808946930745010A
:1016D000E318D7FE93070501E5B793C5F5FFF98D2C
:1016E000DDB793F5F51F4EA182804A211375F51FD2
:1016F00082800A216D8D3335A000828093C5F5FF6D
:10170000C205C1810EA1828013F7F50F85461583AE
:10171000B397B6006311D7025A25F98F1A210145F4
:101720004207418381CB0545A181B315B5006D8F7B
:101730003335E000828089466314D7001A29F1BF4F
:101740005A29E1BFA1818547B397B70093C7F7FF37
:10175000C207C1831EA1828003A50184828083D831
:10176000018137060020B715002005658146130664
:1017700006229385054E130300051305052C3687B5
:1017800081473308B700034808008507330EC700B8
:1017900033B80801C20723000E01C1830507E39295
:1017A00067FE93860605E39CA6FC8280EFE25FA4B9
:1017B0004111854509653704055002C402C6EFF0A2
:1017C0009FA41C20280093F7F70C1CA01C2093E773
:1017D00027001CA01C3093F7970F1CB0930700192B
:1017E0005EA0930780257EA083A781801CC483A769
:1017F000C1805CC41C3093F7F7031CB01C3093F716
:10180000F70F1CB03C2093E707013CA03C2093E776
:1018100087003CA03C2093E747003CA03C2093E796
:1018200027003CA03C2093E717003CA093076005ED
:101830007C8485473EC623050100EFF0EFFF1C3096
:1018400093E717001CB01C2093E717001CA0410170
:101850006FE05F9C83A781808605BE9593078025F6
:101860003305F5022E9518311C211315370093D638
:1018700057001375850336959306B0043305D502DA
:101880000D8393066002FD8B3307D7023A953D47DF
:10189000B387E7023E951D851375F50F8280011110
:1018A00022CE26CC4ACA4EC852C656C45AC25EC0C0
:1018B000EFF0EFA6B7070550982B098B35C7982B8B
:1018C000138481841377D70F98AB9387C183984390
:1018D000058B6309070E98433719002081440507DB
:1018E00098C3154A6D5B930B00051309094E930AC3
:1018F000C0121C40B3F7470395E393F5F40F054579
:10190000913FB3C7640383290400B3D94903938784
:10191000C703B3877703CA97CE9788A39504E39A42
:1019200054FD1C4085071CC0B7070550982B118B30
:1019300015C7982B1377B70F98AB03A7818098C76B
:1019400003A7C180D8C723AE018223A40184938753
:1019500001849843050798C323860184B70705507F
:10196000982B058B09CF982B1377E70F98AB9387AC
:1019700041849843050798C305472386E184B70748
:101980000550982B418B09C7982B1377F70E98AB0E
:10199000B7070550982B218B19CB982B3755000092
:1019A000130545B81377770F98ABEF2040047244C6
:1019B000E2445249C249324AA24A124B824B056163
:1019C000730020309843371900208144050798C3DD
:1019D000154A6D5B930B00051309094E930AC0125B
:1019E0001C40B3F7470395E393F5F40F01459D358C
:1019F000B3C7640383290400B3D949039387C7039A
:101A0000B3877703CA97CE9788A39504E39A54FDCA
:101A100009BFEFE2EFFA1171814713070010B30617
:101A2000F100238006008507E39BE7FE8567938727
:101A3000072CAA97930500050147B306E5009422F9
:101A400010020507B29603C606F005062380C6F00D
:101A5000E315B7FE13050505E310F5FE8147930670
:101A600000103307F100182393940701C18009CFB8
:101A70009307F00F6386F4009307E00F639BF40075
:101A8000268511616FE08FF78507E39CD7FC9304EF
:101A90000010139404014184A28781491307F00FB9
:101AA000635DF70AA287014B9306F00F63D0F60C33
:101AB000B757000083AB47AF8144014A0149930DFA
:101AC000E00FE3CF8DFA1C02A29783CA07F0569964
:101AD000B38A8A024A85EF10F0352A8D4E85EF10C1
:101AE0007035AA8C33852941EF1070282A8C569ABC
:101AF0005285EF103034EA85EF100004AA8A3305CE
:101B00004B41EF10D026E285EF100003AA855685E1
:101B1000EF100068AA8AE6856A85EF10E0012A8D39
:101B2000E6856285EF104001AA856A85EF10003DC9
:101B3000D685EF10A03CD685EF10403CAA8A42041F
:101B4000AA855E854180EF10A03263540500A2840F
:101B5000D68B050442044184ADB71402BE9683C6F9
:101B600006F08507C207B699C1871DBF18023E97C8
:101B7000034707F03307F7028507C207C1873A9B7F
:101B800035B7EFE2EFE6371500201305054E513566
:101B90002398A1806FE00FE8B70500208567B7069E
:101BA0000020938505229387072793860627BE95F5
:101BB000054509488548B6871306E004983315EBB8
:101BC00003C3170503C717FB1A9703C327001A9708
:101BD00003C307001A976354E800A38017017D161A
:101BE00042064182850779FA93860605E395B6FC9D
:101BF0008280E316A7FE03C3170503C717FB1A97D6
:101C000003C327001A9703C307001A97E349E5FCAB
:101C1000A3800700E9B737070020056613070722EE
:101C20001306062C3A960145814693078002130855
:101C300000058145B308B70083C808006383080026
:101C400085068505E398F5FE93058002B308B70085
:101C500083C808006383080005058505E39805FF30
:101C600013070705E317C7FC1386C1851C42898E3D
:101C700023A0F1861387818583280700154523203B
:101C800016011386418503280600C6972320070105
:101C9000138701850C43C29714C3AE97B6970CC245
:101CA00033C5A7028280EFE2AFD4411185451145CB
:101CB000EFF04FD7930700107C8237150140E147C2
:101CC0004C003EC6130505808D473EC4231301001A
:101CD000EFF0EFA81945EFF0AFD841016FE08FD3D7
:101CE000B717014003A747C0FD769386F60F758F9F
:101CF00023A2E7C003A747C0C576FD1613670730C8
:101D000023A2E7C003A747C0758F23A2E7C003A79C
:101D100047C08D66558F23A2E7C01307004023A854
:101D2000E7C005671307078023A8E7C08280EFE2BA
:101D30002FCC85643714014093840480232894C0F9
:101D400013090040232824C113052003EFE0AFE668
:101D500013052003232A94C0EFE0EFE5130404C029
:101D6000232A24016FE00FCBEFE28FC8856437147C
:101D7000014093840480232A94C013052003EFE0DC
:101D80008FE3930700402328F4C013052003EFE0FE
:101D90008FE213052003232894C0EFE0CFE1130462
:101DA00004C06FE02FC7EFE2AFC485643714014071
:101DB0009384048013052003EFE0EFDF1309004054
:101DC000232894C0232824C113052003EFE0AFDEAD
:101DD00013052003232A24C1EFE0EFDD13052003C0
:101DE000232A94C0EFE02FDD130404C06FE08FC2FC
:101DF000EFE26FBE056A2A89A144B71A0140130AAF
:101E00000A809309004093178901E18713870AC06C
:101E100063D307082328470113052003EFE0AFD958
:101E20001305200323A83AC1FD140609EFE0AFD83B
:101E300093F4F40F23AA3AC11379F90F13840AC05B
:101E4000F9F083A74AC0C574FD14E58F23A2FAC038
:101E500083A74AC0216713052003D98F23A2FAC0A4
:101E6000EFE06FD51305200323A83AC1EFE0AFD40C
:101E700003A58AC023AA3AC183A74AC00D672D8152
:101E8000FD8C23A29AC083A74AC00589D98F23A2BB
:101E9000FAC06FE08FB7232A4701BDBFEFE2AFB3AF
:101EA000B717014003A747C0C576FD16758F23A25B
:101EB000E7C003A747C0A1660569558F23A2E7C005
:101EC000A1440144371A01409309004013090980D5
:101ED00013052003EFE02FCE23283AC183278AC0C1
:101EE00006041374F40FB3F7270181C705041374B4
:101EF000F40F13052003FD14EFE0EFCB93F4F40F80
:101F0000232A3AC1F1F403274AC0C576FD16758F1E
:101F10002322EAC003274AC08D662285558F2322DB
:101F2000EAC06FE08FAEEFE2AFAC41112EC6AA84DB
:101F3000FD3B130500066D3D2A8413054006EFE0C6
:101F40008FC726857535498C13054006EFE0AFC66F
:101F5000B2452E85713D19C50544393522854101AB
:101F60006FE04FAB1374F40F33348000FDB7EFE232
:101F70002FA841112A84653B13050006953D1305E2
:101F80004006EFE04FC32285A53513054006EFE07C
:101F90008FC2D93B13054006EFE0EFC1493B130563
:101FA0001006B93513054006EFE0EFC0C53D2AC65F
:101FB000DD3B5D3B324541016FE0CFA5EFE24FA332
:101FC000411185451305C003EFF0CFA589649387C0
:101FD00084007C82C1473EC64C008D4737150140C6
:101FE000371901403EC4EFE09FF7130480049307C4
:101FF00000634C00130509807C8222C6EFE03FF6A7
:102000008567938707F44C00130509C07C8222C6BC
:10201000EFE0FFF44C00938404F037150140648234
:1020200022C6EFE0DFF391474C00130509407C82A4
:1020300022C6EFE0DFF241016FE0CF9DEFE24F9B60
:10204000B53FA147371401405CC82945EFE06FB5A3
:102050008964294544C8EFE0CFB404C8EFF05FC8F5
:1020600085451305F00FC135930500084945653DC9
:1020700013052003EFE0EFB27145D53D13140501C0
:102080004180220442047545DD354180418D931520
:102090000501A167C181938727FA638BF500375546
:1020A0000000130505B9EF10500305456FE08F964A
:1020B0002945753D131405014180220442042D4534
:1020C0007D354180418D93150501C1819384246440
:1020D000638A9500375500001305C5B9EF10E07FFE
:1020E0000945E9B71564130484BA930444160C3007
:1020F000082009040D3DE31C94FE014545BFEFE2B5
:102100002F8F15641304C4D09304C4010C3008202D
:102110000904113DE31C94FE6FE0CF8FB367B50057
:102120008D8BB9EBEFE2CF8CAE842A848145130509
:10213000F00FD53B91451305000EF5339355240060
:1021400093F5F50F1305A005F93B93D5240093F5FE
:10215000F50F1305B005C13B93D5840029800D8888
:102160009189C18D1305C0057D3B81451305000E86
:102170005D3B01456FE00F8A05458280EFE24F87A6
:102180002E84AA8481451305F00FEFF0DFD9A685D0
:102190001305300DEFF03FD985451305F00FEFF033
:1021A0009FD8A2854545EFF01FD86FE0AF86EFE2DC
:1021B0008F821354160093D416002A89AE892A946C
:1021C000AE941305F00F8545EFF0FFD5C2040D4521
:1021D000EFF0FFD9C1809397240093F53900B18BBC
:1021E000CD8F9375050FDD8D0D45EFF0DFD393D5C2
:1021F000290093F5F50F6545EFF0FFD293D5240044
:1022000093F5F50F6945EFF01FD242041305200343
:10221000EFF0FFD54180931734009375790093F761
:102220008703CD8F9375050CDD8D13052003EFF02B
:102230009FCF9355390093F5F50F5D45EFF0BFCE75
:102240009355340093F5F50F6145EFF0DFCD6FD076
:10225000DFFB93773600CDEBEFD2FFF793F7360035
:10226000AA890945C5E32E841305F00F81453289FB
:10227000B684EFF05FCB91451305000EEFF0BFCAB7
:102280009355290093F5F50F13051005EFF0BFC91D
:1022900093D5240093F5F50F13052005EFF0BFC883
:1022A00093F5F90F13053005EFF0FFC79375F40FA1
:1022B00013054005EFF03FC79355440093D98900BB
:1022C00093F5050793F979008D80B3E5350193F413
:1022D00004F893577900A18BC58DDD8D93F5F50F2B
:1022E00013055005EFF03FC49355490093F50508D9
:1022F00013057005EFF03FC381451305000EEFF0A5
:102300009FC201456FD07FF005458280EFD25FEE1E
:102310002A84AE841305F00F8145EFF0DFC09145AC
:102320001305000EEFF03FC09355340093F5F50F01
:102330001305000CEFF03FBF93D5340093F5F50F74
:102340001305100CEFF03FBE935544009D8893F5A4
:1023500005F80E0413748403C58DC18D93F5F50B38
:102360001305C008EFF03FBC81451305000EEFF0E8
:102370009FBB01456FD01FEAEFD29FE7EFF03FD838
:102380009306802513060032914513052011EFF0C6
:102390001FE293058025130500328D3F9306C0127E
:1023A00013060032814501456D359305C0121305B2
:1023B0000019EFF0BFD681457145EFF03FDC6FD0DB
:1023C0007FE5EFD2FFE279712A8985453705020062
:1023D00002C602C8EFE0FFE685451145EFE09FE445
:1023E00085450545EFE01FE4371401409147FC8225
:1023F0008D44E1474C081305048026CC3ECEEFE027
:102400001FB6A147FC824C08930780041305048083
:1024100026CC374400403ECEEFE07FB4B7070C0037
:102420000C10130504403ED44AD002D223160102F8
:10243000EFF06F9D05469305505213050440EFF0F1
:10244000EFA6930760137C8685475C876800854705
:102450003EC8EFE07FBE854513050440EFF0AFA313
:1024600045616FD03FDB411122C6374400409305E0
:1024700050521305044026C4EFF00FA9854763119D
:10248000F502AA8413050440EFF02FA62382A1864B
:102490009305505213050440A3829186EFF08FAA52
:1024A0003244A244410173002030EFD2DFD2B7445E
:1024B0000040AE893289014493840440634524017D
:1024C0004A856FD09FD4930500042685EFF06FA254
:1024D0007DD9B38789008385070026850504C20559
:1024E000C181EFF00FA0D9BF138741811C43B736DC
:1024F0000020938646C53E95636BD500B7860020C5
:102500009386068063E5A60008C33E858280FD575A
:10251000EDBF397193D7450122DC4AD856D22A89BA
:102520001394C50006DE26DA4ED652D45AD05ECEBB
:1025300013F5F77F318093DAF501630B05109307EC
:10254000F07F630BF514135AD9010E0433648A002B
:10255000370A8000336A4401131B3900930415C005
:102560000144814B13D846011399C6001378F87FB4
:10257000B2881359C90093D9F601630E080893076E
:10258000F07F6300F8041357D6010E093369270161
:10259000130818C0B70780003367F9009318360096
:1025A000B38404418145BD4733C83A0163E4871AC7
:1025B00097270000938787770A043E9410403E9641
:1025C00002863367C9009384148063120710136472
:1025D000240081488945C1BF1306F07F8147014728
:1025E000B207F25062545206B1837E08D18FB3E72E
:1025F0000701D2544259B259225A925A025BF24B05
:102600003A85BE852161828001481306F07FB707B5
:1026100008000147F1B73367C9004DC763080930A7
:102620004A8532C4EF1080242246130755FFF54730
:10263000930685FF998F3319D900B357F60033E716
:102640002701B318D60026959304353F8145A1BFD5
:10265000336A240163030A0636C632C46306042AB9
:102660002285EF10A0202246B246AA84130755FF08
:10267000754A138B84FF330AEA4033146401335ADA
:102680004901336A8A00331B69011305D0C0B304C2
:1026900095400144814BF9B5336A240163180A005F
:1026A0002144014B9304F07F894B6DBD228A4A8BF4
:1026B00031449304F07F8D4B75B51144014B814437
:1026C000854B4DB51364140081488545E9BD1364FD
:1026D00034004A878D45C1BD630A052E8547898F21
:1026E0009306800363DDF632014681470147CDBD85
:1026F000CE868947638DF53A8D47E387F5F08547A8
:102700003688E383F5FE1385F43FE357A0FC93F787
:1027100078006396072893D638009317770063D81C
:102720000700B70700FFFD177D8F1385044093074F
:10273000E07FE3C3A7EA1316D70193179700B1838D
:102740003367D6001376F57F61BDD6865287DA8867
:10275000DE8545B763614723630DEA20DA86FD1401
:102760005284014B9317870013D388013363F3001E
:10277000935E0301B357D403131F0301135F0F01CB
:1027800093D50601139E88003374D4033307FF02E8
:102790004204C18D63FBE5009A951386F7FF63EE53
:1027A000652663FCE526F9179A95998D33D7D503ED
:1027B000C206C182B3F5D5033306EF02C205D58D3B
:1027C00063FBC5009A959306F7FF63E6652463F4FF
:1027D000C52479179A95C20741645D8F9307F4FF6A
:1027E0003375F70093580701935F0E01B377FE002E
:1027F000B302F502B386C540B383F80293D5020154
:102800003386AF021E962E963385F80363737600E7
:102810002295C168FD1893550601337616014206CC
:10282000B3F81201AA95469663E6B6126382B61211
:102830003306CB408D8E333BCB00338B6641138503
:10284000F43F630C6317B358DB0393550601337BE6
:10285000DB03B3061F03420B33EB6501637BDB0035
:102860001A9B9385F8FF636D6B20637BDB20F9185F
:102870001A9B330BDB40B356DB0342064182337BAA
:10288000DB03330FDF02420B33666601637BE60135
:102890001A969385F6FF6367661E6375E61FF91641
:1028A0001A96C208B3E8D8009395080193D208019C
:1028B000C181B38EF5023306E641B385BF0293D6DC
:1028C0000E01B387F202BE95AE96B38F5F0263F43A
:1028D000F600C167BE9FC165FD1593D70601ED8E59
:1028E000C206B3FEBE00BE9FF696637FF6091A9637
:1028F0009387F8FF6369661A6368F619630FF61B1E
:10290000BE8893E8180011B54A85EF0030761307AA
:102910005501F145930405022246B246E3DAE5D4B7
:10292000130485FF331A8900014B85B3328532C405
:10293000EF00D07313075501F146AA87224613050D
:102940000502E3D6E6CEE1173317F6008148E5B974
:10295000E370CBEE729B3335CB011A95AA96130523
:10296000F7FF6378D30263E6B6106382D5102A8737
:10297000C1B5E3651BDF93551B009316FA01135491
:102980001A00CD8E7E0BF9BBE31DF6F7E38F06D65A
:10299000B9BFE31ED3FCE378CBFD2A8751BD93F783
:1029A000F8009146E389D7D693B7C8FF93864800CD
:1029B00093C717008D823E978DB381468547E34CC0
:1029C000A0FEFD58E31C05D0930410C08547138575
:1029D000E441B316A70033D6F8003395A800D18E92
:1029E0003335A000C98E13F676003357F70001CEB9
:1029F00093F7F60011466388C70093874600B3B685
:102A0000D7003697BE869317870063D8070405461C
:102A100081470147F1B636877DBBB28779B3FD4662
:102A2000E3D7F6FA0556098E930600023356C7001F
:102A30006388D7009387E443B317F700B3E8F8003F
:102A4000B3361001D18E13F67600814701CE93F78D
:102A5000F60011460147E392C7FA93179700131641
:102A6000D701B18313D73600518F014695BEE3706D
:102A7000CBF0729B3335CB011A957917AA964DBBD3
:102A8000AE88C5BBAE8631BD93171E0033BEC701ED
:102A900072931A96F9183E8EE315F6E7E307DEC641
:102AA00093E818009DB1BE88E30AF6FF99BD368809
:102AB0001306F07F8147014725B6E367DEFCBE8839
:102AC000E310DEFE99B1411106C622C426C20DCD27
:102AD0009357F541B3C4A7009D8C2A842685EF0047
:102AE000F0589306E041898EA9477D8093F6F67FE2
:102AF00063CDA7022D47098FB3D7E4005505B20770
:102B0000B394A400B18329A0014481468147814444
:102B1000B207D206B1837E04D58FC18FB240224462
:102B20002685BE859244410182805515B397A40045
:102B3000B207B1838144E9BF3971935775014AD80F
:102B400056D25ECE931A95001359F50106DE22DCAB
:102B500026DA4ED652D45AD093F7F70F93DA9A006A
:102B6000CA8B638207121307F00F6384E7128E0A81
:102B700037070004B3EAEA00138A17F80144014B4F
:102B800093D775019394950093F7F70FA58093D988
:102B9000F501FDC71307F00F6387E7028E049387E3
:102BA00017F837070004D98C330AFA408146558C50
:102BB000172700001307871B0A043A941C40334967
:102BC0003901BA978287130A1AF0F9E88946558CB9
:102BD000172700001307871D0A043A941C40334945
:102BE0003901BA97828701491307F00FB7074000F0
:102BF00013959700F25062549317770125817E094F
:102C00005D8D33652501D2544259B259225A925AE8
:102C1000025BF24B216182801307F00F8147C9BF2D
:102C2000A68ACE8B368B8947630BFB1A8D47E30C44
:102C3000FBFA8547630AFB0A1307FA0713F91B001F
:102C40006357E01293F77A0099C793F7FA00914619
:102C50006383D700910A93974A0063D90700B707A7
:102C600000F8FD17B3FAFA0013070A089307E00FFC
:102C7000E3C4E7FA93976A00A5831377F70F8DBF34
:102C8000B9E48546A9B763940A021144014A054B89
:102C9000C5BD63990A002144130AF00F094BCDB555
:102CA0008D4631B73144130AF00F0D4BD1BD568517
:102CB0002EC6EF00B03B9307B5FFB39AFA00930717
:102CC000A0F8338AA7400144014BB24555BD268583
:102CD000EF00D0391307B5FFB307AA00B394E4009F
:102CE000138A67078146E1B513F91B000147814745
:102CF00001B74166139554007D1693570501698EFF
:102D000063FA9A0AB3D5FA027D1AD6860147338848
:102D1000C502B3F6F602C206558F637B07012A97F8
:102D20009386F5FF6368A70A6376070BF9152A9760
:102D300033070741B356F7023377F702B38AC60267
:102D40009317070163FB5701AA971387F6FF63E107
:102D5000A70863FF5707F916AA97C205B38A574118
:102D6000D58DB33A5001B3EA5501CA8BF1B585460A
:102D7000998E11C76D4601478147E34BD6E6130A8A
:102D8000EA09339A4A01B3D7DA00B33A4001B3E70C
:102D9000570113F7770019C713F7F700914663033C
:102DA000D700910713975700634807029A07A58336
:102DB00001473DBD93D61A00B3D5F6021397FA0129
:102DC00041833388C502B1B7CE8B368B814AA1BD12
:102DD000BA8661B7B685A9BF0547814711BD13F90A
:102DE0001B001307F00F814721B593567501B707F4
:102DF0008000FD1713D6750193F6F60F1308F00F38
:102E0000B3F8A7001357F501ED8F1376F60FFD8188
:102E100063810603630C06018DE211E2B1C3638E88
:102E200008026305B70405451DE78280F5D779558B
:102E30008280E39E08FE6309D60211E2EDD7E31417
:102E4000B7FEE342D6FE63C7C600E3EE17FD0145B9
:102E5000E3FDF8FC01E77D558280F5DD05458280C4
:102E60000145E39208FC8280F9DBD1B78146E1BFDE
:102E700093567501B7078000FD1713D6750193F6B9
:102E8000F60F1308F00FB3F8A7001357F501ED8FF5
:102E90001376F60FFD81638706036309060185EA51
:102EA00011EA89EB0145639B080082800945F5FF23
:102EB000E5DA31A8638C08026300B704054575D7CD
:102EC0007D5582800945639808026304D60211E2A9
:102ED000F5D7E315B7FEE343D6FE63C7C600E3EFBD
:102EE00017FD0145E3F3F8FC19E3D9BFF1D9054516
:102EF0008280E5D3828082808146C5B7797122D4F1
:102F0000135475014ECE52CC9319950006D626D295
:102F10004AD056CA5AC81374F40F93D99900135A59
:102F2000F50169C49307F00F6308F40E9397390015
:102F300037070004B3E9E700130414F88144014B98
:102F400013D77501939A95001377F70F93DA9A00C8
:102F500013D9F50145CF9307F00F630CF7028E0AE2
:102F6000130717F8B7070004B3EAFA003A940146CA
:102F700033452A01BD47AA869305140063E29710E2
:102F800017270000130787E68A04BA949C40BA9773
:102F900082871304F40F63980A0C93E42400094613
:102FA000C1BF01451307F00FB7074000B2502254CC
:102FB000A6075E07A5837E05D98F92540259F24970
:102FC000624AD24A424B5D8D45618280CA86D6896B
:102FD000328B89476301FB0A8D47E304FBFC85477D
:102FE00036856312FB1A01478147C9B7639E0904FE
:102FF00013D77501939A95001377F70F9144014405
:10300000054B93DA9A0013D9F50131F7639D0A0055
:1030100093E414000546A9BF63930902A144130475
:10302000F00F094B31BF5685EF0050049307B5FFF1
:10303000098CB39AFA001304A4F8014615BFB144F1
:103040001304F00F0D4BEDBD4E852EC6EF001002A0
:103050009307B5FF1304A0F8B399F900098C8144D4
:10306000014BB245F1BD93E434000D4611B78947D9
:10307000D286E313FBF636851307F00F81473DB781
:1030800041639306F3FF13D6090193D80A01B3F7FE
:10309000D900B3FADA0033885703B389F80213571B
:1030A0000801B30A5603D6994E9733061603637385
:1030B00057011A96C167FD17B376F7003378F80009
:1030C000C206C2969399660093570701B33930013F
:1030D000E982B2979A07B3E6D900B3E9D70093978C
:1030E000490063D9070013D7190093F71900B36992
:1030F000F7002E841307F4076350E00493F7790078
:1031000099C793F7F90091466383D7009109939784
:10311000490063D90700B70700F8FD17B3F9F900B4
:10312000130704089307E00F63CBE7049397690044
:10313000A5831377F70F9DBD8547B386E74011C779
:103140006D4601478147E343D6E61307E409339709
:10315000E9003337E000B3D7D900D98F13F77700F0
:1031600019C713F7F70091466303D7009107139728
:103170005700634C07009A07A583014705BD130755
:10318000F00F814725B52E84B5B70547814739BD76
:103190003707800041117D179356750113D87501CB
:1031A000B377A70093F6F60F935EF5013376B70079
:1031B00026C24AC01378F80F06C622C41303F00FC4
:1031C0003E8E3689F684139F3700FD811315360035
:1031D000B38806416302681093C51500638CBE1066
:1031E0006354100D631008106304051EFD18B30727
:1031F000AF40638608029307F00F6388F616ED4729
:1032000063C7172913070002330717413317E50077
:10321000B35715013337E000D98FB307FF40139739
:1032200057006351071A370400047D147D8C2285F2
:10323000352D6D15B317A400634E251B33052541AD
:103240001304150013070002018F3397E70033378B
:10325000E000B3D78700D98F014913F7770019C76A
:1032600013F7F70091466303D700910713975700B0
:10327000635E0714930619001307F00F93FE140002
:103280006386E6169A07A58393F6F60FA607B24063
:10329000224413D59700DE069397FE01558D924484
:1032A00002495D8D410182806392080A13871600EE
:1032B0001377E70F631B07146394062263020F2042
:1032C00071D5B307AF401397570063550722B30773
:1032D000E5410149AE8451B7E30005F0638ABE0AB7
:1032E000E35410FD9307F00F6381F608B70700045D
:1032F0005D8D31B7635E1009630108089307F00F15
:103300006385F606B70700045D8DED4763C0171FA0
:1033100013070002330717413317E500B3571501B0
:103320003337E000D98FFA9713975700635C07088B
:1033300005091307F00F630BE90AB706007E13D7E0
:103340001700FD16858B758FD98F01BF3307D840C5
:1033500063950610630D0F147D176303071A930717
:10336000F00F6314F810AE84328E630F0E06814E98
:103370009306F00FB707400011BF39C9FD18B30716
:10338000AF00E38308FA9307F00FE390F6F8F1BF7C
:1033900063990808138916001377E90F631607125B
:1033A000639B061063030F16E30205EEB307AF003D
:1033B00013975700014963570700370700FC7D1733
:1033C000F98F054913F77700E31C07E813DE370090
:1033D0009307F00FE30BF9F893179E00A5839376FC
:1033E000F90F93FE14005DB593FE14009306F00FE1
:1033F000814769BD370700FC7D17F98F13F7770008
:103400003309A940E31E07E4D1B73304AF40931753
:10341000540063C3070CE31C04E0814E81468147DE
:10342000B5B53307D840B5C69307F00FE30EF8F2F1
:10343000B7070004336FFF00ED4763CDE70C930738
:103440000002998FB317FF003357EF00B337F00036
:103450005D8FB307A7004289C1BD9307F00FE30456
:10346000F8F0B7070004336FFF00ED4763C2E708C9
:1034700093070002998FB317FF003357EF00B3375C
:10348000F000D98FB307F5404289AE8449BB854728
:1034900069B3630E0F067D17B307AF004289E305DA
:1034A00007E89307F00FE319F8F8328E7DBD328EEE
:1034B0004289AE8431BFE3090FEAE30805EA45BD5E
:1034C0000DCDAE8EB287D9B39307F00FE300F9F2BA
:1034D000B307AF008583FDB53304E541AE8481BBFE
:1034E000E31D0FFCE30505E8AE84BDBD854725BDA2
:1034F000854749BF0149E39707EC814E814779B37E
:10350000B307E5414289AE8419BBB28741B3328E1D
:1035100042897DBD054735BF1357750137068000C9
:103520009307F6FF1377F70F9305E007B3F6A700AD
:103530009357F501014563F4E50099C382808280C9
:103540009307E0097D55E3EBE7FE93055009B3E7E8
:10355000C60063D7E5001307A7F63395E70082801E
:10356000130560093307E54033D5E7008280411138
:1035700006C622C426C20DCD9357F54133C4A70019
:103580001D8CAA842285DD249307E0093387A74098
:1035900093076009FD8063CCE702A1469377F70F9C
:1035A00063D5A60061153314A4002604258021A04C
:1035B000814481470144260413559400B2402244BB
:1035C000DE07FE045D8D458D9244410182809307A4
:1035D000900963DDE7009307B5019546B317F40042
:1035E000898E3354D400B337F0005D8C954763D691
:1035F000A7009307B5FF3314F400B70600FCFD16CF
:10360000937774003376D40085C39377F4009145A3
:10361000638CB70011069317560063D70700930712
:10362000F009758E3387A7401314660025809377C1
:10363000F70F51B7411106C622C415CD2A843D2487
:103640009307E0093387A7409307600963C0E70445
:10365000A1469377F70F63D5A60061153314A40034
:1036600026042580260413559400B2402244DE0728
:103670005D8D410182800144260413559400B240BF
:1036800022448147DE075D8D4101828093079009C6
:1036900063DDE7009307B5019546B317F400898E03
:1036A000B337F0003354D4005D8C954763D6A70040
:1036B0009307B5FF3314F400B70600FCFD169377AB
:1036C00074003376D40085C39377F4009145638CFE
:1036D000B70011069317560063D707009307F00948
:1036E000758E3387A7401314660025802604135572
:1036F0009400B24022449377F70FDE075D8D4101BD
:10370000828093D645019397C50093F6F67FB183E7
:10371000138616008E071357D5011376E67FFD81B9
:103720005D8F9318350035CE138806C89307E00FD8
:1037300063DD07018147139597009306F00FDE06BE
:103740002581FE05558D4D8D82806355000B9317A5
:1037500065000E07B337F000D98F93D8D801B3E7CF
:10376000170113F777006301071013F7F70091466D
:103770006303D7009107370700047D8F75C71307D0
:1037800018001306F00F9376F70FE305C7FA9A07B0
:10379000A58313959700DE062581FE05558D4D8D79
:1037A0008280B367170199EE85CF95479A07A58365
:1037B0001395970093F6F60FDE062581FE05558DCD
:1037C0004D8D8280A5DBB7074000139597009306C7
:1037D000F00FDE0681452581FE05558D4D8D8280D9
:1037E0008147139597008146DE062581FE05558D9C
:1037F0004D8D8280A5576348F804F947370680004D
:10380000B38707417D45598E6351F50479573307D6
:103810000741130500023357E6006388A70093862B
:1038200026CAB316D600B3E8D800B3371001D98F33
:1038300013F77700014815FB139757008546E348B7
:1038400007F48146A5B781468DB7938626C833977E
:10385000D8003337E000B316D600B3D8F800B3670A
:10386000D700B3E7F800E9B7C28689B7C167637CC0
:10387000F5029307F00F1307000263EBA7009717F9
:1038800000009387A75AAA9788233305A740828010
:1038900021819717000093876759AA97882361476A
:1038A0003305A7408280B7070001636DF500618191
:1038B0009717000093878757AA97882321473305D6
:1038C000A740828041819717000093872756AA97C7
:1038D000882341473305A740828039713EDA2ED2D2
:1038E00032D436D63AD842DC46DE9387818122CC68
:1038F000804326CA06CEAA8409C41C4C99E32285BB
:10390000FD290C4454102686228536C6EF009013FC
:10391000F2406244D24421618280011126CA4AC821
:1039200006CE22CC4EC652C4AA842E8901C51C4D97
:1039300091E3F1219C4C804499E32685C921971796
:1039400000009387A760631BF402C0405E24A18B34
:10395000B1C71C48A1C7FD59294A1C448345090029
:10396000FD17B1E91CC463DD07062286A94526853B
:103970006920FD576308F502294535A09717000017
:103980009387C75E6314F4008044C9B7971700009B
:103990009387C759E31CF4FAC0444DBFA28526851E
:1039A000192A55D97D55F2406244D2444249B24960
:1039B000224A056182801CC4050963D70700184CA0
:1039C00063CAE700638845011C401387170018C0CD
:1039D0008CA361B7228626850D20E31035F9D9B76F
:1039E0001C401387170018C0294798A371B7938705
:1039F0008181AA8588436FF05FF2011122CC26CA2B
:103A00004AC806CE4EC6AA842E89328401C51C4DF2
:103A100091E3F52697170000938747536317F40641
:103A2000C0401C4C1CC45E24A18BC1C31C48B5CF34
:103A30001C4808409379F90F1379F90F1D8D5C48E4
:103A40006346F500A2852685692C25E51C440505FD
:103A5000FD171CC41C401387170018C023803701B2
:103A60005C486388A7005E24858B81CBA9476316D9
:103A7000F900A2852685B5240DEDF24062444A8501
:103A8000D2444249B249056182809717000093876A
:103A9000E74D6314F400804469B7971700009387DB
:103AA000E748E310F4F8C044ADBFA2852685212085
:103AB00041D17D59D9B741119387818126C2844371
:103AC00022C44AC006C62A892E8489C49C4C99E324
:103AD000268535269717000093874747631BF40216
:103AE000C0400317C40093170701C18393F68700F2
:103AF000ADEA93F6070195EEA5472320F900136779
:103B000007045AA47D55B24022449244024941011F
:103B1000828097170000938767456314F400804400
:103B2000C9B79717000093876740E31CF4FAC044B5
:103B30004DBF918B9DC34C5889C99307440463843E
:103B4000F5004A85292B232A04025E24232204003F
:103B500093F7B7FD5EA41C481CC05E2493E7870062
:103B60005EA41C4899EB5E241307002093F70728F6
:103B70006385E700A2854A8591295E2413F7170023
:103B80001DC35C4823240400B307F0401CCC1C4830
:103B90000145B5FB8317C40013F707082DD793E73A
:103BA00007045EA485B7898B014791E3584818C480
:103BB000F9BFDE25011122CC26CA06CE4AC84EC660
:103BC00013F78700AA842E8479EBD841634DE00077
:103BD000B841634AE0000145F2406244D2444249A0
:103BE000B2490561828058547DD703A90400939699
:103BF000370123A0040063DB060670485E24918B26
:103C000099C75C401D8E5C5899C33C401D8E5C5426
:103C10000C50814626858297FD575A24631DF50076
:103C20009440F54763E8D706B70740208507B3D728
:103C3000D700858BA5C31C48232204001CC0931702
:103C4000370163D80700FD576314F5009C4091E3EA
:103C500068C84C5823A02401BDDD93074404638445
:103C6000F5002685ED2E232A0402B5B70C50014637
:103C7000854626850297FD572A86E311F5F89C4074
:103C8000B5DF75476385E70059476393E70423A0D1
:103C9000240191B7136707045AA47D5535BF83A942
:103CA0000501E38A09F203A905008D8B23A03501E4
:103CB00033093941014791E3D84918C4E35D20F144
:103CC0001C540C50CA864E86268582976347A000F6
:103CD0005E2493E707045EA4C9B7AA993309A940F3
:103CE000F1BF9C49A5C3011122CC06CE2A8411C57F
:103CF0001C4D81E72EC62122B245971700009387FD
:103D0000E724639CF5004C408397C5009DC722853E
:103D10006244F24005616FF0DFE997170000938776
:103D2000E7246394F5000C44C5B797170000938708
:103D3000E71FE39BF5FC4C44C1BFF24062440145E0
:103D40000561828001458280411122C406C62A8411
:103D50004EA572A52320050023220500232405007B
:103D60002322050623280500232A0500232C05000D
:103D7000214681451305C505EFC08FCA971700007E
:103D8000938707B35CD097170000938727B51CD49F
:103D900097170000938707B95CD4971700009387A3
:103DA00067BB00D01CD8B2402244410182809705F5
:103DB0000000938545F391AA411126C2130680069F
:103DC0009384F5FFB384C4024AC02E8922C406C678
:103DD000938544070D2E2A8401CD2320050023223C
:103DE0002501310508C4138684068145EFC04FC301
:103DF0002285B240224492440249410182801C4DF6
:103E0000A5E7411106C622C497070000938767FA09
:103E10001CD59387C1819C432324050423260504D4
:103E2000232805046314F50085471CCD2A84352812
:103E300048C022851D2808C42285052848C448405A
:103E400001469145EFF05FF008440546A545EFF0C7
:103E5000BFEF48440946C945EFF01FEF85471CCC2A
:103E6000B240224441018280828041119387C18106
:103E700026C284434AC006C69C4C22C42A8981E7D4
:103E80002685EFF0DFF7938484048044DC40FD173F
:103E900063D607009C40B9CF8440C5BF0317C40058
:103EA00039E7C17785072322040623200400232253
:103EB0000400232404005CC423280400232A0400F3
:103EC000232C0400214681451305C405EFC04FB5DE
:103ED000232A0402232C040223240404232604049A
:103EE0002285B24022449244024941018280130457
:103EF000840671BF91454A85EFF01FEC88C049FDEB
:103F0000B1472320F9000144E1BF797122D44AD09E
:103F100052CC56CA5AC85EC606D626D24ECE2A8A79
:103F2000AE8A130485040149054BFD5B09ECB250D0
:103F300022544A8592540259F249624AD24A424B6B
:103F4000B24B45618280044483294400FD1963D447
:103F500009000040E1BFDE24637BFB008397E4009F
:103F600063877701A6855285829A3369A900938475
:103F70008406E9BF1971A6DAAE848395E500A2DC58
:103F800086DE328463DB0500DE2423A0060093F77F
:103F9000070885E7930700401DA0300836C6EF00EC
:103FA000F021B246E34205FE7247BD67F98F79778B
:103FB000BA9793B717009CC2F1BF930700041CC0C7
:103FC000F6506654D654014509618280DE25011100
:103FD00022CC06CE26CA4AC8898B2E8489CF930765
:103FE00074041CC01CC885475CC8F2406244D244BB
:103FF00042490561828074003000AA84EFF09FF787
:10400000A2452A892685012219E98317C40013F7DE
:10401000072061FFF19B93E727005EA4C9B79707CC
:104020000000938707D99CD45E2408C008C893E792
:1040300007085EA4A2475CC8B24781CF8315E4009D
:104040002685EF00D01A11C55E24F19B93E7170077
:104050005EA45E243369F9002316240179B7DDC11B
:1040600083A7C5FF411122C406C626C21384C5FF1B
:1040700063D307003E94AA84EF00301F93878186A4
:104080009C4381EF2322040023A481862244B24072
:104090002685924441016F00701D637EF400144038
:1040A0003307D4006396E7009843DC43369718C083
:1040B0005CC0D9BFBA87D84319C3E37DE4FE9443FB
:1040C0003386D700631F86001040B29694C33386B0
:1040D000D700E31DC7FA10435843B29694C3D8C320
:1040E00075B76375C400B1479CC04DB71040B306A7
:1040F000C4006316D70014435843B29614C058C086
:10410000C0C369B78280011126CA93843500F19833
:1041100006CE22CC4AC84EC6A104B14763F3F404CC
:10412000B14463E2B4042A89EF0030149387818696
:1041300098433A8439E09387C1869C4391E781454F
:104140004A85252F23A6A186A6854A853D27FD59A8
:1041500063193507B1472320F9004A85EF00101194
:1041600029A0E3D004FCB1471CC10145F2406244E0
:10417000D2444249B249056182801C40858F63CF99
:104180000702AD4663F6F6001CC03E9404C031A0A1
:104190005C406313870223A4F1864A85EF00100D6B
:1041A0001305B4009307440061993307F5405DDFC0
:1041B0003A94898F1CC05DBF5CC3C5B7228740405D
:1041C00095BF130435007198E30285FCB305A44044
:1041D0004A856525E31C35FBB5BF1C46FD171CC68B
:1041E00063DA0700184E63C5E700A9476394F5003A
:1041F0006FF0BF801C422E851387170018C28CA356
:104200008280011122CC26CA4AC84EC652C406CEAC
:104210002A89AE893284B304D6007D5A631494008F
:10422000014509A80C204E864A85EFF01FFB0504C6
:10423000E31645FFF2406244D2444249B249224A61
:1042400005618280357122CD26CB4AC94EC706CF83
:1042500052C556C35AC1DEDEE2DCE6DAAA89AE8474
:104260003289368409C51C4D99E3EFF05FB9971781
:1042700000009387A7CD6398F40C83A44900DE2443
:10428000A18BE5C79C48F5C393070002A304F10284
:104290009307000302D22305F10222C6930B5002BA
:1042A000971A0000938A8ACE054C294B4A841C2019
:1042B00099C3639F770DB30C2441638E0C00E6868F
:1042C0004A86A6854E85EFF0DFF3FD57630FF51C98
:1042D0009256E69636D21C206389071CFD571309B7
:1042E000140002C802CE3ECA02CCA309010482D443
:1042F0008345090015465685A92F13041900C247A6
:1043000051E913F7070109C713070002A309E104E4
:1043100013F7870009C71307B002A309E104834616
:1043200009001307A002638FE606F2474A8481461C
:104330002546182093051400130707FD6377E60A46
:10434000B5CA3ECE85A897170000938727C263950C
:10435000F40083A4890025B797170000938707BD51
:10436000E39FF4F083A4C90019BFA6854E85EFF042
:104370008FF419D97D55FA406A44DA444A49BA495A
:104380002A4A9A4A0A4BF65B665CD65C0D618280CB
:10439000050431BF330555413315AC00C98F3EC804
:1043A0002289B9B7324793064700184336C6634798
:1043B00007023ACE18209307E002631DF704183075
:1043C0009307A002631BF702B24709041387470053
:1043D0009C433AC663C107023ECA2DA83307E0409A
:1043E00093E727003ACE3EC8F1B7B3876703854607
:1043F0002E84BA973DBFFD57C5B7050402CA814652
:1044000081472546182093051400130707FD6374A0
:10441000E606F9F20C200D4617150000130585B7C6
:104420000D2D11CD971700009387C7B61D8D9307EB
:104430000004B397A700424505045D8D2AC80C20EF
:10444000194617150000130525B513091400230498
:10445000B102012535C197C7FFFF9387A7BA95E73A
:104460004247B2471377071009CF91073EC69257CC
:10447000D2973ED225BDB387670385462E84BA976F
:1044800051B79D07E19BA107D5B7780097060000BB
:10449000938666D726860C084E8597000000E700B5
:1044A0000000FD572A8AE314F5FCDE2493F7070485
:1044B000E39207EC1255C1B5780097060000938689
:1044C00086D426860C084E85012AE1BF797156CA2A
:1044D0009C49BA8A984522D426D24ECE52CC06D6D2
:1044E0004AD05AC85EC6AA892E84B284368A63D35B
:1044F000E700BA879CC00347340419C385079CC0F2
:104500001C4093F7070281C79C4089079CC0032980
:10451000040013796900631A0900130B9401FD5B11
:104520005C449840998F634CF9041C4083463404E2
:1045300093F70702B336D000A5EB13063404D285F7
:104540004E85829AFD576303F5041C40114698403E
:10455000998B544481446397C700B384E64063D386
:10456000040081441C4418486354F700998FBE949A
:10457000014969047D5B63982405014509A88546C6
:104580005A86D2854E85829A631E75017D55B2503A
:10459000225492540259F249624AD24A424BB24BD7
:1045A000456182800509ADBF3307D40013060003BF
:1045B000A301C7040347540493871600A2978906F2
:1045C000A381E7049DBF85462286D2854E85829AC7
:1045D000E30E65FB050945B7797122D426D24AD08E
:1045E0004ECE06D652CC56CA5AC8B689942D9307D9
:1045F00090063289AA842E8413863504638DF602D0
:1046000063E2D706930780056386F61863EDD7004B
:10461000638E062093073004638EF60A930A2404FF
:104620002301D404C9A0930730066385F60A9307D3
:104630004006E395F6FE1C40084393F607089305F1
:104640004500C5C61C410CC363D807001307D00240
:10465000B307F040A301E404971600009386469444
:10466000294765A8930700076382F61663E5D7021A
:104670009307E0066389F6189307F006E390F6FACD
:104680000C401C4313F80508138547006307080610
:1046900008C39C4385A893075007E383F6FE93075E
:1046A00080076389F61293073007E399F6F61C43F7
:1046B000D04181459386470014C383AA07005685DD
:1046C000492E01C53305554148C05C401CC8A301B3
:1046D000040461A81C43930A2404938647009C4366
:1046E00014C32301F4048547D5B793F607041C418E
:1046F0000CC3B9DAC207C18781BF93F5050408C3AB
:10470000C9D99E231307F0066387E60E97160000AB
:10471000938606892947A30104044C400CC463C551
:10472000050008406D9908C099E3B28A89CDB28A24
:10473000B3F5E702FD1AB6958C212380BA00B3D5F4
:10474000E70263F0E70CA147631EF7001C40858B6E
:1047500091CB58401C4863C7E70093070003A38F21
:10476000FAFEFD1A3306564110C84E87CA867000FD
:10477000A2852685EFF09FD57D5A631D450B7D559B
:10478000B250225492540259F249624AD24A424BE0
:1047900045618280A382D5049716000093864680E7
:1047A0000C40084313F805081C411105630D08026D
:1047B00008C313F7150001C793E505020CC0414774
:1047C000B9FB0C4093F5F5FD0CC0B1B79C4193E7E4
:1047D00007029CC193078007A302F4049706000018
:1047E0009386467D75BF13F8050408C3E30308FCF0
:1047F000C207C1837DBF970600009386667A214772
:1048000019BFAE8735B794411C43CC4913F806084D
:10481000138547006306080008C39C438CC339A076
:1048200008C393F606049C43F5DA8EA323280400FC
:10483000B28A25BF14485686CA8526858299E30028
:1048400045F51C40898B8DE7B2474844E35AF5F2A1
:104850003E853DB785465686CA8526858299E30002
:1048600065F3050A5C443247998FE345FAFEE9BFD8
:10487000014A930A94017D5BF5B7411122C42A8451
:104880002E8597E7FF1F23A7073C06C6EFD0DFC59D
:10489000FD576319F50097E7FF1F9387A73B9C43DC
:1048A00091C31CC0B240224441018280411122C404
:1048B0002E848395E50006C65D2A634905007C4881
:1048C000AA977CC8B2402244410182805E247D7751
:1048D0007D17F98F5EA4FDB7DE25011122CC26CA13
:1048E0004AC84EC606CE93F70710AA842E84328992
:1048F000B68991C78395E500894601460D225E245D
:104900007D777D17F98F5EA48315E4006244F24041
:10491000CE864A86B24942492685D244056125A8F9
:10492000411122C42E848395E50006C6CD28FD578B
:104930005A24631AF500FD77FD17F98F5EA4B24083
:104940002244410182808567D98F5EA468C8C5BFB3
:104950008395E50025A8411122C42A842E85B285BD
:10496000368697E7FF1F23A7072E06C6EFD0FFB3B3
:10497000FD576319F50097E7FF1F9387A72D9C4309
:1049800091C31CC0B240224441018280411122C423
:104990002A842E8597E7FF1F23AE072A06C6112219
:1049A000FD576319F50097E7FF1F9387A72A9C43DC
:1049B00091C31CC0B240224441018280411122C4F3
:1049C0002A842E85B28597E7FF1F23A5072806C6F0
:1049D000CD20FD576319F50097E7FF1F93878727C1
:1049E0009C4391C31CC0B2402244410182804111CA
:1049F00022C42A842E8597E7FF1F23AD072406C60D
:104A0000C920FD576319F50097E7FF1F9387872497
:104A10009C4391C31CC0B240224441018280411199
:104A200022C42A842E85B285368697E7FF1F23A3EA
:104A3000072206C67928FD576319F50097E7FF1F7F
:104A4000938747219C4391C31CC0B240224441013B
:104A5000828093F5F50F2A966314C5000145828084
:104A60001C21E38EB7FE0505C5BF828082804111FF
:104A700022C42A842E85B285368697E7FF1F23AB92
:104A8000071C06C6B928FD576319F50097E7FF1FF5
:104A90009387471C9C4391C31CC0B24022444101F0
:104AA00082809307800517E7FF1F2325F71A7D559E
:104AB00082809307800517E7FF1F232DF7187D5588
:104AC00082809307800517E7FF1F2325F71801450C
:104AD00082809307800517E7FF1F232DF7167D556A
:104AE00082809307800517E7FF1F2325F7167D5562
:104AF00082800000000080BF0000803F0000704501
:104B000000007A4400000000000000000000444063
:104B100053797374656D436C6B3A25640D0A00001C
:104B20004368697049443A253038780D0A0000001E
:104B300043616D657261204D6F64656C20457272D2
:104B40000D0000005247423536355F4D4F44450D4C
:104B50000000000072756E6E696E672C2069203D42
:104B60002025640A0000000066707320636F756E74
:104B700074203D2025640A006572726F723A202508
:104B8000640A00004649464F204F560D00000000C1
:104B90004D49443A253038780D0A00005049443ACE
:104BA000253038780D0A0000FF002CFF2EDFFF01B2
:104BB0003C321100090204D813E514482C0C337858
:104BC0003A333BFB3E0043111610399235DA221A74
:104BD00037C3230034C0361A068807C00D870E413C
:104BE0004C0048005B0042034A812199244025384B
:104BF00026825C00630046000C3C617062807C058C
:104C0000208028306C006D806E007002719473C13A
:104C10003D345A5712001711187519011A97323678
:104C2000030F37404FCA50A85A236D006D38FF005C
:104C3000E57FF9C04124E01476FF33A042204318F9
:104C40004C0087D5883FD703D910D382C808C980C4
:104C50007C007D007C037D487D487C087D207D10A4
:104C60007D0E9000910E911A9131915A9169917532
:104C7000917E9188918F919691A391AF91C491D794
:104C800091E891209200930693E393059305930096
:104C90009304930093009300930093009300930078
:104CA0009600970897199702970C972497309728A2
:104CB000972697029798978097009700C3EFA400D4
:104CC000A800C511C651BF80C710B666B8A5B764A5
:104CD000B97CB3AFB497B5FFB0C5B194B20FC45CA3
:104CE000C0C8C1968C00863D50005190522C530094
:104CF000540055885A905B2C5C05D302C3ED7F00AD
:104D0000DA09E51FE167E000DD7F0500FF00DA0951
:104D1000D703DF0233A03C00E167FF01E000E100C0
:104D2000E500D700DA00E0002CDAFFFFB0D8FFFF83
:104D3000C0D9FFFFC8D9FFFFC0D9FFFFE0D8FFFFF0
:104D4000C0D9FFFFC8D9FFFFB0D8FFFFB0D8FFFF21
:104D5000E0D8FFFFC8D9FFFF22DAFFFF22DAFFFF0A
:104D600022DAFFFFE0D8FFFF8ADFFFFFB0DEFFFFA0
:104D700084DFFFFFB8DEFFFF84DFFFFF7EDEFFFF83
:104D800084DFFFFFB8DEFFFFB0DEFFFFB0DEFFFF16
:104D90007EDEFFFFB8DEFFFFBEDEFFFFBEDEFFFFF1
:104DA000BEDEFFFF7EDEFFFF70DEFFFF70DEFFFF77
:104DB00044DFFFFF20E0FFFF44DFFFFF3EDEFFFF99
:104DC00044DFFFFF20E0FFFF70DEFFFF70DEFFFF2C
:104DD0003EDEFFFF20E0FFFF7EDEFFFF7EDEFFFF07
:104DE0007EDEFFFF3EDEFFFF98E2FFFFE6E1FFFF12
:104DF000E6E1FFFFE4E1FFFFEAE1FFFFEAE1FFFF99
:104E0000BAE1FFFFE4E1FFFFEAE1FFFFBAE1FFFFE4
:104E1000EAE1FFFFE4E1FFFF86E2FFFF86E2FFFF3A
:104E200086E2FFFFBAE1FFFF000102020303030372
:104E3000040404040404040405050505050505052A
:104E4000050505050505050506060606060606060A
:104E500006060606060606060606060606060606F2
:104E600006060606060606060707070707070707DA
:104E700007070707070707070707070707070707C2
:104E800007070707070707070707070707070707B2
:104E900007070707070707070707070707070707A2
:104EA000070707070707070708080808080808088A
:104EB0000808080808080808080808080808080872
:104EC0000808080808080808080808080808080862
:104ED0000808080808080808080808080808080852
:104EE0000808080808080808080808080808080842
:104EF0000808080808080808080808080808080832
:104F00000808080808080808080808080808080821
:104F10000808080808080808080808080808080811
:104F20000808080808080808000000000000000041
:104F30000000000000000000000000000000000071
:104F40000000000000000000000000000000000061
:104F50000000000000000000000000000000000051
:104F60000000000000000000000000000000000041
:104F70000000000000000000000000000000000031
:104F80000000000000000000232D302B2000000056
:104F9000686C4C0065666745464700003031323327
:104FA0003435363738394142434445460000000025
:104FB000303132333435363738396162636465668F
:044FC00000000000ED
:104FC40000000000000000000102030406070809B5
:104FD400000000000102030401020304060708099B
:104FE40000000000484F0000684F0000284F0000F8
:104FF40000000000000000000000000000000000AD
:10500400000000000000000000000000000000009C
:10501400000000000000000000000000000000008C
:10502400000000000000000000000000000000007C
:10503400000000000000000000000000000000006C
:1050440000D8B80502040608A0270020F82900208B
:1050540019000000542C0020200000202000002013
:00000001FF
