:040000006F00E07E2F
:100004000000000000000000C8020000CA02000056
:1000140000000000EC0700000000000000000000E9
:10002400EC070000EC0700000000000000000000E6
:100034003C04000000000000EC0700000000000089
:10004400EC070000EC070000EC070000EC070000E0
:10005400EC070000EC070000EC070000EC070000D0
:10006400EC070000EC070000EC070000EC070000C0
:10007400EC070000EC070000EC070000EC070000B0
:10008400EC070000EC070000EC070000EC070000A0
:10009400EC070000EC070000EC070000EC07000090
:1000A400EC070000EC070000EC070000EC07000080
:1000B400EC070000EC070000EC070000EC07000070
:1000C400EC070000EC070000EC070000EC07000060
:1000D400EC070000EC070000EC070000EC07000050
:1000E400EC070000EC070000EC070000EC07000040
:1000F400EC070000EC070000EC070000EC07000030
:1001040000000000EC070000EC070000EC07000012
:10011400EC070000DA0E0000EC070000EC0700001A
:10012400EC070000EC070000EC070000EC070000FF
:10013400EC070000EC070000EC070000EC070000EF
:10014400EC070000EC070000EC070000EC070000DF
:10015400EC070000EC0700007C0D0000CC0200005E
:100164004C040000EC070000EC070000EC07000062
:10017400EC070000EC070000EC070000EC070000AF
:10018400EC070000EC070000EC070000EC0700009F
:10019400EC070000EC070000EC070000EC0700008F
:1001A400000000000000000000000000000000004B
:0C01B4000000000000000000000000003F
:1001C000397101436EC619A0397141536AC866CAB4
:1001D00062CC5ECE19A0397101535AD056D252D496
:1001E0004ED64AD826DA22DC06DE3301614082820E
:1001F00041114AC026C222C406C68282B24D4101C4
:10020000024D924C224CB24B4101024B924A224A7F
:10021000B2494101024992442244B24041018280E4
:100220003D432A876373C3029377F700BDEFADE5C3
:10023000937606FF3D8ABA960CC34CC30CC74CC7D5
:100240004107E36BD7FE11E28280B306C3408A0602
:100250009702000096966780A6002307B700A306C2
:10026000B7002306B700A305B7002305B700A30412
:10027000B7002304B700A303B7002303B700A3020A
:10028000B7002302B700A301B7002301B700A30002
:10029000B7002300B700828093F5F50F9396850091
:1002A000D58D93960501D58D61B79396270097025A
:1002B000000096968682E78086FA9680C1171D8F89
:1002C0003E96E374C3F8A5B701A001A0EFF25FF278
:1002D000372400409305003613050480EF005007D3
:1002E00019CD13050480EF00D00413050480EF003E
:1002F0005004A14513050480EF00D00421BF9305ED
:10030000505213050480EF00B0046DD9130504802A
:10031000EF00300293050002F1BF054723A00182E0
:10032000239EE180238F01809387C18301479386B9
:10033000C19B7D5513060002B385E60023A4070088
:1003400023A007002392070088A10507B107E31542
:10035000C7FEB7F700E023A20700814694C7014714
:10036000D8C737070020032707079306803E335777
:10037000D70281461306F7FF90CBD4CB3D4798C3F5
:10038000B7E700E005472386E740056723A0E710AD
:10039000828001E18280EFF23FE383D7C1811307BE
:1003A000703E9384C1816393E706938701829843EB
:1003B00023900400050798C383C6E1811387C19B7E
:1003C000369714237D471389C19B1384E181636EA3
:1003D000D7029389C183314BFD5B182003A50182AD
:1003E0008E2083A68181014813868181B308E900AC
:1003F00083C70800B3876703CE9703A30700637A18
:10040000A3006304080014C218A0DDBB85079EA0EA
:1004100065B703D34700E366B3FE9447050723A4FB
:10042000070023A0070023920700238078017D8B1B
:100430000548CDDE14C218A0829645B7EFF25FDB07
:10044000993FB7F700E023A20700E9B3EFF25FDAC4
:100450003724004093050036130504C0D52D01CD87
:10046000130504C0F925130504C0E125A1451305B2
:1004700004C0C92D45B393055052130504C0C92DBE
:1004800075D9130504C0752593050002CDB7EFF2A9
:100490003FD679718545214502CA02CC02CE02D0F1
:1004A00002D202D402D602C402C623180100512986
:1004B000854509457521854737150140FC820D4961
:1004C000E1474C08130505C03ECE4ACC7526B70758
:1004D000002083A707071307803E37040040B3D7E7
:1004E000E7022C0013050440C16423150100FD1729
:1004F0007C849307703E3EC65921938704060C10F6
:10050000130504403ED02313010223140102292BBA
:10051000130504408545D92B130504408145FD2B67
:10052000130504408545F12B1305044085455D23E3
:10053000854513050004312137240140C1473ECED3
:100540004C08930700C013050480FC824ACC2D267A
:100550000146938504C013050480F92E45615DB9F9
:10056000EFF21FC9B727000083A547ABEF0050206B
:100570001356F50137250140134616009305004038
:1005800013050580552E79B1EFF29FC60D2A713300
:10059000FD3DB727000083A487AB2685D1370565CD
:1005A00013058538FD33B727000003A4C7AB2285A8
:1005B000453F1305401FF13B26855D371305401F5E
:1005C000C93BF5B7B71702409843B706FFF0411192
:1005D0001367170098C3D84337060200758FD8C336
:1005E0009843B706F7FEFD16758F98C39843B70674
:1005F000FCFFFD16758F98C3D843B70601FFFD16A3
:10060000758FD8C39843B70600ECFD16758F98C355
:100610003707FF0098C723A6070202C402C6984303
:10062000C166558F98C3B716024005679C42F18F8B
:100630003EC6A24785073EC4B24781E7A247E3977B
:10064000E7FEB71702409C431397E700635707067E
:1006500085473EC632478547631FF704B7170240F8
:10066000D843B706C1FFFD16D8C3D843D8C3D84373
:1006700013670740D8C3D843758FD8C3D843B7068C
:100680002900558FD8C39843B7060001558F98C3EA
:10069000984393166700E3DD06FED843B716024081
:1006A000719BD8C3D84313672700D8C32147DC42C6
:1006B000B18BE39EE7FE4101828002C661BFB7169F
:1006C0000240D842B70700201146318B93870707B5
:1006D0006305C70021466308C70237177A0013076E
:1006E000072098C337170240584311839376F700C9
:1006F0003707002013070700369714239843335712
:10070000D70098C38280D842D442416649833D8B4A
:10071000F18E1306270015CF3D47630FE6024147D0
:10072000630FE602454781456313E6004146A1E2B7
:100730003747024003270780418B0DC737177A00E0
:10074000130707203306C70290C3C9DD984305830A
:1007500049BF81454946E1BF85453546C9BF814509
:100760003D46F1B737173D0013070790E1BF371536
:10077000024058559316F700585563DF060411835D
:100780003D8B9306170037177A001307072033575E
:10079000D70298C35455A182BD8A8DE2954633078E
:1007A000D702058398C337170240585794433D8BAF
:1007B000050733D7E60298C3984369B705456394A4
:1007C000A600E546E9BF3D456396A600D1463387BE
:1007D000E602C9BF8906E5BF3D8B930617003717B0
:1007E0007A00130707203357D702F1B701A097010A
:1007F000002093812108178100201301A180171583
:1008000000001305E53297F5FF1F9385A57F13863A
:10081000818163FAC5008322050023A055001105DC
:100820009105E3EAC5FE13858181938501DE637737
:10083000B500232005001105E36DB5FEFD42739060
:1008400002BCAD4273904280B7620000938282087E
:100850007390023097F2FFFF9382027B93E23200A3
:1008600073905230EFF01FD697020000938202D2AD
:1008700073901234730020309C4513F7070113F86E
:10088000F70001C7D8413368E8008E2113F7F50F50
:1008900039C318418146854E3D4F930F8002930224
:1008A0008004214E3396DE00B3F8C50063111603B1
:1008B0009398260033131F011343F3FF3377E300AC
:1008C000B318180133E7E800639FF70550C98506A0
:1008D000E39AC6FD18C11307F00F6375B7045441BE
:1008E0002146854E3D4F930F800293028004414E76
:1008F000B398CE0033F715016392E8021317260070
:1009000001173313EF001343F3FFB376D30033170C
:10091000E800D98E639DF701232A15010506E31926
:10092000C6FD54C18280E39457FA10C94DB7E397CE
:1009300057FE23281501DDB719C20CC982804CC9A6
:10094000828099C5371702401C4F5D8D08CF828089
:10095000B7170240984F1345F5FF798D88CF8280F5
:1009600099C5371702405C4F5D8D48CF8280B7171D
:100970000240D84F1345F5FF798DC8CF82801E21E4
:1009800037370140930607C0C207C1836300D5040F
:10099000B7060040630CD502938606406308D50273
:1009A000B7160040138606806302C502938606C010
:1009B000630ED50013070740630AE500375701406F
:1009C000930607C06304D5006316E500BA2193F7C8
:1009D000F7F8D98F37170040630CE500130707407D
:1009E0006308E50093F7F7CFFA21C207C183D98FD7
:1009F0001EA1DE215EB59E211EB5B73701401387CB
:100A000007C0630EE50093870740630AF500B757F8
:100A10000140138707C06304E5006314F5009C25BB
:100A20001EB985475EA982801E3103D88500C207A2
:100A3000C18393F7F7EFC207C1831EB11E31562160
:100A40005A2DC20713960601420796214183137758
:100A5000C7F8558FB621C18393F7F7DFB3E60601D8
:100A6000A206D58FB7360140C207138806C041825F
:100A7000C183630E050193860640630AD500B7560D
:100A80000140138806C063040501631FD502FD768B
:100A90009386F67FF58FB62503D8C500A206D58FBD
:100AA000D621C207C183A20693F7F7BFD58FF5768B
:100AB000FD16F18EF225C207C183336606011206C8
:100AC000D18E13960601418252A15AADFA215ABD28
:100AD0001EB182801E2189C593E717001EA1828066
:100AE000C207C183F99BC207C183CDBF83574504A9
:100AF00091C52167D98F2312F5048280C607C5836B
:100B0000DDBF1E2189C593E707081EA18280C207A9
:100B1000C18393F7F7F7C207C183C5BF5E2DC20734
:100B2000C183DD9BDD8D4EAD828093F5F51F4EA117
:100B300082804A211375F51F82800A216D8D33351D
:100B4000A000828093C5F5FFC205C1810EA18280FD
:100B500013F7F50F85461583B397B6006311D702D7
:100B60005A25F98F1A2101454207418381CB05455A
:100B7000A181B315B5006D8F3335E00082808946C1
:100B80006314D7001A29F1BF5A29E1BFA181854713
:100B9000B397B70093C7F7FFC207C1831EA1828036
:100BA000EFF20FE537140140AA842A86A1651305E8
:100BB000044059332686896513050440B53B6FF020
:100BC0006FE5EFF2EFE237140140AA842A869165BF
:100BD0001305044095332686856513050440A93B1B
:100BE0006FF04FE3EFF2CFE00545E13F05454D3FA4
:100BF0000145C13F01456D376FF0CFE1EFF24FDFA7
:100C00000145C1370545693F0545653F6FF08FE0F8
:100C1000EFF26FDC2A89014493090008A14433D51F
:100C20008940337525013335A000613F05458D3F6F
:100C300001450504B537E31494FE05459537014594
:100C400085376FF08FDCEFF2AFDA2A84613F13054E
:100C500080077D3F01456D3F22855D3F45376FF041
:100C60006FDBEFF2EFD8AE842A84AD3F1305800727
:100C7000453713050004693FA29463159400BD3FF6
:100C80006FF04FD9082005046137C5BFEFF24FD68A
:100C90001365050B2E84453F13554400136505016C
:100CA0005D371375F40045376FF0CFD6EFF24FD4B0
:100CB0009384C19D0144214922858145C13F05049A
:100CC0002685930500081374F40F613F938404088C
:100CD000E31424FF6FF00FD49387C19D93860740E0
:100CE000130600080147B385E700238005000507C8
:100CF000E31BC7FE93870708E396D7FE828093170E
:100D00008501E18763C607029307F00363E2B70238
:100D100093D73500139777009387C19DBA973E9577
:100D200093F775008545B395F5001C21DD8D0CA169
:100D3000828083A741808605BE959307001E3305F8
:100D4000F5022E9518311C211315370093D6570044
:100D50001375850336959306B0043305D5020D83CC
:100D600093066002FD8B3307D7023A953D47B38760
:100D7000E7023E951D851375F50F8280011122CE85
:100D800026CC4ACA4EC852C6B7070550982B098BC5
:100D900035CB982B1384C1821377D70F98AB982348
:100DA0001377E70F98A3938741829843058B6305D8
:100DB000070E984381441549050798C3130A30026A
:100DC0009309001E1C40B3F727038DE393F5F40F3E
:100DD00005458537637CAA000C4033C52403B3D591
:100DE00025031375F50F93F5F50F113F9504E39B5C
:100DF00034FD370705501C2393E717001CA31C4044
:100E000085071CC0370405501C28918B8DCB1C28EE
:100E100093F7B70F1CA883A741801CC483A78180C8
:100E20005CC423A2018223A601821C2093F7E70F52
:100E30001CA0AD3D55351C2093E717001CA0B7073B
:100E40000550982B058B11CB982B1377E70F98AB98
:100E5000938781829843050798C3B7070550982B5D
:100E6000418B09C7982B1377F70E98ABB70705503E
:100E7000982B218B11CB982B37250000130505AC3F
:100E80001377770F98ABA9247244E2445249C249C0
:100E9000324A0561730020309843814415490507A3
:100EA00098C3130A30029309001E1C40B3F72703AE
:100EB0008DE393F5F40F0145AD3D637CAA000C4032
:100EC00033C52403B3D525031375F50F93F5F50F3B
:100ED0003D359504E39B34FD29BF411193055052E4
:100EE0003755004022C6AD318547631FF5002A847F
:100EF000375500403D392388A1829305505237551C
:100F00000040A3888182593132444101730020306E
:100F1000EFF26FACB7440140AE893289014493844B
:100F20000480634524014A856FF02FAE93050004C9
:100F30002685213165DDB3878900838507002685F5
:100F40000504C205C181D536E9BF1387C1801C43A2
:100F5000938601DE3E95636BD500B78600209386AD
:100F6000068063E5A60008C33E858280FD57EDBF7D
:100F700093567501B7078000FD1713D6750193F6D8
:100F8000F60F1308F00FB3F8A7001357F501ED8F14
:100F90001376F60FFD81638706036309060185EA70
:100FA00011EA89EB0145639B080082800945F5FF42
:100FB000E5DA31A8638C08026300B704054575D7EC
:100FC0007D5582800945639808026304D60211E2C8
:100FD000F5D7E315B7FEE343D6FE63C7C600E3EFDC
:100FE00017FD0145E3F3F8FC19E3D9BFF1D9054535
:100FF0008280E5D3828082808146C5B7011126CAEE
:101000004AC806CE22CC4EC652C4AA842E8901C537
:101010001C4D91E3E1219C4C804499E326857D2978
:10102000971700009387C7AC631BF402C0405E248F
:10103000A18BB1C71C48A1C7FD59294A1C4483454F
:101040000900FD17B1E91CC463DD07062286A94526
:1010500026856120FD576308F502294535A09717BD
:1010600000009387E7AA6314F4008044C9B7971778
:1010700000009387E7A5E31CF4FAC0444DBFA285A6
:101080002685112A55D97D55F2406244D244424901
:10109000B249224A056182801CC4050963D7070052
:1010A000184C63CAE700638845011C40138717008A
:1010B00018C08CA361B7228626850520E31035F978
:1010C000D9B71C401387170018C0294798A371B7D8
:1010D00093870181AA85884315B7011122CC26CABE
:1010E0004AC806CE4EC6AA842E89328401C51C4D3C
:1010F00091E3ED26971700009387879F6317F40607
:10110000C0401C4C1CC45E24A18BC1C31C48B5CF7D
:101110001C4808409379F90F1379F90F1D8D5C482D
:101120006346F500A2852685692C25E51C44050546
:10113000FD171CC41C401387170018C023803701FB
:101140005C486388A7005E24858B81CBA947631622
:10115000F900A2852685B5240DEDF24062444A854A
:10116000D2444249B24905618280971700009387B3
:10117000279A6314F400804469B797170000938797
:101180002795E310F4F8C044ADBFA2852685212041
:1011900041D17D59D9B741119387018126C284433A
:1011A00022C44AC006C62A892E8489C49C4C99E36D
:1011B00026852D269717000093878793631BF402DB
:1011C000C0400317C40093170701C18393F687003B
:1011D000ADEA93F6070195EEA5472320F9001367C2
:1011E00007045AA47D55B240224492440249410169
:1011F0008280971700009387A7916314F4008044BE
:10120000C9B7971700009387A78CE31CF4FAC04472
:101210004DBF918B9DC34C5889C993074404638487
:10122000F5004A852123232A04025E242322040098
:1012300093F7B7FD5EA41C481CC05E2493E78700AB
:101240005EA41C4899EB5E241307002093F707283F
:101250006385E700A2854A8599215E2413F717006C
:101260001DC35C4823240400B307F0401CCC1C4879
:101270000145B5FB8317C40013F707082DD793E783
:1012800007045EA485B7898B014791E3584818C4C9
:10129000F9BFDE25011122CC26CA06CE4AC84EC6A9
:1012A00013F78700AA842E8479EBD841634DE000C0
:1012B000B841634AE0000145F2406244D2444249E9
:1012C000B2490561828058547DD703A904009396E2
:1012D000370123A0040063DB060670485E24918B6F
:1012E00099C75C401D8E5C5899C33C401D8E5C5470
:1012F0000C50814626858297FD575A24631DF500C0
:101300009440F54763E8D706B70740208507B3D771
:10131000D700858BA5C31C48232204001CC093174B
:10132000370163D80700FD576314F5009C4091E333
:1013300068C84C5823A02401BDDD9307440463848E
:10134000F5002685E526232A0402B5B70C50014690
:10135000854626850297FD572A86E311F5F89C40BD
:10136000B5DF75476385E70059476393E70423A01A
:10137000240191B7136707045AA47D5535BF83A98B
:101380000501E38A09F203A905008D8B23A035012D
:1013900033093941014791E3D84918C4E35D20F18D
:1013A0001C540C50CA864E86268582976347A0003F
:1013B0005E2493E707045EA4C9B7AA993309A9403C
:1013C000F1BF9C49B9CF011122CC06CE2A8411C5A8
:1013D0001C4D81E72EC61922B2459707000093875E
:1013E0002771639BF5004C408397C50095C7228504
:1013F0006244F240056171BD970700009387477111
:101400006394F5000C44CDB7970700009387476CB1
:10141000E39CF5FC4C44C9BFF240624401450561C0
:10142000828001458280411122C406C62A844EA5CD
:1014300072A5232005002322050023240500232272
:10144000050623280500232A0500232C0500214634
:1014500081451305C505EFE0BFDC970700009387C2
:10146000E7465CD097070000938707491CD497078D
:1014700000009387E74C5CD4970700009387474FA1
:1014800000D01CD8B2402244410182809705000060
:10149000938565F3A9A2411126C2130680069384A1
:1014A000F5FFB384C4024AC02E8922C406C69385C0
:1014B0004407392E2A8401CD23200500232225014B
:1014C000310508C4138684068145EFE07FD5228567
:1014D000B240224492440249410182801C4DADE356
:1014E000411106C622C497070000938767FA1CD5EE
:1014F000938741819C432324050423260504232844
:1015000005046314F50085471CCD2A841D2848C0B6
:101510002285052808C422852D2048C4484001465C
:101520009145113708440546A545F53D484409460F
:10153000C945D53D85471CCCB2402244410182803B
:10154000828041119387418126C284434AC006C6E6
:101550009C4C22C42A8999E32685493793848404C4
:101560008044DC40FD1763D607009C40B9CF84401F
:10157000C5BF0317C40039E7C177850723220406D6
:101580002320040023220400232404005CC4232815
:101590000400232A0400232C04002146814513055E
:1015A000C405EFE0FFC7232A0402232C04022324EE
:1015B0000404232604042285B240224492440249B2
:1015C000410182801304840671BF91454A85E1354B
:1015D00088C051FDB1472320F9000144E9BF79716A
:1015E00022D44AD052CC56CA5AC85EC606D626D293
:1015F0004ECE2A8AAE8A130485040149054BFD5B51
:1016000009ECB25022544A8592540259F249624A76
:10161000D24A424BB24B4561828004448329440044
:10162000FD1963D409000040E1BFDE24637BFB00A9
:101630008397E40063877701A6855285829A336990
:10164000A90093848406E9BF1971A6DAAE84839554
:10165000E500A2DC86DE328463DB0500DE2423A005
:10166000060093F707089DE39307004015A0300894
:1016700036C6992EB246E34305FE7247BD67F98F21
:101680007977BA9793B717009CC2F9BF9307000404
:101690001CC0F6506654D654014509618280DE258F
:1016A000011122CC06CE26CA4AC8898B2E8489CF46
:1016B000930774041CC01CC885475CC8F240624490
:1016C000D24442490561828074003000AA84AD3F53
:1016D000A2452A892685ED2819E98317C40013F746
:1016E000072069FFF19B93E727005EA4D1B7970716
:1016F00000009387E7D99CD45E2408C008C893E70C
:1017000007085EA4A2475CC8B24799CB8315E400E2
:101710002685C52411C55E24F19B93E717005EA4BE
:101720005E243369F9002316240149BFCDC183A784
:10173000C5FF411122C406C626C21384C5FF63D368
:1017400007003E94AA840126938741839C4399EB2A
:101750002322040023AA81822244B2402685924497
:101760004101DDA4637EF40014403307D400639686
:10177000E7009843DC43369718C05CC0E1BFBA87E6
:10178000D84319C3E37DE4FE94433386D700631F37
:1017900086001040B29694C33386D700E31EC7FA82
:1017A00010435843B29694C3D8C37DB76375C40041
:1017B000B1479CC055B71040B306C4006316D700AC
:1017C00014435843B29614C058C0C0C371B7828046
:1017D000011126CA93843500F19806CE22CC4AC85E
:1017E0004EC6A104B14763F1F404B14463E0B4040C
:1017F0002A89912C9387418398433A8431E09387D7
:1018000081839C4391E781454A85512823ACA1827D
:10181000A6854A856920FD5963173507B1472320FE
:10182000F9004A85152429A0E3D204FCB1471CC164
:101830000145F2406244D2444249B2490561828086
:101840001C40858F63CE0702AD4663F6F6001CC0D0
:101850003E9404C031A05C406312870223AAF18247
:101860004A85DD221305B4009307440061993307CC
:10187000F54061D33A94898F1CC065BF5CC3CDB776
:1018800022874040A5BF130435007198E30385FC0F
:10189000B305A4404A852120E31D35FB41B7411122
:1018A00022C42A842E8523AE01DC06C6EFF0EFE9C0
:1018B000FD576317F5009387C1DD9C4391C31CC09E
:1018C000B240224441018280411122C42E8483957A
:1018D000E50006C69D2A634905007C48AA977CC896
:1018E000B2402244410182805E247D777D17F98FCA
:1018F0005EA4FDB7DE25011122CC26CA4AC84EC619
:1019000006CE93F70710AA842E843289B68991C730
:101910008395E5008946014609225E247D777D177F
:10192000F98F5EA48315E4006244F240CE864A86B5
:10193000B24942492685D244056125A8411122C4F5
:101940002E848395E50006C6C928FD575A24631ADC
:10195000F500FD77FD17F98F5EA4B24022444101E6
:1019600082808567D98F5EA468C8C5BF8395E5006E
:1019700005A8411122C42A842E85B285368623AE5D
:1019800001DC06C6EFF0CFD8FD576317F50093874B
:10199000C1DD9C4391C31CC0B240224441018280FE
:1019A000411122C42A842E8523AE01DC06C6E12023
:1019B000FD576317F5009387C1DD9C4391C31CC09D
:1019C000B240224441018280411122C42A842E85E2
:1019D000B28523AE01DC06C66D20FD576317F50006
:1019E0009387C1DD9C4391C31CC0B2402244410196
:1019F0008280411122C42A842E8523AE01DC06C6D2
:101A00007920FD576317F5009387C1DD9C4391C38F
:101A10001CC0B240224441018280411122C42A8468
:101A20002E85B285368623AE01DC06C6BD20FD5765
:101A30006317F5009387C1DD9C4391C31CC0B2407E
:101A400022444101828082808280411122C42A8402
:101A50002E85B285368623AE01DC06C6A920FD5749
:101A60006317F5009387C1DD9C4391C31CC0B2404E
:101A70002244410182809307800523AEF1DC7D552D
:101A800082809307800523AEF1DC7D558280930729
:101A9000800523AEF1DC014582809307800523AEEB
:101AA000F1DC7D5582809307800523AEF1DC7D5506
:101AB000828000000000003FCDCC4C3FCDCCCC3D1F
:101AC0004649464F204F560D000000000000000020
:101AD0000000000000000000000000000000000006
:101AE00000000000000000000000000000000000F6
:101AF00000000000000000000000000000000000E6
:101B000000000000000000000000000000000000D5
:101B100000000000000000000000000000000000C5
:0C1B2000000000000000000000000000B9
:101B2C000000000000000000010203040607080981
:101B3C0000000000EC1A00000C1B0000CC1A000086
:101B4C000000000000000000000000000000000089
:101B5C000000000000000000000000000000000079
:101B6C000000000000000000000000000000000069
:101B7C000000000000000000000000000000000059
:101B8C000000000000000000000000000000000049
:101B9C0000D8B80500A00020E0A1002050060020CD
:081BAC001000002010000020D1
:00000001FF
