:040000006F004050FD
:100004000000000000000000080200000A020000D6
:1000140000000000020500000000000000000000D5
:1000240002050000020500000000000000000000BE
:1000340002050000000000000205000000000000AE
:100044000205000002050000020500000205000090
:100054000205000002050000020500000205000080
:100064000205000002050000020500000205000070
:100074000205000002050000020500000205000060
:100084000205000002050000020500000205000050
:100094000205000002050000020500000205000040
:1000A4000205000002050000020500000205000030
:1000B4000205000002050000020500000205000020
:1000C4000205000002050000020500000205000010
:1000D4000205000002050000BE0D0000020500003C
:1000E40002050000020500000205000002050000F0
:0C00F400020500000205000002050000EB
:10010000397101436EC619A0397141536AC866CA74
:1001100062CC5ECE19A0397101535AD056D252D456
:100120004ED64AD826DA22DC06DE330161408282CE
:1001300041114AC026C222C406C68282B24D410184
:10014000024D924C224CB24B4101024B924A224A40
:10015000B2494101024992442244B24041018280A5
:100160003D432A876373C3029377F700BDEFADE584
:10017000937606FF3D8ABA960CC34CC30CC74CC796
:100180004107E36BD7FE11E28280B306C3408A06C3
:100190009702000096966780A6002307B700A30683
:1001A000B7002306B700A305B7002305B700A304D3
:1001B000B7002304B700A303B7002303B700A302CB
:1001C000B7002302B700A301B7002301B700A300C3
:1001D000B7002300B700828093F5F50F9396850052
:1001E000D58D93960501D58D61B79396270097021B
:1001F000000096968682E78086FA9680C1171D8F4A
:100200003E96E374C3F8A5B701A001A0EFF25FF238
:10021000056579718545130545803714014002CA8B
:1002200002CC02CE02D002D202D402D602C402C64E
:10023000231801005D2B9307001061498D444C0881
:1002400013050480FC824ACE26CCA9269307002001
:100250004C0813050480FC824ACE26CC252EB70715
:10026000002083A707081307803E37340140B3D727
:10027000E7022C00130504C023150100FD177C8440
:100280009307703E3EC64523C167938707060C104F
:10029000130504C03ED02313010223140102CD2B09
:1002A0000C10130504C0912D130504C08545ED2DD8
:1002B000130504C081450D27130504C0814525277A
:1002C000130504C08545E52D8545130504C0C925E2
:1002D000456149B5B7370140938707C0D63B130640
:1002E000401F01476364D6001307803EDABB82805B
:1002F000B7370140938707C0963F1306401F014759
:100300006364D6001307803E9ABF8280EFF25FE2FB
:1003100041118122EF00F034716513050520EF00D3
:100320009020B707002083A5070837250000130594
:100330000503EF007042912CAA85372500001305B4
:100340000504EF007041D935EF00D0181305007D8A
:10035000EF0030374137EF009018EF00102E1305F3
:10036000E003EF00102CDDB7B71702409843B70643
:10037000FFF041111367170098C3D84337060200F6
:10038000758FD8C39843B706F7FEFD16758F98C3CF
:100390009843B706FCFFFD16758F98C3D843B70680
:1003A00001FFFD16758FD8C337079F0098C702C499
:1003B00002C69843C166558F98C3B71602400567B9
:1003C0009C42F18F3EC6A24785073EC4B24781E7F3
:1003D000A247E397E7FEB71702409C431397E70055
:1003E0006357070685473EC632478547631FF704B4
:1003F000B7170240D843B706C1FFFD16D8C3D8438C
:10040000D8C3D84313670740D8C3D843758FD8C320
:10041000D843B7063D00558FD8C39843B7060001AF
:10042000558F98C3984393166700E3DD06FED843C3
:10043000B7160240719BD8C3D84313672700D8C3AF
:100440002147DC42B18BE39EE7FE4101828002C678
:1004500061BFB7160240DC42370700201146B18B5E
:1004600013070708638BC7022146638DC702B717BE
:100470007A00938707201CC3B7170240DC4391839F
:1004800093F6F700B707002093870700B6979423E9
:100490001C43B3D7D7001CC38280B727B70093870C
:1004A00007B0D1BFDC42D4424166C983BD8BF18E17
:1004B000890745466393C700C9479DE2B746024096
:1004C00083A60680C18A81CAB7167A009386062061
:1004D000B387D7024DB7B7163D0093860690CDBFC0
:1004E000B7160240D4421396E60063570600B7964B
:1004F0005B00938606D8E9BFB726B700938606B09F
:10050000C1BF01A0970100209381C137175100207E
:10051000130141AF17250000130585BD9705002085
:10052000938545AE1386818163FAC5008322050059
:1005300023A0550011059105E3EAC5FE13858181CD
:10054000938581836377B500232005001105E36D52
:10055000B5FEFD42739002BC8D42739042809302BF
:10056000800873900230970200009382E2A993E220
:10057000320073905230EFF03FDF97020000938219
:1005800022D97390123473002030B7F7FF1F03A5F0
:10059000477082809C4513F7070113F8F70001C7E5
:1005A000D8413368E80037270240145B3707000F53
:1005B000758F4DEB8546238CD1803717014063152D
:1005C000E5009A2135839AA18E2113F7F50F39C3DF
:1005D00018418146854E3D4F930F8002930280045F
:1005E000214E3396DE00B3F8C500631116039398CD
:1005F000260033131F011343F3FF3377E300B318CF
:10060000180133E7E8006397F70750C98506E39AB6
:10061000C6FD18C11307F00F6375B7045441214696
:10062000854E3D4F930F800293028004414EB39854
:10063000CE0033F715016392E80213172600011765
:100640003313EF001343F3FFB376D3003317E800FF
:10065000D98E6395F703232A15010506E319C6FD14
:1006600054C1828037170140E310E5F603C781814A
:1006700021DF81BFE39C57F810C949BFE39F57FCB6
:1006800023281501D9BFB71701406316F50083C7AA
:10069000818191C3B58108456D8D3335A00082807D
:1006A000B71701406316F50083C7818191C3B581F7
:1006B00019C20CC982804CC9828003A7C1818547B9
:1006C00014216310F7021C31639CE7023C2196075A
:1006D00093E707F837E700E093F7F70F3697230023
:1006E000F740054793D756003317D700544189CEBA
:1006F000938707048A07B7E600E0B69798C382801D
:10070000EDF33C219607F9B793870706E5B737174E
:1007100002405C439146B18B6385D706A14663874F
:10072000D706B7177A00938707201CC137160240F7
:100730005C4237070020130707019183BD8BBA97EE
:1007400094231C41B3D7D7005CC15442A1829D8A37
:10075000BA969422B3D6D70014C55442AD829D8A6E
:1007600036971823B3D7E7005CC558423983937690
:1007700037001387418036971823B3D7E7021CC987
:100780008280B727B700938707B045B75C435843CB
:10079000C166C983BD8B758F8907C5466393D70032
:1007A000C9471DE33747024003270780418B01CB30
:1007B00037177A0013070720B387E702BDB737174B
:1007C0003D0013070790CDBF3717024058439316DB
:1007D000E70063D7060037975B00130707D8E9BF28
:1007E0003727B700130707B0C1BF99C537170240B5
:1007F0001C4F5D8D08CF8280B7170240984F13457C
:10080000F5FF798D88CF828099C5371702405C4FFC
:100810005D8D48CF8280B7170240D84F1345F5FF52
:10082000798DC8CF82801E2137370140130707C05A
:10083000C207C1836304E502370700406300E50295
:1008400013070740630CE500371700409306078045
:100850006306D500130707C06316E500BA2193F7B6
:10086000F7F8D98FFA2193F7F7CFC207C183D98F51
:100870001EA1DE215EB59E211EB5B73701409387CC
:1008800007C06314F5009C251EB985475EA98280C8
:100890001E31922103D82500C207C183F99BC207EC
:1008A000C1831EB11E3156211A2DC207C1834207D2
:1008B00041831377C7F8518F9225F59BC2063366A3
:1008C0000601D18F37360140130606C0C18263107E
:1008D000C502B225DD9B03D8E500D18FD221ED9B67
:1008E00093F6F6CFD18FD22533660601D18E56A16D
:1008F0001AADFA215AB91EB182801E3165771307ED
:10090000F7CFC207C183BD9BC207C1831EB11E3191
:10091000562103D88500C20713960601162DC18300
:1009200093F7F7FD758F96214182A206558FB62168
:1009300042074183B3E606019206D58FB7360140E0
:10094000C207938606C0C183631ED502B62593F7FE
:10095000F7F703D8C5009206D58FD621C207C18309
:10096000920693F7F7FBD58FFD769386F63FF18ECF
:10097000F225C207C183336606010A06D18E13969B
:100980000601418252A11AADFA211ABD1EB1828020
:100990001E2189C593E717001EA18280C207C1836B
:1009A000F99BC207C183CDBF8357450491C5216719
:1009B000D98F2312F5048280C607C583DDBF1E21AF
:1009C00089C593E707081EA18280C207C18393F7F8
:1009D000F7F7C207C183C5BF1E2DC207C183DD9BC8
:1009E000DD8D0EAD82801A2DFD779387F77FF98F0D
:1009F000A205CD8FC207C1831EAD8280EFF24FF3F7
:100A00001629F577FD17F58FF621DA257971D58F3F
:100A10001EA95625FD779387379FF58FD6212A8407
:100A20002EC6D58F9625D58FB625D58F5EA55E2986
:100A3000C207C18393F7F7CFD98F5EA96808C13980
:100A4000B747014093870780B245631EF402A2575F
:100A50006547B387E7029841930640060A07B3D774
:100A6000E70233D7D702B3F7D7021207920793876B
:100A70002703B3D7D702BD8BD98FC207C1831EA46A
:100A800045616FF02FED9257E1B791C55E2509677B
:100A9000D98F5EA582805A25F977FD17F98FD5BFCA
:100AA00013F7F50F85471583B395B7006319F70062
:100AB0009307C500984301CED98D8CC382808946A7
:100AC00093074501E318D7FE93070501E5B793C5E2
:100AD000F5FFF98DDDB793F5F51F4EA182804A2110
:100AE0001375F51F82800A216D8D3335A000828039
:100AF00013F7F50F85461583B397B6006311D70238
:100B00005A25F98F1A2101454207418381CB0545BA
:100B1000A181B315B5006D8F3335E0008280894621
:100B20006314D7001A29F1BF5A29E1BFA181854773
:100B3000B397B70093C7F7FFC207C1831EA1828096
:100B4000EFF26FDD371901404111AA8A0144930485
:100B500009C093090008214A01469305000426852F
:100B6000813633D6894033765601930500082685B1
:100B7000053E05469305000426851D360D450504F2
:100B80003126E31B44FD91473EC6231231018D47B8
:100B9000130509C04C00B71901403EC49D44DD3A1D
:100BA0000144138909C07D5A0146930500044A8512
:100BB000C53C0546930500044A85DD3493050008CD
:100BC0004A85D13433159500498CFD140D451374B5
:100BD000F40F6D2CE39A44FDC1474C00138509C006
:100BE0003EC64D3A228541016FF02FD6EFF2AFD2CB
:100BF000B719014005694111AA8A0144938409C0CB
:100C0000130B000813090980214A0146930500408F
:100C10002685793433568B4033765601CA8526852E
:100C2000413405469305004026859D3C0D4505044D
:100C3000B12CE31C44FD91473EC68567938707802E
:100C40007C82138509C08D474C00371A01408569A5
:100C50003EC49D448132014413090AC0938909802E
:100C6000FD5A0146930500404A851D3C0546930503
:100C700000404A853534CE854A8531343315950098
:100C8000498CFD140D451374F40F0924E39B54FDA6
:100C9000C1474C0013050AC03EC6ED38228541010C
:100CA0006FF0AFCAEFF2CFC8411185452145353EFF
:100CB000C1473EC68567938707CC371501407C82C4
:100CC0004C008D47130505C03EC4EFF0BF8C4101B9
:100CD0006FF04FC8EFF2CFC5F1376FF0AFC7EFF24B
:100CE0002FC541110D45A93D1384018208A011456E
:100CF000813D08B00D45DD3D28A01145C53D28B01A
:100D00001C40B706FF0013D787001377F70F13F5C2
:100D1000F70F2207FD8E598DE183E207558D5D8D1A
:100D200041016FF02FC3EFF2AFC079712A89854579
:100D30003705020002C602C8C13C8545114575341D
:100D4000854505455D34371401409147FC828D444B
:100D5000E1474C081305048026CC3ECEEFF09F837C
:100D6000A147FC824C08930780041305048026CC1D
:100D7000374400403ECEEFF0FF81B7070C000C1067
:100D8000130504403ED44AD002D223160102BD31DD
:100D90000546930550521305044019339307601319
:100DA0007C8685475C87680085473EC8EFF0FF90EA
:100DB000854513050440D13945616FF0AFB9411144
:100DC00022C637440040930550521305044026C400
:100DD000053385476311F502AA84130504400133E6
:100DE0002382A182A3829182EFF08FD0930550528B
:100DF00013050440253B3244A244410173002030D6
:100E0000EFF20FB337440040AA8513050440E131E7
:100E100013040440930500082285F13165DD6FF06D
:100E20006FB3EFF2EFB02A840145D93F2285C93F65
:100E30001305F00FF1376FF0EFB1EFF26FAF411123
:100E40002AC60545753F0886653F8886553F088751
:100E5000453F888775371305F0085D3741016FF00E
:100E60006FAFB707002083A7070837177A0013076B
:100E70000720B3D7E70293F7F70F2384F182130714
:100E8000803EB387E7022393F1828280B7F700E0C8
:100E9000D8438146799BD8C303C781823306A70212
:100EA00090CBD4CB98431367070198C3984313673B
:100EB000170298C3D843058B75DF9843799B98C375
:100EC0008280B7F700E0D8438146799BD8C303D727
:100ED00061823306A70290CBD4CB984313670701F6
:100EE00098C398431367170298C3D843058B75DFDF
:100EF0009843799B98C38280EFF2EFA1B7440040FA
:100F0000AE893289014493840440634524014A85B3
:100F10006FF0AFA3930500042685F13665DDB38736
:100F200089008385070026850504C205C1816536D1
:100F3000E9BF138781801C43938681833E95636B51
:100F4000D500B75600209386068063E5A60008C347
:100F50003E858280FD57EDBF39713EDA2ED232D404
:100F600036D63AD842DC46DE9387C18022CC804315
:100F700026CA06CEAA8409C41C4C99E32285F9200E
:100F80000C4454102686228536C6A526F2406244BB
:100F9000D24421618280411122C406C62A844EA512
:100FA00072A5232005002322050023240500232207
:100FB000050623280500232A0500232C05002146C9
:100FC00081451305C505EFF0AF999717000093878A
:100FD00067985CD0971700009387879A1CD497175F
:100FE00000009387679E5CD4971700009387C7A083
:100FF00000D01CD8B24022444101828097150000E5
:10100000938505D4A9A2411126C2130680069384B4
:10101000F5FFB384C4024AC02E8922C406C6938554
:101020004407592A2A8401CD2320050023222501C3
:10103000310508C4138684068145EFF06F9222853E
:10104000B240224492440249410182801C4DADE3EA
:10105000411106C622C497070000938767FA1CD582
:10106000938701819C432324050423260504232818
:1010700005046314F50085471CCD2A841D2848C04B
:101080002285052808C422852D2048C448400146F1
:101090009145113708440546A545F53D48440946A4
:1010A000C945D53D85471CCCB240224441018280D0
:1010B000828041119387018126C284434AC006C6BB
:1010C0009C4C22C42A8999E3268549379384840459
:1010D0008044DC40FD1763D607009C40B9CF8440B4
:1010E000C5BF0317C40039E7C1778507232204066B
:1010F0002320040023220400232404005CC42328AA
:101100000400232A0400232C0400214681451305F2
:10111000C405EFF0EF84232A0402232C04022324C5
:101120000404232604042285B24022449244024946
:10113000410182801304840671BF91454A85E135DF
:1011400088C051FDB1472320F9000144E9BF7971FE
:1011500022D44AD052CC56CA5AC85EC606D626D227
:101160004ECE2A8AAE8A130485040149054BFD5BE5
:1011700009ECB25022544A8592540259F249624A0B
:10118000D24A424BB24B45618280044483294400D9
:10119000FD1963D409000040E1BFDE24637BFB003E
:1011A0008397E40063877701A6855285829A336925
:1011B000A90093848406E9BF011126CA93843500EF
:1011C000F19806CE22CC4AC84EC6A104B14763F3BB
:1011D000F404B14463E2B4042A89EF00304F9387EA
:1011E000C18298433A8439E0938701839C4391E715
:1011F00081454A850D2F23A8A182A6854A852527EA
:10120000FD5963193507B1472320F9004A85EF00DE
:10121000104C29A0E3D004FCB1471CC10145F240A9
:101220006244D2444249B249056182801C40858FA4
:1012300063CF0702AD4663F6F6001CC03E9404C0BF
:1012400031A05C406313870223A6F1824A85EF0038
:1012500010481305B4009307440061993307F54023
:101260005DDF3A94898F1CC05DBF5CC3C5B7228720
:10127000404095BF130435007198E30285FCB30527
:10128000A4404A854D25E31C35FBB5BF1C46FD1720
:101290001CC663D90700184E63C5E700A9476393CE
:1012A000F500A1AF1C422E851387170018C28CA32E
:1012B0008280011122CC26CA4AC84EC652C406CE2C
:1012C0002A89AE893284B304D6007D5A631494000F
:1012D000014501A80C204E864A854D3F0504E317C1
:1012E00045FFF2406244D2444249B249224A056174
:1012F0008280357122CD26CB4AC94EC706CF52C552
:1013000056C35AC1DEDEE2DCE6DAAA89AE8432894F
:10131000368401C51C4D91E3153B97170000938758
:1013200067D56398F40C83A44900DE24A18BE5C73C
:101330009C48F5C393070002A304F102930700033E
:1013400002D22305F10222C6930B5002971A000025
:10135000938A4AD6054C294B4A841C2099C3639E24
:10136000770DB30C2441638D0C00E6864A86A68572
:101370004E858137FD576301F51E9256E69636D2AB
:101380001C20638B071CFD571309140002C802CEF2
:101390003ECA02CCA309010482D483450900154644
:1013A0005685EF00303113041900C24749E913F79D
:1013B000070109C713070002A309E10413F7870017
:1013C00009C71307B002A309E10483460900130704
:1013D000A002638EE606F2474A848146254618201D
:1013E00093051400130707FD6376E60AADCA3ECEE7
:1013F000BDA0971700009387E7C96395F40083A405
:10140000890025B7971700009387C7C4E39FF4F0BE
:1014100083A4C90019BFA6854E85F12501DD7D5540
:10142000FA406A44DA444A49BA492A4A9A4A0A4B73
:10143000F65B665CD65C0D618280050439BF3305BE
:1014400055413315AC00C98F3EC82289B9B7324720
:1014500093064700184336C6634707023ACE182062
:101460009307E002631DF70418309307A002631B83
:10147000F702B2470904138747009C433AC663C189
:1014800007023ECA2DA83307E04093E727003ACE73
:101490003EC8F1B7B387670385462E84BA9781B7F4
:1014A000FD57C5B7050402CA814681472546182065
:1014B00093051400130707FD6376E606F9F20C2086
:1014C0000D4617150000130565BFEF00B01E11CDC6
:1014D00097170000938787BE1D8D93070004B3976D
:1014E000A700424505045D8D2AC80C201946171532
:1014F00000001305E5BC130914002304B102EF003A
:10150000701B35C197F7FFFF9387C7AF95E7424739
:10151000B2471377071009CF91073EC69257D2976B
:101520003ED21DBDB387670385462E84BA9741B767
:101530009D07E19BA107D5B7780097060000938629
:1015400086D726860C084E8597000000E70000002D
:10155000FD572A8AE314F5FCDE2493F70704E39091
:1015600007EC125575BD7800970600009386A6D447
:1015700026860C084E85012AE1BF797156CA9C491E
:10158000BA8A984522D426D24ECE52CC06D64AD01C
:101590005AC85EC6AA892E84B284368A63D3E7000D
:1015A000BA879CC00347340419C385079CC01C40FC
:1015B00093F7070281C79C4089079CC00329040058
:1015C00013796900631A0900130B9401FD5B5C44F5
:1015D0009840998F634CF9041C408346340493F778
:1015E0000702B336D000A5EB13063404D2854E852E
:1015F000829AFD576303F5041C4011469840998B6D
:10160000544481446397C700B384E64063D3040025
:1016100081441C4418486354F700998FBE940149D3
:1016200069047D5B63982405014509A885465A86AF
:10163000D2854E85829A631E75017D55B250225423
:1016400092540259F249624AD24A424BB24B456126
:1016500082800509ADBF3307D40013060003A30140
:10166000C7040347540493871600A2978906A381F1
:10167000E7049DBF85462286D2854E85829AE30E79
:1016800065FB050945B7797122D426D24AD04ECEE2
:1016900006D652CC56CA5AC8B689942D93079006DE
:1016A0003289AA842E8413863504638DF60263E2A0
:1016B000D706930780056385F61863EDD700638D21
:1016C000062093073004638EF60A930A240423014C
:1016D000D404C9A0930730066385F60A9307400631
:1016E000E395F6FE1C40084393F607089305450072
:1016F000C5C61C410CC363D807001307D002B3074B
:10170000F040A301E404971600009386E69B294766
:1017100065A8930700076381F61663E5D702930770
:10172000E0066388F6189307F006E390F6FA0C409B
:101730001C4313F80508138547006307080608C310
:101740009C4385A893075007E383F6FE9307800721
:101750006388F61293073007E399F6F61C43D041ED
:1017600081459386470014C383AA070056859927AD
:1017700001C53305554148C05C401CC8A3010404A1
:1017800061A81C43930A2404938647009C4314C316
:101790002301F4048547D5B793F607041C410CC315
:1017A000B9DAC207C18781BF93F5050408C3C9D957
:1017B0009E231307F0066386E60E971600009386B5
:1017C000A6902947A30104044C400CC463C505003E
:1017D00008406D9908C099E3B28A89CDB28AB3F501
:1017E000E702FD1AB6958C212380BA00B3D5E70233
:1017F00063FFE70AA147631EF7001C40858B91CB6E
:1018000058401C4863C7E70093070003A38FFAFE04
:10181000FD1A3306564110C84E87CA867000A2854D
:101820002685A13B7D5A631D450B7D55B250225440
:1018300092540259F249624AD24A424B456182802F
:10184000A382D50497160000938606880C400843AF
:1018500013F805081C411105630D080208C313F7AE
:10186000150001C793E505020CC04147A1FF0C40DC
:1018700093F5F5FD0CC0B9B79C4193E707029CC1F5
:1018800093078007A302F404971600009386068549
:1018900075BF13F8050408C3E30308FCC207C1833E
:1018A0007DBF9716000093862682214721BFAE8711
:1018B0003DB794411C43CC4913F8060813854700F3
:1018C0006306080008C39C438CC339A008C393F681
:1018D00006049C43F5DA8EA323280400B28A2DBFA8
:1018E00014485686CA8526858299E30045F51C4032
:1018F000898B8DE7B2474844E35AF5F23E853DB700
:1019000085465686CA8526858299E30065F3050AD1
:101910005C443247998FE345FAFEE9BF014A930AD6
:1019200094017D5BF5B7411122C42A842E8523AA38
:10193000018206C6EFF0EFDFFD576317F5009387CE
:1019400041839C4391C31CC0B24022444101828028
:10195000411122C42E848395E50006C6212D6349DA
:1019600005007C48AA977CC8B2402244410182808D
:101970005E247D777D17F98F5EA4FDB7DE2501110A
:1019800022CC26CA4AC84EC606CE93F70710AA84B0
:101990002E843289B68991C78395E5008946014630
:1019A00009215E247D777D17F98F5EA48315E400FD
:1019B0006244F240CE864A86B24942492685D244E4
:1019C0000561DDA8411122C42E848395E50006C679
:1019D000C92EFD575A24631AF500FD77FD17F98FBC
:1019E0005EA4B2402244410182808567D98F5EA403
:1019F00068C8C5BF8395E500F5A2011122CC26CAAF
:101A00004AC806CE4EC6AA842E89328409C51C4D0A
:101A100099E3EFF0AFE3970700009387A76563179B
:101A2000F406C0401C4C1CC45E24A18BC1C31C48DE
:101A3000B5CF1C4808409379F90F1379F90F1D8D24
:101A40005C486346F500A2852685CD2C25E51C441F
:101A50000505FD171CC41C401387170018C0238000
:101A600037015C486388A7005E24858B81CBA9473A
:101A70006316F900A2852685D1240DEDF24062445B
:101A80004A85D2444249B2490561828097070000E5
:101A9000938747606314F400804469B79707000098
:101AA0009387475BE310F4F8C044ADBFA285268559
:101AB0001D2841D17D59D9B7411122C42A842E85D0
:101AC000B285368623AA018206C6EFF0EFC2FD5723
:101AD0006317F500938741839C4391C31CC0B240B8
:101AE00022444101828041119387C18026C28443F0
:101AF00022C44AC006C62A892E8491C49C4C81E720
:101B00002685EFF0AFD4970700009387A756631B95
:101B1000F402C0400317C40093170701C18393F672
:101B20008700ADEA93F6070195EEA5472320F9005B
:101B3000136707045AA47D55B240224492440249D7
:101B400041018280970700009387C7546314F40013
:101B50008044C9B7970700009387C74FE31CF4FA86
:101B6000C0444DBF918B9DC34C5889C99307440411
:101B70006384F5004A85A92E232A04025E242322C9
:101B8000040093F7B7FD5EA41C481CC05E2493E7D5
:101B900087005EA41C4899EB5E241307002093F78E
:101BA00007286385E700A2854A85AD2C5E2413F7DC
:101BB00017001DC35C4823240400B307F0401CCC6D
:101BC0001C480145B5FB8317C40013F707082DD740
:101BD00093E707045EA485B7898B014791E35848D2
:101BE00018C4F9BF411122C42A842E8523AA018278
:101BF00006C60121FD576317F500938741839C4377
:101C000091C31CC0B240224441018280DE250111F3
:101C100022CC26CA06CE4AC84EC613F78700AA842D
:101C20002E8479EBD841634DE000B841634AE0006F
:101C30000145F2406244D2444249B2490561828082
:101C400058547DD703A904009396370123A00400BC
:101C500063DB060670485E24918B99C75C401D8E3D
:101C60005C5899C33C401D8E5C540C5081462685BF
:101C70008297FD575A24631DF5009440F54763E8A9
:101C8000D706B70740208507B3D7D700858BA5C3F4
:101C90001C48232204001CC09317370163D8070097
:101CA000FD576314F5009C4091E368C84C5823A08D
:101CB0002401BDDD930744046384F5002685092CC7
:101CC000232A0402B5B70C500146854626850297A3
:101CD000FD572A86E311F5F89C40B5DF754763850B
:101CE000E70059476393E70423A0240191B71367E2
:101CF00007045AA47D5535BF83A90501E38A09F27B
:101D000003A905008D8B23A0350133093941014713
:101D100091E3D84918C4E35D20F11C540C50CA86E5
:101D20004E86268582976347A0005E2493E70704CA
:101D30005EA4C9B7AA993309A940F1BF9C49A5C3BC
:101D4000011122CC06CE2A8419C51C4D89E72EC666
:101D5000EFF0CFAFB245970700009387A731639BA1
:101D6000F5004C408397C50095C722856244F24038
:101D7000056169BD970700009387C7316394F5003B
:101D80000C44CDB7970700009387C72CE39CF5FC64
:101D90004C44C9BFF240624401450561828001455F
:101DA0008280411122C42A842E85B285368623AAD8
:101DB000018206C68D24FD576317F5009387418382
:101DC0009C4391C31CC0B2402244410182801971DE
:101DD000A6DAAE848395E500A2DC86DE328463DB7E
:101DE0000500DE2423A0060093F707089DE3930770
:101DF000004015A0300836C66522B246E34305FE12
:101E00007247BD67F98F7977BA9793B717009CC26D
:101E1000F9BF930700041CC0F6506654D654014520
:101E200009618280DE25011122CC06CE26CA4AC86D
:101E3000898B2E8489CF930774041CC01CC88547E6
:101E40005CC8F2406244D244424905618280740019
:101E50003000AA84AD3FA2452A892685EFF0CFB590
:101E600019E98317C40013F7072061FFF19B93E77B
:101E700027005EA4C9B797F7FFFF938767189CD424
:101E80005E2408C008C893E707085EA4A2475CC8A0
:101E9000B24799CB8315E4002685052A11C55E2437
:101EA000F19B93E717005EA45E243369F9002316C3
:101EB000240141BF93F5F50F2A966314C50001452F
:101EC00082801C21E38EB7FE0505C5BF828082801B
:101ED000CDC183A7C5FF411122C406C626C2138403
:101EE000C5FF63D307003E94AA84CD379387C18290
:101EF0009C4399EB2322040023A681822244B24012
:101F0000268592444101E1B7637EF4001440330713
:101F1000D4006396E7009843DC43369718C05CC052
:101F2000E1BFBA87D84319C3E37DE4FE9443338607
:101F3000D700631F86001040B29694C33386D70043
:101F4000E31EC7FA10435843B29694C3D8C37DB773
:101F50006375C400B1479CC055B71040B306C400B8
:101F60006316D70014435843B29614C058C0C0C378
:101F700071B78280411122C42A842E85B2853686AB
:101F800023AA018206C67128FD576317F5009387BF
:101F900041839C4391C31CC0B240224441018280D2
:101FA000411122C42A842E85B28523AA018206C645
:101FB000B920FD576317F500938741839C4391C374
:101FC0001CC0B240224441018280411122C42A84B3
:101FD0002E8523AA018206C60D28FD576317F5003A
:101FE000938741839C4391C31CC0B240224441016A
:101FF00082809307800523AAF1827D558280930712
:10200000800523AAF1827D5582809307800523AA4B
:10201000F182014582809307800523AAF1827D55D4
:1020200082809307800523AAF1827D55828000007B
:1020300053797374656D436C6B3A25640D0A000027
:102040004368697049443A253038780D0A00000029
:102050000000000000000000000000000000000080
:102060000000000000000000000000000000000070
:102070000000000000000000000000000000000060
:102080000000000000000000000000000000000050
:102090000000000000000000000000000000000040
:1020A0000000000000000000000000000000000030
:1020B000232D302B20000000686C4C0065666745BE
:1020C00046470000303132333435363738394142F3
:1020D0004344454600000000303132333435363752
:0C20E0003839616263646566000000002E
:1020EC0000000000000000000102030406070809BC
:1020FC0000000000010203040102030406070809A2
:10210C000000000070200000902000005020000013
:10211C0000000000000000000000000000000000B3
:10212C0000000000000000000000000000000000A3
:10213C000000000000000000000000000000000093
:10214C000000000000000000000000000000000083
:10215C000000000000000000000000000000000073
:10216C000044950802040608B80000202000002056
:08217C0020000020000000001B
:00000001FF
