:040000006F00E05558
:100004000000000000000000080200000A020000D6
:10001400000000005C05000000000000000000007B
:100024005C0500005C05000000000000000000000A
:100034005C050000000000005C05000000000000FA
:100044005C0500005C0500005C0500005C05000028
:100054005C0500005C0500005C0500005C05000018
:100064005C0500005C0500005C0500005C05000008
:100074005C0500005C0500005C0500005C050000F8
:100084005C0500005C0500005C0500005C050000E8
:100094005C0500005C0500005C0500005C050000D8
:1000A4005C0500005C0500005C0500005C050000C8
:1000B4005C050000BC0D00005C0500005C05000050
:1000C4005C0500005C0500005C0500005C050000A8
:1000D4005C0500005C0500003C0F00005C050000AE
:1000E4005C0500005C0500005C0500005C05000088
:0C00F4005C0500005C0500005C050000DD
:10010000397101436EC619A0397141536AC866CA74
:1001100062CC5ECE19A0397101535AD056D252D456
:100120004ED64AD826DA22DC06DE330161408282CE
:1001300041114AC026C222C406C68282B24D410184
:10014000024D924C224CB24B4101024B924A224A40
:10015000B2494101024992442244B24041018280A5
:100160003D432A876373C3029377F700BDEFADE584
:10017000937606FF3D8ABA960CC34CC30CC74CC796
:100180004107E36BD7FE11E28280B306C3408A06C3
:100190009702000096966780A6002307B700A30683
:1001A000B7002306B700A305B7002305B700A304D3
:1001B000B7002304B700A303B7002303B700A302CB
:1001C000B7002302B700A301B7002301B700A300C3
:1001D000B7002300B700828093F5F50F9396850052
:1001E000D58D93960501D58D61B79396270097021B
:1001F000000096968682E78086FA9680C1171D8F4A
:100200003E96E374C3F8A5B701A001A0EFF25FF238
:10021000056579718545130545803714014002CA8B
:1002200002CC02CE02D002D202D402D602C402C64E
:1002300023180100012D9307001061498D444C08DB
:1002400013050480FC824ACE26CC55269307002055
:100250004C0813050480FC824ACE26CC492EB707F1
:10026000002083A707081307803E37340140B3D727
:10027000E7022C00130504C023150100FD177C8440
:100280009307703E3EC6ED2BC167938707060C109F
:10029000130504C03ED02313010223140102B1252B
:1002A0000C10130504C07D25130504C08545EF001F
:1002B0004075130504C08145EF00C078130504C0E4
:1002C0008145EF000079130504C08545EF00E07516
:1002D0008545130504C0112F4561ADBDEFF25FE503
:1002E000930500002A84EF00306A634D0502B727AA
:1002F000000083A4076F2285A685EF0090606353FA
:10030000A0002684B727000083A5476F2285EF0051
:100310007070EF10201942054181B7370140239AD0
:10032000A7C20DBD13040000F1BFB737014093878A
:1003300007C0963F1306401F01476364D6001307AA
:10034000803E9ABF8280EFF2BFDE79718522EF0096
:10035000104F716513050520EF007034B7070020BA
:1003600083A50708372500001305856FEF10E02AE5
:10037000952CAA853725000013058570EF10E0291C
:1003800071352944EF00B026EF0070270808EF0010
:1003900010306245335585021375F50FEF0090421A
:1003A000EF00D03E75D10810EF00702E41460C10C2
:1003B0000A85EF10601B0A85EF005042EF00D02B3A
:1003C000E1B7B71702409843B706FFF04111136732
:1003D000170098C3D84337060200758FD8C39843D7
:1003E000B706F7FEFD16758F98C39843B706FCFF56
:1003F000FD16758F98C3D843B70601FFFD16758F9C
:10040000D8C337079F0098C702C402C69843C16685
:10041000558F98C3B716024005679C42F18F3EC6C0
:10042000A24785073EC4B24781E7A247E397E7FEAC
:10043000B71702409C431397E700635707068547A9
:100440003EC632478547631FF704B7170240D843BB
:10045000B706C1FFFD16D8C3D843D8C3D843136726
:100460000740D8C3D843758FD8C3D843B7063D00DB
:10047000558FD8C39843B7060001558F98C398434A
:1004800093166700E3DD06FED843B7160240719B62
:10049000D8C3D84313672700D8C32147DC42B18BA8
:1004A000E39EE7FE4101828002C661BFB7160240AB
:1004B000DC42370700201146B18B13070708638B16
:1004C000C7022146638DC702B7177A0093870720BA
:1004D0001CC3B7170240DC43918393F6F700B707BC
:1004E000002093870700B69794231C43B3D7D70007
:1004F0001CC38280B727B700938707B0D1BFDC4207
:10050000D4424166C983BD8BF18E8907454663930A
:10051000C700C9479DE2B746024083A60680C18A4C
:1005200081CAB7167A0093860620B387D7024DB7E3
:10053000B7163D0093860690CDBFB7160240D44251
:100540001396E60063570600B7965B00938606D8BD
:10055000E9BFB726B700938606B0C1BF01A09701D7
:10056000002093812132175100201301A1A91725E2
:10057000000013056538970500209385A5A813860C
:10058000818163FAC5008322050023A0550011056F
:100590009105E3EAC5FE138581819385C184637764
:1005A000B500232005001105E36DB5FEFD427390F3
:1005B00002BC8D4273904280930280087390023097
:1005C00097020000938242A493E23200739052306B
:1005D000EFF03FDF97020000938222D7739012342E
:1005E00073002030B7F7FF1F03A5477082809C453A
:1005F00013F7070113F8F70001C7D8413368E80083
:1006000037270240145B3707000F758F4DEB854687
:10061000238CD180371701406315E5009A2135837B
:100620009AA18E2113F7F50F39C318418146854EE3
:100630003D4F930F800293028004214E3396DE00DB
:10064000B3F8C500631116039398260033131F01F6
:100650001343F3FF3377E300B318180133E7E800DF
:100660006397F70750C98506E39AC6FD18C11307BB
:10067000F00F6375B70454412146854E3D4F930FEB
:10068000800293028004414EB398CE0033F71501E7
:100690006392E8021317260001173313EF00134388
:1006A000F3FFB376D3003317E800D98E6395F703D1
:1006B000232A15010506E319C6FD54C182803717A8
:1006C0000140E310E5F603C7818121DF81BFE39C90
:1006D00057F810C949BFE39F57FC23281501D9BF1C
:1006E000B71701406316F50083C7818191C3B581B7
:1006F00008456D8D3335A0008280B7170140631621
:10070000F50083C7818191C3B58119C20CC982806C
:100710004CC9828003A7C181854714216310F70269
:100720001C31639CE7023C21960793E707F837E703
:1007300000E093F7F70F36972300F740054793D76C
:1007400056003317D700544189CE938707048A0790
:10075000B7E600E0B69798C38280EDF33C21960798
:10076000F9B793870706E5B7371702405C43914610
:10077000B18B6385D706A1466387D706B7177A0082
:10078000938707201CC1371602405C4237070020C0
:10079000130707019183BD8BBA9794231C41B3D7EC
:1007A000D7005CC15442A1829D8ABA969422B3D6E6
:1007B000D70014C55442AD829D8A36971823B3D70B
:1007C000E7005CC558423983937637001387418030
:1007D00036971823B3D7E7021CC98280B727B70022
:1007E000938707B045B75C435843C166C983BD8B47
:1007F000758F8907C5466393D700C9471DE33747FF
:10080000024003270780418B01CB37177A0013077B
:100810000720B387E702BDB737173D0013070790DE
:10082000CDBF3717024058439316E70063D7060041
:1008300037975B00130707D8E9BF3727B7001307BF
:1008400007B0C1BF99C5371702401C4F5D8D08CF57
:100850008280B7170240984F1345F5FF798D88CFF6
:10086000828099C5371702405C4F5D8D48CF8280EA
:10087000B7170240D84F1345F5FF798DC8CF828056
:100880001E2137370140130707C0C207C183630425
:10089000E502370700406300E50213070740630CD9
:1008A000E50037170040930607806306D50013075D
:1008B00007C06316E500BA2193F7F7F8D98FFA213C
:1008C00093F7F7CFC207C183D98F1EA1DE215EB592
:1008D0009E211EB5B7370140938707C06314F5000A
:1008E0009C251EB985475EA982801E31922103D8BE
:1008F0002500C207C183F99BC207C1831EB11E3107
:1009000056211A2DC207C183420741831377C7F8C6
:10091000518F9225F59BC20633660601D18F37367B
:100920000140130606C0C1826310C502B225DD9BDB
:1009300003D8E500D18FD221ED9B93F6F6CFD18F6E
:10094000D22533660601D18E56A11AADFA215AB9C5
:100950001EB182801E3165771307F7CFC207C183AE
:10096000BD9BC207C1831EB11E31562103D885002D
:10097000C20713960601162DC18393F7F7FD758FF5
:1009800096214182A206558FB62142074183B3E6E4
:1009900006019206D58FB7360140C207938606C07E
:1009A000C183631ED502B62593F7F7F703D8C500B8
:1009B0009206D58FD621C207C183920693F7F7FB23
:1009C000D58FFD769386F63FF18EF225C207C1835F
:1009D000336606010A06D18E13960601418252A1A2
:1009E0001AADFA211ABD1EB182801E2189C593E776
:1009F00017001EA18280C207C183F99BC207C18371
:100A0000CDBF8357450491C52167D98F2312F504C3
:100A10008280C607C583DDBF5E2501C6DD8D4EA57C
:100A2000828093C5F5FFFD8DDDBF1E2189C593E74B
:100A300007081EA18280C207C18393F7F7F7C20798
:100A4000C183C5BF1E2DC207C183DD9BDD8D0EADE9
:100A500082801A2DFD779387F77FF98FA205CD8FBE
:100A6000C207C1831EAD82801E294A25ED8F420533
:100A7000418189C76D8D3335A00082800145828018
:100A800093C5F5FFC205C1810EA98280EFF24FEA3E
:100A90001629F577FD17F58FF621DA257971D58FAF
:100AA0001EA95625FD779387379FF58FD6212A8477
:100AB0002EC6D58F9625D58FB625D58F5EA55E29F6
:100AC000C207C18393F7F7CFD98F5EA96808693948
:100AD000B747014093870780B245631EF402A257CF
:100AE0006547B387E7029841930640060A07B3D7E4
:100AF000E70233D7D702B3F7D702120792079387DB
:100B00002703B3D7D702BD8BD98FC207C1831EA4D9
:100B100045616FF02FE49257E1B791C55E250967F3
:100B2000D98F5EA582805A25F977FD17F98FD5BF39
:100B300013F7F50F85471583B395B7006319F700D1
:100B40009307C500984301CED98D8CC38280894616
:100B500093074501E318D7FE93070501E5B793C551
:100B6000F5FFF98DDDB793F5F51F4EA182804A217F
:100B70001375F51F82800A216D8D3335A0008280A8
:100B800013F7F50F85461583B397B6006311D702A7
:100B90005A25F98F1A2101454207418381CB05452A
:100BA000A181B315B5006D8F3335E0008280894691
:100BB0006314D7001A29F1BF5A29E1BFA1818547E3
:100BC000B397B70093C7F7FFC207C1831EA1828006
:100BD000EFF26FD4371901404111AA8A01449304FE
:100BE00009C093090008214A01469305000426859F
:100BF000293633D689403376560193050008268579
:100C0000ED3C0546930500042685C53C0D450504CD
:100C1000A129E31B44FD91473EC6231231018D47B4
:100C2000130509C04C00B71901403EC49D44C132B0
:100C30000144138909C07D5A0146930500044A8581
:100C40006D3C0546930500044A85453C9305000824
:100C50004A85793433159500498CFD140D4513747C
:100C6000F40F1921E39A44FDC1474C00138509C0D4
:100C70003EC6B53A228541016FF02FCDEFF2AFC9E4
:100C8000B719014005694111AA8A0144938409C03A
:100C9000130B000813090980214A014693050040FF
:100CA0002685A13C33568B4033765601CA8526856E
:100CB000A934054693050040268581340D45050479
:100CC0006526E31C44FD91473EC6856793870780F0
:100CD0007C82138509C08D474C00371A0140856915
:100CE0003EC49D44EFF0BF90014413090AC09389AC
:100CF0000980FD5A0146930500404A85FD3A0546A4
:100D0000930500404A85D53ACE854A85D13A3315B8
:100D10009500498CFD140D451374F40FB126E39B27
:100D200054FDC1474C0013050AC03EC6EFF03F8C8E
:100D3000228541016FF06FC1EFF28FBF41118545F0
:100D400021450936C1473EC68567938707CC3715CD
:100D500001407C824C008D47130505C03EC4EFF076
:100D60001F8941016FF00FBFEFF28FBC0111AA8400
:100D70002E8409458545F534E082370400404C084F
:100D800013050440E484231D0100231B0100CD3C16
:100D900005469305100413050440BD399307D0029E
:100DA0007C868D475C87680085473EC8A5328545AF
:100DB000130504401D3905616FF0CFB937050040B8
:100DC0008545130505404D3119C993870182984324
:100DD000050798C3938741829843050798C3370551
:100DE0000040854513050540613973002030EFF25E
:100DF0002FB49937AD452D45853F6FF0AFB5EFF274
:100E00002FB3938681839387018298469043094547
:100E100023A00700329798C6653B6205618513845D
:100E2000818363580504B727000003A5076FEFF01F
:100E3000EFCA0D45713B1E203E950AA01145493B66
:100E40003E2058443E959387418294432AA0094509
:100E5000369758C423A0070015350D4505355E208B
:100E60003E954AA01145193D7E203E956AA06FF03F
:100E70006FAE1305000065BF9387818323A0070031
:100E800023A2070023A4070023A607008280EFF215
:100E90002FAA414693858183C12D6FF0AFABEFF24E
:100EA0002FA979712A8985453705020002C602C833
:100EB000EFF03F9B85451145EFF0DF9885450545EF
:100EC000EFF05F98371401409147FC828D44E14771
:100ED0004C081305048026CC3ECEEFF04FF1A1471D
:100EE000FC824C08930780041305048026CC374409
:100EF00000403ECEEFF0AFEFB7070C000C1013052B
:100F000004403ED44AD002D223160102413605469F
:100F100093055052130504402139930760137C86D2
:100F200085475C87680085473EC8EFF0AFFE854582
:100F300013050440DD3645616FF0CFA1411126C491
:100F4000B7440040930550521385044022C60D3922
:100F500085476318F5022A841385044009391375FF
:100F6000F50F2384A182C5476316F500A38481820F
:100F7000EFF0AFBB374500409305505213050540D5
:100F800035393244A2444101730020309387918265
:100F90009423054701456395E60023800700054536
:100FA0008280EFF2EF9837440040AA851305044091
:100FB0005D3E130404409305000822856D3E65DD07
:100FC0006FF04F99EFF2CF962A840145D93F2285E1
:100FD000C93F1305F00FF1376FF0CF97EFF2AF93E2
:100FE00083190500031465000319250083144500C7
:100FF0000545453F13950901418121815D3713F571
:10100000F90F45371315090141812181593F1375A6
:10101000F90F413F1395040141812181593713F59F
:10102000F40F413713150401418121819D3F137550
:10103000F40F853F1305F008AD376FF00F91B70738
:10104000002083A7070837177A0013070720B3D7B4
:10105000E70293F7F70F2386F1821307803EB387E9
:10106000E7022395F1828280B7F700E0D8438146FA
:10107000799BD8C303C7C1823306A70290CBD4CBD8
:1010800098431367070198C398431367170298C3DF
:10109000D843058B75DF9843799B98C38280EFF224
:1010A0008F87B7440040AE8932890144938404405D
:1010B000634524014A856FF04F8993050004268516
:1010C000EFF07FAB7DD9B387890083850700268544
:1010D0000504C205C181EFF01FA9D9BF1387818024
:1010E0001C439386C1843E95636BD500B7560020A0
:1010F0009386068063E5A60008C33E858280FD577F
:10110000EDBF93567501B7078000FD1713D6750123
:1011100093F6F60F1308F00FB3F8A7001357F50175
:10112000ED8F1376F60FFD8163810603630C0601D4
:101130008DE211E2B1C3638E08026305B704054571
:101140001DE78280F5D779558280E39E08FE63090A
:10115000D60211E2EDD7E314B7FEE342D6FE63C731
:10116000C600E3EE17FD0145E3FDF8FC01E77D5500
:101170008280F5DD054582800145E39208FC82808E
:10118000F9DBD1B78146E1BF93567501B7078000FF
:10119000FD1713D6750193F6F60F1308F00FB3F889
:1011A000A7001357F501ED8F1376F60FFD816387C6
:1011B00006036309060185EA11EA89EB0145639B91
:1011C000080082800945F5FFE5DA31A8638C080242
:1011D0006300B704054575D77D558280094563983E
:1011E00008026304D60211E2F5D7E315B7FEE34324
:1011F000D6FE63C7C600E3EF17FD0145E3F3F8FC35
:1012000019E3D9BFF1D905458280E5D38280828078
:101210008146C5B7797122D4135475014ECE52CC94
:101220009319950006D626D24AD056CA5AC81374C6
:10123000F40F93D99900135AF50169C49307F00F7D
:101240006308F40E9397390037070004B3E9E70009
:10125000130414F88144014B13D77501939A950038
:101260001377F70F93DA9A0013D9F50145CF930757
:10127000F00F630CF7028E0A130717F8B707000484
:10128000B3EAFA003A94014633452A01BD47AA86DB
:101290009305140063E09710171700001307074821
:1012A0008A04BA949C40BA9782871304F40F639619
:1012B0000A0C93E424000946C1BF01451307F00F4F
:1012C000B7074000B2502254A6075E07A5837E05EB
:1012D000D98F92540259F249624AD24A424B5D8DEB
:1012E00045618280CA86D689328B8947630FFB08A5
:1012F0008D47E304FBFC854736856310FB1A0147E5
:101300008147C9B7639D090413D77501939A950066
:101310001377F70F91440144054B93DA9A0013D9E0
:10132000F50131F7639D0A0093E414000546A9BF57
:1013300063920902A1441304F00F094B31BF568593
:101340006D2A9307B5FF098CB39AFA001304A4F829
:1013500001461DBFB1441304F00F0D4BF5BD4E8582
:101360002EC6612A9307B5FF1304A0F8B399F900BC
:10137000098C8144014BB245C5B593E434000D4658
:1013800021B78947D286E315FBF636851307F00FA0
:1013900081470DBF41639306F3FF13D6090193D82C
:1013A0000A01B3F7D900B3FADA0033885703B389D7
:1013B000F80213570801B30A5603D6994E9733061D
:1013C0001603637357011A96C167FD17B376F700CA
:1013D0003378F800C206C2969399660093570701C6
:1013E000B3393001E982B2979A07B3E6D900B3E97D
:1013F000D7009397490063D9070013D7190093F7D3
:101400001900B369F7002E841307F4076350E00452
:1014100093F7790099C793F7F90091466383D70052
:1014200091099397490063D90700B70700F8FD17A2
:10143000B3F9F900130704089307E00F63CBE7043F
:1014400093976900A5831377F70FADBD8547B386E2
:10145000E74011C76D4601478147E345D6E61307CC
:10146000E4093397E9003337E000B3D7D900D98FC7
:1014700013F7770019C713F7F70091466303D700F6
:10148000910713975700634C07009A07A5830147FC
:1014900015BD1307F00F814735B52E84B5B7054745
:1014A00081470DB513577501370680009307F6FF86
:1014B0001377F70F9305E007B3F6A7009357F501ED
:1014C000014563F4E50099C3828082809307E009B7
:1014D0007D55E3EBE7FE93055009B3E7C60063D7FC
:1014E000E5001307A7F63395E7008280130560092E
:1014F0003307E54033D5E7008280C167637CF5029E
:101500009307F00F1307000263EBA7009717000083
:101510009387C724AA9788233305A7408280218117
:101520009717000093878723AA978823614733057D
:10153000A7408280B7070001636DF50061819717AE
:1015400000009387A721AA97882321473305A74046
:10155000828041819717000093874720AA978823AC
:1015600041473305A7408280B3C7A5008D8B330761
:10157000C50081E78D4763EDC700AA87637EE50854
:10158000942185078505A38FD7FEE3EBE7FE8280D4
:1015900093763500AA8789CA942185078505A38F8C
:1015A000D7FE93F63700C5BF9376C7FF138606FEB6
:1015B00063F0C70683A3050083A2450083AF8500BF
:1015C00003AFC50083AE050103AE450103A385014A
:1015D00083A8C5019385450223A0770003A8C5FF12
:1015E00023A2570023A4F70123A6E70123A8D701CC
:1015F00023AAC70123AC670023AE170193874702D4
:1016000023AE07FF75B790419107910523AEC7FE42
:10161000E3EBD7FEE3E6E7F6828039713EDA2ED2BD
:1016200032D436D63AD842DC46DE9387C18022CC0B
:10163000804326CA06CEAA8409C41C4C99E322859D
:10164000F9200C4454102686228536C6A526F24081
:101650006244D24421618280411122C406C62A8498
:101660004EA572A523200500232205002324050092
:101670002322050623280500232A0500232C050024
:10168000214681451305C505EFE09FAD9717000082
:10169000938767985CD0971700009387879A1CD42C
:1016A000971700009387679E5CD497170000938775
:1016B000C7A000D01CD8B2402244410182809715B7
:1016C0000000938505D4A9A2411126C21306800605
:1016D0009384F5FFB384C4024AC02E8922C406C68F
:1016E00093854407592A2A8401CD2320050023220B
:1016F0002501310508C4138684068145EFE05FA605
:101700002285B240224492440249410182801C4D0C
:10171000ADE3411106C622C497070000938767FA1C
:101720001CD5938701819C432324050423260504AB
:10173000232805046314F50085471CCD2A841D2841
:1017400048C02285052808C422852D2048C4484069
:1017500001469145113708440546A545F53D4844E5
:101760000946C945D53D85471CCCB24022444101BC
:101770008280828041119387018126C284434AC0BE
:1017800006C69C4C22C42A8999E32685493793844E
:1017900084048044DC40FD1763D607009C40B9CF29
:1017A0008440C5BF0317C40039E7C17785072322EA
:1017B00004062320040023220400232404005CC424
:1017C00023280400232A0400232C040021468145F9
:1017D0001305C405EFE0DF98232A0402232C04023A
:1017E00023240404232604042285B2402244924484
:1017F0000249410182801304840671BF91454A85E4
:10180000E13588C051FDB1472320F9000144E9BF0B
:10181000797122D44AD052CC56CA5AC85EC606D66E
:1018200026D24ECE2A8AAE8A130485040149054B7E
:10183000FD5B09ECB25022544A8592540259F24998
:10184000624AD24A424BB24B4561828004448329AA
:101850004400FD1963D409000040E1BFDE24637B2E
:10186000FB008397E40063877701A6855285829AFF
:101870003369A90093848406E9BF011126CA9384C1
:101880003500F19806CE22CC4AC84EC6A104B14715
:1018900063F3F404B14463E2B4042A89EF00304FE7
:1018A0009387018398433A8439E0938741839C432B
:1018B00091E781454A850D2F23AAA182A6854A85F5
:1018C0002527FD5963193507B1472320F9004A85BB
:1018D000EF00104C29A0E3D004FCB1471CC1014526
:1018E000F2406244D2444249B249056182801C40C0
:1018F000858F63CF0702AD4663F6F6001CC03E94A9
:1019000004C031A05C406313870223A8F1824A859A
:10191000EF0010481305B4009307440061993307A2
:10192000F5405DDF3A94898F1CC05DBF5CC3C5B7CD
:101930002287404095BF130435007198E30285FC6F
:10194000B305A4404A854D25E31C35FBB5BF1C46B5
:10195000FD171CC663D90700184E63C5E700A947E9
:101960006393F500A1AF1C422E851387170018C2A0
:101970008CA38280011122CC26CA4AC84EC652C40A
:1019800006CE2A89AE893284B304D6007D5A631408
:101990009400014501A80C204E864A854D3F050460
:1019A000E31745FFF2406244D2444249B249224A19
:1019B00005618280357122CD26CB4AC94EC706CF3C
:1019C00052C556C35AC1DEDEE2DCE6DAAA89AE842D
:1019D0003289368401C51C4D91E3153B97170000F1
:1019E0009387C7E96398F40C83A44900DE24A18B94
:1019F000E5C79C48F5C393070002A304F1029307CF
:101A0000000302D22305F10222C6930B5002971A5B
:101A10000000938AAAEA054C294B4A841C2099C3EA
:101A2000639E770DB30C2441638D0C00E6864A86D5
:101A3000A6854E858137FD576301F51E9256E696C1
:101A400036D21C20638B071CFD571309140002C8F3
:101A500002CE3ECA02CCA309010482D48345090008
:101A600015465685EF00303113041900C24749E985
:101A700013F7070109C713070002A309E10413F7CD
:101A8000870009C71307B002A309E10483460900D0
:101A90001307A002638EE606F2474A848146254674
:101AA000182093051400130707FD6376E60AADCAF4
:101AB0003ECEBDA097170000938747DE6395F400E4
:101AC00083A4890025B797170000938727D9E39F40
:101AD000F4F083A4C90019BFA6854E85F12501DD68
:101AE0007D55FA406A44DA444A49BA492A4A9A4A30
:101AF0000A4BF65B665CD65C0D618280050439BFDB
:101B0000330555413315AC00C98F3EC82289B9B79A
:101B1000324793064700184336C6634707023ACE5A
:101B200018209307E002631DF70418309307A00202
:101B3000631BF702B2470904138747009C433AC668
:101B400063C107023ECA2DA83307E04093E7270090
:101B50003ACE3EC8F1B7B387670385462E84BA975D
:101B600081B7FD57C5B7050402CA8146814725469E
:101B7000182093051400130707FD6376E606F9F2B3
:101B80000C200D46171500001305C5D3EF00B01E3D
:101B900011CD971700009387E7D21D8D930700049E
:101BA000B397A700424505045D8D2AC80C2019464D
:101BB00017150000130545D1130914002304B102C1
:101BC000EF00701B35C197E7FFFF9387A74395E7A9
:101BD0004247B2471377071009CF91073EC6925785
:101BE000D2973ED21DBDB387670385462E84BA9730
:101BF00041B79D07E19BA107D5B778009706000084
:101C0000938686D726860C084E8597000000E7004D
:101C10000000FD572A8AE314F5FCDE2493F707043D
:101C2000E39007EC125575BD780097060000938687
:101C3000A6D426860C084E85012AE1BF797156CAC2
:101C40009C49BA8A984522D426D24ECE52CC06D68A
:101C50004AD05AC85EC6AA892E84B284368A63D313
:101C6000E700BA879CC00347340419C385079CC0AA
:101C70001C4093F7070281C79C4089079CC0032939
:101C8000040013796900631A0900130B9401FD5BCA
:101C90005C449840998F634CF9041C40834634049B
:101CA00093F70702B336D000A5EB13063404D285B0
:101CB0004E85829AFD576303F5041C4011469840F7
:101CC000998B544481446397C700B384E64063D33F
:101CD000040081441C4418486354F700998FBE9453
:101CE000014969047D5B63982405014509A885467F
:101CF0005A86D2854E85829A631E75017D55B250F3
:101D0000225492540259F249624AD24A424BB24B8F
:101D1000456182800509ADBF3307D4001306000377
:101D2000A301C7040347540493871600A2978906AA
:101D3000A381E7049DBF85462286D2854E85829A7F
:101D4000E30E65FB050945B7797122D426D24AD046
:101D50004ECE06D652CC56CA5AC8B689942D930791
:101D600090063289AA842E8413863504638DF60288
:101D700063E2D706930780056385F61863EDD70005
:101D8000638D062093073004638EF60A930A2404B9
:101D90002301D404C9A0930730066385F60A93078C
:101DA0004006E395F6FE1C40084393F607089305AA
:101DB0004500C5C61C410CC363D807001307D002F9
:101DC000B307F040A301E40497160000938646B0E1
:101DD000294765A8930700076381F61663E5D702D4
:101DE0009307E0066388F6189307F006E390F6FA87
:101DF0000C401C4313F805081385470063070806C9
:101E000008C39C4385A893075007E383F6FE930716
:101E100080076388F61293073007E399F6F61C43B0
:101E2000D04181459386470014C383AA0700568595
:101E3000992701C53305554148C05C401CC8A30122
:101E4000040461A81C43930A2404938647009C431E
:101E500014C32301F4048547D5B793F607041C4146
:101E60000CC3B9DAC207C18781BF93F5050408C363
:101E7000C9D99E231307F0066386E60E9716000065
:101E8000938606A52947A30104044C400CC463C5EE
:101E9000050008406D9908C099E3B28A89CDB28ADD
:101EA000B3F5E702FD1AB6958C212380BA00B3D5AD
:101EB000E70263FFE70AA147631EF7001C40858B1A
:101EC00091CB58401C4863C7E70093070003A38FDA
:101ED000FAFEFD1A3306564110C84E87CA867000B6
:101EE000A2852685A13B7D5A631D450B7D55B250C9
:101EF000225492540259F249624AD24A424B4561F5
:101F00008280A382D504971600009386669C0C40BD
:101F1000084313F805081C411105630D080208C3A6
:101F200013F7150001C793E505020CC04147A1FF57
:101F30000C4093F5F5FD0CC0B9B79C4193E707023F
:101F40009CC193078007A302F404971600009386B0
:101F5000669975BF13F8050408C3E30308FCC207BC
:101F6000C1837DBF9716000093868696214721BFC7
:101F7000AE873DB794411C43CC4913F8060813853E
:101F800047006306080008C39C438CC339A008C3FC
:101F900093F606049C43F5DA8EA323280400B28A44
:101FA0002DBF14485686CA8526858299E30045F5DB
:101FB0001C40898B8DE7B2474844E35AF5F23E85D1
:101FC0003DB785465686CA8526858299E30065F326
:101FD000050A5C443247998FE345FAFEE9BF014A9E
:101FE000930A94017D5BF5B7411122C42A842E85A2
:101FF00023A4018406C6EFF06F8EFD576317F5002A
:10200000938781849C4391C31CC0B2402244410108
:102010008280411122C42E848395E50006C6212DBD
:10202000634905007C48AA977CC8B240224441011C
:1020300082805E247D777D17F98F5EA4FDB7DE2553
:10204000011122CC26CA4AC84EC606CE93F7071005
:10205000AA842E843289B68991C78395E500894682
:10206000014609215E247D777D17F98F5EA48315D3
:10207000E4006244F240CE864A86B249424926854F
:10208000D2440561DDA8411122C42E848395E50068
:1020900006C6C92EFD575A24631AF500FD77FD17B1
:1020A000F98F5EA4B2402244410182808567D98FB6
:1020B0005EA468C8C5BF8395E500F5A2011122CCD6
:1020C00026CA4AC806CE4EC6AA842E89328409C5BD
:1020D0001C4D99E3EFF0AFE3970700009387077A71
:1020E0006317F406C0401C4C1CC45E24A18BC1C302
:1020F0001C48B5CF1C4808409379F90F1379F90FA4
:102100001D8D5C486346F500A2852685CD2C25E50E
:102110001C440505FD171CC41C401387170018C07C
:10212000238037015C486388A7005E24858B81CBC0
:10213000A9476316F900A2852685D1240DEDF2404A
:1021400062444A85D2444249B24905618280970778
:1021500000009387A7746314F400804469B797075D
:1021600000009387A76FE310F4F8C044ADBFA285C9
:1021700026851D2841D17D59D9B7411122C42A8411
:102180002E85B285368623A4018406C6EFE03FF192
:10219000FD576317F500938781849C4391C31CC04E
:1021A000B24022444101828041119387C18026C2FE
:1021B000844322C44AC006C62A892E8491C49C4CFA
:1021C00081E72685EFF0AFD4970700009387076B70
:1021D000631BF402C0400317C40093170701C183B7
:1021E00093F68700ADEA93F6070195EEA547232005
:1021F000F900136707045AA47D55B2402244924463
:102200000249410182809707000093872769631480
:10221000F4008044C9B79707000093872764E31C44
:10222000F4FAC0444DBF918B9DC34C5889C99307A4
:1022300044046384F5004A85A92E232A04025E24FF
:102240002322040093F7B7FD5EA41C481CC05E2443
:1022500093E787005EA41C4899EB5E2413070020D7
:1022600093F707286385E700A2854A85AD2C5E2495
:1022700013F717001DC35C4823240400B307F04084
:102280001CCC1C480145B5FB8317C40013F7070895
:102290002DD793E707045EA485B7898B014791E3A7
:1022A000584818C4F9BF411122C42A842E8523A49A
:1022B000018406C60121FD576317F50093878184C9
:1022C0009C4391C31CC0B240224441018280DE2560
:1022D000011122CC26CA06CE4AC84EC613F7870083
:1022E000AA842E8479EBD841634DE000B841634A5B
:1022F000E0000145F2406244D2444249B2490561DE
:10230000828058547DD703A904009396370123A0F7
:10231000040063DB060670485E24918B99C75C401D
:102320001D8E5C5899C33C401D8E5C540C508146F8
:1023300026858297FD575A24631DF5009440F54782
:1023400063E8D706B70740208507B3D7D700858B4A
:10235000A5C31C48232204001CC09317370163D86F
:102360000700FD576314F5009C4091E368C84C5882
:1023700023A02401BDDD930744046384F500268572
:10238000092C232A0402B5B70C5001468546268540
:102390000297FD572A86E311F5F89C40B5DF754793
:1023A0006385E70059476393E70423A0240191B7AD
:1023B000136707045AA47D5535BF83A90501E38A35
:1023C00009F203A905008D8B23A03501330939419A
:1023D000014791E3D84918C4E35D20F11C540C5027
:1023E000CA864E86268582976347A0005E2493E7BF
:1023F00007045EA4C9B7AA993309A940F1BF9C4953
:10240000A5C3011122CC06CE2A8419C51C4D89E72B
:102410002EC6EFF0CFAFB24597070000938707466F
:10242000639BF5004C408397C50095C722856244A5
:10243000F240056169BD97070000938727466394C2
:10244000F5000C44CDB79707000093872741E39C24
:10245000F5FC4C44C9BFF2406244014505618280ED
:1024600001458280411122C42A842E85B285368698
:1024700023A4018406C68D24FD576317F5009387B6
:1024800081849C4391C31CC0B2402244410182809C
:102490001971A6DAAE848395E500A2DC86DE32846B
:1024A00063DB0500DE2423A0060093F707089DE305
:1024B0009307004015A0300836C66522B246E343B4
:1024C00005FE7247BD67F98F7977BA9793B7170002
:1024D0009CC2F9BF930700041CC0F6506654D65442
:1024E000014509618280DE25011122CC06CE26CA73
:1024F0004AC8898B2E8489CF930774041CC01CC8DA
:1025000085475CC8F2406244D244424905618280FA
:1025100074003000AA84AD3FA2452A892685EFF0D9
:10252000CFB519E98317C40013F7072061FFF19BAA
:1025300093E727005EA4C9B797F7FFFF9387671853
:102540009CD45E2408C008C893E707085EA4A2478D
:102550005CC8B24799CB8315E4002685052A11C5CE
:102560005E24F19B93E717005EA45E243369F900B3
:102570002316240141BF93F5F50F2A966314C50075
:10258000014582801C21E38EB7FE0505C5BF828010
:102590008280CDC183A7C5FF411122C406C626C2D1
:1025A0001384C5FF63D307003E94AA84CD37938775
:1025B00001839C4399EB2322040023A881822244B7
:1025C000B240268592444101E1B7637EF400144095
:1025D0003307D4006396E7009843DC43369718C06E
:1025E0005CC0E1BFBA87D84319C3E37DE4FE9443DE
:1025F0003386D700631F86001040B29694C333869B
:10260000D700E31EC7FA10435843B29694C3D8C309
:102610007DB76375C400B1479CC055B71040B30681
:10262000C4006316D70014435843B29614C058C070
:10263000C0C371B78280411122C42A842E85B2851D
:10264000368623A4018406C67128FD576317F5005A
:10265000938781849C4391C31CC0B24022444101B2
:102660008280411122C42A842E85B28523A401844C
:1026700006C6B920FD576317F500938781849C43F4
:1026800091C31CC0B240224441018280411122C446
:102690002A842E8523A4018406C60D28FD576317BE
:1026A000F500938781849C4391C31CC0B2402244AF
:1026B000410182809307800523A4F1847D558280A7
:1026C0009307800523A4F1847D55828093078005BC
:1026D00023A4F184014582809307800523A4F1841B
:1026E0007D5582809307800523A4F1847D558280E7
:1026F0000000803F00007A4453797374656D436C29
:102700006B3A25640D0A00004368697049443A2514
:102710003038780D0A0000007CECFFFFCEEBFFFFA5
:10272000CEEBFFFFCCEBFFFFD2EBFFFFD2EBFFFFC7
:10273000A2EBFFFFCCEBFFFFD2EBFFFFA2EBFFFF13
:10274000D2EBFFFFCCEBFFFF6AECFFFF6AECFFFF71
:102750006AECFFFFA2EBFFFF000102020303030389
:102760000404040404040404050505050505050521
:102770000505050505050505060606060606060601
:1027800006060606060606060606060606060606E9
:1027900006060606060606060707070707070707D1
:1027A00007070707070707070707070707070707B9
:1027B00007070707070707070707070707070707A9
:1027C0000707070707070707070707070707070799
:1027D0000707070707070707080808080808080881
:1027E0000808080808080808080808080808080869
:1027F0000808080808080808080808080808080859
:102800000808080808080808080808080808080848
:102810000808080808080808080808080808080838
:102820000808080808080808080808080808080828
:102830000808080808080808080808080808080818
:102840000808080808080808080808080808080808
:102850000808080808080808000000000000000038
:102860000000000000000000000000000000000068
:102870000000000000000000000000000000000058
:102880000000000000000000000000000000000048
:102890000000000000000000000000000000000038
:1028A0000000000000000000000000000000000028
:1028B0000000000000000000232D302B200000004D
:1028C000686C4C006566674546470000303132331E
:1028D000343536373839414243444546000000001C
:1028E0003031323334353637383961626364656686
:0428F00000000000E4
:1028F40000000000000000000102030406070809AC
:102904000000000001020304010203040607080991
:1029140000000000782800009828000058280000D3
:1029240000000000000000000000000000000000A3
:102934000000000000000000000000000000000093
:102944000000000000000000000000000000000083
:102954000000000000000000000000000000000073
:102964000000000000000000000000000000000063
:102974000044950802040608CC0000202000002032
:0829840020000020000000000B
:00000001FF
