:040000006F00004449
:100004000000000000000000600100006201000028
:10001400000000003E04000000000000000000009A
:100024003E0400003E040000000000000000000048
:1000340086020000000000003E04000000000000F2
:100044003E0400003E0400003E0400003E040000A4
:100054003E0400003E0400003E0400003E04000094
:100064003E0400003E0400003E0400003E04000084
:100074003E0400003E0400003E0400003E04000074
:100084003E0400003E0400003E0400003E04000064
:100094003E0400003E0400003E0400003E04000054
:1000A4003E0400003E0400003E0400003E04000044
:1000B4003E0400003E0400003E0400003E04000034
:1000C4003E0400003E0400003E0400003E04000024
:1000D4003E0400003E0400003E0400003E04000014
:1000E4003E0400003E0400003E0400003E04000004
:0C00F4003E0400003E0400003E0400003A
:10010000397101436EC619A0397141536AC866CA74
:1001100062CC5ECE19A0397101535AD056D252D456
:100120004ED64AD826DA22DC06DE330161408282CE
:1001300041114AC026C222C406C68282B24D410184
:10014000024D924C224CB24B4101024B924A224A40
:10015000B2494101024992442244B24041018280A5
:1001600001A001A0EFF25FFA83D7C1801307B003AB
:100170009384C1806393E70693870181984323901A
:100180000400050798C383C6E18013874199369719
:1001900014237D47138941991384E180636ED7024C
:1001A00093894181314BFD5B182003A501818E208D
:1001B00083A68180014813868180B308E90083C744
:1001C0000800B3876703CE9703A30700637AA300F1
:1001D0006304080014C218A0A5B785079EA065B7E0
:1001E00003D34700E366B3FE9447050723A4070043
:1001F00023A0070023920700238078017D8B054808
:10020000CDDE14C218A0829645B7054723A8018009
:100210002396E1802387018093874181014793865C
:1002200041997D5513060002B385E60023A407001B
:1002300023A007002392070088A10507B107E31553
:10024000C7FEB7F700E023A20700814694C7014725
:10025000D8C737070020032707019306803E33578E
:10026000D70281461306F7FF90CBD4CB3D4798C306
:10027000B7E700E005472386E740056723A0E710BE
:10028000828001E18280B7F700E023A20700D93D18
:1002900073002030EFF2DFE9DD28853F13054006CB
:1002A000CD37EDBFB71702409843B706FFF04111B5
:1002B0001367170098C3D84337060200758FD8C359
:1002C0009843B706F7FEFD16758F98C39843B70697
:1002D000FCFFFD16758F98C3D843B70601FFFD16C6
:1002E000758FD8C337079F0098C702C402C69843CA
:1002F000C166558F98C3B716024005679C42F18FBF
:100300003EC6A24785073EC4B24781E7A247E397AE
:10031000E7FEB71702409C431397E70063570706B1
:1003200085473EC632478547631FF704B71702402B
:10033000D843B706C1FFFD16D8C3D843D8C3D843A6
:1003400013670740D8C3D843758FD8C3D843B706BF
:100350003D00558FD8C39843B7060001558F98C309
:10036000984393166700E3DD06FED843B7160240B4
:10037000719BD8C3D84313672700D8C32147DC42F9
:10038000B18BE39EE7FE4101828002C661BFB716D2
:100390000240DC42370700201146B18B13070701EA
:1003A000638BC7022146638DC702B7177A00938714
:1003B00007201CC3B7170240DC43918393F6F70074
:1003C000B707002093870700B69794231C43B3D741
:1003D000D7001CC38280B727B700938707B0D1BF6F
:1003E000DC42D4424166C983BD8BF18E8907454604
:1003F0006393C700C9479DE2B746024083A60680C3
:10040000C18A81CAB7167A0093860620B387D702BD
:100410004DB7B7163D0093860690CDBFB716024084
:10042000D4421396E60063570600B7965B009386A6
:1004300006D8E9BFB726B700938606B0C1BF01A0B2
:10044000970100209381013D17510020130181BBCA
:100450001305404C970500209385C5BA138681800B
:1004600063FAC5008322050023A0550011059105FC
:10047000E3EAC5FE138581809385419B6377B500D0
:10048000232005001105E36DB5FEFD42739002BC0B
:100490008D427390428093028008739002309702DD
:1004A0000000938262B693E2320073905230EFF014
:1004B0007FDF97020000938222DE73901234730074
:0404C00020300000E8
:1004C4000000000000000000010203040607080900
:0804D40000449508000000003F
:00000001FF
